{"contracts/Gateway.sol":{"Gateway":{"abi":[{"inputs":[{"internalType":"address","name":"relayer","type":"address"},{"internalType":"address","name":"verifier","type":"address"},{"internalType":"address","name":"coin","type":"address"}],"stateMutability":"nonpayable","type":"constructor"},{"inputs":[{"internalType":"address","name":"owner","type":"address"}],"name":"OwnableInvalidOwner","type":"error"},{"inputs":[{"internalType":"address","name":"account","type":"address"}],"name":"OwnableUnauthorizedAccount","type":"error"},{"anonymous":false,"inputs":[{"indexed":true,"internalType":"address","name":"previousOwner","type":"address"},{"indexed":true,"internalType":"address","name":"newOwner","type":"address"}],"name":"OwnershipTransferred","type":"event"},{"anonymous":false,"inputs":[],"name":"TokensBridged","type":"event"},{"inputs":[],"name":"coinContract","outputs":[{"internalType":"contract IERC20Bridge","name":"","type":"address"}],"stateMutability":"view","type":"function"},{"inputs":[{"components":[{"internalType":"bytes32[]","name":"merkleProof","type":"bytes32[]"},{"components":[{"internalType":"bytes32","name":"attestationType","type":"bytes32"},{"internalType":"bytes32","name":"sourceId","type":"bytes32"},{"internalType":"uint64","name":"votingRound","type":"uint64"},{"internalType":"uint64","name":"lowestUsedTimestamp","type":"uint64"},{"components":[{"internalType":"bytes32","name":"transactionHash","type":"bytes32"},{"internalType":"uint16","name":"requiredConfirmations","type":"uint16"},{"internalType":"bool","name":"provideInput","type":"bool"},{"internalType":"bool","name":"listEvents","type":"bool"},{"internalType":"uint32[]","name":"logIndices","type":"uint32[]"}],"internalType":"struct EVMTransaction.RequestBody","name":"requestBody","type":"tuple"},{"components":[{"internalType":"uint64","name":"blockNumber","type":"uint64"},{"internalType":"uint64","name":"timestamp","type":"uint64"},{"internalType":"address","name":"sourceAddress","type":"address"},{"internalType":"bool","name":"isDeployment","type":"bool"},{"internalType":"address","name":"receivingAddress","type":"address"},{"internalType":"uint256","name":"value","type":"uint256"},{"internalType":"bytes","name":"input","type":"bytes"},{"internalType":"uint8","name":"status","type":"uint8"},{"components":[{"internalType":"uint32","name":"logIndex","type":"uint32"},{"internalType":"address","name":"emitterAddress","type":"address"},{"internalType":"bytes32[]","name":"topics","type":"bytes32[]"},{"internalType":"bytes","name":"data","type":"bytes"},{"internalType":"bool","name":"removed","type":"bool"}],"internalType":"struct EVMTransaction.Event[]","name":"events","type":"tuple[]"}],"internalType":"struct EVMTransaction.ResponseBody","name":"responseBody","type":"tuple"}],"internalType":"struct EVMTransaction.Response","name":"data","type":"tuple"}],"internalType":"struct EVMTransaction.Proof","name":"transaction","type":"tuple"},{"internalType":"address","name":"tokenAddress","type":"address"},{"internalType":"address","name":"to","type":"address"},{"internalType":"uint256","name":"amount","type":"uint256"}],"name":"isBurnProofValid","outputs":[{"internalType":"bool","name":"","type":"bool"}],"stateMutability":"view","type":"function"},{"inputs":[{"components":[{"internalType":"bytes32[]","name":"merkleProof","type":"bytes32[]"},{"components":[{"internalType":"bytes32","name":"attestationType","type":"bytes32"},{"internalType":"bytes32","name":"sourceId","type":"bytes32"},{"internalType":"uint64","name":"votingRound","type":"uint64"},{"internalType":"uint64","name":"lowestUsedTimestamp","type":"uint64"},{"components":[{"internalType":"bytes32","name":"transactionHash","type":"bytes32"},{"internalType":"uint16","name":"requiredConfirmations","type":"uint16"},{"internalType":"bool","name":"provideInput","type":"bool"},{"internalType":"bool","name":"listEvents","type":"bool"},{"internalType":"uint32[]","name":"logIndices","type":"uint32[]"}],"internalType":"struct EVMTransaction.RequestBody","name":"requestBody","type":"tuple"},{"components":[{"internalType":"uint64","name":"blockNumber","type":"uint64"},{"internalType":"uint64","name":"timestamp","type":"uint64"},{"internalType":"address","name":"sourceAddress","type":"address"},{"internalType":"bool","name":"isDeployment","type":"bool"},{"internalType":"address","name":"receivingAddress","type":"address"},{"internalType":"uint256","name":"value","type":"uint256"},{"internalType":"bytes","name":"input","type":"bytes"},{"internalType":"uint8","name":"status","type":"uint8"},{"components":[{"internalType":"uint32","name":"logIndex","type":"uint32"},{"internalType":"address","name":"emitterAddress","type":"address"},{"internalType":"bytes32[]","name":"topics","type":"bytes32[]"},{"internalType":"bytes","name":"data","type":"bytes"},{"internalType":"bool","name":"removed","type":"bool"}],"internalType":"struct EVMTransaction.Event[]","name":"events","type":"tuple[]"}],"internalType":"struct EVMTransaction.ResponseBody","name":"responseBody","type":"tuple"}],"internalType":"struct EVMTransaction.Response","name":"data","type":"tuple"}],"internalType":"struct EVMTransaction.Proof","name":"transaction","type":"tuple"}],"name":"isEVMTransactionProofValid","outputs":[{"internalType":"bool","name":"","type":"bool"}],"stateMutability":"view","type":"function"},{"inputs":[],"name":"owner","outputs":[{"internalType":"address","name":"","type":"address"}],"stateMutability":"view","type":"function"},{"inputs":[{"internalType":"address","name":"to","type":"address"},{"internalType":"uint256","name":"amount","type":"uint256"},{"components":[{"internalType":"bytes32[]","name":"merkleProof","type":"bytes32[]"},{"components":[{"internalType":"bytes32","name":"attestationType","type":"bytes32"},{"internalType":"bytes32","name":"sourceId","type":"bytes32"},{"internalType":"uint64","name":"votingRound","type":"uint64"},{"internalType":"uint64","name":"lowestUsedTimestamp","type":"uint64"},{"components":[{"internalType":"bytes32","name":"transactionHash","type":"bytes32"},{"internalType":"uint16","name":"requiredConfirmations","type":"uint16"},{"internalType":"bool","name":"provideInput","type":"bool"},{"internalType":"bool","name":"listEvents","type":"bool"},{"internalType":"uint32[]","name":"logIndices","type":"uint32[]"}],"internalType":"struct EVMTransaction.RequestBody","name":"requestBody","type":"tuple"},{"components":[{"internalType":"uint64","name":"blockNumber","type":"uint64"},{"internalType":"uint64","name":"timestamp","type":"uint64"},{"internalType":"address","name":"sourceAddress","type":"address"},{"internalType":"bool","name":"isDeployment","type":"bool"},{"internalType":"address","name":"receivingAddress","type":"address"},{"internalType":"uint256","name":"value","type":"uint256"},{"internalType":"bytes","name":"input","type":"bytes"},{"internalType":"uint8","name":"status","type":"uint8"},{"components":[{"internalType":"uint32","name":"logIndex","type":"uint32"},{"internalType":"address","name":"emitterAddress","type":"address"},{"internalType":"bytes32[]","name":"topics","type":"bytes32[]"},{"internalType":"bytes","name":"data","type":"bytes"},{"internalType":"bool","name":"removed","type":"bool"}],"internalType":"struct EVMTransaction.Event[]","name":"events","type":"tuple[]"}],"internalType":"struct EVMTransaction.ResponseBody","name":"responseBody","type":"tuple"}],"internalType":"struct EVMTransaction.Response","name":"data","type":"tuple"}],"internalType":"struct EVMTransaction.Proof","name":"transaction","type":"tuple"}],"name":"receiveToken","outputs":[],"stateMutability":"nonpayable","type":"function"},{"inputs":[],"name":"relayerContract","outputs":[{"internalType":"contract IRelayer","name":"","type":"address"}],"stateMutability":"view","type":"function"},{"inputs":[],"name":"renounceOwnership","outputs":[],"stateMutability":"nonpayable","type":"function"},{"inputs":[{"internalType":"uint256","name":"amount","type":"uint256"}],"name":"sendToken","outputs":[],"stateMutability":"nonpayable","type":"function"},{"inputs":[{"internalType":"address","name":"_bridgedContract","type":"address"}],"name":"setBridgedCoinContract","outputs":[],"stateMutability":"nonpayable","type":"function"},{"inputs":[{"internalType":"address","name":"_target","type":"address"}],"name":"setRelay","outputs":[],"stateMutability":"nonpayable","type":"function"},{"inputs":[{"internalType":"address","name":"newOwner","type":"address"}],"name":"transferOwnership","outputs":[],"stateMutability":"nonpayable","type":"function"},{"inputs":[],"name":"verifierContract","outputs":[{"internalType":"contract IEVMTransactionVerification","name":"","type":"address"}],"stateMutability":"view","type":"function"}],"evm":{"bytecode":{"linkReferences":{},"object":"60806040523480156200001157600080fd5b50604051620022ad380380620022ad8339818101604052810190620000379190620002b9565b33600073ffffffffffffffffffffffffffffffffffffffff168173ffffffffffffffffffffffffffffffffffffffff1603620000ad5760006040517f1e4fbdf7000000000000000000000000000000000000000000000000000000008152600401620000a4919062000326565b60405180910390fd5b620000be816200018b60201b60201c565b5080600160006101000a81548173ffffffffffffffffffffffffffffffffffffffff021916908373ffffffffffffffffffffffffffffffffffffffff16021790555081600260006101000a81548173ffffffffffffffffffffffffffffffffffffffff021916908373ffffffffffffffffffffffffffffffffffffffff16021790555082600360006101000a81548173ffffffffffffffffffffffffffffffffffffffff021916908373ffffffffffffffffffffffffffffffffffffffff16021790555050505062000343565b60008060009054906101000a900473ffffffffffffffffffffffffffffffffffffffff169050816000806101000a81548173ffffffffffffffffffffffffffffffffffffffff021916908373ffffffffffffffffffffffffffffffffffffffff1602179055508173ffffffffffffffffffffffffffffffffffffffff168173ffffffffffffffffffffffffffffffffffffffff167f8be0079c531659141344cd1fd0a4f28419497f9722a3daafe3b4186f6b6457e060405160405180910390a35050565b600080fd5b600073ffffffffffffffffffffffffffffffffffffffff82169050919050565b6000620002818262000254565b9050919050565b620002938162000274565b81146200029f57600080fd5b50565b600081519050620002b38162000288565b92915050565b600080600060608486031215620002d557620002d46200024f565b5b6000620002e586828701620002a2565b9350506020620002f886828701620002a2565b92505060406200030b86828701620002a2565b9150509250925092565b620003208162000274565b82525050565b60006020820190506200033d600083018462000315565b92915050565b611f5a80620003536000396000f3fe608060405234801561001057600080fd5b50600436106100b45760003560e01c80638da5cb5b116100715780638da5cb5b14610179578063c56156b414610197578063c669439e146101b3578063c805f68b146101d1578063cf695688146101ed578063f2fde38b1461020b576100b4565b806309f5dc91146100b957806321f918ef146100e957806324b6e70914610119578063437e95f114610135578063715018a61461015157806372dd52e31461015b575b600080fd5b6100d360048036038101906100ce9190610992565b610227565b6040516100e091906109f6565b60405180910390f35b61010360048036038101906100fe9190610aa5565b6102b1565b60405161011091906109f6565b60405180910390f35b610133600480360381019061012e9190610b28565b61048b565b005b61014f600480360381019061014a9190610b55565b6104d7565b005b610159610569565b005b61016361057d565b6040516101709190610be1565b60405180910390f35b6101816105a3565b60405161018e9190610c0b565b60405180910390f35b6101b160048036038101906101ac9190610c26565b6105cc565b005b6101bb6106cd565b6040516101c89190610cb6565b60405180910390f35b6101eb60048036038101906101e69190610b28565b6106f3565b005b6101f561073f565b6040516102029190610cf2565b60405180910390f35b61022560048036038101906102209190610b28565b610765565b005b60006102316107eb565b73ffffffffffffffffffffffffffffffffffffffff166358fbe9e1836040518263ffffffff1660e01b81526004016102699190611767565b602060405180830381865afa158015610286573d6000803e3d6000fd5b505050506040513d601f19601f820116820180604052508101906102aa919061179e565b9050919050565b60006001806102c557506102c485610227565b5b610304576040517f08c379a00000000000000000000000000000000000000000000000000000000081526004016102fb90611828565b60405180910390fd5b6000808680602001906103179190611857565b8060a00190610326919061187f565b80610100019061033691906118a8565b838181106103475761034661190b565b5b9050602002810190610359919061193a565b61036290611c1e565b90507fe1b725358090db1f537294b09c773c14622b44c1bc2832d105fb28cc48f5bd90816040015160008151811061039d5761039c61190b565b5b6020026020010151146103e5576040517f08c379a00000000000000000000000000000000000000000000000000000000081526004016103dc90611c7d565b60405180910390fd5b60008060008084606001518060200190518101906104039190611d75565b93509350935093508973ffffffffffffffffffffffffffffffffffffffff168473ffffffffffffffffffffffffffffffffffffffff1614610479576040517f08c379a000000000000000000000000000000000000000000000000000000000815260040161047090611e60565b60405180910390fd5b60019650505050505050949350505050565b610493610807565b80600560006101000a81548173ffffffffffffffffffffffffffffffffffffffff021916908373ffffffffffffffffffffffffffffffffffffffff16021790555050565b600160009054906101000a900473ffffffffffffffffffffffffffffffffffffffff1673ffffffffffffffffffffffffffffffffffffffff166379cc679033836040518363ffffffff1660e01b8152600401610534929190611e8f565b600060405180830381600087803b15801561054e57600080fd5b505af1158015610562573d6000803e3d6000fd5b5050505050565b610571610807565b61057b600061088e565b565b600160009054906101000a900473ffffffffffffffffffffffffffffffffffffffff1681565b60008060009054906101000a900473ffffffffffffffffffffffffffffffffffffffff16905090565b6105fa81600560009054906101000a900473ffffffffffffffffffffffffffffffffffffffff1685856102b1565b610639576040517f08c379a000000000000000000000000000000000000000000000000000000000815260040161063090611f04565b60405180910390fd5b600160009054906101000a900473ffffffffffffffffffffffffffffffffffffffff1673ffffffffffffffffffffffffffffffffffffffff166340c10f1984846040518363ffffffff1660e01b8152600401610696929190611e8f565b600060405180830381600087803b1580156106b057600080fd5b505af11580156106c4573d6000803e3d6000fd5b50505050505050565b600360009054906101000a900473ffffffffffffffffffffffffffffffffffffffff1681565b6106fb610807565b80600460006101000a81548173ffffffffffffffffffffffffffffffffffffffff021916908373ffffffffffffffffffffffffffffffffffffffff16021790555050565b600260009054906101000a900473ffffffffffffffffffffffffffffffffffffffff1681565b61076d610807565b600073ffffffffffffffffffffffffffffffffffffffff168173ffffffffffffffffffffffffffffffffffffffff16036107df5760006040517f1e4fbdf70000000000000000000000000000000000000000000000000000000081526004016107d69190610c0b565b60405180910390fd5b6107e88161088e565b50565b600073f37ad1278917c04fb291c75a42e61710964cb57c905090565b61080f610952565b73ffffffffffffffffffffffffffffffffffffffff1661082d6105a3565b73ffffffffffffffffffffffffffffffffffffffff161461088c57610850610952565b6040517f118cdaa70000000000000000000000000000000000000000000000000000000081526004016108839190610c0b565b60405180910390fd5b565b60008060009054906101000a900473ffffffffffffffffffffffffffffffffffffffff169050816000806101000a81548173ffffffffffffffffffffffffffffffffffffffff021916908373ffffffffffffffffffffffffffffffffffffffff1602179055508173ffffffffffffffffffffffffffffffffffffffff168173ffffffffffffffffffffffffffffffffffffffff167f8be0079c531659141344cd1fd0a4f28419497f9722a3daafe3b4186f6b6457e060405160405180910390a35050565b600033905090565b6000604051905090565b600080fd5b600080fd5b600080fd5b6000604082840312156109895761098861096e565b5b81905092915050565b6000602082840312156109a8576109a7610964565b5b600082013567ffffffffffffffff8111156109c6576109c5610969565b5b6109d284828501610973565b91505092915050565b60008115159050919050565b6109f0816109db565b82525050565b6000602082019050610a0b60008301846109e7565b92915050565b600073ffffffffffffffffffffffffffffffffffffffff82169050919050565b6000610a3c82610a11565b9050919050565b610a4c81610a31565b8114610a5757600080fd5b50565b600081359050610a6981610a43565b92915050565b6000819050919050565b610a8281610a6f565b8114610a8d57600080fd5b50565b600081359050610a9f81610a79565b92915050565b60008060008060808587031215610abf57610abe610964565b5b600085013567ffffffffffffffff811115610add57610adc610969565b5b610ae987828801610973565b9450506020610afa87828801610a5a565b9350506040610b0b87828801610a5a565b9250506060610b1c87828801610a90565b91505092959194509250565b600060208284031215610b3e57610b3d610964565b5b6000610b4c84828501610a5a565b91505092915050565b600060208284031215610b6b57610b6a610964565b5b6000610b7984828501610a90565b91505092915050565b6000819050919050565b6000610ba7610ba2610b9d84610a11565b610b82565b610a11565b9050919050565b6000610bb982610b8c565b9050919050565b6000610bcb82610bae565b9050919050565b610bdb81610bc0565b82525050565b6000602082019050610bf66000830184610bd2565b92915050565b610c0581610a31565b82525050565b6000602082019050610c206000830184610bfc565b92915050565b600080600060608486031215610c3f57610c3e610964565b5b6000610c4d86828701610a5a565b9350506020610c5e86828701610a90565b925050604084013567ffffffffffffffff811115610c7f57610c7e610969565b5b610c8b86828701610973565b9150509250925092565b6000610ca082610bae565b9050919050565b610cb081610c95565b82525050565b6000602082019050610ccb6000830184610ca7565b92915050565b6000610cdc82610bae565b9050919050565b610cec81610cd1565b82525050565b6000602082019050610d076000830184610ce3565b92915050565b600080fd5b600080fd5b600080fd5b60008083356001602003843603038112610d3957610d38610d17565b5b83810192508235915060208301925067ffffffffffffffff821115610d6157610d60610d0d565b5b602082023603831315610d7757610d76610d12565b5b509250929050565b600082825260208201905092915050565b600080fd5b82818337505050565b6000610daa8385610d7f565b93507f07ffffffffffffffffffffffffffffffffffffffffffffffffffffffffffffff831115610ddd57610ddc610d90565b5b602083029250610dee838584610d95565b82840190509392505050565b60008235600160c003833603038112610e1657610e15610d17565b5b82810191505092915050565b6000819050919050565b610e3581610e22565b8114610e4057600080fd5b50565b600081359050610e5281610e2c565b92915050565b6000610e676020840184610e43565b905092915050565b610e7881610e22565b82525050565b600067ffffffffffffffff82169050919050565b610e9b81610e7e565b8114610ea657600080fd5b50565b600081359050610eb881610e92565b92915050565b6000610ecd6020840184610ea9565b905092915050565b610ede81610e7e565b82525050565b60008235600160a003833603038112610f0057610eff610d17565b5b82810191505092915050565b600061ffff82169050919050565b610f2381610f0c565b8114610f2e57600080fd5b50565b600081359050610f4081610f1a565b92915050565b6000610f556020840184610f31565b905092915050565b610f6681610f0c565b82525050565b610f75816109db565b8114610f8057600080fd5b50565b600081359050610f9281610f6c565b92915050565b6000610fa76020840184610f83565b905092915050565b610fb8816109db565b82525050565b60008083356001602003843603038112610fdb57610fda610d17565b5b83810192508235915060208301925067ffffffffffffffff82111561100357611002610d0d565b5b60208202360383131561101957611018610d12565b5b509250929050565b600082825260208201905092915050565b6000819050919050565b600063ffffffff82169050919050565b6110558161103c565b82525050565b6000611067838361104c565b60208301905092915050565b61107c8161103c565b811461108757600080fd5b50565b60008135905061109981611073565b92915050565b60006110ae602084018461108a565b905092915050565b6000602082019050919050565b60006110cf8385611021565b93506110da82611032565b8060005b85811015611113576110f0828461109f565b6110fa888261105b565b9750611105836110b6565b9250506001810190506110de565b5085925050509392505050565b600060a083016111336000840184610e58565b6111406000860182610e6f565b5061114e6020840184610f46565b61115b6020860182610f5d565b506111696040840184610f98565b6111766040860182610faf565b506111846060840184610f98565b6111916060860182610faf565b5061119f6080840184610fbe565b85830360808701526111b28382846110c3565b925050508091505092915050565b600082356001610120038336030381126111dd576111dc610d17565b5b82810191505092915050565b60006111f86020840184610a5a565b905092915050565b61120981610a31565b82525050565b600061121e6020840184610a90565b905092915050565b61122f81610a6f565b82525050565b6000808335600160200384360303811261125257611251610d17565b5b83810192508235915060208301925067ffffffffffffffff82111561127a57611279610d0d565b5b6001820236038313156112905761128f610d12565b5b509250929050565b600082825260208201905092915050565b82818337600083830152505050565b6000601f19601f8301169050919050565b60006112d58385611298565b93506112e28385846112a9565b6112eb836112b8565b840190509392505050565b600060ff82169050919050565b61130c816112f6565b811461131757600080fd5b50565b60008135905061132981611303565b92915050565b600061133e602084018461131a565b905092915050565b61134f816112f6565b82525050565b6000808335600160200384360303811261137257611371610d17565b5b83810192508235915060208301925067ffffffffffffffff82111561139a57611399610d0d565b5b6020820236038313156113b0576113af610d12565b5b509250929050565b600082825260208201905092915050565b6000819050919050565b600060a083016113e6600084018461109f565b6113f3600086018261104c565b5061140160208401846111e9565b61140e6020860182611200565b5061141c6040840184610d1c565b858303604087015261142f838284610d9e565b925050506114406060840184611235565b85830360608701526114538382846112c9565b925050506114646080840184610f98565b6114716080860182610faf565b508091505092915050565b600061148883836113d3565b905092915050565b60008235600160a0038336030381126114ac576114ab610d17565b5b82810191505092915050565b6000602082019050919050565b60006114d183856113b8565b9350836020840285016114e3846113c9565b8060005b878110156115275784840389526114fe8284611490565b611508858261147c565b9450611513836114b8565b925060208a019950506001810190506114e7565b50829750879450505050509392505050565b6000610120830161154d6000840184610ebe565b61155a6000860182610ed5565b506115686020840184610ebe565b6115756020860182610ed5565b5061158360408401846111e9565b6115906040860182611200565b5061159e6060840184610f98565b6115ab6060860182610faf565b506115b960808401846111e9565b6115c66080860182611200565b506115d460a084018461120f565b6115e160a0860182611226565b506115ef60c0840184611235565b85830360c08701526116028382846112c9565b9250505061161360e084018461132f565b61162060e0860182611346565b5061162f610100840184611355565b8583036101008701526116438382846114c5565b925050508091505092915050565b600060c083016116646000840184610e58565b6116716000860182610e6f565b5061167f6020840184610e58565b61168c6020860182610e6f565b5061169a6040840184610ebe565b6116a76040860182610ed5565b506116b56060840184610ebe565b6116c26060860182610ed5565b506116d06080840184610ee4565b84820360808601526116e28282611120565b9150506116f260a08401846111c0565b84820360a08601526117048282611539565b9150508091505092915050565b6000604083016117246000840184610d1c565b8583036000870152611737838284610d9e565b925050506117486020840184610dfa565b848203602086015261175a8282611651565b9150508091505092915050565b600060208201905081810360008301526117818184611711565b905092915050565b60008151905061179881610f6c565b92915050565b6000602082840312156117b4576117b3610964565b5b60006117c284828501611789565b91505092915050565b600082825260208201905092915050565b7f496e76616c69642070726f6f6600000000000000000000000000000000000000600082015250565b6000611812600d836117cb565b915061181d826117dc565b602082019050919050565b6000602082019050818103600083015261184181611805565b9050919050565b600080fd5b600080fd5b600080fd5b60008235600160c00383360303811261187357611872611848565b5b80830191505092915050565b6000823560016101200383360303811261189c5761189b611848565b5b80830191505092915050565b600080833560016020038436030381126118c5576118c4611848565b5b80840192508235915067ffffffffffffffff8211156118e7576118e661184d565b5b60208301925060208202360383131561190357611902611852565b5b509250929050565b7f4e487b7100000000000000000000000000000000000000000000000000000000600052603260045260246000fd5b60008235600160a00383360303811261195657611955611848565b5b80830191505092915050565b600080fd5b7f4e487b7100000000000000000000000000000000000000000000000000000000600052604160045260246000fd5b61199f826112b8565b810181811067ffffffffffffffff821117156119be576119bd611967565b5b80604052505050565b60006119d161095a565b90506119dd8282611996565b919050565b600080fd5b600080fd5b600067ffffffffffffffff821115611a0757611a06611967565b5b602082029050602081019050919050565b600080fd5b6000611a30611a2b846119ec565b6119c7565b90508083825260208201905060208402830185811115611a5357611a52611a18565b5b835b81811015611a7c5780611a688882610e43565b845260208401935050602081019050611a55565b5050509392505050565b600082601f830112611a9b57611a9a6119e7565b5b8135611aab848260208601611a1d565b91505092915050565b600080fd5b600067ffffffffffffffff821115611ad457611ad3611967565b5b611add826112b8565b9050602081019050919050565b6000611afd611af884611ab9565b6119c7565b905082815260208101848484011115611b1957611b18611ab4565b5b611b248482856112a9565b509392505050565b600082601f830112611b4157611b406119e7565b5b8135611b51848260208601611aea565b91505092915050565b600060a08284031215611b7057611b6f611962565b5b611b7a60a06119c7565b90506000611b8a8482850161108a565b6000830152506020611b9e84828501610a5a565b602083015250604082013567ffffffffffffffff811115611bc257611bc16119e2565b5b611bce84828501611a86565b604083015250606082013567ffffffffffffffff811115611bf257611bf16119e2565b5b611bfe84828501611b2c565b6060830152506080611c1284828501610f83565b60808301525092915050565b6000611c2a3683611b5a565b9050919050565b7f496e76616c6964206576656e7400000000000000000000000000000000000000600082015250565b6000611c67600d836117cb565b9150611c7282611c31565b602082019050919050565b60006020820190508181036000830152611c9681611c5a565b9050919050565b6000611ca882610a11565b9050919050565b611cb881611c9d565b8114611cc357600080fd5b50565b600081519050611cd581611caf565b92915050565b60005b83811015611cf9578082015181840152602081019050611cde565b60008484015250505050565b6000611d18611d1384611ab9565b6119c7565b905082815260208101848484011115611d3457611d33611ab4565b5b611d3f848285611cdb565b509392505050565b600082601f830112611d5c57611d5b6119e7565b5b8151611d6c848260208601611d05565b91505092915050565b60008060008060808587031215611d8f57611d8e610964565b5b6000611d9d87828801611cc6565b9450506020611dae87828801611789565b935050604085015167ffffffffffffffff811115611dcf57611dce610969565b5b611ddb87828801611d47565b925050606085015167ffffffffffffffff811115611dfc57611dfb610969565b5b611e0887828801611d47565b91505092959194509250565b7f496e76616c696420746f6b656e20616464726573730000000000000000000000600082015250565b6000611e4a6015836117cb565b9150611e5582611e14565b602082019050919050565b60006020820190508181036000830152611e7981611e3d565b9050919050565b611e8981610a6f565b82525050565b6000604082019050611ea46000830185610bfc565b611eb16020830184611e80565b9392505050565b7f496e76616c69642050726f6f6600000000000000000000000000000000000000600082015250565b6000611eee600d836117cb565b9150611ef982611eb8565b602082019050919050565b60006020820190508181036000830152611f1d81611ee1565b905091905056fea2646970667358221220d77b54a9399d32cae6fbbc5897745ff90eff6addcdbf56856ab31c3f1a11d50264736f6c63430008180033","opcodes":"PUSH1 0x80 PUSH1 0x40 MSTORE CALLVALUE DUP1 ISZERO PUSH3 0x11 JUMPI PUSH1 0x0 DUP1 REVERT JUMPDEST POP PUSH1 0x40 MLOAD PUSH3 0x22AD CODESIZE SUB DUP1 PUSH3 0x22AD DUP4 CODECOPY DUP2 DUP2 ADD PUSH1 0x40 MSTORE DUP2 ADD SWAP1 PUSH3 0x37 SWAP2 SWAP1 PUSH3 0x2B9 JUMP JUMPDEST CALLER PUSH1 0x0 PUSH20 0xFFFFFFFFFFFFFFFFFFFFFFFFFFFFFFFFFFFFFFFF AND DUP2 PUSH20 0xFFFFFFFFFFFFFFFFFFFFFFFFFFFFFFFFFFFFFFFF AND SUB PUSH3 0xAD JUMPI PUSH1 0x0 PUSH1 0x40 MLOAD PUSH32 0x1E4FBDF700000000000000000000000000000000000000000000000000000000 DUP2 MSTORE PUSH1 0x4 ADD PUSH3 0xA4 SWAP2 SWAP1 PUSH3 0x326 JUMP JUMPDEST PUSH1 0x40 MLOAD DUP1 SWAP2 SUB SWAP1 REVERT JUMPDEST PUSH3 0xBE DUP2 PUSH3 0x18B PUSH1 0x20 SHL PUSH1 0x20 SHR JUMP JUMPDEST POP DUP1 PUSH1 0x1 PUSH1 0x0 PUSH2 0x100 EXP DUP2 SLOAD DUP2 PUSH20 0xFFFFFFFFFFFFFFFFFFFFFFFFFFFFFFFFFFFFFFFF MUL NOT AND SWAP1 DUP4 PUSH20 0xFFFFFFFFFFFFFFFFFFFFFFFFFFFFFFFFFFFFFFFF AND MUL OR SWAP1 SSTORE POP DUP2 PUSH1 0x2 PUSH1 0x0 PUSH2 0x100 EXP DUP2 SLOAD DUP2 PUSH20 0xFFFFFFFFFFFFFFFFFFFFFFFFFFFFFFFFFFFFFFFF MUL NOT AND SWAP1 DUP4 PUSH20 0xFFFFFFFFFFFFFFFFFFFFFFFFFFFFFFFFFFFFFFFF AND MUL OR SWAP1 SSTORE POP DUP3 PUSH1 0x3 PUSH1 0x0 PUSH2 0x100 EXP DUP2 SLOAD DUP2 PUSH20 0xFFFFFFFFFFFFFFFFFFFFFFFFFFFFFFFFFFFFFFFF MUL NOT AND SWAP1 DUP4 PUSH20 0xFFFFFFFFFFFFFFFFFFFFFFFFFFFFFFFFFFFFFFFF AND MUL OR SWAP1 SSTORE POP POP POP POP PUSH3 0x343 JUMP JUMPDEST PUSH1 0x0 DUP1 PUSH1 0x0 SWAP1 SLOAD SWAP1 PUSH2 0x100 EXP SWAP1 DIV PUSH20 0xFFFFFFFFFFFFFFFFFFFFFFFFFFFFFFFFFFFFFFFF AND SWAP1 POP DUP2 PUSH1 0x0 DUP1 PUSH2 0x100 EXP DUP2 SLOAD DUP2 PUSH20 0xFFFFFFFFFFFFFFFFFFFFFFFFFFFFFFFFFFFFFFFF MUL NOT AND SWAP1 DUP4 PUSH20 0xFFFFFFFFFFFFFFFFFFFFFFFFFFFFFFFFFFFFFFFF AND MUL OR SWAP1 SSTORE POP DUP2 PUSH20 0xFFFFFFFFFFFFFFFFFFFFFFFFFFFFFFFFFFFFFFFF AND DUP2 PUSH20 0xFFFFFFFFFFFFFFFFFFFFFFFFFFFFFFFFFFFFFFFF AND PUSH32 0x8BE0079C531659141344CD1FD0A4F28419497F9722A3DAAFE3B4186F6B6457E0 PUSH1 0x40 MLOAD PUSH1 0x40 MLOAD DUP1 SWAP2 SUB SWAP1 LOG3 POP POP JUMP JUMPDEST PUSH1 0x0 DUP1 REVERT JUMPDEST PUSH1 0x0 PUSH20 0xFFFFFFFFFFFFFFFFFFFFFFFFFFFFFFFFFFFFFFFF DUP3 AND SWAP1 POP SWAP2 SWAP1 POP JUMP JUMPDEST PUSH1 0x0 PUSH3 0x281 DUP3 PUSH3 0x254 JUMP JUMPDEST SWAP1 POP SWAP2 SWAP1 POP JUMP JUMPDEST PUSH3 0x293 DUP2 PUSH3 0x274 JUMP JUMPDEST DUP2 EQ PUSH3 0x29F JUMPI PUSH1 0x0 DUP1 REVERT JUMPDEST POP JUMP JUMPDEST PUSH1 0x0 DUP2 MLOAD SWAP1 POP PUSH3 0x2B3 DUP2 PUSH3 0x288 JUMP JUMPDEST SWAP3 SWAP2 POP POP JUMP JUMPDEST PUSH1 0x0 DUP1 PUSH1 0x0 PUSH1 0x60 DUP5 DUP7 SUB SLT ISZERO PUSH3 0x2D5 JUMPI PUSH3 0x2D4 PUSH3 0x24F JUMP JUMPDEST JUMPDEST PUSH1 0x0 PUSH3 0x2E5 DUP7 DUP3 DUP8 ADD PUSH3 0x2A2 JUMP JUMPDEST SWAP4 POP POP PUSH1 0x20 PUSH3 0x2F8 DUP7 DUP3 DUP8 ADD PUSH3 0x2A2 JUMP JUMPDEST SWAP3 POP POP PUSH1 0x40 PUSH3 0x30B DUP7 DUP3 DUP8 ADD PUSH3 0x2A2 JUMP JUMPDEST SWAP2 POP POP SWAP3 POP SWAP3 POP SWAP3 JUMP JUMPDEST PUSH3 0x320 DUP2 PUSH3 0x274 JUMP JUMPDEST DUP3 MSTORE POP POP JUMP JUMPDEST PUSH1 0x0 PUSH1 0x20 DUP3 ADD SWAP1 POP PUSH3 0x33D PUSH1 0x0 DUP4 ADD DUP5 PUSH3 0x315 JUMP JUMPDEST SWAP3 SWAP2 POP POP JUMP JUMPDEST PUSH2 0x1F5A DUP1 PUSH3 0x353 PUSH1 0x0 CODECOPY PUSH1 0x0 RETURN INVALID PUSH1 0x80 PUSH1 0x40 MSTORE CALLVALUE DUP1 ISZERO PUSH2 0x10 JUMPI PUSH1 0x0 DUP1 REVERT JUMPDEST POP PUSH1 0x4 CALLDATASIZE LT PUSH2 0xB4 JUMPI PUSH1 0x0 CALLDATALOAD PUSH1 0xE0 SHR DUP1 PUSH4 0x8DA5CB5B GT PUSH2 0x71 JUMPI DUP1 PUSH4 0x8DA5CB5B EQ PUSH2 0x179 JUMPI DUP1 PUSH4 0xC56156B4 EQ PUSH2 0x197 JUMPI DUP1 PUSH4 0xC669439E EQ PUSH2 0x1B3 JUMPI DUP1 PUSH4 0xC805F68B EQ PUSH2 0x1D1 JUMPI DUP1 PUSH4 0xCF695688 EQ PUSH2 0x1ED JUMPI DUP1 PUSH4 0xF2FDE38B EQ PUSH2 0x20B JUMPI PUSH2 0xB4 JUMP JUMPDEST DUP1 PUSH4 0x9F5DC91 EQ PUSH2 0xB9 JUMPI DUP1 PUSH4 0x21F918EF EQ PUSH2 0xE9 JUMPI DUP1 PUSH4 0x24B6E709 EQ PUSH2 0x119 JUMPI DUP1 PUSH4 0x437E95F1 EQ PUSH2 0x135 JUMPI DUP1 PUSH4 0x715018A6 EQ PUSH2 0x151 JUMPI DUP1 PUSH4 0x72DD52E3 EQ PUSH2 0x15B JUMPI JUMPDEST PUSH1 0x0 DUP1 REVERT JUMPDEST PUSH2 0xD3 PUSH1 0x4 DUP1 CALLDATASIZE SUB DUP2 ADD SWAP1 PUSH2 0xCE SWAP2 SWAP1 PUSH2 0x992 JUMP JUMPDEST PUSH2 0x227 JUMP JUMPDEST PUSH1 0x40 MLOAD PUSH2 0xE0 SWAP2 SWAP1 PUSH2 0x9F6 JUMP JUMPDEST PUSH1 0x40 MLOAD DUP1 SWAP2 SUB SWAP1 RETURN JUMPDEST PUSH2 0x103 PUSH1 0x4 DUP1 CALLDATASIZE SUB DUP2 ADD SWAP1 PUSH2 0xFE SWAP2 SWAP1 PUSH2 0xAA5 JUMP JUMPDEST PUSH2 0x2B1 JUMP JUMPDEST PUSH1 0x40 MLOAD PUSH2 0x110 SWAP2 SWAP1 PUSH2 0x9F6 JUMP JUMPDEST PUSH1 0x40 MLOAD DUP1 SWAP2 SUB SWAP1 RETURN JUMPDEST PUSH2 0x133 PUSH1 0x4 DUP1 CALLDATASIZE SUB DUP2 ADD SWAP1 PUSH2 0x12E SWAP2 SWAP1 PUSH2 0xB28 JUMP JUMPDEST PUSH2 0x48B JUMP JUMPDEST STOP JUMPDEST PUSH2 0x14F PUSH1 0x4 DUP1 CALLDATASIZE SUB DUP2 ADD SWAP1 PUSH2 0x14A SWAP2 SWAP1 PUSH2 0xB55 JUMP JUMPDEST PUSH2 0x4D7 JUMP JUMPDEST STOP JUMPDEST PUSH2 0x159 PUSH2 0x569 JUMP JUMPDEST STOP JUMPDEST PUSH2 0x163 PUSH2 0x57D JUMP JUMPDEST PUSH1 0x40 MLOAD PUSH2 0x170 SWAP2 SWAP1 PUSH2 0xBE1 JUMP JUMPDEST PUSH1 0x40 MLOAD DUP1 SWAP2 SUB SWAP1 RETURN JUMPDEST PUSH2 0x181 PUSH2 0x5A3 JUMP JUMPDEST PUSH1 0x40 MLOAD PUSH2 0x18E SWAP2 SWAP1 PUSH2 0xC0B JUMP JUMPDEST PUSH1 0x40 MLOAD DUP1 SWAP2 SUB SWAP1 RETURN JUMPDEST PUSH2 0x1B1 PUSH1 0x4 DUP1 CALLDATASIZE SUB DUP2 ADD SWAP1 PUSH2 0x1AC SWAP2 SWAP1 PUSH2 0xC26 JUMP JUMPDEST PUSH2 0x5CC JUMP JUMPDEST STOP JUMPDEST PUSH2 0x1BB PUSH2 0x6CD JUMP JUMPDEST PUSH1 0x40 MLOAD PUSH2 0x1C8 SWAP2 SWAP1 PUSH2 0xCB6 JUMP JUMPDEST PUSH1 0x40 MLOAD DUP1 SWAP2 SUB SWAP1 RETURN JUMPDEST PUSH2 0x1EB PUSH1 0x4 DUP1 CALLDATASIZE SUB DUP2 ADD SWAP1 PUSH2 0x1E6 SWAP2 SWAP1 PUSH2 0xB28 JUMP JUMPDEST PUSH2 0x6F3 JUMP JUMPDEST STOP JUMPDEST PUSH2 0x1F5 PUSH2 0x73F JUMP JUMPDEST PUSH1 0x40 MLOAD PUSH2 0x202 SWAP2 SWAP1 PUSH2 0xCF2 JUMP JUMPDEST PUSH1 0x40 MLOAD DUP1 SWAP2 SUB SWAP1 RETURN JUMPDEST PUSH2 0x225 PUSH1 0x4 DUP1 CALLDATASIZE SUB DUP2 ADD SWAP1 PUSH2 0x220 SWAP2 SWAP1 PUSH2 0xB28 JUMP JUMPDEST PUSH2 0x765 JUMP JUMPDEST STOP JUMPDEST PUSH1 0x0 PUSH2 0x231 PUSH2 0x7EB JUMP JUMPDEST PUSH20 0xFFFFFFFFFFFFFFFFFFFFFFFFFFFFFFFFFFFFFFFF AND PUSH4 0x58FBE9E1 DUP4 PUSH1 0x40 MLOAD DUP3 PUSH4 0xFFFFFFFF AND PUSH1 0xE0 SHL DUP2 MSTORE PUSH1 0x4 ADD PUSH2 0x269 SWAP2 SWAP1 PUSH2 0x1767 JUMP JUMPDEST PUSH1 0x20 PUSH1 0x40 MLOAD DUP1 DUP4 SUB DUP2 DUP7 GAS STATICCALL ISZERO DUP1 ISZERO PUSH2 0x286 JUMPI RETURNDATASIZE PUSH1 0x0 DUP1 RETURNDATACOPY RETURNDATASIZE PUSH1 0x0 REVERT JUMPDEST POP POP POP POP PUSH1 0x40 MLOAD RETURNDATASIZE PUSH1 0x1F NOT PUSH1 0x1F DUP3 ADD AND DUP3 ADD DUP1 PUSH1 0x40 MSTORE POP DUP2 ADD SWAP1 PUSH2 0x2AA SWAP2 SWAP1 PUSH2 0x179E JUMP JUMPDEST SWAP1 POP SWAP2 SWAP1 POP JUMP JUMPDEST PUSH1 0x0 PUSH1 0x1 DUP1 PUSH2 0x2C5 JUMPI POP PUSH2 0x2C4 DUP6 PUSH2 0x227 JUMP JUMPDEST JUMPDEST PUSH2 0x304 JUMPI PUSH1 0x40 MLOAD PUSH32 0x8C379A000000000000000000000000000000000000000000000000000000000 DUP2 MSTORE PUSH1 0x4 ADD PUSH2 0x2FB SWAP1 PUSH2 0x1828 JUMP JUMPDEST PUSH1 0x40 MLOAD DUP1 SWAP2 SUB SWAP1 REVERT JUMPDEST PUSH1 0x0 DUP1 DUP7 DUP1 PUSH1 0x20 ADD SWAP1 PUSH2 0x317 SWAP2 SWAP1 PUSH2 0x1857 JUMP JUMPDEST DUP1 PUSH1 0xA0 ADD SWAP1 PUSH2 0x326 SWAP2 SWAP1 PUSH2 0x187F JUMP JUMPDEST DUP1 PUSH2 0x100 ADD SWAP1 PUSH2 0x336 SWAP2 SWAP1 PUSH2 0x18A8 JUMP JUMPDEST DUP4 DUP2 DUP2 LT PUSH2 0x347 JUMPI PUSH2 0x346 PUSH2 0x190B JUMP JUMPDEST JUMPDEST SWAP1 POP PUSH1 0x20 MUL DUP2 ADD SWAP1 PUSH2 0x359 SWAP2 SWAP1 PUSH2 0x193A JUMP JUMPDEST PUSH2 0x362 SWAP1 PUSH2 0x1C1E JUMP JUMPDEST SWAP1 POP PUSH32 0xE1B725358090DB1F537294B09C773C14622B44C1BC2832D105FB28CC48F5BD90 DUP2 PUSH1 0x40 ADD MLOAD PUSH1 0x0 DUP2 MLOAD DUP2 LT PUSH2 0x39D JUMPI PUSH2 0x39C PUSH2 0x190B JUMP JUMPDEST JUMPDEST PUSH1 0x20 MUL PUSH1 0x20 ADD ADD MLOAD EQ PUSH2 0x3E5 JUMPI PUSH1 0x40 MLOAD PUSH32 0x8C379A000000000000000000000000000000000000000000000000000000000 DUP2 MSTORE PUSH1 0x4 ADD PUSH2 0x3DC SWAP1 PUSH2 0x1C7D JUMP JUMPDEST PUSH1 0x40 MLOAD DUP1 SWAP2 SUB SWAP1 REVERT JUMPDEST PUSH1 0x0 DUP1 PUSH1 0x0 DUP1 DUP5 PUSH1 0x60 ADD MLOAD DUP1 PUSH1 0x20 ADD SWAP1 MLOAD DUP2 ADD SWAP1 PUSH2 0x403 SWAP2 SWAP1 PUSH2 0x1D75 JUMP JUMPDEST SWAP4 POP SWAP4 POP SWAP4 POP SWAP4 POP DUP10 PUSH20 0xFFFFFFFFFFFFFFFFFFFFFFFFFFFFFFFFFFFFFFFF AND DUP5 PUSH20 0xFFFFFFFFFFFFFFFFFFFFFFFFFFFFFFFFFFFFFFFF AND EQ PUSH2 0x479 JUMPI PUSH1 0x40 MLOAD PUSH32 0x8C379A000000000000000000000000000000000000000000000000000000000 DUP2 MSTORE PUSH1 0x4 ADD PUSH2 0x470 SWAP1 PUSH2 0x1E60 JUMP JUMPDEST PUSH1 0x40 MLOAD DUP1 SWAP2 SUB SWAP1 REVERT JUMPDEST PUSH1 0x1 SWAP7 POP POP POP POP POP POP POP SWAP5 SWAP4 POP POP POP POP JUMP JUMPDEST PUSH2 0x493 PUSH2 0x807 JUMP JUMPDEST DUP1 PUSH1 0x5 PUSH1 0x0 PUSH2 0x100 EXP DUP2 SLOAD DUP2 PUSH20 0xFFFFFFFFFFFFFFFFFFFFFFFFFFFFFFFFFFFFFFFF MUL NOT AND SWAP1 DUP4 PUSH20 0xFFFFFFFFFFFFFFFFFFFFFFFFFFFFFFFFFFFFFFFF AND MUL OR SWAP1 SSTORE POP POP JUMP JUMPDEST PUSH1 0x1 PUSH1 0x0 SWAP1 SLOAD SWAP1 PUSH2 0x100 EXP SWAP1 DIV PUSH20 0xFFFFFFFFFFFFFFFFFFFFFFFFFFFFFFFFFFFFFFFF AND PUSH20 0xFFFFFFFFFFFFFFFFFFFFFFFFFFFFFFFFFFFFFFFF AND PUSH4 0x79CC6790 CALLER DUP4 PUSH1 0x40 MLOAD DUP4 PUSH4 0xFFFFFFFF AND PUSH1 0xE0 SHL DUP2 MSTORE PUSH1 0x4 ADD PUSH2 0x534 SWAP3 SWAP2 SWAP1 PUSH2 0x1E8F JUMP JUMPDEST PUSH1 0x0 PUSH1 0x40 MLOAD DUP1 DUP4 SUB DUP2 PUSH1 0x0 DUP8 DUP1 EXTCODESIZE ISZERO DUP1 ISZERO PUSH2 0x54E JUMPI PUSH1 0x0 DUP1 REVERT JUMPDEST POP GAS CALL ISZERO DUP1 ISZERO PUSH2 0x562 JUMPI RETURNDATASIZE PUSH1 0x0 DUP1 RETURNDATACOPY RETURNDATASIZE PUSH1 0x0 REVERT JUMPDEST POP POP POP POP POP JUMP JUMPDEST PUSH2 0x571 PUSH2 0x807 JUMP JUMPDEST PUSH2 0x57B PUSH1 0x0 PUSH2 0x88E JUMP JUMPDEST JUMP JUMPDEST PUSH1 0x1 PUSH1 0x0 SWAP1 SLOAD SWAP1 PUSH2 0x100 EXP SWAP1 DIV PUSH20 0xFFFFFFFFFFFFFFFFFFFFFFFFFFFFFFFFFFFFFFFF AND DUP2 JUMP JUMPDEST PUSH1 0x0 DUP1 PUSH1 0x0 SWAP1 SLOAD SWAP1 PUSH2 0x100 EXP SWAP1 DIV PUSH20 0xFFFFFFFFFFFFFFFFFFFFFFFFFFFFFFFFFFFFFFFF AND SWAP1 POP SWAP1 JUMP JUMPDEST PUSH2 0x5FA DUP2 PUSH1 0x5 PUSH1 0x0 SWAP1 SLOAD SWAP1 PUSH2 0x100 EXP SWAP1 DIV PUSH20 0xFFFFFFFFFFFFFFFFFFFFFFFFFFFFFFFFFFFFFFFF AND DUP6 DUP6 PUSH2 0x2B1 JUMP JUMPDEST PUSH2 0x639 JUMPI PUSH1 0x40 MLOAD PUSH32 0x8C379A000000000000000000000000000000000000000000000000000000000 DUP2 MSTORE PUSH1 0x4 ADD PUSH2 0x630 SWAP1 PUSH2 0x1F04 JUMP JUMPDEST PUSH1 0x40 MLOAD DUP1 SWAP2 SUB SWAP1 REVERT JUMPDEST PUSH1 0x1 PUSH1 0x0 SWAP1 SLOAD SWAP1 PUSH2 0x100 EXP SWAP1 DIV PUSH20 0xFFFFFFFFFFFFFFFFFFFFFFFFFFFFFFFFFFFFFFFF AND PUSH20 0xFFFFFFFFFFFFFFFFFFFFFFFFFFFFFFFFFFFFFFFF AND PUSH4 0x40C10F19 DUP5 DUP5 PUSH1 0x40 MLOAD DUP4 PUSH4 0xFFFFFFFF AND PUSH1 0xE0 SHL DUP2 MSTORE PUSH1 0x4 ADD PUSH2 0x696 SWAP3 SWAP2 SWAP1 PUSH2 0x1E8F JUMP JUMPDEST PUSH1 0x0 PUSH1 0x40 MLOAD DUP1 DUP4 SUB DUP2 PUSH1 0x0 DUP8 DUP1 EXTCODESIZE ISZERO DUP1 ISZERO PUSH2 0x6B0 JUMPI PUSH1 0x0 DUP1 REVERT JUMPDEST POP GAS CALL ISZERO DUP1 ISZERO PUSH2 0x6C4 JUMPI RETURNDATASIZE PUSH1 0x0 DUP1 RETURNDATACOPY RETURNDATASIZE PUSH1 0x0 REVERT JUMPDEST POP POP POP POP POP POP POP JUMP JUMPDEST PUSH1 0x3 PUSH1 0x0 SWAP1 SLOAD SWAP1 PUSH2 0x100 EXP SWAP1 DIV PUSH20 0xFFFFFFFFFFFFFFFFFFFFFFFFFFFFFFFFFFFFFFFF AND DUP2 JUMP JUMPDEST PUSH2 0x6FB PUSH2 0x807 JUMP JUMPDEST DUP1 PUSH1 0x4 PUSH1 0x0 PUSH2 0x100 EXP DUP2 SLOAD DUP2 PUSH20 0xFFFFFFFFFFFFFFFFFFFFFFFFFFFFFFFFFFFFFFFF MUL NOT AND SWAP1 DUP4 PUSH20 0xFFFFFFFFFFFFFFFFFFFFFFFFFFFFFFFFFFFFFFFF AND MUL OR SWAP1 SSTORE POP POP JUMP JUMPDEST PUSH1 0x2 PUSH1 0x0 SWAP1 SLOAD SWAP1 PUSH2 0x100 EXP SWAP1 DIV PUSH20 0xFFFFFFFFFFFFFFFFFFFFFFFFFFFFFFFFFFFFFFFF AND DUP2 JUMP JUMPDEST PUSH2 0x76D PUSH2 0x807 JUMP JUMPDEST PUSH1 0x0 PUSH20 0xFFFFFFFFFFFFFFFFFFFFFFFFFFFFFFFFFFFFFFFF AND DUP2 PUSH20 0xFFFFFFFFFFFFFFFFFFFFFFFFFFFFFFFFFFFFFFFF AND SUB PUSH2 0x7DF JUMPI PUSH1 0x0 PUSH1 0x40 MLOAD PUSH32 0x1E4FBDF700000000000000000000000000000000000000000000000000000000 DUP2 MSTORE PUSH1 0x4 ADD PUSH2 0x7D6 SWAP2 SWAP1 PUSH2 0xC0B JUMP JUMPDEST PUSH1 0x40 MLOAD DUP1 SWAP2 SUB SWAP1 REVERT JUMPDEST PUSH2 0x7E8 DUP2 PUSH2 0x88E JUMP JUMPDEST POP JUMP JUMPDEST PUSH1 0x0 PUSH20 0xF37AD1278917C04FB291C75A42E61710964CB57C SWAP1 POP SWAP1 JUMP JUMPDEST PUSH2 0x80F PUSH2 0x952 JUMP JUMPDEST PUSH20 0xFFFFFFFFFFFFFFFFFFFFFFFFFFFFFFFFFFFFFFFF AND PUSH2 0x82D PUSH2 0x5A3 JUMP JUMPDEST PUSH20 0xFFFFFFFFFFFFFFFFFFFFFFFFFFFFFFFFFFFFFFFF AND EQ PUSH2 0x88C JUMPI PUSH2 0x850 PUSH2 0x952 JUMP JUMPDEST PUSH1 0x40 MLOAD PUSH32 0x118CDAA700000000000000000000000000000000000000000000000000000000 DUP2 MSTORE PUSH1 0x4 ADD PUSH2 0x883 SWAP2 SWAP1 PUSH2 0xC0B JUMP JUMPDEST PUSH1 0x40 MLOAD DUP1 SWAP2 SUB SWAP1 REVERT JUMPDEST JUMP JUMPDEST PUSH1 0x0 DUP1 PUSH1 0x0 SWAP1 SLOAD SWAP1 PUSH2 0x100 EXP SWAP1 DIV PUSH20 0xFFFFFFFFFFFFFFFFFFFFFFFFFFFFFFFFFFFFFFFF AND SWAP1 POP DUP2 PUSH1 0x0 DUP1 PUSH2 0x100 EXP DUP2 SLOAD DUP2 PUSH20 0xFFFFFFFFFFFFFFFFFFFFFFFFFFFFFFFFFFFFFFFF MUL NOT AND SWAP1 DUP4 PUSH20 0xFFFFFFFFFFFFFFFFFFFFFFFFFFFFFFFFFFFFFFFF AND MUL OR SWAP1 SSTORE POP DUP2 PUSH20 0xFFFFFFFFFFFFFFFFFFFFFFFFFFFFFFFFFFFFFFFF AND DUP2 PUSH20 0xFFFFFFFFFFFFFFFFFFFFFFFFFFFFFFFFFFFFFFFF AND PUSH32 0x8BE0079C531659141344CD1FD0A4F28419497F9722A3DAAFE3B4186F6B6457E0 PUSH1 0x40 MLOAD PUSH1 0x40 MLOAD DUP1 SWAP2 SUB SWAP1 LOG3 POP POP JUMP JUMPDEST PUSH1 0x0 CALLER SWAP1 POP SWAP1 JUMP JUMPDEST PUSH1 0x0 PUSH1 0x40 MLOAD SWAP1 POP SWAP1 JUMP JUMPDEST PUSH1 0x0 DUP1 REVERT JUMPDEST PUSH1 0x0 DUP1 REVERT JUMPDEST PUSH1 0x0 DUP1 REVERT JUMPDEST PUSH1 0x0 PUSH1 0x40 DUP3 DUP5 SUB SLT ISZERO PUSH2 0x989 JUMPI PUSH2 0x988 PUSH2 0x96E JUMP JUMPDEST JUMPDEST DUP2 SWAP1 POP SWAP3 SWAP2 POP POP JUMP JUMPDEST PUSH1 0x0 PUSH1 0x20 DUP3 DUP5 SUB SLT ISZERO PUSH2 0x9A8 JUMPI PUSH2 0x9A7 PUSH2 0x964 JUMP JUMPDEST JUMPDEST PUSH1 0x0 DUP3 ADD CALLDATALOAD PUSH8 0xFFFFFFFFFFFFFFFF DUP2 GT ISZERO PUSH2 0x9C6 JUMPI PUSH2 0x9C5 PUSH2 0x969 JUMP JUMPDEST JUMPDEST PUSH2 0x9D2 DUP5 DUP3 DUP6 ADD PUSH2 0x973 JUMP JUMPDEST SWAP2 POP POP SWAP3 SWAP2 POP POP JUMP JUMPDEST PUSH1 0x0 DUP2 ISZERO ISZERO SWAP1 POP SWAP2 SWAP1 POP JUMP JUMPDEST PUSH2 0x9F0 DUP2 PUSH2 0x9DB JUMP JUMPDEST DUP3 MSTORE POP POP JUMP JUMPDEST PUSH1 0x0 PUSH1 0x20 DUP3 ADD SWAP1 POP PUSH2 0xA0B PUSH1 0x0 DUP4 ADD DUP5 PUSH2 0x9E7 JUMP JUMPDEST SWAP3 SWAP2 POP POP JUMP JUMPDEST PUSH1 0x0 PUSH20 0xFFFFFFFFFFFFFFFFFFFFFFFFFFFFFFFFFFFFFFFF DUP3 AND SWAP1 POP SWAP2 SWAP1 POP JUMP JUMPDEST PUSH1 0x0 PUSH2 0xA3C DUP3 PUSH2 0xA11 JUMP JUMPDEST SWAP1 POP SWAP2 SWAP1 POP JUMP JUMPDEST PUSH2 0xA4C DUP2 PUSH2 0xA31 JUMP JUMPDEST DUP2 EQ PUSH2 0xA57 JUMPI PUSH1 0x0 DUP1 REVERT JUMPDEST POP JUMP JUMPDEST PUSH1 0x0 DUP2 CALLDATALOAD SWAP1 POP PUSH2 0xA69 DUP2 PUSH2 0xA43 JUMP JUMPDEST SWAP3 SWAP2 POP POP JUMP JUMPDEST PUSH1 0x0 DUP2 SWAP1 POP SWAP2 SWAP1 POP JUMP JUMPDEST PUSH2 0xA82 DUP2 PUSH2 0xA6F JUMP JUMPDEST DUP2 EQ PUSH2 0xA8D JUMPI PUSH1 0x0 DUP1 REVERT JUMPDEST POP JUMP JUMPDEST PUSH1 0x0 DUP2 CALLDATALOAD SWAP1 POP PUSH2 0xA9F DUP2 PUSH2 0xA79 JUMP JUMPDEST SWAP3 SWAP2 POP POP JUMP JUMPDEST PUSH1 0x0 DUP1 PUSH1 0x0 DUP1 PUSH1 0x80 DUP6 DUP8 SUB SLT ISZERO PUSH2 0xABF JUMPI PUSH2 0xABE PUSH2 0x964 JUMP JUMPDEST JUMPDEST PUSH1 0x0 DUP6 ADD CALLDATALOAD PUSH8 0xFFFFFFFFFFFFFFFF DUP2 GT ISZERO PUSH2 0xADD JUMPI PUSH2 0xADC PUSH2 0x969 JUMP JUMPDEST JUMPDEST PUSH2 0xAE9 DUP8 DUP3 DUP9 ADD PUSH2 0x973 JUMP JUMPDEST SWAP5 POP POP PUSH1 0x20 PUSH2 0xAFA DUP8 DUP3 DUP9 ADD PUSH2 0xA5A JUMP JUMPDEST SWAP4 POP POP PUSH1 0x40 PUSH2 0xB0B DUP8 DUP3 DUP9 ADD PUSH2 0xA5A JUMP JUMPDEST SWAP3 POP POP PUSH1 0x60 PUSH2 0xB1C DUP8 DUP3 DUP9 ADD PUSH2 0xA90 JUMP JUMPDEST SWAP2 POP POP SWAP3 SWAP6 SWAP2 SWAP5 POP SWAP3 POP JUMP JUMPDEST PUSH1 0x0 PUSH1 0x20 DUP3 DUP5 SUB SLT ISZERO PUSH2 0xB3E JUMPI PUSH2 0xB3D PUSH2 0x964 JUMP JUMPDEST JUMPDEST PUSH1 0x0 PUSH2 0xB4C DUP5 DUP3 DUP6 ADD PUSH2 0xA5A JUMP JUMPDEST SWAP2 POP POP SWAP3 SWAP2 POP POP JUMP JUMPDEST PUSH1 0x0 PUSH1 0x20 DUP3 DUP5 SUB SLT ISZERO PUSH2 0xB6B JUMPI PUSH2 0xB6A PUSH2 0x964 JUMP JUMPDEST JUMPDEST PUSH1 0x0 PUSH2 0xB79 DUP5 DUP3 DUP6 ADD PUSH2 0xA90 JUMP JUMPDEST SWAP2 POP POP SWAP3 SWAP2 POP POP JUMP JUMPDEST PUSH1 0x0 DUP2 SWAP1 POP SWAP2 SWAP1 POP JUMP JUMPDEST PUSH1 0x0 PUSH2 0xBA7 PUSH2 0xBA2 PUSH2 0xB9D DUP5 PUSH2 0xA11 JUMP JUMPDEST PUSH2 0xB82 JUMP JUMPDEST PUSH2 0xA11 JUMP JUMPDEST SWAP1 POP SWAP2 SWAP1 POP JUMP JUMPDEST PUSH1 0x0 PUSH2 0xBB9 DUP3 PUSH2 0xB8C JUMP JUMPDEST SWAP1 POP SWAP2 SWAP1 POP JUMP JUMPDEST PUSH1 0x0 PUSH2 0xBCB DUP3 PUSH2 0xBAE JUMP JUMPDEST SWAP1 POP SWAP2 SWAP1 POP JUMP JUMPDEST PUSH2 0xBDB DUP2 PUSH2 0xBC0 JUMP JUMPDEST DUP3 MSTORE POP POP JUMP JUMPDEST PUSH1 0x0 PUSH1 0x20 DUP3 ADD SWAP1 POP PUSH2 0xBF6 PUSH1 0x0 DUP4 ADD DUP5 PUSH2 0xBD2 JUMP JUMPDEST SWAP3 SWAP2 POP POP JUMP JUMPDEST PUSH2 0xC05 DUP2 PUSH2 0xA31 JUMP JUMPDEST DUP3 MSTORE POP POP JUMP JUMPDEST PUSH1 0x0 PUSH1 0x20 DUP3 ADD SWAP1 POP PUSH2 0xC20 PUSH1 0x0 DUP4 ADD DUP5 PUSH2 0xBFC JUMP JUMPDEST SWAP3 SWAP2 POP POP JUMP JUMPDEST PUSH1 0x0 DUP1 PUSH1 0x0 PUSH1 0x60 DUP5 DUP7 SUB SLT ISZERO PUSH2 0xC3F JUMPI PUSH2 0xC3E PUSH2 0x964 JUMP JUMPDEST JUMPDEST PUSH1 0x0 PUSH2 0xC4D DUP7 DUP3 DUP8 ADD PUSH2 0xA5A JUMP JUMPDEST SWAP4 POP POP PUSH1 0x20 PUSH2 0xC5E DUP7 DUP3 DUP8 ADD PUSH2 0xA90 JUMP JUMPDEST SWAP3 POP POP PUSH1 0x40 DUP5 ADD CALLDATALOAD PUSH8 0xFFFFFFFFFFFFFFFF DUP2 GT ISZERO PUSH2 0xC7F JUMPI PUSH2 0xC7E PUSH2 0x969 JUMP JUMPDEST JUMPDEST PUSH2 0xC8B DUP7 DUP3 DUP8 ADD PUSH2 0x973 JUMP JUMPDEST SWAP2 POP POP SWAP3 POP SWAP3 POP SWAP3 JUMP JUMPDEST PUSH1 0x0 PUSH2 0xCA0 DUP3 PUSH2 0xBAE JUMP JUMPDEST SWAP1 POP SWAP2 SWAP1 POP JUMP JUMPDEST PUSH2 0xCB0 DUP2 PUSH2 0xC95 JUMP JUMPDEST DUP3 MSTORE POP POP JUMP JUMPDEST PUSH1 0x0 PUSH1 0x20 DUP3 ADD SWAP1 POP PUSH2 0xCCB PUSH1 0x0 DUP4 ADD DUP5 PUSH2 0xCA7 JUMP JUMPDEST SWAP3 SWAP2 POP POP JUMP JUMPDEST PUSH1 0x0 PUSH2 0xCDC DUP3 PUSH2 0xBAE JUMP JUMPDEST SWAP1 POP SWAP2 SWAP1 POP JUMP JUMPDEST PUSH2 0xCEC DUP2 PUSH2 0xCD1 JUMP JUMPDEST DUP3 MSTORE POP POP JUMP JUMPDEST PUSH1 0x0 PUSH1 0x20 DUP3 ADD SWAP1 POP PUSH2 0xD07 PUSH1 0x0 DUP4 ADD DUP5 PUSH2 0xCE3 JUMP JUMPDEST SWAP3 SWAP2 POP POP JUMP JUMPDEST PUSH1 0x0 DUP1 REVERT JUMPDEST PUSH1 0x0 DUP1 REVERT JUMPDEST PUSH1 0x0 DUP1 REVERT JUMPDEST PUSH1 0x0 DUP1 DUP4 CALLDATALOAD PUSH1 0x1 PUSH1 0x20 SUB DUP5 CALLDATASIZE SUB SUB DUP2 SLT PUSH2 0xD39 JUMPI PUSH2 0xD38 PUSH2 0xD17 JUMP JUMPDEST JUMPDEST DUP4 DUP2 ADD SWAP3 POP DUP3 CALLDATALOAD SWAP2 POP PUSH1 0x20 DUP4 ADD SWAP3 POP PUSH8 0xFFFFFFFFFFFFFFFF DUP3 GT ISZERO PUSH2 0xD61 JUMPI PUSH2 0xD60 PUSH2 0xD0D JUMP JUMPDEST JUMPDEST PUSH1 0x20 DUP3 MUL CALLDATASIZE SUB DUP4 SGT ISZERO PUSH2 0xD77 JUMPI PUSH2 0xD76 PUSH2 0xD12 JUMP JUMPDEST JUMPDEST POP SWAP3 POP SWAP3 SWAP1 POP JUMP JUMPDEST PUSH1 0x0 DUP3 DUP3 MSTORE PUSH1 0x20 DUP3 ADD SWAP1 POP SWAP3 SWAP2 POP POP JUMP JUMPDEST PUSH1 0x0 DUP1 REVERT JUMPDEST DUP3 DUP2 DUP4 CALLDATACOPY POP POP POP JUMP JUMPDEST PUSH1 0x0 PUSH2 0xDAA DUP4 DUP6 PUSH2 0xD7F JUMP JUMPDEST SWAP4 POP PUSH32 0x7FFFFFFFFFFFFFFFFFFFFFFFFFFFFFFFFFFFFFFFFFFFFFFFFFFFFFFFFFFFFFF DUP4 GT ISZERO PUSH2 0xDDD JUMPI PUSH2 0xDDC PUSH2 0xD90 JUMP JUMPDEST JUMPDEST PUSH1 0x20 DUP4 MUL SWAP3 POP PUSH2 0xDEE DUP4 DUP6 DUP5 PUSH2 0xD95 JUMP JUMPDEST DUP3 DUP5 ADD SWAP1 POP SWAP4 SWAP3 POP POP POP JUMP JUMPDEST PUSH1 0x0 DUP3 CALLDATALOAD PUSH1 0x1 PUSH1 0xC0 SUB DUP4 CALLDATASIZE SUB SUB DUP2 SLT PUSH2 0xE16 JUMPI PUSH2 0xE15 PUSH2 0xD17 JUMP JUMPDEST JUMPDEST DUP3 DUP2 ADD SWAP2 POP POP SWAP3 SWAP2 POP POP JUMP JUMPDEST PUSH1 0x0 DUP2 SWAP1 POP SWAP2 SWAP1 POP JUMP JUMPDEST PUSH2 0xE35 DUP2 PUSH2 0xE22 JUMP JUMPDEST DUP2 EQ PUSH2 0xE40 JUMPI PUSH1 0x0 DUP1 REVERT JUMPDEST POP JUMP JUMPDEST PUSH1 0x0 DUP2 CALLDATALOAD SWAP1 POP PUSH2 0xE52 DUP2 PUSH2 0xE2C JUMP JUMPDEST SWAP3 SWAP2 POP POP JUMP JUMPDEST PUSH1 0x0 PUSH2 0xE67 PUSH1 0x20 DUP5 ADD DUP5 PUSH2 0xE43 JUMP JUMPDEST SWAP1 POP SWAP3 SWAP2 POP POP JUMP JUMPDEST PUSH2 0xE78 DUP2 PUSH2 0xE22 JUMP JUMPDEST DUP3 MSTORE POP POP JUMP JUMPDEST PUSH1 0x0 PUSH8 0xFFFFFFFFFFFFFFFF DUP3 AND SWAP1 POP SWAP2 SWAP1 POP JUMP JUMPDEST PUSH2 0xE9B DUP2 PUSH2 0xE7E JUMP JUMPDEST DUP2 EQ PUSH2 0xEA6 JUMPI PUSH1 0x0 DUP1 REVERT JUMPDEST POP JUMP JUMPDEST PUSH1 0x0 DUP2 CALLDATALOAD SWAP1 POP PUSH2 0xEB8 DUP2 PUSH2 0xE92 JUMP JUMPDEST SWAP3 SWAP2 POP POP JUMP JUMPDEST PUSH1 0x0 PUSH2 0xECD PUSH1 0x20 DUP5 ADD DUP5 PUSH2 0xEA9 JUMP JUMPDEST SWAP1 POP SWAP3 SWAP2 POP POP JUMP JUMPDEST PUSH2 0xEDE DUP2 PUSH2 0xE7E JUMP JUMPDEST DUP3 MSTORE POP POP JUMP JUMPDEST PUSH1 0x0 DUP3 CALLDATALOAD PUSH1 0x1 PUSH1 0xA0 SUB DUP4 CALLDATASIZE SUB SUB DUP2 SLT PUSH2 0xF00 JUMPI PUSH2 0xEFF PUSH2 0xD17 JUMP JUMPDEST JUMPDEST DUP3 DUP2 ADD SWAP2 POP POP SWAP3 SWAP2 POP POP JUMP JUMPDEST PUSH1 0x0 PUSH2 0xFFFF DUP3 AND SWAP1 POP SWAP2 SWAP1 POP JUMP JUMPDEST PUSH2 0xF23 DUP2 PUSH2 0xF0C JUMP JUMPDEST DUP2 EQ PUSH2 0xF2E JUMPI PUSH1 0x0 DUP1 REVERT JUMPDEST POP JUMP JUMPDEST PUSH1 0x0 DUP2 CALLDATALOAD SWAP1 POP PUSH2 0xF40 DUP2 PUSH2 0xF1A JUMP JUMPDEST SWAP3 SWAP2 POP POP JUMP JUMPDEST PUSH1 0x0 PUSH2 0xF55 PUSH1 0x20 DUP5 ADD DUP5 PUSH2 0xF31 JUMP JUMPDEST SWAP1 POP SWAP3 SWAP2 POP POP JUMP JUMPDEST PUSH2 0xF66 DUP2 PUSH2 0xF0C JUMP JUMPDEST DUP3 MSTORE POP POP JUMP JUMPDEST PUSH2 0xF75 DUP2 PUSH2 0x9DB JUMP JUMPDEST DUP2 EQ PUSH2 0xF80 JUMPI PUSH1 0x0 DUP1 REVERT JUMPDEST POP JUMP JUMPDEST PUSH1 0x0 DUP2 CALLDATALOAD SWAP1 POP PUSH2 0xF92 DUP2 PUSH2 0xF6C JUMP JUMPDEST SWAP3 SWAP2 POP POP JUMP JUMPDEST PUSH1 0x0 PUSH2 0xFA7 PUSH1 0x20 DUP5 ADD DUP5 PUSH2 0xF83 JUMP JUMPDEST SWAP1 POP SWAP3 SWAP2 POP POP JUMP JUMPDEST PUSH2 0xFB8 DUP2 PUSH2 0x9DB JUMP JUMPDEST DUP3 MSTORE POP POP JUMP JUMPDEST PUSH1 0x0 DUP1 DUP4 CALLDATALOAD PUSH1 0x1 PUSH1 0x20 SUB DUP5 CALLDATASIZE SUB SUB DUP2 SLT PUSH2 0xFDB JUMPI PUSH2 0xFDA PUSH2 0xD17 JUMP JUMPDEST JUMPDEST DUP4 DUP2 ADD SWAP3 POP DUP3 CALLDATALOAD SWAP2 POP PUSH1 0x20 DUP4 ADD SWAP3 POP PUSH8 0xFFFFFFFFFFFFFFFF DUP3 GT ISZERO PUSH2 0x1003 JUMPI PUSH2 0x1002 PUSH2 0xD0D JUMP JUMPDEST JUMPDEST PUSH1 0x20 DUP3 MUL CALLDATASIZE SUB DUP4 SGT ISZERO PUSH2 0x1019 JUMPI PUSH2 0x1018 PUSH2 0xD12 JUMP JUMPDEST JUMPDEST POP SWAP3 POP SWAP3 SWAP1 POP JUMP JUMPDEST PUSH1 0x0 DUP3 DUP3 MSTORE PUSH1 0x20 DUP3 ADD SWAP1 POP SWAP3 SWAP2 POP POP JUMP JUMPDEST PUSH1 0x0 DUP2 SWAP1 POP SWAP2 SWAP1 POP JUMP JUMPDEST PUSH1 0x0 PUSH4 0xFFFFFFFF DUP3 AND SWAP1 POP SWAP2 SWAP1 POP JUMP JUMPDEST PUSH2 0x1055 DUP2 PUSH2 0x103C JUMP JUMPDEST DUP3 MSTORE POP POP JUMP JUMPDEST PUSH1 0x0 PUSH2 0x1067 DUP4 DUP4 PUSH2 0x104C JUMP JUMPDEST PUSH1 0x20 DUP4 ADD SWAP1 POP SWAP3 SWAP2 POP POP JUMP JUMPDEST PUSH2 0x107C DUP2 PUSH2 0x103C JUMP JUMPDEST DUP2 EQ PUSH2 0x1087 JUMPI PUSH1 0x0 DUP1 REVERT JUMPDEST POP JUMP JUMPDEST PUSH1 0x0 DUP2 CALLDATALOAD SWAP1 POP PUSH2 0x1099 DUP2 PUSH2 0x1073 JUMP JUMPDEST SWAP3 SWAP2 POP POP JUMP JUMPDEST PUSH1 0x0 PUSH2 0x10AE PUSH1 0x20 DUP5 ADD DUP5 PUSH2 0x108A JUMP JUMPDEST SWAP1 POP SWAP3 SWAP2 POP POP JUMP JUMPDEST PUSH1 0x0 PUSH1 0x20 DUP3 ADD SWAP1 POP SWAP2 SWAP1 POP JUMP JUMPDEST PUSH1 0x0 PUSH2 0x10CF DUP4 DUP6 PUSH2 0x1021 JUMP JUMPDEST SWAP4 POP PUSH2 0x10DA DUP3 PUSH2 0x1032 JUMP JUMPDEST DUP1 PUSH1 0x0 JUMPDEST DUP6 DUP2 LT ISZERO PUSH2 0x1113 JUMPI PUSH2 0x10F0 DUP3 DUP5 PUSH2 0x109F JUMP JUMPDEST PUSH2 0x10FA DUP9 DUP3 PUSH2 0x105B JUMP JUMPDEST SWAP8 POP PUSH2 0x1105 DUP4 PUSH2 0x10B6 JUMP JUMPDEST SWAP3 POP POP PUSH1 0x1 DUP2 ADD SWAP1 POP PUSH2 0x10DE JUMP JUMPDEST POP DUP6 SWAP3 POP POP POP SWAP4 SWAP3 POP POP POP JUMP JUMPDEST PUSH1 0x0 PUSH1 0xA0 DUP4 ADD PUSH2 0x1133 PUSH1 0x0 DUP5 ADD DUP5 PUSH2 0xE58 JUMP JUMPDEST PUSH2 0x1140 PUSH1 0x0 DUP7 ADD DUP3 PUSH2 0xE6F JUMP JUMPDEST POP PUSH2 0x114E PUSH1 0x20 DUP5 ADD DUP5 PUSH2 0xF46 JUMP JUMPDEST PUSH2 0x115B PUSH1 0x20 DUP7 ADD DUP3 PUSH2 0xF5D JUMP JUMPDEST POP PUSH2 0x1169 PUSH1 0x40 DUP5 ADD DUP5 PUSH2 0xF98 JUMP JUMPDEST PUSH2 0x1176 PUSH1 0x40 DUP7 ADD DUP3 PUSH2 0xFAF JUMP JUMPDEST POP PUSH2 0x1184 PUSH1 0x60 DUP5 ADD DUP5 PUSH2 0xF98 JUMP JUMPDEST PUSH2 0x1191 PUSH1 0x60 DUP7 ADD DUP3 PUSH2 0xFAF JUMP JUMPDEST POP PUSH2 0x119F PUSH1 0x80 DUP5 ADD DUP5 PUSH2 0xFBE JUMP JUMPDEST DUP6 DUP4 SUB PUSH1 0x80 DUP8 ADD MSTORE PUSH2 0x11B2 DUP4 DUP3 DUP5 PUSH2 0x10C3 JUMP JUMPDEST SWAP3 POP POP POP DUP1 SWAP2 POP POP SWAP3 SWAP2 POP POP JUMP JUMPDEST PUSH1 0x0 DUP3 CALLDATALOAD PUSH1 0x1 PUSH2 0x120 SUB DUP4 CALLDATASIZE SUB SUB DUP2 SLT PUSH2 0x11DD JUMPI PUSH2 0x11DC PUSH2 0xD17 JUMP JUMPDEST JUMPDEST DUP3 DUP2 ADD SWAP2 POP POP SWAP3 SWAP2 POP POP JUMP JUMPDEST PUSH1 0x0 PUSH2 0x11F8 PUSH1 0x20 DUP5 ADD DUP5 PUSH2 0xA5A JUMP JUMPDEST SWAP1 POP SWAP3 SWAP2 POP POP JUMP JUMPDEST PUSH2 0x1209 DUP2 PUSH2 0xA31 JUMP JUMPDEST DUP3 MSTORE POP POP JUMP JUMPDEST PUSH1 0x0 PUSH2 0x121E PUSH1 0x20 DUP5 ADD DUP5 PUSH2 0xA90 JUMP JUMPDEST SWAP1 POP SWAP3 SWAP2 POP POP JUMP JUMPDEST PUSH2 0x122F DUP2 PUSH2 0xA6F JUMP JUMPDEST DUP3 MSTORE POP POP JUMP JUMPDEST PUSH1 0x0 DUP1 DUP4 CALLDATALOAD PUSH1 0x1 PUSH1 0x20 SUB DUP5 CALLDATASIZE SUB SUB DUP2 SLT PUSH2 0x1252 JUMPI PUSH2 0x1251 PUSH2 0xD17 JUMP JUMPDEST JUMPDEST DUP4 DUP2 ADD SWAP3 POP DUP3 CALLDATALOAD SWAP2 POP PUSH1 0x20 DUP4 ADD SWAP3 POP PUSH8 0xFFFFFFFFFFFFFFFF DUP3 GT ISZERO PUSH2 0x127A JUMPI PUSH2 0x1279 PUSH2 0xD0D JUMP JUMPDEST JUMPDEST PUSH1 0x1 DUP3 MUL CALLDATASIZE SUB DUP4 SGT ISZERO PUSH2 0x1290 JUMPI PUSH2 0x128F PUSH2 0xD12 JUMP JUMPDEST JUMPDEST POP SWAP3 POP SWAP3 SWAP1 POP JUMP JUMPDEST PUSH1 0x0 DUP3 DUP3 MSTORE PUSH1 0x20 DUP3 ADD SWAP1 POP SWAP3 SWAP2 POP POP JUMP JUMPDEST DUP3 DUP2 DUP4 CALLDATACOPY PUSH1 0x0 DUP4 DUP4 ADD MSTORE POP POP POP JUMP JUMPDEST PUSH1 0x0 PUSH1 0x1F NOT PUSH1 0x1F DUP4 ADD AND SWAP1 POP SWAP2 SWAP1 POP JUMP JUMPDEST PUSH1 0x0 PUSH2 0x12D5 DUP4 DUP6 PUSH2 0x1298 JUMP JUMPDEST SWAP4 POP PUSH2 0x12E2 DUP4 DUP6 DUP5 PUSH2 0x12A9 JUMP JUMPDEST PUSH2 0x12EB DUP4 PUSH2 0x12B8 JUMP JUMPDEST DUP5 ADD SWAP1 POP SWAP4 SWAP3 POP POP POP JUMP JUMPDEST PUSH1 0x0 PUSH1 0xFF DUP3 AND SWAP1 POP SWAP2 SWAP1 POP JUMP JUMPDEST PUSH2 0x130C DUP2 PUSH2 0x12F6 JUMP JUMPDEST DUP2 EQ PUSH2 0x1317 JUMPI PUSH1 0x0 DUP1 REVERT JUMPDEST POP JUMP JUMPDEST PUSH1 0x0 DUP2 CALLDATALOAD SWAP1 POP PUSH2 0x1329 DUP2 PUSH2 0x1303 JUMP JUMPDEST SWAP3 SWAP2 POP POP JUMP JUMPDEST PUSH1 0x0 PUSH2 0x133E PUSH1 0x20 DUP5 ADD DUP5 PUSH2 0x131A JUMP JUMPDEST SWAP1 POP SWAP3 SWAP2 POP POP JUMP JUMPDEST PUSH2 0x134F DUP2 PUSH2 0x12F6 JUMP JUMPDEST DUP3 MSTORE POP POP JUMP JUMPDEST PUSH1 0x0 DUP1 DUP4 CALLDATALOAD PUSH1 0x1 PUSH1 0x20 SUB DUP5 CALLDATASIZE SUB SUB DUP2 SLT PUSH2 0x1372 JUMPI PUSH2 0x1371 PUSH2 0xD17 JUMP JUMPDEST JUMPDEST DUP4 DUP2 ADD SWAP3 POP DUP3 CALLDATALOAD SWAP2 POP PUSH1 0x20 DUP4 ADD SWAP3 POP PUSH8 0xFFFFFFFFFFFFFFFF DUP3 GT ISZERO PUSH2 0x139A JUMPI PUSH2 0x1399 PUSH2 0xD0D JUMP JUMPDEST JUMPDEST PUSH1 0x20 DUP3 MUL CALLDATASIZE SUB DUP4 SGT ISZERO PUSH2 0x13B0 JUMPI PUSH2 0x13AF PUSH2 0xD12 JUMP JUMPDEST JUMPDEST POP SWAP3 POP SWAP3 SWAP1 POP JUMP JUMPDEST PUSH1 0x0 DUP3 DUP3 MSTORE PUSH1 0x20 DUP3 ADD SWAP1 POP SWAP3 SWAP2 POP POP JUMP JUMPDEST PUSH1 0x0 DUP2 SWAP1 POP SWAP2 SWAP1 POP JUMP JUMPDEST PUSH1 0x0 PUSH1 0xA0 DUP4 ADD PUSH2 0x13E6 PUSH1 0x0 DUP5 ADD DUP5 PUSH2 0x109F JUMP JUMPDEST PUSH2 0x13F3 PUSH1 0x0 DUP7 ADD DUP3 PUSH2 0x104C JUMP JUMPDEST POP PUSH2 0x1401 PUSH1 0x20 DUP5 ADD DUP5 PUSH2 0x11E9 JUMP JUMPDEST PUSH2 0x140E PUSH1 0x20 DUP7 ADD DUP3 PUSH2 0x1200 JUMP JUMPDEST POP PUSH2 0x141C PUSH1 0x40 DUP5 ADD DUP5 PUSH2 0xD1C JUMP JUMPDEST DUP6 DUP4 SUB PUSH1 0x40 DUP8 ADD MSTORE PUSH2 0x142F DUP4 DUP3 DUP5 PUSH2 0xD9E JUMP JUMPDEST SWAP3 POP POP POP PUSH2 0x1440 PUSH1 0x60 DUP5 ADD DUP5 PUSH2 0x1235 JUMP JUMPDEST DUP6 DUP4 SUB PUSH1 0x60 DUP8 ADD MSTORE PUSH2 0x1453 DUP4 DUP3 DUP5 PUSH2 0x12C9 JUMP JUMPDEST SWAP3 POP POP POP PUSH2 0x1464 PUSH1 0x80 DUP5 ADD DUP5 PUSH2 0xF98 JUMP JUMPDEST PUSH2 0x1471 PUSH1 0x80 DUP7 ADD DUP3 PUSH2 0xFAF JUMP JUMPDEST POP DUP1 SWAP2 POP POP SWAP3 SWAP2 POP POP JUMP JUMPDEST PUSH1 0x0 PUSH2 0x1488 DUP4 DUP4 PUSH2 0x13D3 JUMP JUMPDEST SWAP1 POP SWAP3 SWAP2 POP POP JUMP JUMPDEST PUSH1 0x0 DUP3 CALLDATALOAD PUSH1 0x1 PUSH1 0xA0 SUB DUP4 CALLDATASIZE SUB SUB DUP2 SLT PUSH2 0x14AC JUMPI PUSH2 0x14AB PUSH2 0xD17 JUMP JUMPDEST JUMPDEST DUP3 DUP2 ADD SWAP2 POP POP SWAP3 SWAP2 POP POP JUMP JUMPDEST PUSH1 0x0 PUSH1 0x20 DUP3 ADD SWAP1 POP SWAP2 SWAP1 POP JUMP JUMPDEST PUSH1 0x0 PUSH2 0x14D1 DUP4 DUP6 PUSH2 0x13B8 JUMP JUMPDEST SWAP4 POP DUP4 PUSH1 0x20 DUP5 MUL DUP6 ADD PUSH2 0x14E3 DUP5 PUSH2 0x13C9 JUMP JUMPDEST DUP1 PUSH1 0x0 JUMPDEST DUP8 DUP2 LT ISZERO PUSH2 0x1527 JUMPI DUP5 DUP5 SUB DUP10 MSTORE PUSH2 0x14FE DUP3 DUP5 PUSH2 0x1490 JUMP JUMPDEST PUSH2 0x1508 DUP6 DUP3 PUSH2 0x147C JUMP JUMPDEST SWAP5 POP PUSH2 0x1513 DUP4 PUSH2 0x14B8 JUMP JUMPDEST SWAP3 POP PUSH1 0x20 DUP11 ADD SWAP10 POP POP PUSH1 0x1 DUP2 ADD SWAP1 POP PUSH2 0x14E7 JUMP JUMPDEST POP DUP3 SWAP8 POP DUP8 SWAP5 POP POP POP POP POP SWAP4 SWAP3 POP POP POP JUMP JUMPDEST PUSH1 0x0 PUSH2 0x120 DUP4 ADD PUSH2 0x154D PUSH1 0x0 DUP5 ADD DUP5 PUSH2 0xEBE JUMP JUMPDEST PUSH2 0x155A PUSH1 0x0 DUP7 ADD DUP3 PUSH2 0xED5 JUMP JUMPDEST POP PUSH2 0x1568 PUSH1 0x20 DUP5 ADD DUP5 PUSH2 0xEBE JUMP JUMPDEST PUSH2 0x1575 PUSH1 0x20 DUP7 ADD DUP3 PUSH2 0xED5 JUMP JUMPDEST POP PUSH2 0x1583 PUSH1 0x40 DUP5 ADD DUP5 PUSH2 0x11E9 JUMP JUMPDEST PUSH2 0x1590 PUSH1 0x40 DUP7 ADD DUP3 PUSH2 0x1200 JUMP JUMPDEST POP PUSH2 0x159E PUSH1 0x60 DUP5 ADD DUP5 PUSH2 0xF98 JUMP JUMPDEST PUSH2 0x15AB PUSH1 0x60 DUP7 ADD DUP3 PUSH2 0xFAF JUMP JUMPDEST POP PUSH2 0x15B9 PUSH1 0x80 DUP5 ADD DUP5 PUSH2 0x11E9 JUMP JUMPDEST PUSH2 0x15C6 PUSH1 0x80 DUP7 ADD DUP3 PUSH2 0x1200 JUMP JUMPDEST POP PUSH2 0x15D4 PUSH1 0xA0 DUP5 ADD DUP5 PUSH2 0x120F JUMP JUMPDEST PUSH2 0x15E1 PUSH1 0xA0 DUP7 ADD DUP3 PUSH2 0x1226 JUMP JUMPDEST POP PUSH2 0x15EF PUSH1 0xC0 DUP5 ADD DUP5 PUSH2 0x1235 JUMP JUMPDEST DUP6 DUP4 SUB PUSH1 0xC0 DUP8 ADD MSTORE PUSH2 0x1602 DUP4 DUP3 DUP5 PUSH2 0x12C9 JUMP JUMPDEST SWAP3 POP POP POP PUSH2 0x1613 PUSH1 0xE0 DUP5 ADD DUP5 PUSH2 0x132F JUMP JUMPDEST PUSH2 0x1620 PUSH1 0xE0 DUP7 ADD DUP3 PUSH2 0x1346 JUMP JUMPDEST POP PUSH2 0x162F PUSH2 0x100 DUP5 ADD DUP5 PUSH2 0x1355 JUMP JUMPDEST DUP6 DUP4 SUB PUSH2 0x100 DUP8 ADD MSTORE PUSH2 0x1643 DUP4 DUP3 DUP5 PUSH2 0x14C5 JUMP JUMPDEST SWAP3 POP POP POP DUP1 SWAP2 POP POP SWAP3 SWAP2 POP POP JUMP JUMPDEST PUSH1 0x0 PUSH1 0xC0 DUP4 ADD PUSH2 0x1664 PUSH1 0x0 DUP5 ADD DUP5 PUSH2 0xE58 JUMP JUMPDEST PUSH2 0x1671 PUSH1 0x0 DUP7 ADD DUP3 PUSH2 0xE6F JUMP JUMPDEST POP PUSH2 0x167F PUSH1 0x20 DUP5 ADD DUP5 PUSH2 0xE58 JUMP JUMPDEST PUSH2 0x168C PUSH1 0x20 DUP7 ADD DUP3 PUSH2 0xE6F JUMP JUMPDEST POP PUSH2 0x169A PUSH1 0x40 DUP5 ADD DUP5 PUSH2 0xEBE JUMP JUMPDEST PUSH2 0x16A7 PUSH1 0x40 DUP7 ADD DUP3 PUSH2 0xED5 JUMP JUMPDEST POP PUSH2 0x16B5 PUSH1 0x60 DUP5 ADD DUP5 PUSH2 0xEBE JUMP JUMPDEST PUSH2 0x16C2 PUSH1 0x60 DUP7 ADD DUP3 PUSH2 0xED5 JUMP JUMPDEST POP PUSH2 0x16D0 PUSH1 0x80 DUP5 ADD DUP5 PUSH2 0xEE4 JUMP JUMPDEST DUP5 DUP3 SUB PUSH1 0x80 DUP7 ADD MSTORE PUSH2 0x16E2 DUP3 DUP3 PUSH2 0x1120 JUMP JUMPDEST SWAP2 POP POP PUSH2 0x16F2 PUSH1 0xA0 DUP5 ADD DUP5 PUSH2 0x11C0 JUMP JUMPDEST DUP5 DUP3 SUB PUSH1 0xA0 DUP7 ADD MSTORE PUSH2 0x1704 DUP3 DUP3 PUSH2 0x1539 JUMP JUMPDEST SWAP2 POP POP DUP1 SWAP2 POP POP SWAP3 SWAP2 POP POP JUMP JUMPDEST PUSH1 0x0 PUSH1 0x40 DUP4 ADD PUSH2 0x1724 PUSH1 0x0 DUP5 ADD DUP5 PUSH2 0xD1C JUMP JUMPDEST DUP6 DUP4 SUB PUSH1 0x0 DUP8 ADD MSTORE PUSH2 0x1737 DUP4 DUP3 DUP5 PUSH2 0xD9E JUMP JUMPDEST SWAP3 POP POP POP PUSH2 0x1748 PUSH1 0x20 DUP5 ADD DUP5 PUSH2 0xDFA JUMP JUMPDEST DUP5 DUP3 SUB PUSH1 0x20 DUP7 ADD MSTORE PUSH2 0x175A DUP3 DUP3 PUSH2 0x1651 JUMP JUMPDEST SWAP2 POP POP DUP1 SWAP2 POP POP SWAP3 SWAP2 POP POP JUMP JUMPDEST PUSH1 0x0 PUSH1 0x20 DUP3 ADD SWAP1 POP DUP2 DUP2 SUB PUSH1 0x0 DUP4 ADD MSTORE PUSH2 0x1781 DUP2 DUP5 PUSH2 0x1711 JUMP JUMPDEST SWAP1 POP SWAP3 SWAP2 POP POP JUMP JUMPDEST PUSH1 0x0 DUP2 MLOAD SWAP1 POP PUSH2 0x1798 DUP2 PUSH2 0xF6C JUMP JUMPDEST SWAP3 SWAP2 POP POP JUMP JUMPDEST PUSH1 0x0 PUSH1 0x20 DUP3 DUP5 SUB SLT ISZERO PUSH2 0x17B4 JUMPI PUSH2 0x17B3 PUSH2 0x964 JUMP JUMPDEST JUMPDEST PUSH1 0x0 PUSH2 0x17C2 DUP5 DUP3 DUP6 ADD PUSH2 0x1789 JUMP JUMPDEST SWAP2 POP POP SWAP3 SWAP2 POP POP JUMP JUMPDEST PUSH1 0x0 DUP3 DUP3 MSTORE PUSH1 0x20 DUP3 ADD SWAP1 POP SWAP3 SWAP2 POP POP JUMP JUMPDEST PUSH32 0x496E76616C69642070726F6F6600000000000000000000000000000000000000 PUSH1 0x0 DUP3 ADD MSTORE POP JUMP JUMPDEST PUSH1 0x0 PUSH2 0x1812 PUSH1 0xD DUP4 PUSH2 0x17CB JUMP JUMPDEST SWAP2 POP PUSH2 0x181D DUP3 PUSH2 0x17DC JUMP JUMPDEST PUSH1 0x20 DUP3 ADD SWAP1 POP SWAP2 SWAP1 POP JUMP JUMPDEST PUSH1 0x0 PUSH1 0x20 DUP3 ADD SWAP1 POP DUP2 DUP2 SUB PUSH1 0x0 DUP4 ADD MSTORE PUSH2 0x1841 DUP2 PUSH2 0x1805 JUMP JUMPDEST SWAP1 POP SWAP2 SWAP1 POP JUMP JUMPDEST PUSH1 0x0 DUP1 REVERT JUMPDEST PUSH1 0x0 DUP1 REVERT JUMPDEST PUSH1 0x0 DUP1 REVERT JUMPDEST PUSH1 0x0 DUP3 CALLDATALOAD PUSH1 0x1 PUSH1 0xC0 SUB DUP4 CALLDATASIZE SUB SUB DUP2 SLT PUSH2 0x1873 JUMPI PUSH2 0x1872 PUSH2 0x1848 JUMP JUMPDEST JUMPDEST DUP1 DUP4 ADD SWAP2 POP POP SWAP3 SWAP2 POP POP JUMP JUMPDEST PUSH1 0x0 DUP3 CALLDATALOAD PUSH1 0x1 PUSH2 0x120 SUB DUP4 CALLDATASIZE SUB SUB DUP2 SLT PUSH2 0x189C JUMPI PUSH2 0x189B PUSH2 0x1848 JUMP JUMPDEST JUMPDEST DUP1 DUP4 ADD SWAP2 POP POP SWAP3 SWAP2 POP POP JUMP JUMPDEST PUSH1 0x0 DUP1 DUP4 CALLDATALOAD PUSH1 0x1 PUSH1 0x20 SUB DUP5 CALLDATASIZE SUB SUB DUP2 SLT PUSH2 0x18C5 JUMPI PUSH2 0x18C4 PUSH2 0x1848 JUMP JUMPDEST JUMPDEST DUP1 DUP5 ADD SWAP3 POP DUP3 CALLDATALOAD SWAP2 POP PUSH8 0xFFFFFFFFFFFFFFFF DUP3 GT ISZERO PUSH2 0x18E7 JUMPI PUSH2 0x18E6 PUSH2 0x184D JUMP JUMPDEST JUMPDEST PUSH1 0x20 DUP4 ADD SWAP3 POP PUSH1 0x20 DUP3 MUL CALLDATASIZE SUB DUP4 SGT ISZERO PUSH2 0x1903 JUMPI PUSH2 0x1902 PUSH2 0x1852 JUMP JUMPDEST JUMPDEST POP SWAP3 POP SWAP3 SWAP1 POP JUMP JUMPDEST PUSH32 0x4E487B7100000000000000000000000000000000000000000000000000000000 PUSH1 0x0 MSTORE PUSH1 0x32 PUSH1 0x4 MSTORE PUSH1 0x24 PUSH1 0x0 REVERT JUMPDEST PUSH1 0x0 DUP3 CALLDATALOAD PUSH1 0x1 PUSH1 0xA0 SUB DUP4 CALLDATASIZE SUB SUB DUP2 SLT PUSH2 0x1956 JUMPI PUSH2 0x1955 PUSH2 0x1848 JUMP JUMPDEST JUMPDEST DUP1 DUP4 ADD SWAP2 POP POP SWAP3 SWAP2 POP POP JUMP JUMPDEST PUSH1 0x0 DUP1 REVERT JUMPDEST PUSH32 0x4E487B7100000000000000000000000000000000000000000000000000000000 PUSH1 0x0 MSTORE PUSH1 0x41 PUSH1 0x4 MSTORE PUSH1 0x24 PUSH1 0x0 REVERT JUMPDEST PUSH2 0x199F DUP3 PUSH2 0x12B8 JUMP JUMPDEST DUP2 ADD DUP2 DUP2 LT PUSH8 0xFFFFFFFFFFFFFFFF DUP3 GT OR ISZERO PUSH2 0x19BE JUMPI PUSH2 0x19BD PUSH2 0x1967 JUMP JUMPDEST JUMPDEST DUP1 PUSH1 0x40 MSTORE POP POP POP JUMP JUMPDEST PUSH1 0x0 PUSH2 0x19D1 PUSH2 0x95A JUMP JUMPDEST SWAP1 POP PUSH2 0x19DD DUP3 DUP3 PUSH2 0x1996 JUMP JUMPDEST SWAP2 SWAP1 POP JUMP JUMPDEST PUSH1 0x0 DUP1 REVERT JUMPDEST PUSH1 0x0 DUP1 REVERT JUMPDEST PUSH1 0x0 PUSH8 0xFFFFFFFFFFFFFFFF DUP3 GT ISZERO PUSH2 0x1A07 JUMPI PUSH2 0x1A06 PUSH2 0x1967 JUMP JUMPDEST JUMPDEST PUSH1 0x20 DUP3 MUL SWAP1 POP PUSH1 0x20 DUP2 ADD SWAP1 POP SWAP2 SWAP1 POP JUMP JUMPDEST PUSH1 0x0 DUP1 REVERT JUMPDEST PUSH1 0x0 PUSH2 0x1A30 PUSH2 0x1A2B DUP5 PUSH2 0x19EC JUMP JUMPDEST PUSH2 0x19C7 JUMP JUMPDEST SWAP1 POP DUP1 DUP4 DUP3 MSTORE PUSH1 0x20 DUP3 ADD SWAP1 POP PUSH1 0x20 DUP5 MUL DUP4 ADD DUP6 DUP2 GT ISZERO PUSH2 0x1A53 JUMPI PUSH2 0x1A52 PUSH2 0x1A18 JUMP JUMPDEST JUMPDEST DUP4 JUMPDEST DUP2 DUP2 LT ISZERO PUSH2 0x1A7C JUMPI DUP1 PUSH2 0x1A68 DUP9 DUP3 PUSH2 0xE43 JUMP JUMPDEST DUP5 MSTORE PUSH1 0x20 DUP5 ADD SWAP4 POP POP PUSH1 0x20 DUP2 ADD SWAP1 POP PUSH2 0x1A55 JUMP JUMPDEST POP POP POP SWAP4 SWAP3 POP POP POP JUMP JUMPDEST PUSH1 0x0 DUP3 PUSH1 0x1F DUP4 ADD SLT PUSH2 0x1A9B JUMPI PUSH2 0x1A9A PUSH2 0x19E7 JUMP JUMPDEST JUMPDEST DUP2 CALLDATALOAD PUSH2 0x1AAB DUP5 DUP3 PUSH1 0x20 DUP7 ADD PUSH2 0x1A1D JUMP JUMPDEST SWAP2 POP POP SWAP3 SWAP2 POP POP JUMP JUMPDEST PUSH1 0x0 DUP1 REVERT JUMPDEST PUSH1 0x0 PUSH8 0xFFFFFFFFFFFFFFFF DUP3 GT ISZERO PUSH2 0x1AD4 JUMPI PUSH2 0x1AD3 PUSH2 0x1967 JUMP JUMPDEST JUMPDEST PUSH2 0x1ADD DUP3 PUSH2 0x12B8 JUMP JUMPDEST SWAP1 POP PUSH1 0x20 DUP2 ADD SWAP1 POP SWAP2 SWAP1 POP JUMP JUMPDEST PUSH1 0x0 PUSH2 0x1AFD PUSH2 0x1AF8 DUP5 PUSH2 0x1AB9 JUMP JUMPDEST PUSH2 0x19C7 JUMP JUMPDEST SWAP1 POP DUP3 DUP2 MSTORE PUSH1 0x20 DUP2 ADD DUP5 DUP5 DUP5 ADD GT ISZERO PUSH2 0x1B19 JUMPI PUSH2 0x1B18 PUSH2 0x1AB4 JUMP JUMPDEST JUMPDEST PUSH2 0x1B24 DUP5 DUP3 DUP6 PUSH2 0x12A9 JUMP JUMPDEST POP SWAP4 SWAP3 POP POP POP JUMP JUMPDEST PUSH1 0x0 DUP3 PUSH1 0x1F DUP4 ADD SLT PUSH2 0x1B41 JUMPI PUSH2 0x1B40 PUSH2 0x19E7 JUMP JUMPDEST JUMPDEST DUP2 CALLDATALOAD PUSH2 0x1B51 DUP5 DUP3 PUSH1 0x20 DUP7 ADD PUSH2 0x1AEA JUMP JUMPDEST SWAP2 POP POP SWAP3 SWAP2 POP POP JUMP JUMPDEST PUSH1 0x0 PUSH1 0xA0 DUP3 DUP5 SUB SLT ISZERO PUSH2 0x1B70 JUMPI PUSH2 0x1B6F PUSH2 0x1962 JUMP JUMPDEST JUMPDEST PUSH2 0x1B7A PUSH1 0xA0 PUSH2 0x19C7 JUMP JUMPDEST SWAP1 POP PUSH1 0x0 PUSH2 0x1B8A DUP5 DUP3 DUP6 ADD PUSH2 0x108A JUMP JUMPDEST PUSH1 0x0 DUP4 ADD MSTORE POP PUSH1 0x20 PUSH2 0x1B9E DUP5 DUP3 DUP6 ADD PUSH2 0xA5A JUMP JUMPDEST PUSH1 0x20 DUP4 ADD MSTORE POP PUSH1 0x40 DUP3 ADD CALLDATALOAD PUSH8 0xFFFFFFFFFFFFFFFF DUP2 GT ISZERO PUSH2 0x1BC2 JUMPI PUSH2 0x1BC1 PUSH2 0x19E2 JUMP JUMPDEST JUMPDEST PUSH2 0x1BCE DUP5 DUP3 DUP6 ADD PUSH2 0x1A86 JUMP JUMPDEST PUSH1 0x40 DUP4 ADD MSTORE POP PUSH1 0x60 DUP3 ADD CALLDATALOAD PUSH8 0xFFFFFFFFFFFFFFFF DUP2 GT ISZERO PUSH2 0x1BF2 JUMPI PUSH2 0x1BF1 PUSH2 0x19E2 JUMP JUMPDEST JUMPDEST PUSH2 0x1BFE DUP5 DUP3 DUP6 ADD PUSH2 0x1B2C JUMP JUMPDEST PUSH1 0x60 DUP4 ADD MSTORE POP PUSH1 0x80 PUSH2 0x1C12 DUP5 DUP3 DUP6 ADD PUSH2 0xF83 JUMP JUMPDEST PUSH1 0x80 DUP4 ADD MSTORE POP SWAP3 SWAP2 POP POP JUMP JUMPDEST PUSH1 0x0 PUSH2 0x1C2A CALLDATASIZE DUP4 PUSH2 0x1B5A JUMP JUMPDEST SWAP1 POP SWAP2 SWAP1 POP JUMP JUMPDEST PUSH32 0x496E76616C6964206576656E7400000000000000000000000000000000000000 PUSH1 0x0 DUP3 ADD MSTORE POP JUMP JUMPDEST PUSH1 0x0 PUSH2 0x1C67 PUSH1 0xD DUP4 PUSH2 0x17CB JUMP JUMPDEST SWAP2 POP PUSH2 0x1C72 DUP3 PUSH2 0x1C31 JUMP JUMPDEST PUSH1 0x20 DUP3 ADD SWAP1 POP SWAP2 SWAP1 POP JUMP JUMPDEST PUSH1 0x0 PUSH1 0x20 DUP3 ADD SWAP1 POP DUP2 DUP2 SUB PUSH1 0x0 DUP4 ADD MSTORE PUSH2 0x1C96 DUP2 PUSH2 0x1C5A JUMP JUMPDEST SWAP1 POP SWAP2 SWAP1 POP JUMP JUMPDEST PUSH1 0x0 PUSH2 0x1CA8 DUP3 PUSH2 0xA11 JUMP JUMPDEST SWAP1 POP SWAP2 SWAP1 POP JUMP JUMPDEST PUSH2 0x1CB8 DUP2 PUSH2 0x1C9D JUMP JUMPDEST DUP2 EQ PUSH2 0x1CC3 JUMPI PUSH1 0x0 DUP1 REVERT JUMPDEST POP JUMP JUMPDEST PUSH1 0x0 DUP2 MLOAD SWAP1 POP PUSH2 0x1CD5 DUP2 PUSH2 0x1CAF JUMP JUMPDEST SWAP3 SWAP2 POP POP JUMP JUMPDEST PUSH1 0x0 JUMPDEST DUP4 DUP2 LT ISZERO PUSH2 0x1CF9 JUMPI DUP1 DUP3 ADD MLOAD DUP2 DUP5 ADD MSTORE PUSH1 0x20 DUP2 ADD SWAP1 POP PUSH2 0x1CDE JUMP JUMPDEST PUSH1 0x0 DUP5 DUP5 ADD MSTORE POP POP POP POP JUMP JUMPDEST PUSH1 0x0 PUSH2 0x1D18 PUSH2 0x1D13 DUP5 PUSH2 0x1AB9 JUMP JUMPDEST PUSH2 0x19C7 JUMP JUMPDEST SWAP1 POP DUP3 DUP2 MSTORE PUSH1 0x20 DUP2 ADD DUP5 DUP5 DUP5 ADD GT ISZERO PUSH2 0x1D34 JUMPI PUSH2 0x1D33 PUSH2 0x1AB4 JUMP JUMPDEST JUMPDEST PUSH2 0x1D3F DUP5 DUP3 DUP6 PUSH2 0x1CDB JUMP JUMPDEST POP SWAP4 SWAP3 POP POP POP JUMP JUMPDEST PUSH1 0x0 DUP3 PUSH1 0x1F DUP4 ADD SLT PUSH2 0x1D5C JUMPI PUSH2 0x1D5B PUSH2 0x19E7 JUMP JUMPDEST JUMPDEST DUP2 MLOAD PUSH2 0x1D6C DUP5 DUP3 PUSH1 0x20 DUP7 ADD PUSH2 0x1D05 JUMP JUMPDEST SWAP2 POP POP SWAP3 SWAP2 POP POP JUMP JUMPDEST PUSH1 0x0 DUP1 PUSH1 0x0 DUP1 PUSH1 0x80 DUP6 DUP8 SUB SLT ISZERO PUSH2 0x1D8F JUMPI PUSH2 0x1D8E PUSH2 0x964 JUMP JUMPDEST JUMPDEST PUSH1 0x0 PUSH2 0x1D9D DUP8 DUP3 DUP9 ADD PUSH2 0x1CC6 JUMP JUMPDEST SWAP5 POP POP PUSH1 0x20 PUSH2 0x1DAE DUP8 DUP3 DUP9 ADD PUSH2 0x1789 JUMP JUMPDEST SWAP4 POP POP PUSH1 0x40 DUP6 ADD MLOAD PUSH8 0xFFFFFFFFFFFFFFFF DUP2 GT ISZERO PUSH2 0x1DCF JUMPI PUSH2 0x1DCE PUSH2 0x969 JUMP JUMPDEST JUMPDEST PUSH2 0x1DDB DUP8 DUP3 DUP9 ADD PUSH2 0x1D47 JUMP JUMPDEST SWAP3 POP POP PUSH1 0x60 DUP6 ADD MLOAD PUSH8 0xFFFFFFFFFFFFFFFF DUP2 GT ISZERO PUSH2 0x1DFC JUMPI PUSH2 0x1DFB PUSH2 0x969 JUMP JUMPDEST JUMPDEST PUSH2 0x1E08 DUP8 DUP3 DUP9 ADD PUSH2 0x1D47 JUMP JUMPDEST SWAP2 POP POP SWAP3 SWAP6 SWAP2 SWAP5 POP SWAP3 POP JUMP JUMPDEST PUSH32 0x496E76616C696420746F6B656E20616464726573730000000000000000000000 PUSH1 0x0 DUP3 ADD MSTORE POP JUMP JUMPDEST PUSH1 0x0 PUSH2 0x1E4A PUSH1 0x15 DUP4 PUSH2 0x17CB JUMP JUMPDEST SWAP2 POP PUSH2 0x1E55 DUP3 PUSH2 0x1E14 JUMP JUMPDEST PUSH1 0x20 DUP3 ADD SWAP1 POP SWAP2 SWAP1 POP JUMP JUMPDEST PUSH1 0x0 PUSH1 0x20 DUP3 ADD SWAP1 POP DUP2 DUP2 SUB PUSH1 0x0 DUP4 ADD MSTORE PUSH2 0x1E79 DUP2 PUSH2 0x1E3D JUMP JUMPDEST SWAP1 POP SWAP2 SWAP1 POP JUMP JUMPDEST PUSH2 0x1E89 DUP2 PUSH2 0xA6F JUMP JUMPDEST DUP3 MSTORE POP POP JUMP JUMPDEST PUSH1 0x0 PUSH1 0x40 DUP3 ADD SWAP1 POP PUSH2 0x1EA4 PUSH1 0x0 DUP4 ADD DUP6 PUSH2 0xBFC JUMP JUMPDEST PUSH2 0x1EB1 PUSH1 0x20 DUP4 ADD DUP5 PUSH2 0x1E80 JUMP JUMPDEST SWAP4 SWAP3 POP POP POP JUMP JUMPDEST PUSH32 0x496E76616C69642050726F6F6600000000000000000000000000000000000000 PUSH1 0x0 DUP3 ADD MSTORE POP JUMP JUMPDEST PUSH1 0x0 PUSH2 0x1EEE PUSH1 0xD DUP4 PUSH2 0x17CB JUMP JUMPDEST SWAP2 POP PUSH2 0x1EF9 DUP3 PUSH2 0x1EB8 JUMP JUMPDEST PUSH1 0x20 DUP3 ADD SWAP1 POP SWAP2 SWAP1 POP JUMP JUMPDEST PUSH1 0x0 PUSH1 0x20 DUP3 ADD SWAP1 POP DUP2 DUP2 SUB PUSH1 0x0 DUP4 ADD MSTORE PUSH2 0x1F1D DUP2 PUSH2 0x1EE1 JUMP JUMPDEST SWAP1 POP SWAP2 SWAP1 POP JUMP INVALID LOG2 PUSH5 0x6970667358 0x22 SLT KECCAK256 0xD7 PUSH28 0x54A9399D32CAE6FBBC5897745FF90EFF6ADDCDBF56856AB31C3F1A11 0xD5 MUL PUSH5 0x736F6C6343 STOP ADDMOD XOR STOP CALLER "},"methodIdentifiers":{"coinContract()":"72dd52e3","isBurnProofValid((bytes32[],(bytes32,bytes32,uint64,uint64,(bytes32,uint16,bool,bool,uint32[]),(uint64,uint64,address,bool,address,uint256,bytes,uint8,(uint32,address,bytes32[],bytes,bool)[]))),address,address,uint256)":"21f918ef","isEVMTransactionProofValid((bytes32[],(bytes32,bytes32,uint64,uint64,(bytes32,uint16,bool,bool,uint32[]),(uint64,uint64,address,bool,address,uint256,bytes,uint8,(uint32,address,bytes32[],bytes,bool)[]))))":"09f5dc91","owner()":"8da5cb5b","receiveToken(address,uint256,(bytes32[],(bytes32,bytes32,uint64,uint64,(bytes32,uint16,bool,bool,uint32[]),(uint64,uint64,address,bool,address,uint256,bytes,uint8,(uint32,address,bytes32[],bytes,bool)[]))))":"c56156b4","relayerContract()":"c669439e","renounceOwnership()":"715018a6","sendToken(uint256)":"437e95f1","setBridgedCoinContract(address)":"24b6e709","setRelay(address)":"c805f68b","transferOwnership(address)":"f2fde38b","verifierContract()":"cf695688"}}}}}