{"contracts/Gateway.sol":{"Gateway":{"abi":[{"inputs":[{"internalType":"address","name":"relayer","type":"address"},{"internalType":"address","name":"coin","type":"address"}],"stateMutability":"nonpayable","type":"constructor"},{"inputs":[{"internalType":"address","name":"owner","type":"address"}],"name":"OwnableInvalidOwner","type":"error"},{"inputs":[{"internalType":"address","name":"account","type":"address"}],"name":"OwnableUnauthorizedAccount","type":"error"},{"anonymous":false,"inputs":[{"indexed":true,"internalType":"address","name":"previousOwner","type":"address"},{"indexed":true,"internalType":"address","name":"newOwner","type":"address"}],"name":"OwnershipTransferred","type":"event"},{"anonymous":false,"inputs":[],"name":"TokensBridged","type":"event"},{"inputs":[],"name":"coinContract","outputs":[{"internalType":"contract IERC20Bridge","name":"","type":"address"}],"stateMutability":"view","type":"function"},{"inputs":[{"components":[{"internalType":"bytes32[]","name":"merkleProof","type":"bytes32[]"},{"components":[{"internalType":"bytes32","name":"attestationType","type":"bytes32"},{"internalType":"bytes32","name":"sourceId","type":"bytes32"},{"internalType":"uint64","name":"votingRound","type":"uint64"},{"internalType":"uint64","name":"lowestUsedTimestamp","type":"uint64"},{"components":[{"internalType":"bytes32","name":"transactionHash","type":"bytes32"},{"internalType":"uint16","name":"requiredConfirmations","type":"uint16"},{"internalType":"bool","name":"provideInput","type":"bool"},{"internalType":"bool","name":"listEvents","type":"bool"},{"internalType":"uint32[]","name":"logIndices","type":"uint32[]"}],"internalType":"struct EVMTransaction.RequestBody","name":"requestBody","type":"tuple"},{"components":[{"internalType":"uint64","name":"blockNumber","type":"uint64"},{"internalType":"uint64","name":"timestamp","type":"uint64"},{"internalType":"address","name":"sourceAddress","type":"address"},{"internalType":"bool","name":"isDeployment","type":"bool"},{"internalType":"address","name":"receivingAddress","type":"address"},{"internalType":"uint256","name":"value","type":"uint256"},{"internalType":"bytes","name":"input","type":"bytes"},{"internalType":"uint8","name":"status","type":"uint8"},{"components":[{"internalType":"uint32","name":"logIndex","type":"uint32"},{"internalType":"address","name":"emitterAddress","type":"address"},{"internalType":"bytes32[]","name":"topics","type":"bytes32[]"},{"internalType":"bytes","name":"data","type":"bytes"},{"internalType":"bool","name":"removed","type":"bool"}],"internalType":"struct EVMTransaction.Event[]","name":"events","type":"tuple[]"}],"internalType":"struct EVMTransaction.ResponseBody","name":"responseBody","type":"tuple"}],"internalType":"struct EVMTransaction.Response","name":"data","type":"tuple"}],"internalType":"struct EVMTransaction.Proof","name":"transaction","type":"tuple"},{"internalType":"address","name":"tokenAddress","type":"address"},{"internalType":"address","name":"to","type":"address"},{"internalType":"uint256","name":"amount","type":"uint256"}],"name":"isBurnProofValid","outputs":[{"internalType":"bool","name":"","type":"bool"}],"stateMutability":"view","type":"function"},{"inputs":[{"components":[{"internalType":"bytes32[]","name":"merkleProof","type":"bytes32[]"},{"components":[{"internalType":"bytes32","name":"attestationType","type":"bytes32"},{"internalType":"bytes32","name":"sourceId","type":"bytes32"},{"internalType":"uint64","name":"votingRound","type":"uint64"},{"internalType":"uint64","name":"lowestUsedTimestamp","type":"uint64"},{"components":[{"internalType":"bytes32","name":"transactionHash","type":"bytes32"},{"internalType":"uint16","name":"requiredConfirmations","type":"uint16"},{"internalType":"bool","name":"provideInput","type":"bool"},{"internalType":"bool","name":"listEvents","type":"bool"},{"internalType":"uint32[]","name":"logIndices","type":"uint32[]"}],"internalType":"struct EVMTransaction.RequestBody","name":"requestBody","type":"tuple"},{"components":[{"internalType":"uint64","name":"blockNumber","type":"uint64"},{"internalType":"uint64","name":"timestamp","type":"uint64"},{"internalType":"address","name":"sourceAddress","type":"address"},{"internalType":"bool","name":"isDeployment","type":"bool"},{"internalType":"address","name":"receivingAddress","type":"address"},{"internalType":"uint256","name":"value","type":"uint256"},{"internalType":"bytes","name":"input","type":"bytes"},{"internalType":"uint8","name":"status","type":"uint8"},{"components":[{"internalType":"uint32","name":"logIndex","type":"uint32"},{"internalType":"address","name":"emitterAddress","type":"address"},{"internalType":"bytes32[]","name":"topics","type":"bytes32[]"},{"internalType":"bytes","name":"data","type":"bytes"},{"internalType":"bool","name":"removed","type":"bool"}],"internalType":"struct EVMTransaction.Event[]","name":"events","type":"tuple[]"}],"internalType":"struct EVMTransaction.ResponseBody","name":"responseBody","type":"tuple"}],"internalType":"struct EVMTransaction.Response","name":"data","type":"tuple"}],"internalType":"struct EVMTransaction.Proof","name":"transaction","type":"tuple"}],"name":"isEVMTransactionProofValid","outputs":[{"internalType":"bool","name":"","type":"bool"}],"stateMutability":"view","type":"function"},{"inputs":[],"name":"owner","outputs":[{"internalType":"address","name":"","type":"address"}],"stateMutability":"view","type":"function"},{"inputs":[{"internalType":"address","name":"to","type":"address"},{"internalType":"uint256","name":"amount","type":"uint256"},{"components":[{"internalType":"bytes32[]","name":"merkleProof","type":"bytes32[]"},{"components":[{"internalType":"bytes32","name":"attestationType","type":"bytes32"},{"internalType":"bytes32","name":"sourceId","type":"bytes32"},{"internalType":"uint64","name":"votingRound","type":"uint64"},{"internalType":"uint64","name":"lowestUsedTimestamp","type":"uint64"},{"components":[{"internalType":"bytes32","name":"transactionHash","type":"bytes32"},{"internalType":"uint16","name":"requiredConfirmations","type":"uint16"},{"internalType":"bool","name":"provideInput","type":"bool"},{"internalType":"bool","name":"listEvents","type":"bool"},{"internalType":"uint32[]","name":"logIndices","type":"uint32[]"}],"internalType":"struct EVMTransaction.RequestBody","name":"requestBody","type":"tuple"},{"components":[{"internalType":"uint64","name":"blockNumber","type":"uint64"},{"internalType":"uint64","name":"timestamp","type":"uint64"},{"internalType":"address","name":"sourceAddress","type":"address"},{"internalType":"bool","name":"isDeployment","type":"bool"},{"internalType":"address","name":"receivingAddress","type":"address"},{"internalType":"uint256","name":"value","type":"uint256"},{"internalType":"bytes","name":"input","type":"bytes"},{"internalType":"uint8","name":"status","type":"uint8"},{"components":[{"internalType":"uint32","name":"logIndex","type":"uint32"},{"internalType":"address","name":"emitterAddress","type":"address"},{"internalType":"bytes32[]","name":"topics","type":"bytes32[]"},{"internalType":"bytes","name":"data","type":"bytes"},{"internalType":"bool","name":"removed","type":"bool"}],"internalType":"struct EVMTransaction.Event[]","name":"events","type":"tuple[]"}],"internalType":"struct EVMTransaction.ResponseBody","name":"responseBody","type":"tuple"}],"internalType":"struct EVMTransaction.Response","name":"data","type":"tuple"}],"internalType":"struct EVMTransaction.Proof","name":"transaction","type":"tuple"}],"name":"receiveToken","outputs":[],"stateMutability":"nonpayable","type":"function"},{"inputs":[],"name":"relayerContract","outputs":[{"internalType":"contract IRelayer","name":"","type":"address"}],"stateMutability":"view","type":"function"},{"inputs":[],"name":"renounceOwnership","outputs":[],"stateMutability":"nonpayable","type":"function"},{"inputs":[{"internalType":"uint256","name":"amount","type":"uint256"}],"name":"sendToken","outputs":[],"stateMutability":"nonpayable","type":"function"},{"inputs":[{"internalType":"address","name":"_bridgedContract","type":"address"}],"name":"setBridgedCoinContract","outputs":[],"stateMutability":"nonpayable","type":"function"},{"inputs":[{"internalType":"address","name":"_target","type":"address"}],"name":"setRelay","outputs":[],"stateMutability":"nonpayable","type":"function"},{"inputs":[{"internalType":"address","name":"newOwner","type":"address"}],"name":"transferOwnership","outputs":[],"stateMutability":"nonpayable","type":"function"}],"evm":{"bytecode":{"linkReferences":{},"object":"60806040523480156200001157600080fd5b506040516200262a3803806200262a833981810160405281019062000037919062000277565b33600073ffffffffffffffffffffffffffffffffffffffff168173ffffffffffffffffffffffffffffffffffffffff1603620000ad5760006040517f1e4fbdf7000000000000000000000000000000000000000000000000000000008152600401620000a49190620002cf565b60405180910390fd5b620000be816200014960201b60201c565b5080600160006101000a81548173ffffffffffffffffffffffffffffffffffffffff021916908373ffffffffffffffffffffffffffffffffffffffff16021790555081600260006101000a81548173ffffffffffffffffffffffffffffffffffffffff021916908373ffffffffffffffffffffffffffffffffffffffff1602179055505050620002ec565b60008060009054906101000a900473ffffffffffffffffffffffffffffffffffffffff169050816000806101000a81548173ffffffffffffffffffffffffffffffffffffffff021916908373ffffffffffffffffffffffffffffffffffffffff1602179055508173ffffffffffffffffffffffffffffffffffffffff168173ffffffffffffffffffffffffffffffffffffffff167f8be0079c531659141344cd1fd0a4f28419497f9722a3daafe3b4186f6b6457e060405160405180910390a35050565b600080fd5b600073ffffffffffffffffffffffffffffffffffffffff82169050919050565b60006200023f8262000212565b9050919050565b620002518162000232565b81146200025d57600080fd5b50565b600081519050620002718162000246565b92915050565b600080604083850312156200029157620002906200020d565b5b6000620002a18582860162000260565b9250506020620002b48582860162000260565b9150509250929050565b620002c98162000232565b82525050565b6000602082019050620002e66000830184620002be565b92915050565b61232e80620002fc6000396000f3fe608060405234801561001057600080fd5b50600436106100a95760003560e01c806372dd52e31161007157806372dd52e3146101505780638da5cb5b1461016e578063c56156b41461018c578063c669439e146101a8578063c805f68b146101c6578063f2fde38b146101e2576100a9565b806309f5dc91146100ae57806321f918ef146100de57806324b6e7091461010e578063437e95f11461012a578063715018a614610146575b600080fd5b6100c860048036038101906100c39190610c31565b6101fe565b6040516100d59190610c95565b60405180910390f35b6100f860048036038101906100f39190610d44565b610288565b6040516101059190610c95565b60405180910390f35b61012860048036038101906101239190610dc7565b610462565b005b610144600480360381019061013f9190610df4565b6104ae565b005b61014e610745565b005b610158610759565b6040516101659190610e80565b60405180910390f35b61017661077f565b6040516101839190610eaa565b60405180910390f35b6101a660048036038101906101a19190610ec5565b6107a8565b005b6101b06108a9565b6040516101bd9190610f55565b60405180910390f35b6101e060048036038101906101db9190610dc7565b6108cf565b005b6101fc60048036038101906101f79190610dc7565b61091b565b005b60006102086109a1565b73ffffffffffffffffffffffffffffffffffffffff166358fbe9e1836040518263ffffffff1660e01b815260040161024091906119ca565b602060405180830381865afa15801561025d573d6000803e3d6000fd5b505050506040513d601f19601f820116820180604052508101906102819190611a01565b9050919050565b600060018061029c575061029b856101fe565b5b6102db576040517f08c379a00000000000000000000000000000000000000000000000000000000081526004016102d290611a8b565b60405180910390fd5b6000808680602001906102ee9190611aba565b8060a001906102fd9190611ae2565b80610100019061030d9190611b0b565b8381811061031e5761031d611b6e565b5b90506020028101906103309190611b9d565b61033990611e81565b90507fe1b725358090db1f537294b09c773c14622b44c1bc2832d105fb28cc48f5bd90816040015160008151811061037457610373611b6e565b5b6020026020010151146103bc576040517f08c379a00000000000000000000000000000000000000000000000000000000081526004016103b390611ee0565b60405180910390fd5b60008060008084606001518060200190518101906103da9190611fd8565b93509350935093508973ffffffffffffffffffffffffffffffffffffffff168473ffffffffffffffffffffffffffffffffffffffff1614610450576040517f08c379a0000000000000000000000000000000000000000000000000000000008152600401610447906120c3565b60405180910390fd5b60019650505050505050949350505050565b61046a6109bd565b80600460006101000a81548173ffffffffffffffffffffffffffffffffffffffff021916908373ffffffffffffffffffffffffffffffffffffffff16021790555050565b6104ec6040518060400160405280600d81526020017f73656e64696e6720746f6b656e00000000000000000000000000000000000000815250610a44565b600160009054906101000a900473ffffffffffffffffffffffffffffffffffffffff1673ffffffffffffffffffffffffffffffffffffffff166379cc679033836040518363ffffffff1660e01b81526004016105499291906120f2565b600060405180830381600087803b15801561056357600080fd5b505af1158015610577573d6000803e3d6000fd5b505050506105b96040518060400160405280600c81526020017f746f6b656e206275726e65640000000000000000000000000000000000000000815250610a44565b600033826040516024016105ce9291906120f2565b6040516020818303038152906040527f2a7e5818000000000000000000000000000000000000000000000000000000007bffffffffffffffffffffffffffffffffffffffffffffffffffffffff19166020820180517bffffffffffffffffffffffffffffffffffffffffffffffffffffffff8381831617835250505050905061068b6040518060400160405280600781526020017f656e636f64656400000000000000000000000000000000000000000000000000815250610a44565b600260009054906101000a900473ffffffffffffffffffffffffffffffffffffffff1673ffffffffffffffffffffffffffffffffffffffff1663e897e8de600360009054906101000a900473ffffffffffffffffffffffffffffffffffffffff16836000806040518563ffffffff1660e01b815260040161070f94939291906121ab565b600060405180830381600087803b15801561072957600080fd5b505af115801561073d573d6000803e3d6000fd5b505050505050565b61074d6109bd565b6107576000610add565b565b600160009054906101000a900473ffffffffffffffffffffffffffffffffffffffff1681565b60008060009054906101000a900473ffffffffffffffffffffffffffffffffffffffff16905090565b6107d681600460009054906101000a900473ffffffffffffffffffffffffffffffffffffffff168585610288565b610815576040517f08c379a000000000000000000000000000000000000000000000000000000000815260040161080c90612243565b60405180910390fd5b600160009054906101000a900473ffffffffffffffffffffffffffffffffffffffff1673ffffffffffffffffffffffffffffffffffffffff166340c10f1984846040518363ffffffff1660e01b81526004016108729291906120f2565b600060405180830381600087803b15801561088c57600080fd5b505af11580156108a0573d6000803e3d6000fd5b50505050505050565b600260009054906101000a900473ffffffffffffffffffffffffffffffffffffffff1681565b6108d76109bd565b80600360006101000a81548173ffffffffffffffffffffffffffffffffffffffff021916908373ffffffffffffffffffffffffffffffffffffffff16021790555050565b6109236109bd565b600073ffffffffffffffffffffffffffffffffffffffff168173ffffffffffffffffffffffffffffffffffffffff16036109955760006040517f1e4fbdf700000000000000000000000000000000000000000000000000000000815260040161098c9190610eaa565b60405180910390fd5b61099e81610add565b50565b600073f37ad1278917c04fb291c75a42e61710964cb57c905090565b6109c5610ba1565b73ffffffffffffffffffffffffffffffffffffffff166109e361077f565b73ffffffffffffffffffffffffffffffffffffffff1614610a4257610a06610ba1565b6040517f118cdaa7000000000000000000000000000000000000000000000000000000008152600401610a399190610eaa565b60405180910390fd5b565b610ada81604051602401610a5891906122a7565b6040516020818303038152906040527f41304fac000000000000000000000000000000000000000000000000000000007bffffffffffffffffffffffffffffffffffffffffffffffffffffffff19166020820180517bffffffffffffffffffffffffffffffffffffffffffffffffffffffff8381831617835250505050610ba9565b50565b60008060009054906101000a900473ffffffffffffffffffffffffffffffffffffffff169050816000806101000a81548173ffffffffffffffffffffffffffffffffffffffff021916908373ffffffffffffffffffffffffffffffffffffffff1602179055508173ffffffffffffffffffffffffffffffffffffffff168173ffffffffffffffffffffffffffffffffffffffff167f8be0079c531659141344cd1fd0a4f28419497f9722a3daafe3b4186f6b6457e060405160405180910390a35050565b600033905090565b610bc081610bb8610bc3610be4565b63ffffffff16565b50565b60006a636f6e736f6c652e6c6f679050600080835160208501845afa505050565b610bef819050919050565b610bf76122c9565b565b6000604051905090565b600080fd5b600080fd5b600080fd5b600060408284031215610c2857610c27610c0d565b5b81905092915050565b600060208284031215610c4757610c46610c03565b5b600082013567ffffffffffffffff811115610c6557610c64610c08565b5b610c7184828501610c12565b91505092915050565b60008115159050919050565b610c8f81610c7a565b82525050565b6000602082019050610caa6000830184610c86565b92915050565b600073ffffffffffffffffffffffffffffffffffffffff82169050919050565b6000610cdb82610cb0565b9050919050565b610ceb81610cd0565b8114610cf657600080fd5b50565b600081359050610d0881610ce2565b92915050565b6000819050919050565b610d2181610d0e565b8114610d2c57600080fd5b50565b600081359050610d3e81610d18565b92915050565b60008060008060808587031215610d5e57610d5d610c03565b5b600085013567ffffffffffffffff811115610d7c57610d7b610c08565b5b610d8887828801610c12565b9450506020610d9987828801610cf9565b9350506040610daa87828801610cf9565b9250506060610dbb87828801610d2f565b91505092959194509250565b600060208284031215610ddd57610ddc610c03565b5b6000610deb84828501610cf9565b91505092915050565b600060208284031215610e0a57610e09610c03565b5b6000610e1884828501610d2f565b91505092915050565b6000819050919050565b6000610e46610e41610e3c84610cb0565b610e21565b610cb0565b9050919050565b6000610e5882610e2b565b9050919050565b6000610e6a82610e4d565b9050919050565b610e7a81610e5f565b82525050565b6000602082019050610e956000830184610e71565b92915050565b610ea481610cd0565b82525050565b6000602082019050610ebf6000830184610e9b565b92915050565b600080600060608486031215610ede57610edd610c03565b5b6000610eec86828701610cf9565b9350506020610efd86828701610d2f565b925050604084013567ffffffffffffffff811115610f1e57610f1d610c08565b5b610f2a86828701610c12565b9150509250925092565b6000610f3f82610e4d565b9050919050565b610f4f81610f34565b82525050565b6000602082019050610f6a6000830184610f46565b92915050565b600080fd5b600080fd5b600080fd5b60008083356001602003843603038112610f9c57610f9b610f7a565b5b83810192508235915060208301925067ffffffffffffffff821115610fc457610fc3610f70565b5b602082023603831315610fda57610fd9610f75565b5b509250929050565b600082825260208201905092915050565b600080fd5b82818337505050565b600061100d8385610fe2565b93507f07ffffffffffffffffffffffffffffffffffffffffffffffffffffffffffffff8311156110405761103f610ff3565b5b602083029250611051838584610ff8565b82840190509392505050565b60008235600160c00383360303811261107957611078610f7a565b5b82810191505092915050565b6000819050919050565b61109881611085565b81146110a357600080fd5b50565b6000813590506110b58161108f565b92915050565b60006110ca60208401846110a6565b905092915050565b6110db81611085565b82525050565b600067ffffffffffffffff82169050919050565b6110fe816110e1565b811461110957600080fd5b50565b60008135905061111b816110f5565b92915050565b6000611130602084018461110c565b905092915050565b611141816110e1565b82525050565b60008235600160a00383360303811261116357611162610f7a565b5b82810191505092915050565b600061ffff82169050919050565b6111868161116f565b811461119157600080fd5b50565b6000813590506111a38161117d565b92915050565b60006111b86020840184611194565b905092915050565b6111c98161116f565b82525050565b6111d881610c7a565b81146111e357600080fd5b50565b6000813590506111f5816111cf565b92915050565b600061120a60208401846111e6565b905092915050565b61121b81610c7a565b82525050565b6000808335600160200384360303811261123e5761123d610f7a565b5b83810192508235915060208301925067ffffffffffffffff82111561126657611265610f70565b5b60208202360383131561127c5761127b610f75565b5b509250929050565b600082825260208201905092915050565b6000819050919050565b600063ffffffff82169050919050565b6112b88161129f565b82525050565b60006112ca83836112af565b60208301905092915050565b6112df8161129f565b81146112ea57600080fd5b50565b6000813590506112fc816112d6565b92915050565b600061131160208401846112ed565b905092915050565b6000602082019050919050565b60006113328385611284565b935061133d82611295565b8060005b85811015611376576113538284611302565b61135d88826112be565b975061136883611319565b925050600181019050611341565b5085925050509392505050565b600060a0830161139660008401846110bb565b6113a360008601826110d2565b506113b160208401846111a9565b6113be60208601826111c0565b506113cc60408401846111fb565b6113d96040860182611212565b506113e760608401846111fb565b6113f46060860182611212565b506114026080840184611221565b8583036080870152611415838284611326565b925050508091505092915050565b600082356001610120038336030381126114405761143f610f7a565b5b82810191505092915050565b600061145b6020840184610cf9565b905092915050565b61146c81610cd0565b82525050565b60006114816020840184610d2f565b905092915050565b61149281610d0e565b82525050565b600080833560016020038436030381126114b5576114b4610f7a565b5b83810192508235915060208301925067ffffffffffffffff8211156114dd576114dc610f70565b5b6001820236038313156114f3576114f2610f75565b5b509250929050565b600082825260208201905092915050565b82818337600083830152505050565b6000601f19601f8301169050919050565b600061153883856114fb565b935061154583858461150c565b61154e8361151b565b840190509392505050565b600060ff82169050919050565b61156f81611559565b811461157a57600080fd5b50565b60008135905061158c81611566565b92915050565b60006115a1602084018461157d565b905092915050565b6115b281611559565b82525050565b600080833560016020038436030381126115d5576115d4610f7a565b5b83810192508235915060208301925067ffffffffffffffff8211156115fd576115fc610f70565b5b60208202360383131561161357611612610f75565b5b509250929050565b600082825260208201905092915050565b6000819050919050565b600060a083016116496000840184611302565b61165660008601826112af565b50611664602084018461144c565b6116716020860182611463565b5061167f6040840184610f7f565b8583036040870152611692838284611001565b925050506116a36060840184611498565b85830360608701526116b683828461152c565b925050506116c760808401846111fb565b6116d46080860182611212565b508091505092915050565b60006116eb8383611636565b905092915050565b60008235600160a00383360303811261170f5761170e610f7a565b5b82810191505092915050565b6000602082019050919050565b6000611734838561161b565b9350836020840285016117468461162c565b8060005b8781101561178a57848403895261176182846116f3565b61176b85826116df565b94506117768361171b565b925060208a0199505060018101905061174a565b50829750879450505050509392505050565b600061012083016117b06000840184611121565b6117bd6000860182611138565b506117cb6020840184611121565b6117d86020860182611138565b506117e6604084018461144c565b6117f36040860182611463565b5061180160608401846111fb565b61180e6060860182611212565b5061181c608084018461144c565b6118296080860182611463565b5061183760a0840184611472565b61184460a0860182611489565b5061185260c0840184611498565b85830360c087015261186583828461152c565b9250505061187660e0840184611592565b61188360e08601826115a9565b506118926101008401846115b8565b8583036101008701526118a6838284611728565b925050508091505092915050565b600060c083016118c760008401846110bb565b6118d460008601826110d2565b506118e260208401846110bb565b6118ef60208601826110d2565b506118fd6040840184611121565b61190a6040860182611138565b506119186060840184611121565b6119256060860182611138565b506119336080840184611147565b84820360808601526119458282611383565b91505061195560a0840184611423565b84820360a0860152611967828261179c565b9150508091505092915050565b6000604083016119876000840184610f7f565b858303600087015261199a838284611001565b925050506119ab602084018461105d565b84820360208601526119bd82826118b4565b9150508091505092915050565b600060208201905081810360008301526119e48184611974565b905092915050565b6000815190506119fb816111cf565b92915050565b600060208284031215611a1757611a16610c03565b5b6000611a25848285016119ec565b91505092915050565b600082825260208201905092915050565b7f496e76616c69642070726f6f6600000000000000000000000000000000000000600082015250565b6000611a75600d83611a2e565b9150611a8082611a3f565b602082019050919050565b60006020820190508181036000830152611aa481611a68565b9050919050565b600080fd5b600080fd5b600080fd5b60008235600160c003833603038112611ad657611ad5611aab565b5b80830191505092915050565b60008235600161012003833603038112611aff57611afe611aab565b5b80830191505092915050565b60008083356001602003843603038112611b2857611b27611aab565b5b80840192508235915067ffffffffffffffff821115611b4a57611b49611ab0565b5b602083019250602082023603831315611b6657611b65611ab5565b5b509250929050565b7f4e487b7100000000000000000000000000000000000000000000000000000000600052603260045260246000fd5b60008235600160a003833603038112611bb957611bb8611aab565b5b80830191505092915050565b600080fd5b7f4e487b7100000000000000000000000000000000000000000000000000000000600052604160045260246000fd5b611c028261151b565b810181811067ffffffffffffffff82111715611c2157611c20611bca565b5b80604052505050565b6000611c34610bf9565b9050611c408282611bf9565b919050565b600080fd5b600080fd5b600067ffffffffffffffff821115611c6a57611c69611bca565b5b602082029050602081019050919050565b600080fd5b6000611c93611c8e84611c4f565b611c2a565b90508083825260208201905060208402830185811115611cb657611cb5611c7b565b5b835b81811015611cdf5780611ccb88826110a6565b845260208401935050602081019050611cb8565b5050509392505050565b600082601f830112611cfe57611cfd611c4a565b5b8135611d0e848260208601611c80565b91505092915050565b600080fd5b600067ffffffffffffffff821115611d3757611d36611bca565b5b611d408261151b565b9050602081019050919050565b6000611d60611d5b84611d1c565b611c2a565b905082815260208101848484011115611d7c57611d7b611d17565b5b611d8784828561150c565b509392505050565b600082601f830112611da457611da3611c4a565b5b8135611db4848260208601611d4d565b91505092915050565b600060a08284031215611dd357611dd2611bc5565b5b611ddd60a0611c2a565b90506000611ded848285016112ed565b6000830152506020611e0184828501610cf9565b602083015250604082013567ffffffffffffffff811115611e2557611e24611c45565b5b611e3184828501611ce9565b604083015250606082013567ffffffffffffffff811115611e5557611e54611c45565b5b611e6184828501611d8f565b6060830152506080611e75848285016111e6565b60808301525092915050565b6000611e8d3683611dbd565b9050919050565b7f496e76616c6964206576656e7400000000000000000000000000000000000000600082015250565b6000611eca600d83611a2e565b9150611ed582611e94565b602082019050919050565b60006020820190508181036000830152611ef981611ebd565b9050919050565b6000611f0b82610cb0565b9050919050565b611f1b81611f00565b8114611f2657600080fd5b50565b600081519050611f3881611f12565b92915050565b60005b83811015611f5c578082015181840152602081019050611f41565b60008484015250505050565b6000611f7b611f7684611d1c565b611c2a565b905082815260208101848484011115611f9757611f96611d17565b5b611fa2848285611f3e565b509392505050565b600082601f830112611fbf57611fbe611c4a565b5b8151611fcf848260208601611f68565b91505092915050565b60008060008060808587031215611ff257611ff1610c03565b5b600061200087828801611f29565b9450506020612011878288016119ec565b935050604085015167ffffffffffffffff81111561203257612031610c08565b5b61203e87828801611faa565b925050606085015167ffffffffffffffff81111561205f5761205e610c08565b5b61206b87828801611faa565b91505092959194509250565b7f496e76616c696420746f6b656e20616464726573730000000000000000000000600082015250565b60006120ad601583611a2e565b91506120b882612077565b602082019050919050565b600060208201905081810360008301526120dc816120a0565b9050919050565b6120ec81610d0e565b82525050565b60006040820190506121076000830185610e9b565b61211460208301846120e3565b9392505050565b600081519050919050565b600082825260208201905092915050565b60006121428261211b565b61214c8185612126565b935061215c818560208601611f3e565b6121658161151b565b840191505092915050565b6000819050919050565b600061219561219061218b84612170565b610e21565b610d0e565b9050919050565b6121a58161217a565b82525050565b60006080820190506121c06000830187610e9b565b81810360208301526121d28186612137565b90506121e16040830185610e9b565b6121ee606083018461219c565b95945050505050565b7f496e76616c69642050726f6f6600000000000000000000000000000000000000600082015250565b600061222d600d83611a2e565b9150612238826121f7565b602082019050919050565b6000602082019050818103600083015261225c81612220565b9050919050565b600081519050919050565b600061227982612263565b6122838185611a2e565b9350612293818560208601611f3e565b61229c8161151b565b840191505092915050565b600060208201905081810360008301526122c1818461226e565b905092915050565b7f4e487b7100000000000000000000000000000000000000000000000000000000600052605160045260246000fdfea2646970667358221220a2609cb3fc9019630b93db8921368695e112ec334f518b614c956d1029d8538f64736f6c63430008180033","opcodes":"PUSH1 0x80 PUSH1 0x40 MSTORE CALLVALUE DUP1 ISZERO PUSH3 0x11 JUMPI PUSH1 0x0 DUP1 REVERT JUMPDEST POP PUSH1 0x40 MLOAD PUSH3 0x262A CODESIZE SUB DUP1 PUSH3 0x262A DUP4 CODECOPY DUP2 DUP2 ADD PUSH1 0x40 MSTORE DUP2 ADD SWAP1 PUSH3 0x37 SWAP2 SWAP1 PUSH3 0x277 JUMP JUMPDEST CALLER PUSH1 0x0 PUSH20 0xFFFFFFFFFFFFFFFFFFFFFFFFFFFFFFFFFFFFFFFF AND DUP2 PUSH20 0xFFFFFFFFFFFFFFFFFFFFFFFFFFFFFFFFFFFFFFFF AND SUB PUSH3 0xAD JUMPI PUSH1 0x0 PUSH1 0x40 MLOAD PUSH32 0x1E4FBDF700000000000000000000000000000000000000000000000000000000 DUP2 MSTORE PUSH1 0x4 ADD PUSH3 0xA4 SWAP2 SWAP1 PUSH3 0x2CF JUMP JUMPDEST PUSH1 0x40 MLOAD DUP1 SWAP2 SUB SWAP1 REVERT JUMPDEST PUSH3 0xBE DUP2 PUSH3 0x149 PUSH1 0x20 SHL PUSH1 0x20 SHR JUMP JUMPDEST POP DUP1 PUSH1 0x1 PUSH1 0x0 PUSH2 0x100 EXP DUP2 SLOAD DUP2 PUSH20 0xFFFFFFFFFFFFFFFFFFFFFFFFFFFFFFFFFFFFFFFF MUL NOT AND SWAP1 DUP4 PUSH20 0xFFFFFFFFFFFFFFFFFFFFFFFFFFFFFFFFFFFFFFFF AND MUL OR SWAP1 SSTORE POP DUP2 PUSH1 0x2 PUSH1 0x0 PUSH2 0x100 EXP DUP2 SLOAD DUP2 PUSH20 0xFFFFFFFFFFFFFFFFFFFFFFFFFFFFFFFFFFFFFFFF MUL NOT AND SWAP1 DUP4 PUSH20 0xFFFFFFFFFFFFFFFFFFFFFFFFFFFFFFFFFFFFFFFF AND MUL OR SWAP1 SSTORE POP POP POP PUSH3 0x2EC JUMP JUMPDEST PUSH1 0x0 DUP1 PUSH1 0x0 SWAP1 SLOAD SWAP1 PUSH2 0x100 EXP SWAP1 DIV PUSH20 0xFFFFFFFFFFFFFFFFFFFFFFFFFFFFFFFFFFFFFFFF AND SWAP1 POP DUP2 PUSH1 0x0 DUP1 PUSH2 0x100 EXP DUP2 SLOAD DUP2 PUSH20 0xFFFFFFFFFFFFFFFFFFFFFFFFFFFFFFFFFFFFFFFF MUL NOT AND SWAP1 DUP4 PUSH20 0xFFFFFFFFFFFFFFFFFFFFFFFFFFFFFFFFFFFFFFFF AND MUL OR SWAP1 SSTORE POP DUP2 PUSH20 0xFFFFFFFFFFFFFFFFFFFFFFFFFFFFFFFFFFFFFFFF AND DUP2 PUSH20 0xFFFFFFFFFFFFFFFFFFFFFFFFFFFFFFFFFFFFFFFF AND PUSH32 0x8BE0079C531659141344CD1FD0A4F28419497F9722A3DAAFE3B4186F6B6457E0 PUSH1 0x40 MLOAD PUSH1 0x40 MLOAD DUP1 SWAP2 SUB SWAP1 LOG3 POP POP JUMP JUMPDEST PUSH1 0x0 DUP1 REVERT JUMPDEST PUSH1 0x0 PUSH20 0xFFFFFFFFFFFFFFFFFFFFFFFFFFFFFFFFFFFFFFFF DUP3 AND SWAP1 POP SWAP2 SWAP1 POP JUMP JUMPDEST PUSH1 0x0 PUSH3 0x23F DUP3 PUSH3 0x212 JUMP JUMPDEST SWAP1 POP SWAP2 SWAP1 POP JUMP JUMPDEST PUSH3 0x251 DUP2 PUSH3 0x232 JUMP JUMPDEST DUP2 EQ PUSH3 0x25D JUMPI PUSH1 0x0 DUP1 REVERT JUMPDEST POP JUMP JUMPDEST PUSH1 0x0 DUP2 MLOAD SWAP1 POP PUSH3 0x271 DUP2 PUSH3 0x246 JUMP JUMPDEST SWAP3 SWAP2 POP POP JUMP JUMPDEST PUSH1 0x0 DUP1 PUSH1 0x40 DUP4 DUP6 SUB SLT ISZERO PUSH3 0x291 JUMPI PUSH3 0x290 PUSH3 0x20D JUMP JUMPDEST JUMPDEST PUSH1 0x0 PUSH3 0x2A1 DUP6 DUP3 DUP7 ADD PUSH3 0x260 JUMP JUMPDEST SWAP3 POP POP PUSH1 0x20 PUSH3 0x2B4 DUP6 DUP3 DUP7 ADD PUSH3 0x260 JUMP JUMPDEST SWAP2 POP POP SWAP3 POP SWAP3 SWAP1 POP JUMP JUMPDEST PUSH3 0x2C9 DUP2 PUSH3 0x232 JUMP JUMPDEST DUP3 MSTORE POP POP JUMP JUMPDEST PUSH1 0x0 PUSH1 0x20 DUP3 ADD SWAP1 POP PUSH3 0x2E6 PUSH1 0x0 DUP4 ADD DUP5 PUSH3 0x2BE JUMP JUMPDEST SWAP3 SWAP2 POP POP JUMP JUMPDEST PUSH2 0x232E DUP1 PUSH3 0x2FC PUSH1 0x0 CODECOPY PUSH1 0x0 RETURN INVALID PUSH1 0x80 PUSH1 0x40 MSTORE CALLVALUE DUP1 ISZERO PUSH2 0x10 JUMPI PUSH1 0x0 DUP1 REVERT JUMPDEST POP PUSH1 0x4 CALLDATASIZE LT PUSH2 0xA9 JUMPI PUSH1 0x0 CALLDATALOAD PUSH1 0xE0 SHR DUP1 PUSH4 0x72DD52E3 GT PUSH2 0x71 JUMPI DUP1 PUSH4 0x72DD52E3 EQ PUSH2 0x150 JUMPI DUP1 PUSH4 0x8DA5CB5B EQ PUSH2 0x16E JUMPI DUP1 PUSH4 0xC56156B4 EQ PUSH2 0x18C JUMPI DUP1 PUSH4 0xC669439E EQ PUSH2 0x1A8 JUMPI DUP1 PUSH4 0xC805F68B EQ PUSH2 0x1C6 JUMPI DUP1 PUSH4 0xF2FDE38B EQ PUSH2 0x1E2 JUMPI PUSH2 0xA9 JUMP JUMPDEST DUP1 PUSH4 0x9F5DC91 EQ PUSH2 0xAE JUMPI DUP1 PUSH4 0x21F918EF EQ PUSH2 0xDE JUMPI DUP1 PUSH4 0x24B6E709 EQ PUSH2 0x10E JUMPI DUP1 PUSH4 0x437E95F1 EQ PUSH2 0x12A JUMPI DUP1 PUSH4 0x715018A6 EQ PUSH2 0x146 JUMPI JUMPDEST PUSH1 0x0 DUP1 REVERT JUMPDEST PUSH2 0xC8 PUSH1 0x4 DUP1 CALLDATASIZE SUB DUP2 ADD SWAP1 PUSH2 0xC3 SWAP2 SWAP1 PUSH2 0xC31 JUMP JUMPDEST PUSH2 0x1FE JUMP JUMPDEST PUSH1 0x40 MLOAD PUSH2 0xD5 SWAP2 SWAP1 PUSH2 0xC95 JUMP JUMPDEST PUSH1 0x40 MLOAD DUP1 SWAP2 SUB SWAP1 RETURN JUMPDEST PUSH2 0xF8 PUSH1 0x4 DUP1 CALLDATASIZE SUB DUP2 ADD SWAP1 PUSH2 0xF3 SWAP2 SWAP1 PUSH2 0xD44 JUMP JUMPDEST PUSH2 0x288 JUMP JUMPDEST PUSH1 0x40 MLOAD PUSH2 0x105 SWAP2 SWAP1 PUSH2 0xC95 JUMP JUMPDEST PUSH1 0x40 MLOAD DUP1 SWAP2 SUB SWAP1 RETURN JUMPDEST PUSH2 0x128 PUSH1 0x4 DUP1 CALLDATASIZE SUB DUP2 ADD SWAP1 PUSH2 0x123 SWAP2 SWAP1 PUSH2 0xDC7 JUMP JUMPDEST PUSH2 0x462 JUMP JUMPDEST STOP JUMPDEST PUSH2 0x144 PUSH1 0x4 DUP1 CALLDATASIZE SUB DUP2 ADD SWAP1 PUSH2 0x13F SWAP2 SWAP1 PUSH2 0xDF4 JUMP JUMPDEST PUSH2 0x4AE JUMP JUMPDEST STOP JUMPDEST PUSH2 0x14E PUSH2 0x745 JUMP JUMPDEST STOP JUMPDEST PUSH2 0x158 PUSH2 0x759 JUMP JUMPDEST PUSH1 0x40 MLOAD PUSH2 0x165 SWAP2 SWAP1 PUSH2 0xE80 JUMP JUMPDEST PUSH1 0x40 MLOAD DUP1 SWAP2 SUB SWAP1 RETURN JUMPDEST PUSH2 0x176 PUSH2 0x77F JUMP JUMPDEST PUSH1 0x40 MLOAD PUSH2 0x183 SWAP2 SWAP1 PUSH2 0xEAA JUMP JUMPDEST PUSH1 0x40 MLOAD DUP1 SWAP2 SUB SWAP1 RETURN JUMPDEST PUSH2 0x1A6 PUSH1 0x4 DUP1 CALLDATASIZE SUB DUP2 ADD SWAP1 PUSH2 0x1A1 SWAP2 SWAP1 PUSH2 0xEC5 JUMP JUMPDEST PUSH2 0x7A8 JUMP JUMPDEST STOP JUMPDEST PUSH2 0x1B0 PUSH2 0x8A9 JUMP JUMPDEST PUSH1 0x40 MLOAD PUSH2 0x1BD SWAP2 SWAP1 PUSH2 0xF55 JUMP JUMPDEST PUSH1 0x40 MLOAD DUP1 SWAP2 SUB SWAP1 RETURN JUMPDEST PUSH2 0x1E0 PUSH1 0x4 DUP1 CALLDATASIZE SUB DUP2 ADD SWAP1 PUSH2 0x1DB SWAP2 SWAP1 PUSH2 0xDC7 JUMP JUMPDEST PUSH2 0x8CF JUMP JUMPDEST STOP JUMPDEST PUSH2 0x1FC PUSH1 0x4 DUP1 CALLDATASIZE SUB DUP2 ADD SWAP1 PUSH2 0x1F7 SWAP2 SWAP1 PUSH2 0xDC7 JUMP JUMPDEST PUSH2 0x91B JUMP JUMPDEST STOP JUMPDEST PUSH1 0x0 PUSH2 0x208 PUSH2 0x9A1 JUMP JUMPDEST PUSH20 0xFFFFFFFFFFFFFFFFFFFFFFFFFFFFFFFFFFFFFFFF AND PUSH4 0x58FBE9E1 DUP4 PUSH1 0x40 MLOAD DUP3 PUSH4 0xFFFFFFFF AND PUSH1 0xE0 SHL DUP2 MSTORE PUSH1 0x4 ADD PUSH2 0x240 SWAP2 SWAP1 PUSH2 0x19CA JUMP JUMPDEST PUSH1 0x20 PUSH1 0x40 MLOAD DUP1 DUP4 SUB DUP2 DUP7 GAS STATICCALL ISZERO DUP1 ISZERO PUSH2 0x25D JUMPI RETURNDATASIZE PUSH1 0x0 DUP1 RETURNDATACOPY RETURNDATASIZE PUSH1 0x0 REVERT JUMPDEST POP POP POP POP PUSH1 0x40 MLOAD RETURNDATASIZE PUSH1 0x1F NOT PUSH1 0x1F DUP3 ADD AND DUP3 ADD DUP1 PUSH1 0x40 MSTORE POP DUP2 ADD SWAP1 PUSH2 0x281 SWAP2 SWAP1 PUSH2 0x1A01 JUMP JUMPDEST SWAP1 POP SWAP2 SWAP1 POP JUMP JUMPDEST PUSH1 0x0 PUSH1 0x1 DUP1 PUSH2 0x29C JUMPI POP PUSH2 0x29B DUP6 PUSH2 0x1FE JUMP JUMPDEST JUMPDEST PUSH2 0x2DB JUMPI PUSH1 0x40 MLOAD PUSH32 0x8C379A000000000000000000000000000000000000000000000000000000000 DUP2 MSTORE PUSH1 0x4 ADD PUSH2 0x2D2 SWAP1 PUSH2 0x1A8B JUMP JUMPDEST PUSH1 0x40 MLOAD DUP1 SWAP2 SUB SWAP1 REVERT JUMPDEST PUSH1 0x0 DUP1 DUP7 DUP1 PUSH1 0x20 ADD SWAP1 PUSH2 0x2EE SWAP2 SWAP1 PUSH2 0x1ABA JUMP JUMPDEST DUP1 PUSH1 0xA0 ADD SWAP1 PUSH2 0x2FD SWAP2 SWAP1 PUSH2 0x1AE2 JUMP JUMPDEST DUP1 PUSH2 0x100 ADD SWAP1 PUSH2 0x30D SWAP2 SWAP1 PUSH2 0x1B0B JUMP JUMPDEST DUP4 DUP2 DUP2 LT PUSH2 0x31E JUMPI PUSH2 0x31D PUSH2 0x1B6E JUMP JUMPDEST JUMPDEST SWAP1 POP PUSH1 0x20 MUL DUP2 ADD SWAP1 PUSH2 0x330 SWAP2 SWAP1 PUSH2 0x1B9D JUMP JUMPDEST PUSH2 0x339 SWAP1 PUSH2 0x1E81 JUMP JUMPDEST SWAP1 POP PUSH32 0xE1B725358090DB1F537294B09C773C14622B44C1BC2832D105FB28CC48F5BD90 DUP2 PUSH1 0x40 ADD MLOAD PUSH1 0x0 DUP2 MLOAD DUP2 LT PUSH2 0x374 JUMPI PUSH2 0x373 PUSH2 0x1B6E JUMP JUMPDEST JUMPDEST PUSH1 0x20 MUL PUSH1 0x20 ADD ADD MLOAD EQ PUSH2 0x3BC JUMPI PUSH1 0x40 MLOAD PUSH32 0x8C379A000000000000000000000000000000000000000000000000000000000 DUP2 MSTORE PUSH1 0x4 ADD PUSH2 0x3B3 SWAP1 PUSH2 0x1EE0 JUMP JUMPDEST PUSH1 0x40 MLOAD DUP1 SWAP2 SUB SWAP1 REVERT JUMPDEST PUSH1 0x0 DUP1 PUSH1 0x0 DUP1 DUP5 PUSH1 0x60 ADD MLOAD DUP1 PUSH1 0x20 ADD SWAP1 MLOAD DUP2 ADD SWAP1 PUSH2 0x3DA SWAP2 SWAP1 PUSH2 0x1FD8 JUMP JUMPDEST SWAP4 POP SWAP4 POP SWAP4 POP SWAP4 POP DUP10 PUSH20 0xFFFFFFFFFFFFFFFFFFFFFFFFFFFFFFFFFFFFFFFF AND DUP5 PUSH20 0xFFFFFFFFFFFFFFFFFFFFFFFFFFFFFFFFFFFFFFFF AND EQ PUSH2 0x450 JUMPI PUSH1 0x40 MLOAD PUSH32 0x8C379A000000000000000000000000000000000000000000000000000000000 DUP2 MSTORE PUSH1 0x4 ADD PUSH2 0x447 SWAP1 PUSH2 0x20C3 JUMP JUMPDEST PUSH1 0x40 MLOAD DUP1 SWAP2 SUB SWAP1 REVERT JUMPDEST PUSH1 0x1 SWAP7 POP POP POP POP POP POP POP SWAP5 SWAP4 POP POP POP POP JUMP JUMPDEST PUSH2 0x46A PUSH2 0x9BD JUMP JUMPDEST DUP1 PUSH1 0x4 PUSH1 0x0 PUSH2 0x100 EXP DUP2 SLOAD DUP2 PUSH20 0xFFFFFFFFFFFFFFFFFFFFFFFFFFFFFFFFFFFFFFFF MUL NOT AND SWAP1 DUP4 PUSH20 0xFFFFFFFFFFFFFFFFFFFFFFFFFFFFFFFFFFFFFFFF AND MUL OR SWAP1 SSTORE POP POP JUMP JUMPDEST PUSH2 0x4EC PUSH1 0x40 MLOAD DUP1 PUSH1 0x40 ADD PUSH1 0x40 MSTORE DUP1 PUSH1 0xD DUP2 MSTORE PUSH1 0x20 ADD PUSH32 0x73656E64696E6720746F6B656E00000000000000000000000000000000000000 DUP2 MSTORE POP PUSH2 0xA44 JUMP JUMPDEST PUSH1 0x1 PUSH1 0x0 SWAP1 SLOAD SWAP1 PUSH2 0x100 EXP SWAP1 DIV PUSH20 0xFFFFFFFFFFFFFFFFFFFFFFFFFFFFFFFFFFFFFFFF AND PUSH20 0xFFFFFFFFFFFFFFFFFFFFFFFFFFFFFFFFFFFFFFFF AND PUSH4 0x79CC6790 CALLER DUP4 PUSH1 0x40 MLOAD DUP4 PUSH4 0xFFFFFFFF AND PUSH1 0xE0 SHL DUP2 MSTORE PUSH1 0x4 ADD PUSH2 0x549 SWAP3 SWAP2 SWAP1 PUSH2 0x20F2 JUMP JUMPDEST PUSH1 0x0 PUSH1 0x40 MLOAD DUP1 DUP4 SUB DUP2 PUSH1 0x0 DUP8 DUP1 EXTCODESIZE ISZERO DUP1 ISZERO PUSH2 0x563 JUMPI PUSH1 0x0 DUP1 REVERT JUMPDEST POP GAS CALL ISZERO DUP1 ISZERO PUSH2 0x577 JUMPI RETURNDATASIZE PUSH1 0x0 DUP1 RETURNDATACOPY RETURNDATASIZE PUSH1 0x0 REVERT JUMPDEST POP POP POP POP PUSH2 0x5B9 PUSH1 0x40 MLOAD DUP1 PUSH1 0x40 ADD PUSH1 0x40 MSTORE DUP1 PUSH1 0xC DUP2 MSTORE PUSH1 0x20 ADD PUSH32 0x746F6B656E206275726E65640000000000000000000000000000000000000000 DUP2 MSTORE POP PUSH2 0xA44 JUMP JUMPDEST PUSH1 0x0 CALLER DUP3 PUSH1 0x40 MLOAD PUSH1 0x24 ADD PUSH2 0x5CE SWAP3 SWAP2 SWAP1 PUSH2 0x20F2 JUMP JUMPDEST PUSH1 0x40 MLOAD PUSH1 0x20 DUP2 DUP4 SUB SUB DUP2 MSTORE SWAP1 PUSH1 0x40 MSTORE PUSH32 0x2A7E581800000000000000000000000000000000000000000000000000000000 PUSH28 0xFFFFFFFFFFFFFFFFFFFFFFFFFFFFFFFFFFFFFFFFFFFFFFFFFFFFFFFF NOT AND PUSH1 0x20 DUP3 ADD DUP1 MLOAD PUSH28 0xFFFFFFFFFFFFFFFFFFFFFFFFFFFFFFFFFFFFFFFFFFFFFFFFFFFFFFFF DUP4 DUP2 DUP4 AND OR DUP4 MSTORE POP POP POP POP SWAP1 POP PUSH2 0x68B PUSH1 0x40 MLOAD DUP1 PUSH1 0x40 ADD PUSH1 0x40 MSTORE DUP1 PUSH1 0x7 DUP2 MSTORE PUSH1 0x20 ADD PUSH32 0x656E636F64656400000000000000000000000000000000000000000000000000 DUP2 MSTORE POP PUSH2 0xA44 JUMP JUMPDEST PUSH1 0x2 PUSH1 0x0 SWAP1 SLOAD SWAP1 PUSH2 0x100 EXP SWAP1 DIV PUSH20 0xFFFFFFFFFFFFFFFFFFFFFFFFFFFFFFFFFFFFFFFF AND PUSH20 0xFFFFFFFFFFFFFFFFFFFFFFFFFFFFFFFFFFFFFFFF AND PUSH4 0xE897E8DE PUSH1 0x3 PUSH1 0x0 SWAP1 SLOAD SWAP1 PUSH2 0x100 EXP SWAP1 DIV PUSH20 0xFFFFFFFFFFFFFFFFFFFFFFFFFFFFFFFFFFFFFFFF AND DUP4 PUSH1 0x0 DUP1 PUSH1 0x40 MLOAD DUP6 PUSH4 0xFFFFFFFF AND PUSH1 0xE0 SHL DUP2 MSTORE PUSH1 0x4 ADD PUSH2 0x70F SWAP5 SWAP4 SWAP3 SWAP2 SWAP1 PUSH2 0x21AB JUMP JUMPDEST PUSH1 0x0 PUSH1 0x40 MLOAD DUP1 DUP4 SUB DUP2 PUSH1 0x0 DUP8 DUP1 EXTCODESIZE ISZERO DUP1 ISZERO PUSH2 0x729 JUMPI PUSH1 0x0 DUP1 REVERT JUMPDEST POP GAS CALL ISZERO DUP1 ISZERO PUSH2 0x73D JUMPI RETURNDATASIZE PUSH1 0x0 DUP1 RETURNDATACOPY RETURNDATASIZE PUSH1 0x0 REVERT JUMPDEST POP POP POP POP POP POP JUMP JUMPDEST PUSH2 0x74D PUSH2 0x9BD JUMP JUMPDEST PUSH2 0x757 PUSH1 0x0 PUSH2 0xADD JUMP JUMPDEST JUMP JUMPDEST PUSH1 0x1 PUSH1 0x0 SWAP1 SLOAD SWAP1 PUSH2 0x100 EXP SWAP1 DIV PUSH20 0xFFFFFFFFFFFFFFFFFFFFFFFFFFFFFFFFFFFFFFFF AND DUP2 JUMP JUMPDEST PUSH1 0x0 DUP1 PUSH1 0x0 SWAP1 SLOAD SWAP1 PUSH2 0x100 EXP SWAP1 DIV PUSH20 0xFFFFFFFFFFFFFFFFFFFFFFFFFFFFFFFFFFFFFFFF AND SWAP1 POP SWAP1 JUMP JUMPDEST PUSH2 0x7D6 DUP2 PUSH1 0x4 PUSH1 0x0 SWAP1 SLOAD SWAP1 PUSH2 0x100 EXP SWAP1 DIV PUSH20 0xFFFFFFFFFFFFFFFFFFFFFFFFFFFFFFFFFFFFFFFF AND DUP6 DUP6 PUSH2 0x288 JUMP JUMPDEST PUSH2 0x815 JUMPI PUSH1 0x40 MLOAD PUSH32 0x8C379A000000000000000000000000000000000000000000000000000000000 DUP2 MSTORE PUSH1 0x4 ADD PUSH2 0x80C SWAP1 PUSH2 0x2243 JUMP JUMPDEST PUSH1 0x40 MLOAD DUP1 SWAP2 SUB SWAP1 REVERT JUMPDEST PUSH1 0x1 PUSH1 0x0 SWAP1 SLOAD SWAP1 PUSH2 0x100 EXP SWAP1 DIV PUSH20 0xFFFFFFFFFFFFFFFFFFFFFFFFFFFFFFFFFFFFFFFF AND PUSH20 0xFFFFFFFFFFFFFFFFFFFFFFFFFFFFFFFFFFFFFFFF AND PUSH4 0x40C10F19 DUP5 DUP5 PUSH1 0x40 MLOAD DUP4 PUSH4 0xFFFFFFFF AND PUSH1 0xE0 SHL DUP2 MSTORE PUSH1 0x4 ADD PUSH2 0x872 SWAP3 SWAP2 SWAP1 PUSH2 0x20F2 JUMP JUMPDEST PUSH1 0x0 PUSH1 0x40 MLOAD DUP1 DUP4 SUB DUP2 PUSH1 0x0 DUP8 DUP1 EXTCODESIZE ISZERO DUP1 ISZERO PUSH2 0x88C JUMPI PUSH1 0x0 DUP1 REVERT JUMPDEST POP GAS CALL ISZERO DUP1 ISZERO PUSH2 0x8A0 JUMPI RETURNDATASIZE PUSH1 0x0 DUP1 RETURNDATACOPY RETURNDATASIZE PUSH1 0x0 REVERT JUMPDEST POP POP POP POP POP POP POP JUMP JUMPDEST PUSH1 0x2 PUSH1 0x0 SWAP1 SLOAD SWAP1 PUSH2 0x100 EXP SWAP1 DIV PUSH20 0xFFFFFFFFFFFFFFFFFFFFFFFFFFFFFFFFFFFFFFFF AND DUP2 JUMP JUMPDEST PUSH2 0x8D7 PUSH2 0x9BD JUMP JUMPDEST DUP1 PUSH1 0x3 PUSH1 0x0 PUSH2 0x100 EXP DUP2 SLOAD DUP2 PUSH20 0xFFFFFFFFFFFFFFFFFFFFFFFFFFFFFFFFFFFFFFFF MUL NOT AND SWAP1 DUP4 PUSH20 0xFFFFFFFFFFFFFFFFFFFFFFFFFFFFFFFFFFFFFFFF AND MUL OR SWAP1 SSTORE POP POP JUMP JUMPDEST PUSH2 0x923 PUSH2 0x9BD JUMP JUMPDEST PUSH1 0x0 PUSH20 0xFFFFFFFFFFFFFFFFFFFFFFFFFFFFFFFFFFFFFFFF AND DUP2 PUSH20 0xFFFFFFFFFFFFFFFFFFFFFFFFFFFFFFFFFFFFFFFF AND SUB PUSH2 0x995 JUMPI PUSH1 0x0 PUSH1 0x40 MLOAD PUSH32 0x1E4FBDF700000000000000000000000000000000000000000000000000000000 DUP2 MSTORE PUSH1 0x4 ADD PUSH2 0x98C SWAP2 SWAP1 PUSH2 0xEAA JUMP JUMPDEST PUSH1 0x40 MLOAD DUP1 SWAP2 SUB SWAP1 REVERT JUMPDEST PUSH2 0x99E DUP2 PUSH2 0xADD JUMP JUMPDEST POP JUMP JUMPDEST PUSH1 0x0 PUSH20 0xF37AD1278917C04FB291C75A42E61710964CB57C SWAP1 POP SWAP1 JUMP JUMPDEST PUSH2 0x9C5 PUSH2 0xBA1 JUMP JUMPDEST PUSH20 0xFFFFFFFFFFFFFFFFFFFFFFFFFFFFFFFFFFFFFFFF AND PUSH2 0x9E3 PUSH2 0x77F JUMP JUMPDEST PUSH20 0xFFFFFFFFFFFFFFFFFFFFFFFFFFFFFFFFFFFFFFFF AND EQ PUSH2 0xA42 JUMPI PUSH2 0xA06 PUSH2 0xBA1 JUMP JUMPDEST PUSH1 0x40 MLOAD PUSH32 0x118CDAA700000000000000000000000000000000000000000000000000000000 DUP2 MSTORE PUSH1 0x4 ADD PUSH2 0xA39 SWAP2 SWAP1 PUSH2 0xEAA JUMP JUMPDEST PUSH1 0x40 MLOAD DUP1 SWAP2 SUB SWAP1 REVERT JUMPDEST JUMP JUMPDEST PUSH2 0xADA DUP2 PUSH1 0x40 MLOAD PUSH1 0x24 ADD PUSH2 0xA58 SWAP2 SWAP1 PUSH2 0x22A7 JUMP JUMPDEST PUSH1 0x40 MLOAD PUSH1 0x20 DUP2 DUP4 SUB SUB DUP2 MSTORE SWAP1 PUSH1 0x40 MSTORE PUSH32 0x41304FAC00000000000000000000000000000000000000000000000000000000 PUSH28 0xFFFFFFFFFFFFFFFFFFFFFFFFFFFFFFFFFFFFFFFFFFFFFFFFFFFFFFFF NOT AND PUSH1 0x20 DUP3 ADD DUP1 MLOAD PUSH28 0xFFFFFFFFFFFFFFFFFFFFFFFFFFFFFFFFFFFFFFFFFFFFFFFFFFFFFFFF DUP4 DUP2 DUP4 AND OR DUP4 MSTORE POP POP POP POP PUSH2 0xBA9 JUMP JUMPDEST POP JUMP JUMPDEST PUSH1 0x0 DUP1 PUSH1 0x0 SWAP1 SLOAD SWAP1 PUSH2 0x100 EXP SWAP1 DIV PUSH20 0xFFFFFFFFFFFFFFFFFFFFFFFFFFFFFFFFFFFFFFFF AND SWAP1 POP DUP2 PUSH1 0x0 DUP1 PUSH2 0x100 EXP DUP2 SLOAD DUP2 PUSH20 0xFFFFFFFFFFFFFFFFFFFFFFFFFFFFFFFFFFFFFFFF MUL NOT AND SWAP1 DUP4 PUSH20 0xFFFFFFFFFFFFFFFFFFFFFFFFFFFFFFFFFFFFFFFF AND MUL OR SWAP1 SSTORE POP DUP2 PUSH20 0xFFFFFFFFFFFFFFFFFFFFFFFFFFFFFFFFFFFFFFFF AND DUP2 PUSH20 0xFFFFFFFFFFFFFFFFFFFFFFFFFFFFFFFFFFFFFFFF AND PUSH32 0x8BE0079C531659141344CD1FD0A4F28419497F9722A3DAAFE3B4186F6B6457E0 PUSH1 0x40 MLOAD PUSH1 0x40 MLOAD DUP1 SWAP2 SUB SWAP1 LOG3 POP POP JUMP JUMPDEST PUSH1 0x0 CALLER SWAP1 POP SWAP1 JUMP JUMPDEST PUSH2 0xBC0 DUP2 PUSH2 0xBB8 PUSH2 0xBC3 PUSH2 0xBE4 JUMP JUMPDEST PUSH4 0xFFFFFFFF AND JUMP JUMPDEST POP JUMP JUMPDEST PUSH1 0x0 PUSH11 0x636F6E736F6C652E6C6F67 SWAP1 POP PUSH1 0x0 DUP1 DUP4 MLOAD PUSH1 0x20 DUP6 ADD DUP5 GAS STATICCALL POP POP POP JUMP JUMPDEST PUSH2 0xBEF DUP2 SWAP1 POP SWAP2 SWAP1 POP JUMP JUMPDEST PUSH2 0xBF7 PUSH2 0x22C9 JUMP JUMPDEST JUMP JUMPDEST PUSH1 0x0 PUSH1 0x40 MLOAD SWAP1 POP SWAP1 JUMP JUMPDEST PUSH1 0x0 DUP1 REVERT JUMPDEST PUSH1 0x0 DUP1 REVERT JUMPDEST PUSH1 0x0 DUP1 REVERT JUMPDEST PUSH1 0x0 PUSH1 0x40 DUP3 DUP5 SUB SLT ISZERO PUSH2 0xC28 JUMPI PUSH2 0xC27 PUSH2 0xC0D JUMP JUMPDEST JUMPDEST DUP2 SWAP1 POP SWAP3 SWAP2 POP POP JUMP JUMPDEST PUSH1 0x0 PUSH1 0x20 DUP3 DUP5 SUB SLT ISZERO PUSH2 0xC47 JUMPI PUSH2 0xC46 PUSH2 0xC03 JUMP JUMPDEST JUMPDEST PUSH1 0x0 DUP3 ADD CALLDATALOAD PUSH8 0xFFFFFFFFFFFFFFFF DUP2 GT ISZERO PUSH2 0xC65 JUMPI PUSH2 0xC64 PUSH2 0xC08 JUMP JUMPDEST JUMPDEST PUSH2 0xC71 DUP5 DUP3 DUP6 ADD PUSH2 0xC12 JUMP JUMPDEST SWAP2 POP POP SWAP3 SWAP2 POP POP JUMP JUMPDEST PUSH1 0x0 DUP2 ISZERO ISZERO SWAP1 POP SWAP2 SWAP1 POP JUMP JUMPDEST PUSH2 0xC8F DUP2 PUSH2 0xC7A JUMP JUMPDEST DUP3 MSTORE POP POP JUMP JUMPDEST PUSH1 0x0 PUSH1 0x20 DUP3 ADD SWAP1 POP PUSH2 0xCAA PUSH1 0x0 DUP4 ADD DUP5 PUSH2 0xC86 JUMP JUMPDEST SWAP3 SWAP2 POP POP JUMP JUMPDEST PUSH1 0x0 PUSH20 0xFFFFFFFFFFFFFFFFFFFFFFFFFFFFFFFFFFFFFFFF DUP3 AND SWAP1 POP SWAP2 SWAP1 POP JUMP JUMPDEST PUSH1 0x0 PUSH2 0xCDB DUP3 PUSH2 0xCB0 JUMP JUMPDEST SWAP1 POP SWAP2 SWAP1 POP JUMP JUMPDEST PUSH2 0xCEB DUP2 PUSH2 0xCD0 JUMP JUMPDEST DUP2 EQ PUSH2 0xCF6 JUMPI PUSH1 0x0 DUP1 REVERT JUMPDEST POP JUMP JUMPDEST PUSH1 0x0 DUP2 CALLDATALOAD SWAP1 POP PUSH2 0xD08 DUP2 PUSH2 0xCE2 JUMP JUMPDEST SWAP3 SWAP2 POP POP JUMP JUMPDEST PUSH1 0x0 DUP2 SWAP1 POP SWAP2 SWAP1 POP JUMP JUMPDEST PUSH2 0xD21 DUP2 PUSH2 0xD0E JUMP JUMPDEST DUP2 EQ PUSH2 0xD2C JUMPI PUSH1 0x0 DUP1 REVERT JUMPDEST POP JUMP JUMPDEST PUSH1 0x0 DUP2 CALLDATALOAD SWAP1 POP PUSH2 0xD3E DUP2 PUSH2 0xD18 JUMP JUMPDEST SWAP3 SWAP2 POP POP JUMP JUMPDEST PUSH1 0x0 DUP1 PUSH1 0x0 DUP1 PUSH1 0x80 DUP6 DUP8 SUB SLT ISZERO PUSH2 0xD5E JUMPI PUSH2 0xD5D PUSH2 0xC03 JUMP JUMPDEST JUMPDEST PUSH1 0x0 DUP6 ADD CALLDATALOAD PUSH8 0xFFFFFFFFFFFFFFFF DUP2 GT ISZERO PUSH2 0xD7C JUMPI PUSH2 0xD7B PUSH2 0xC08 JUMP JUMPDEST JUMPDEST PUSH2 0xD88 DUP8 DUP3 DUP9 ADD PUSH2 0xC12 JUMP JUMPDEST SWAP5 POP POP PUSH1 0x20 PUSH2 0xD99 DUP8 DUP3 DUP9 ADD PUSH2 0xCF9 JUMP JUMPDEST SWAP4 POP POP PUSH1 0x40 PUSH2 0xDAA DUP8 DUP3 DUP9 ADD PUSH2 0xCF9 JUMP JUMPDEST SWAP3 POP POP PUSH1 0x60 PUSH2 0xDBB DUP8 DUP3 DUP9 ADD PUSH2 0xD2F JUMP JUMPDEST SWAP2 POP POP SWAP3 SWAP6 SWAP2 SWAP5 POP SWAP3 POP JUMP JUMPDEST PUSH1 0x0 PUSH1 0x20 DUP3 DUP5 SUB SLT ISZERO PUSH2 0xDDD JUMPI PUSH2 0xDDC PUSH2 0xC03 JUMP JUMPDEST JUMPDEST PUSH1 0x0 PUSH2 0xDEB DUP5 DUP3 DUP6 ADD PUSH2 0xCF9 JUMP JUMPDEST SWAP2 POP POP SWAP3 SWAP2 POP POP JUMP JUMPDEST PUSH1 0x0 PUSH1 0x20 DUP3 DUP5 SUB SLT ISZERO PUSH2 0xE0A JUMPI PUSH2 0xE09 PUSH2 0xC03 JUMP JUMPDEST JUMPDEST PUSH1 0x0 PUSH2 0xE18 DUP5 DUP3 DUP6 ADD PUSH2 0xD2F JUMP JUMPDEST SWAP2 POP POP SWAP3 SWAP2 POP POP JUMP JUMPDEST PUSH1 0x0 DUP2 SWAP1 POP SWAP2 SWAP1 POP JUMP JUMPDEST PUSH1 0x0 PUSH2 0xE46 PUSH2 0xE41 PUSH2 0xE3C DUP5 PUSH2 0xCB0 JUMP JUMPDEST PUSH2 0xE21 JUMP JUMPDEST PUSH2 0xCB0 JUMP JUMPDEST SWAP1 POP SWAP2 SWAP1 POP JUMP JUMPDEST PUSH1 0x0 PUSH2 0xE58 DUP3 PUSH2 0xE2B JUMP JUMPDEST SWAP1 POP SWAP2 SWAP1 POP JUMP JUMPDEST PUSH1 0x0 PUSH2 0xE6A DUP3 PUSH2 0xE4D JUMP JUMPDEST SWAP1 POP SWAP2 SWAP1 POP JUMP JUMPDEST PUSH2 0xE7A DUP2 PUSH2 0xE5F JUMP JUMPDEST DUP3 MSTORE POP POP JUMP JUMPDEST PUSH1 0x0 PUSH1 0x20 DUP3 ADD SWAP1 POP PUSH2 0xE95 PUSH1 0x0 DUP4 ADD DUP5 PUSH2 0xE71 JUMP JUMPDEST SWAP3 SWAP2 POP POP JUMP JUMPDEST PUSH2 0xEA4 DUP2 PUSH2 0xCD0 JUMP JUMPDEST DUP3 MSTORE POP POP JUMP JUMPDEST PUSH1 0x0 PUSH1 0x20 DUP3 ADD SWAP1 POP PUSH2 0xEBF PUSH1 0x0 DUP4 ADD DUP5 PUSH2 0xE9B JUMP JUMPDEST SWAP3 SWAP2 POP POP JUMP JUMPDEST PUSH1 0x0 DUP1 PUSH1 0x0 PUSH1 0x60 DUP5 DUP7 SUB SLT ISZERO PUSH2 0xEDE JUMPI PUSH2 0xEDD PUSH2 0xC03 JUMP JUMPDEST JUMPDEST PUSH1 0x0 PUSH2 0xEEC DUP7 DUP3 DUP8 ADD PUSH2 0xCF9 JUMP JUMPDEST SWAP4 POP POP PUSH1 0x20 PUSH2 0xEFD DUP7 DUP3 DUP8 ADD PUSH2 0xD2F JUMP JUMPDEST SWAP3 POP POP PUSH1 0x40 DUP5 ADD CALLDATALOAD PUSH8 0xFFFFFFFFFFFFFFFF DUP2 GT ISZERO PUSH2 0xF1E JUMPI PUSH2 0xF1D PUSH2 0xC08 JUMP JUMPDEST JUMPDEST PUSH2 0xF2A DUP7 DUP3 DUP8 ADD PUSH2 0xC12 JUMP JUMPDEST SWAP2 POP POP SWAP3 POP SWAP3 POP SWAP3 JUMP JUMPDEST PUSH1 0x0 PUSH2 0xF3F DUP3 PUSH2 0xE4D JUMP JUMPDEST SWAP1 POP SWAP2 SWAP1 POP JUMP JUMPDEST PUSH2 0xF4F DUP2 PUSH2 0xF34 JUMP JUMPDEST DUP3 MSTORE POP POP JUMP JUMPDEST PUSH1 0x0 PUSH1 0x20 DUP3 ADD SWAP1 POP PUSH2 0xF6A PUSH1 0x0 DUP4 ADD DUP5 PUSH2 0xF46 JUMP JUMPDEST SWAP3 SWAP2 POP POP JUMP JUMPDEST PUSH1 0x0 DUP1 REVERT JUMPDEST PUSH1 0x0 DUP1 REVERT JUMPDEST PUSH1 0x0 DUP1 REVERT JUMPDEST PUSH1 0x0 DUP1 DUP4 CALLDATALOAD PUSH1 0x1 PUSH1 0x20 SUB DUP5 CALLDATASIZE SUB SUB DUP2 SLT PUSH2 0xF9C JUMPI PUSH2 0xF9B PUSH2 0xF7A JUMP JUMPDEST JUMPDEST DUP4 DUP2 ADD SWAP3 POP DUP3 CALLDATALOAD SWAP2 POP PUSH1 0x20 DUP4 ADD SWAP3 POP PUSH8 0xFFFFFFFFFFFFFFFF DUP3 GT ISZERO PUSH2 0xFC4 JUMPI PUSH2 0xFC3 PUSH2 0xF70 JUMP JUMPDEST JUMPDEST PUSH1 0x20 DUP3 MUL CALLDATASIZE SUB DUP4 SGT ISZERO PUSH2 0xFDA JUMPI PUSH2 0xFD9 PUSH2 0xF75 JUMP JUMPDEST JUMPDEST POP SWAP3 POP SWAP3 SWAP1 POP JUMP JUMPDEST PUSH1 0x0 DUP3 DUP3 MSTORE PUSH1 0x20 DUP3 ADD SWAP1 POP SWAP3 SWAP2 POP POP JUMP JUMPDEST PUSH1 0x0 DUP1 REVERT JUMPDEST DUP3 DUP2 DUP4 CALLDATACOPY POP POP POP JUMP JUMPDEST PUSH1 0x0 PUSH2 0x100D DUP4 DUP6 PUSH2 0xFE2 JUMP JUMPDEST SWAP4 POP PUSH32 0x7FFFFFFFFFFFFFFFFFFFFFFFFFFFFFFFFFFFFFFFFFFFFFFFFFFFFFFFFFFFFFF DUP4 GT ISZERO PUSH2 0x1040 JUMPI PUSH2 0x103F PUSH2 0xFF3 JUMP JUMPDEST JUMPDEST PUSH1 0x20 DUP4 MUL SWAP3 POP PUSH2 0x1051 DUP4 DUP6 DUP5 PUSH2 0xFF8 JUMP JUMPDEST DUP3 DUP5 ADD SWAP1 POP SWAP4 SWAP3 POP POP POP JUMP JUMPDEST PUSH1 0x0 DUP3 CALLDATALOAD PUSH1 0x1 PUSH1 0xC0 SUB DUP4 CALLDATASIZE SUB SUB DUP2 SLT PUSH2 0x1079 JUMPI PUSH2 0x1078 PUSH2 0xF7A JUMP JUMPDEST JUMPDEST DUP3 DUP2 ADD SWAP2 POP POP SWAP3 SWAP2 POP POP JUMP JUMPDEST PUSH1 0x0 DUP2 SWAP1 POP SWAP2 SWAP1 POP JUMP JUMPDEST PUSH2 0x1098 DUP2 PUSH2 0x1085 JUMP JUMPDEST DUP2 EQ PUSH2 0x10A3 JUMPI PUSH1 0x0 DUP1 REVERT JUMPDEST POP JUMP JUMPDEST PUSH1 0x0 DUP2 CALLDATALOAD SWAP1 POP PUSH2 0x10B5 DUP2 PUSH2 0x108F JUMP JUMPDEST SWAP3 SWAP2 POP POP JUMP JUMPDEST PUSH1 0x0 PUSH2 0x10CA PUSH1 0x20 DUP5 ADD DUP5 PUSH2 0x10A6 JUMP JUMPDEST SWAP1 POP SWAP3 SWAP2 POP POP JUMP JUMPDEST PUSH2 0x10DB DUP2 PUSH2 0x1085 JUMP JUMPDEST DUP3 MSTORE POP POP JUMP JUMPDEST PUSH1 0x0 PUSH8 0xFFFFFFFFFFFFFFFF DUP3 AND SWAP1 POP SWAP2 SWAP1 POP JUMP JUMPDEST PUSH2 0x10FE DUP2 PUSH2 0x10E1 JUMP JUMPDEST DUP2 EQ PUSH2 0x1109 JUMPI PUSH1 0x0 DUP1 REVERT JUMPDEST POP JUMP JUMPDEST PUSH1 0x0 DUP2 CALLDATALOAD SWAP1 POP PUSH2 0x111B DUP2 PUSH2 0x10F5 JUMP JUMPDEST SWAP3 SWAP2 POP POP JUMP JUMPDEST PUSH1 0x0 PUSH2 0x1130 PUSH1 0x20 DUP5 ADD DUP5 PUSH2 0x110C JUMP JUMPDEST SWAP1 POP SWAP3 SWAP2 POP POP JUMP JUMPDEST PUSH2 0x1141 DUP2 PUSH2 0x10E1 JUMP JUMPDEST DUP3 MSTORE POP POP JUMP JUMPDEST PUSH1 0x0 DUP3 CALLDATALOAD PUSH1 0x1 PUSH1 0xA0 SUB DUP4 CALLDATASIZE SUB SUB DUP2 SLT PUSH2 0x1163 JUMPI PUSH2 0x1162 PUSH2 0xF7A JUMP JUMPDEST JUMPDEST DUP3 DUP2 ADD SWAP2 POP POP SWAP3 SWAP2 POP POP JUMP JUMPDEST PUSH1 0x0 PUSH2 0xFFFF DUP3 AND SWAP1 POP SWAP2 SWAP1 POP JUMP JUMPDEST PUSH2 0x1186 DUP2 PUSH2 0x116F JUMP JUMPDEST DUP2 EQ PUSH2 0x1191 JUMPI PUSH1 0x0 DUP1 REVERT JUMPDEST POP JUMP JUMPDEST PUSH1 0x0 DUP2 CALLDATALOAD SWAP1 POP PUSH2 0x11A3 DUP2 PUSH2 0x117D JUMP JUMPDEST SWAP3 SWAP2 POP POP JUMP JUMPDEST PUSH1 0x0 PUSH2 0x11B8 PUSH1 0x20 DUP5 ADD DUP5 PUSH2 0x1194 JUMP JUMPDEST SWAP1 POP SWAP3 SWAP2 POP POP JUMP JUMPDEST PUSH2 0x11C9 DUP2 PUSH2 0x116F JUMP JUMPDEST DUP3 MSTORE POP POP JUMP JUMPDEST PUSH2 0x11D8 DUP2 PUSH2 0xC7A JUMP JUMPDEST DUP2 EQ PUSH2 0x11E3 JUMPI PUSH1 0x0 DUP1 REVERT JUMPDEST POP JUMP JUMPDEST PUSH1 0x0 DUP2 CALLDATALOAD SWAP1 POP PUSH2 0x11F5 DUP2 PUSH2 0x11CF JUMP JUMPDEST SWAP3 SWAP2 POP POP JUMP JUMPDEST PUSH1 0x0 PUSH2 0x120A PUSH1 0x20 DUP5 ADD DUP5 PUSH2 0x11E6 JUMP JUMPDEST SWAP1 POP SWAP3 SWAP2 POP POP JUMP JUMPDEST PUSH2 0x121B DUP2 PUSH2 0xC7A JUMP JUMPDEST DUP3 MSTORE POP POP JUMP JUMPDEST PUSH1 0x0 DUP1 DUP4 CALLDATALOAD PUSH1 0x1 PUSH1 0x20 SUB DUP5 CALLDATASIZE SUB SUB DUP2 SLT PUSH2 0x123E JUMPI PUSH2 0x123D PUSH2 0xF7A JUMP JUMPDEST JUMPDEST DUP4 DUP2 ADD SWAP3 POP DUP3 CALLDATALOAD SWAP2 POP PUSH1 0x20 DUP4 ADD SWAP3 POP PUSH8 0xFFFFFFFFFFFFFFFF DUP3 GT ISZERO PUSH2 0x1266 JUMPI PUSH2 0x1265 PUSH2 0xF70 JUMP JUMPDEST JUMPDEST PUSH1 0x20 DUP3 MUL CALLDATASIZE SUB DUP4 SGT ISZERO PUSH2 0x127C JUMPI PUSH2 0x127B PUSH2 0xF75 JUMP JUMPDEST JUMPDEST POP SWAP3 POP SWAP3 SWAP1 POP JUMP JUMPDEST PUSH1 0x0 DUP3 DUP3 MSTORE PUSH1 0x20 DUP3 ADD SWAP1 POP SWAP3 SWAP2 POP POP JUMP JUMPDEST PUSH1 0x0 DUP2 SWAP1 POP SWAP2 SWAP1 POP JUMP JUMPDEST PUSH1 0x0 PUSH4 0xFFFFFFFF DUP3 AND SWAP1 POP SWAP2 SWAP1 POP JUMP JUMPDEST PUSH2 0x12B8 DUP2 PUSH2 0x129F JUMP JUMPDEST DUP3 MSTORE POP POP JUMP JUMPDEST PUSH1 0x0 PUSH2 0x12CA DUP4 DUP4 PUSH2 0x12AF JUMP JUMPDEST PUSH1 0x20 DUP4 ADD SWAP1 POP SWAP3 SWAP2 POP POP JUMP JUMPDEST PUSH2 0x12DF DUP2 PUSH2 0x129F JUMP JUMPDEST DUP2 EQ PUSH2 0x12EA JUMPI PUSH1 0x0 DUP1 REVERT JUMPDEST POP JUMP JUMPDEST PUSH1 0x0 DUP2 CALLDATALOAD SWAP1 POP PUSH2 0x12FC DUP2 PUSH2 0x12D6 JUMP JUMPDEST SWAP3 SWAP2 POP POP JUMP JUMPDEST PUSH1 0x0 PUSH2 0x1311 PUSH1 0x20 DUP5 ADD DUP5 PUSH2 0x12ED JUMP JUMPDEST SWAP1 POP SWAP3 SWAP2 POP POP JUMP JUMPDEST PUSH1 0x0 PUSH1 0x20 DUP3 ADD SWAP1 POP SWAP2 SWAP1 POP JUMP JUMPDEST PUSH1 0x0 PUSH2 0x1332 DUP4 DUP6 PUSH2 0x1284 JUMP JUMPDEST SWAP4 POP PUSH2 0x133D DUP3 PUSH2 0x1295 JUMP JUMPDEST DUP1 PUSH1 0x0 JUMPDEST DUP6 DUP2 LT ISZERO PUSH2 0x1376 JUMPI PUSH2 0x1353 DUP3 DUP5 PUSH2 0x1302 JUMP JUMPDEST PUSH2 0x135D DUP9 DUP3 PUSH2 0x12BE JUMP JUMPDEST SWAP8 POP PUSH2 0x1368 DUP4 PUSH2 0x1319 JUMP JUMPDEST SWAP3 POP POP PUSH1 0x1 DUP2 ADD SWAP1 POP PUSH2 0x1341 JUMP JUMPDEST POP DUP6 SWAP3 POP POP POP SWAP4 SWAP3 POP POP POP JUMP JUMPDEST PUSH1 0x0 PUSH1 0xA0 DUP4 ADD PUSH2 0x1396 PUSH1 0x0 DUP5 ADD DUP5 PUSH2 0x10BB JUMP JUMPDEST PUSH2 0x13A3 PUSH1 0x0 DUP7 ADD DUP3 PUSH2 0x10D2 JUMP JUMPDEST POP PUSH2 0x13B1 PUSH1 0x20 DUP5 ADD DUP5 PUSH2 0x11A9 JUMP JUMPDEST PUSH2 0x13BE PUSH1 0x20 DUP7 ADD DUP3 PUSH2 0x11C0 JUMP JUMPDEST POP PUSH2 0x13CC PUSH1 0x40 DUP5 ADD DUP5 PUSH2 0x11FB JUMP JUMPDEST PUSH2 0x13D9 PUSH1 0x40 DUP7 ADD DUP3 PUSH2 0x1212 JUMP JUMPDEST POP PUSH2 0x13E7 PUSH1 0x60 DUP5 ADD DUP5 PUSH2 0x11FB JUMP JUMPDEST PUSH2 0x13F4 PUSH1 0x60 DUP7 ADD DUP3 PUSH2 0x1212 JUMP JUMPDEST POP PUSH2 0x1402 PUSH1 0x80 DUP5 ADD DUP5 PUSH2 0x1221 JUMP JUMPDEST DUP6 DUP4 SUB PUSH1 0x80 DUP8 ADD MSTORE PUSH2 0x1415 DUP4 DUP3 DUP5 PUSH2 0x1326 JUMP JUMPDEST SWAP3 POP POP POP DUP1 SWAP2 POP POP SWAP3 SWAP2 POP POP JUMP JUMPDEST PUSH1 0x0 DUP3 CALLDATALOAD PUSH1 0x1 PUSH2 0x120 SUB DUP4 CALLDATASIZE SUB SUB DUP2 SLT PUSH2 0x1440 JUMPI PUSH2 0x143F PUSH2 0xF7A JUMP JUMPDEST JUMPDEST DUP3 DUP2 ADD SWAP2 POP POP SWAP3 SWAP2 POP POP JUMP JUMPDEST PUSH1 0x0 PUSH2 0x145B PUSH1 0x20 DUP5 ADD DUP5 PUSH2 0xCF9 JUMP JUMPDEST SWAP1 POP SWAP3 SWAP2 POP POP JUMP JUMPDEST PUSH2 0x146C DUP2 PUSH2 0xCD0 JUMP JUMPDEST DUP3 MSTORE POP POP JUMP JUMPDEST PUSH1 0x0 PUSH2 0x1481 PUSH1 0x20 DUP5 ADD DUP5 PUSH2 0xD2F JUMP JUMPDEST SWAP1 POP SWAP3 SWAP2 POP POP JUMP JUMPDEST PUSH2 0x1492 DUP2 PUSH2 0xD0E JUMP JUMPDEST DUP3 MSTORE POP POP JUMP JUMPDEST PUSH1 0x0 DUP1 DUP4 CALLDATALOAD PUSH1 0x1 PUSH1 0x20 SUB DUP5 CALLDATASIZE SUB SUB DUP2 SLT PUSH2 0x14B5 JUMPI PUSH2 0x14B4 PUSH2 0xF7A JUMP JUMPDEST JUMPDEST DUP4 DUP2 ADD SWAP3 POP DUP3 CALLDATALOAD SWAP2 POP PUSH1 0x20 DUP4 ADD SWAP3 POP PUSH8 0xFFFFFFFFFFFFFFFF DUP3 GT ISZERO PUSH2 0x14DD JUMPI PUSH2 0x14DC PUSH2 0xF70 JUMP JUMPDEST JUMPDEST PUSH1 0x1 DUP3 MUL CALLDATASIZE SUB DUP4 SGT ISZERO PUSH2 0x14F3 JUMPI PUSH2 0x14F2 PUSH2 0xF75 JUMP JUMPDEST JUMPDEST POP SWAP3 POP SWAP3 SWAP1 POP JUMP JUMPDEST PUSH1 0x0 DUP3 DUP3 MSTORE PUSH1 0x20 DUP3 ADD SWAP1 POP SWAP3 SWAP2 POP POP JUMP JUMPDEST DUP3 DUP2 DUP4 CALLDATACOPY PUSH1 0x0 DUP4 DUP4 ADD MSTORE POP POP POP JUMP JUMPDEST PUSH1 0x0 PUSH1 0x1F NOT PUSH1 0x1F DUP4 ADD AND SWAP1 POP SWAP2 SWAP1 POP JUMP JUMPDEST PUSH1 0x0 PUSH2 0x1538 DUP4 DUP6 PUSH2 0x14FB JUMP JUMPDEST SWAP4 POP PUSH2 0x1545 DUP4 DUP6 DUP5 PUSH2 0x150C JUMP JUMPDEST PUSH2 0x154E DUP4 PUSH2 0x151B JUMP JUMPDEST DUP5 ADD SWAP1 POP SWAP4 SWAP3 POP POP POP JUMP JUMPDEST PUSH1 0x0 PUSH1 0xFF DUP3 AND SWAP1 POP SWAP2 SWAP1 POP JUMP JUMPDEST PUSH2 0x156F DUP2 PUSH2 0x1559 JUMP JUMPDEST DUP2 EQ PUSH2 0x157A JUMPI PUSH1 0x0 DUP1 REVERT JUMPDEST POP JUMP JUMPDEST PUSH1 0x0 DUP2 CALLDATALOAD SWAP1 POP PUSH2 0x158C DUP2 PUSH2 0x1566 JUMP JUMPDEST SWAP3 SWAP2 POP POP JUMP JUMPDEST PUSH1 0x0 PUSH2 0x15A1 PUSH1 0x20 DUP5 ADD DUP5 PUSH2 0x157D JUMP JUMPDEST SWAP1 POP SWAP3 SWAP2 POP POP JUMP JUMPDEST PUSH2 0x15B2 DUP2 PUSH2 0x1559 JUMP JUMPDEST DUP3 MSTORE POP POP JUMP JUMPDEST PUSH1 0x0 DUP1 DUP4 CALLDATALOAD PUSH1 0x1 PUSH1 0x20 SUB DUP5 CALLDATASIZE SUB SUB DUP2 SLT PUSH2 0x15D5 JUMPI PUSH2 0x15D4 PUSH2 0xF7A JUMP JUMPDEST JUMPDEST DUP4 DUP2 ADD SWAP3 POP DUP3 CALLDATALOAD SWAP2 POP PUSH1 0x20 DUP4 ADD SWAP3 POP PUSH8 0xFFFFFFFFFFFFFFFF DUP3 GT ISZERO PUSH2 0x15FD JUMPI PUSH2 0x15FC PUSH2 0xF70 JUMP JUMPDEST JUMPDEST PUSH1 0x20 DUP3 MUL CALLDATASIZE SUB DUP4 SGT ISZERO PUSH2 0x1613 JUMPI PUSH2 0x1612 PUSH2 0xF75 JUMP JUMPDEST JUMPDEST POP SWAP3 POP SWAP3 SWAP1 POP JUMP JUMPDEST PUSH1 0x0 DUP3 DUP3 MSTORE PUSH1 0x20 DUP3 ADD SWAP1 POP SWAP3 SWAP2 POP POP JUMP JUMPDEST PUSH1 0x0 DUP2 SWAP1 POP SWAP2 SWAP1 POP JUMP JUMPDEST PUSH1 0x0 PUSH1 0xA0 DUP4 ADD PUSH2 0x1649 PUSH1 0x0 DUP5 ADD DUP5 PUSH2 0x1302 JUMP JUMPDEST PUSH2 0x1656 PUSH1 0x0 DUP7 ADD DUP3 PUSH2 0x12AF JUMP JUMPDEST POP PUSH2 0x1664 PUSH1 0x20 DUP5 ADD DUP5 PUSH2 0x144C JUMP JUMPDEST PUSH2 0x1671 PUSH1 0x20 DUP7 ADD DUP3 PUSH2 0x1463 JUMP JUMPDEST POP PUSH2 0x167F PUSH1 0x40 DUP5 ADD DUP5 PUSH2 0xF7F JUMP JUMPDEST DUP6 DUP4 SUB PUSH1 0x40 DUP8 ADD MSTORE PUSH2 0x1692 DUP4 DUP3 DUP5 PUSH2 0x1001 JUMP JUMPDEST SWAP3 POP POP POP PUSH2 0x16A3 PUSH1 0x60 DUP5 ADD DUP5 PUSH2 0x1498 JUMP JUMPDEST DUP6 DUP4 SUB PUSH1 0x60 DUP8 ADD MSTORE PUSH2 0x16B6 DUP4 DUP3 DUP5 PUSH2 0x152C JUMP JUMPDEST SWAP3 POP POP POP PUSH2 0x16C7 PUSH1 0x80 DUP5 ADD DUP5 PUSH2 0x11FB JUMP JUMPDEST PUSH2 0x16D4 PUSH1 0x80 DUP7 ADD DUP3 PUSH2 0x1212 JUMP JUMPDEST POP DUP1 SWAP2 POP POP SWAP3 SWAP2 POP POP JUMP JUMPDEST PUSH1 0x0 PUSH2 0x16EB DUP4 DUP4 PUSH2 0x1636 JUMP JUMPDEST SWAP1 POP SWAP3 SWAP2 POP POP JUMP JUMPDEST PUSH1 0x0 DUP3 CALLDATALOAD PUSH1 0x1 PUSH1 0xA0 SUB DUP4 CALLDATASIZE SUB SUB DUP2 SLT PUSH2 0x170F JUMPI PUSH2 0x170E PUSH2 0xF7A JUMP JUMPDEST JUMPDEST DUP3 DUP2 ADD SWAP2 POP POP SWAP3 SWAP2 POP POP JUMP JUMPDEST PUSH1 0x0 PUSH1 0x20 DUP3 ADD SWAP1 POP SWAP2 SWAP1 POP JUMP JUMPDEST PUSH1 0x0 PUSH2 0x1734 DUP4 DUP6 PUSH2 0x161B JUMP JUMPDEST SWAP4 POP DUP4 PUSH1 0x20 DUP5 MUL DUP6 ADD PUSH2 0x1746 DUP5 PUSH2 0x162C JUMP JUMPDEST DUP1 PUSH1 0x0 JUMPDEST DUP8 DUP2 LT ISZERO PUSH2 0x178A JUMPI DUP5 DUP5 SUB DUP10 MSTORE PUSH2 0x1761 DUP3 DUP5 PUSH2 0x16F3 JUMP JUMPDEST PUSH2 0x176B DUP6 DUP3 PUSH2 0x16DF JUMP JUMPDEST SWAP5 POP PUSH2 0x1776 DUP4 PUSH2 0x171B JUMP JUMPDEST SWAP3 POP PUSH1 0x20 DUP11 ADD SWAP10 POP POP PUSH1 0x1 DUP2 ADD SWAP1 POP PUSH2 0x174A JUMP JUMPDEST POP DUP3 SWAP8 POP DUP8 SWAP5 POP POP POP POP POP SWAP4 SWAP3 POP POP POP JUMP JUMPDEST PUSH1 0x0 PUSH2 0x120 DUP4 ADD PUSH2 0x17B0 PUSH1 0x0 DUP5 ADD DUP5 PUSH2 0x1121 JUMP JUMPDEST PUSH2 0x17BD PUSH1 0x0 DUP7 ADD DUP3 PUSH2 0x1138 JUMP JUMPDEST POP PUSH2 0x17CB PUSH1 0x20 DUP5 ADD DUP5 PUSH2 0x1121 JUMP JUMPDEST PUSH2 0x17D8 PUSH1 0x20 DUP7 ADD DUP3 PUSH2 0x1138 JUMP JUMPDEST POP PUSH2 0x17E6 PUSH1 0x40 DUP5 ADD DUP5 PUSH2 0x144C JUMP JUMPDEST PUSH2 0x17F3 PUSH1 0x40 DUP7 ADD DUP3 PUSH2 0x1463 JUMP JUMPDEST POP PUSH2 0x1801 PUSH1 0x60 DUP5 ADD DUP5 PUSH2 0x11FB JUMP JUMPDEST PUSH2 0x180E PUSH1 0x60 DUP7 ADD DUP3 PUSH2 0x1212 JUMP JUMPDEST POP PUSH2 0x181C PUSH1 0x80 DUP5 ADD DUP5 PUSH2 0x144C JUMP JUMPDEST PUSH2 0x1829 PUSH1 0x80 DUP7 ADD DUP3 PUSH2 0x1463 JUMP JUMPDEST POP PUSH2 0x1837 PUSH1 0xA0 DUP5 ADD DUP5 PUSH2 0x1472 JUMP JUMPDEST PUSH2 0x1844 PUSH1 0xA0 DUP7 ADD DUP3 PUSH2 0x1489 JUMP JUMPDEST POP PUSH2 0x1852 PUSH1 0xC0 DUP5 ADD DUP5 PUSH2 0x1498 JUMP JUMPDEST DUP6 DUP4 SUB PUSH1 0xC0 DUP8 ADD MSTORE PUSH2 0x1865 DUP4 DUP3 DUP5 PUSH2 0x152C JUMP JUMPDEST SWAP3 POP POP POP PUSH2 0x1876 PUSH1 0xE0 DUP5 ADD DUP5 PUSH2 0x1592 JUMP JUMPDEST PUSH2 0x1883 PUSH1 0xE0 DUP7 ADD DUP3 PUSH2 0x15A9 JUMP JUMPDEST POP PUSH2 0x1892 PUSH2 0x100 DUP5 ADD DUP5 PUSH2 0x15B8 JUMP JUMPDEST DUP6 DUP4 SUB PUSH2 0x100 DUP8 ADD MSTORE PUSH2 0x18A6 DUP4 DUP3 DUP5 PUSH2 0x1728 JUMP JUMPDEST SWAP3 POP POP POP DUP1 SWAP2 POP POP SWAP3 SWAP2 POP POP JUMP JUMPDEST PUSH1 0x0 PUSH1 0xC0 DUP4 ADD PUSH2 0x18C7 PUSH1 0x0 DUP5 ADD DUP5 PUSH2 0x10BB JUMP JUMPDEST PUSH2 0x18D4 PUSH1 0x0 DUP7 ADD DUP3 PUSH2 0x10D2 JUMP JUMPDEST POP PUSH2 0x18E2 PUSH1 0x20 DUP5 ADD DUP5 PUSH2 0x10BB JUMP JUMPDEST PUSH2 0x18EF PUSH1 0x20 DUP7 ADD DUP3 PUSH2 0x10D2 JUMP JUMPDEST POP PUSH2 0x18FD PUSH1 0x40 DUP5 ADD DUP5 PUSH2 0x1121 JUMP JUMPDEST PUSH2 0x190A PUSH1 0x40 DUP7 ADD DUP3 PUSH2 0x1138 JUMP JUMPDEST POP PUSH2 0x1918 PUSH1 0x60 DUP5 ADD DUP5 PUSH2 0x1121 JUMP JUMPDEST PUSH2 0x1925 PUSH1 0x60 DUP7 ADD DUP3 PUSH2 0x1138 JUMP JUMPDEST POP PUSH2 0x1933 PUSH1 0x80 DUP5 ADD DUP5 PUSH2 0x1147 JUMP JUMPDEST DUP5 DUP3 SUB PUSH1 0x80 DUP7 ADD MSTORE PUSH2 0x1945 DUP3 DUP3 PUSH2 0x1383 JUMP JUMPDEST SWAP2 POP POP PUSH2 0x1955 PUSH1 0xA0 DUP5 ADD DUP5 PUSH2 0x1423 JUMP JUMPDEST DUP5 DUP3 SUB PUSH1 0xA0 DUP7 ADD MSTORE PUSH2 0x1967 DUP3 DUP3 PUSH2 0x179C JUMP JUMPDEST SWAP2 POP POP DUP1 SWAP2 POP POP SWAP3 SWAP2 POP POP JUMP JUMPDEST PUSH1 0x0 PUSH1 0x40 DUP4 ADD PUSH2 0x1987 PUSH1 0x0 DUP5 ADD DUP5 PUSH2 0xF7F JUMP JUMPDEST DUP6 DUP4 SUB PUSH1 0x0 DUP8 ADD MSTORE PUSH2 0x199A DUP4 DUP3 DUP5 PUSH2 0x1001 JUMP JUMPDEST SWAP3 POP POP POP PUSH2 0x19AB PUSH1 0x20 DUP5 ADD DUP5 PUSH2 0x105D JUMP JUMPDEST DUP5 DUP3 SUB PUSH1 0x20 DUP7 ADD MSTORE PUSH2 0x19BD DUP3 DUP3 PUSH2 0x18B4 JUMP JUMPDEST SWAP2 POP POP DUP1 SWAP2 POP POP SWAP3 SWAP2 POP POP JUMP JUMPDEST PUSH1 0x0 PUSH1 0x20 DUP3 ADD SWAP1 POP DUP2 DUP2 SUB PUSH1 0x0 DUP4 ADD MSTORE PUSH2 0x19E4 DUP2 DUP5 PUSH2 0x1974 JUMP JUMPDEST SWAP1 POP SWAP3 SWAP2 POP POP JUMP JUMPDEST PUSH1 0x0 DUP2 MLOAD SWAP1 POP PUSH2 0x19FB DUP2 PUSH2 0x11CF JUMP JUMPDEST SWAP3 SWAP2 POP POP JUMP JUMPDEST PUSH1 0x0 PUSH1 0x20 DUP3 DUP5 SUB SLT ISZERO PUSH2 0x1A17 JUMPI PUSH2 0x1A16 PUSH2 0xC03 JUMP JUMPDEST JUMPDEST PUSH1 0x0 PUSH2 0x1A25 DUP5 DUP3 DUP6 ADD PUSH2 0x19EC JUMP JUMPDEST SWAP2 POP POP SWAP3 SWAP2 POP POP JUMP JUMPDEST PUSH1 0x0 DUP3 DUP3 MSTORE PUSH1 0x20 DUP3 ADD SWAP1 POP SWAP3 SWAP2 POP POP JUMP JUMPDEST PUSH32 0x496E76616C69642070726F6F6600000000000000000000000000000000000000 PUSH1 0x0 DUP3 ADD MSTORE POP JUMP JUMPDEST PUSH1 0x0 PUSH2 0x1A75 PUSH1 0xD DUP4 PUSH2 0x1A2E JUMP JUMPDEST SWAP2 POP PUSH2 0x1A80 DUP3 PUSH2 0x1A3F JUMP JUMPDEST PUSH1 0x20 DUP3 ADD SWAP1 POP SWAP2 SWAP1 POP JUMP JUMPDEST PUSH1 0x0 PUSH1 0x20 DUP3 ADD SWAP1 POP DUP2 DUP2 SUB PUSH1 0x0 DUP4 ADD MSTORE PUSH2 0x1AA4 DUP2 PUSH2 0x1A68 JUMP JUMPDEST SWAP1 POP SWAP2 SWAP1 POP JUMP JUMPDEST PUSH1 0x0 DUP1 REVERT JUMPDEST PUSH1 0x0 DUP1 REVERT JUMPDEST PUSH1 0x0 DUP1 REVERT JUMPDEST PUSH1 0x0 DUP3 CALLDATALOAD PUSH1 0x1 PUSH1 0xC0 SUB DUP4 CALLDATASIZE SUB SUB DUP2 SLT PUSH2 0x1AD6 JUMPI PUSH2 0x1AD5 PUSH2 0x1AAB JUMP JUMPDEST JUMPDEST DUP1 DUP4 ADD SWAP2 POP POP SWAP3 SWAP2 POP POP JUMP JUMPDEST PUSH1 0x0 DUP3 CALLDATALOAD PUSH1 0x1 PUSH2 0x120 SUB DUP4 CALLDATASIZE SUB SUB DUP2 SLT PUSH2 0x1AFF JUMPI PUSH2 0x1AFE PUSH2 0x1AAB JUMP JUMPDEST JUMPDEST DUP1 DUP4 ADD SWAP2 POP POP SWAP3 SWAP2 POP POP JUMP JUMPDEST PUSH1 0x0 DUP1 DUP4 CALLDATALOAD PUSH1 0x1 PUSH1 0x20 SUB DUP5 CALLDATASIZE SUB SUB DUP2 SLT PUSH2 0x1B28 JUMPI PUSH2 0x1B27 PUSH2 0x1AAB JUMP JUMPDEST JUMPDEST DUP1 DUP5 ADD SWAP3 POP DUP3 CALLDATALOAD SWAP2 POP PUSH8 0xFFFFFFFFFFFFFFFF DUP3 GT ISZERO PUSH2 0x1B4A JUMPI PUSH2 0x1B49 PUSH2 0x1AB0 JUMP JUMPDEST JUMPDEST PUSH1 0x20 DUP4 ADD SWAP3 POP PUSH1 0x20 DUP3 MUL CALLDATASIZE SUB DUP4 SGT ISZERO PUSH2 0x1B66 JUMPI PUSH2 0x1B65 PUSH2 0x1AB5 JUMP JUMPDEST JUMPDEST POP SWAP3 POP SWAP3 SWAP1 POP JUMP JUMPDEST PUSH32 0x4E487B7100000000000000000000000000000000000000000000000000000000 PUSH1 0x0 MSTORE PUSH1 0x32 PUSH1 0x4 MSTORE PUSH1 0x24 PUSH1 0x0 REVERT JUMPDEST PUSH1 0x0 DUP3 CALLDATALOAD PUSH1 0x1 PUSH1 0xA0 SUB DUP4 CALLDATASIZE SUB SUB DUP2 SLT PUSH2 0x1BB9 JUMPI PUSH2 0x1BB8 PUSH2 0x1AAB JUMP JUMPDEST JUMPDEST DUP1 DUP4 ADD SWAP2 POP POP SWAP3 SWAP2 POP POP JUMP JUMPDEST PUSH1 0x0 DUP1 REVERT JUMPDEST PUSH32 0x4E487B7100000000000000000000000000000000000000000000000000000000 PUSH1 0x0 MSTORE PUSH1 0x41 PUSH1 0x4 MSTORE PUSH1 0x24 PUSH1 0x0 REVERT JUMPDEST PUSH2 0x1C02 DUP3 PUSH2 0x151B JUMP JUMPDEST DUP2 ADD DUP2 DUP2 LT PUSH8 0xFFFFFFFFFFFFFFFF DUP3 GT OR ISZERO PUSH2 0x1C21 JUMPI PUSH2 0x1C20 PUSH2 0x1BCA JUMP JUMPDEST JUMPDEST DUP1 PUSH1 0x40 MSTORE POP POP POP JUMP JUMPDEST PUSH1 0x0 PUSH2 0x1C34 PUSH2 0xBF9 JUMP JUMPDEST SWAP1 POP PUSH2 0x1C40 DUP3 DUP3 PUSH2 0x1BF9 JUMP JUMPDEST SWAP2 SWAP1 POP JUMP JUMPDEST PUSH1 0x0 DUP1 REVERT JUMPDEST PUSH1 0x0 DUP1 REVERT JUMPDEST PUSH1 0x0 PUSH8 0xFFFFFFFFFFFFFFFF DUP3 GT ISZERO PUSH2 0x1C6A JUMPI PUSH2 0x1C69 PUSH2 0x1BCA JUMP JUMPDEST JUMPDEST PUSH1 0x20 DUP3 MUL SWAP1 POP PUSH1 0x20 DUP2 ADD SWAP1 POP SWAP2 SWAP1 POP JUMP JUMPDEST PUSH1 0x0 DUP1 REVERT JUMPDEST PUSH1 0x0 PUSH2 0x1C93 PUSH2 0x1C8E DUP5 PUSH2 0x1C4F JUMP JUMPDEST PUSH2 0x1C2A JUMP JUMPDEST SWAP1 POP DUP1 DUP4 DUP3 MSTORE PUSH1 0x20 DUP3 ADD SWAP1 POP PUSH1 0x20 DUP5 MUL DUP4 ADD DUP6 DUP2 GT ISZERO PUSH2 0x1CB6 JUMPI PUSH2 0x1CB5 PUSH2 0x1C7B JUMP JUMPDEST JUMPDEST DUP4 JUMPDEST DUP2 DUP2 LT ISZERO PUSH2 0x1CDF JUMPI DUP1 PUSH2 0x1CCB DUP9 DUP3 PUSH2 0x10A6 JUMP JUMPDEST DUP5 MSTORE PUSH1 0x20 DUP5 ADD SWAP4 POP POP PUSH1 0x20 DUP2 ADD SWAP1 POP PUSH2 0x1CB8 JUMP JUMPDEST POP POP POP SWAP4 SWAP3 POP POP POP JUMP JUMPDEST PUSH1 0x0 DUP3 PUSH1 0x1F DUP4 ADD SLT PUSH2 0x1CFE JUMPI PUSH2 0x1CFD PUSH2 0x1C4A JUMP JUMPDEST JUMPDEST DUP2 CALLDATALOAD PUSH2 0x1D0E DUP5 DUP3 PUSH1 0x20 DUP7 ADD PUSH2 0x1C80 JUMP JUMPDEST SWAP2 POP POP SWAP3 SWAP2 POP POP JUMP JUMPDEST PUSH1 0x0 DUP1 REVERT JUMPDEST PUSH1 0x0 PUSH8 0xFFFFFFFFFFFFFFFF DUP3 GT ISZERO PUSH2 0x1D37 JUMPI PUSH2 0x1D36 PUSH2 0x1BCA JUMP JUMPDEST JUMPDEST PUSH2 0x1D40 DUP3 PUSH2 0x151B JUMP JUMPDEST SWAP1 POP PUSH1 0x20 DUP2 ADD SWAP1 POP SWAP2 SWAP1 POP JUMP JUMPDEST PUSH1 0x0 PUSH2 0x1D60 PUSH2 0x1D5B DUP5 PUSH2 0x1D1C JUMP JUMPDEST PUSH2 0x1C2A JUMP JUMPDEST SWAP1 POP DUP3 DUP2 MSTORE PUSH1 0x20 DUP2 ADD DUP5 DUP5 DUP5 ADD GT ISZERO PUSH2 0x1D7C JUMPI PUSH2 0x1D7B PUSH2 0x1D17 JUMP JUMPDEST JUMPDEST PUSH2 0x1D87 DUP5 DUP3 DUP6 PUSH2 0x150C JUMP JUMPDEST POP SWAP4 SWAP3 POP POP POP JUMP JUMPDEST PUSH1 0x0 DUP3 PUSH1 0x1F DUP4 ADD SLT PUSH2 0x1DA4 JUMPI PUSH2 0x1DA3 PUSH2 0x1C4A JUMP JUMPDEST JUMPDEST DUP2 CALLDATALOAD PUSH2 0x1DB4 DUP5 DUP3 PUSH1 0x20 DUP7 ADD PUSH2 0x1D4D JUMP JUMPDEST SWAP2 POP POP SWAP3 SWAP2 POP POP JUMP JUMPDEST PUSH1 0x0 PUSH1 0xA0 DUP3 DUP5 SUB SLT ISZERO PUSH2 0x1DD3 JUMPI PUSH2 0x1DD2 PUSH2 0x1BC5 JUMP JUMPDEST JUMPDEST PUSH2 0x1DDD PUSH1 0xA0 PUSH2 0x1C2A JUMP JUMPDEST SWAP1 POP PUSH1 0x0 PUSH2 0x1DED DUP5 DUP3 DUP6 ADD PUSH2 0x12ED JUMP JUMPDEST PUSH1 0x0 DUP4 ADD MSTORE POP PUSH1 0x20 PUSH2 0x1E01 DUP5 DUP3 DUP6 ADD PUSH2 0xCF9 JUMP JUMPDEST PUSH1 0x20 DUP4 ADD MSTORE POP PUSH1 0x40 DUP3 ADD CALLDATALOAD PUSH8 0xFFFFFFFFFFFFFFFF DUP2 GT ISZERO PUSH2 0x1E25 JUMPI PUSH2 0x1E24 PUSH2 0x1C45 JUMP JUMPDEST JUMPDEST PUSH2 0x1E31 DUP5 DUP3 DUP6 ADD PUSH2 0x1CE9 JUMP JUMPDEST PUSH1 0x40 DUP4 ADD MSTORE POP PUSH1 0x60 DUP3 ADD CALLDATALOAD PUSH8 0xFFFFFFFFFFFFFFFF DUP2 GT ISZERO PUSH2 0x1E55 JUMPI PUSH2 0x1E54 PUSH2 0x1C45 JUMP JUMPDEST JUMPDEST PUSH2 0x1E61 DUP5 DUP3 DUP6 ADD PUSH2 0x1D8F JUMP JUMPDEST PUSH1 0x60 DUP4 ADD MSTORE POP PUSH1 0x80 PUSH2 0x1E75 DUP5 DUP3 DUP6 ADD PUSH2 0x11E6 JUMP JUMPDEST PUSH1 0x80 DUP4 ADD MSTORE POP SWAP3 SWAP2 POP POP JUMP JUMPDEST PUSH1 0x0 PUSH2 0x1E8D CALLDATASIZE DUP4 PUSH2 0x1DBD JUMP JUMPDEST SWAP1 POP SWAP2 SWAP1 POP JUMP JUMPDEST PUSH32 0x496E76616C6964206576656E7400000000000000000000000000000000000000 PUSH1 0x0 DUP3 ADD MSTORE POP JUMP JUMPDEST PUSH1 0x0 PUSH2 0x1ECA PUSH1 0xD DUP4 PUSH2 0x1A2E JUMP JUMPDEST SWAP2 POP PUSH2 0x1ED5 DUP3 PUSH2 0x1E94 JUMP JUMPDEST PUSH1 0x20 DUP3 ADD SWAP1 POP SWAP2 SWAP1 POP JUMP JUMPDEST PUSH1 0x0 PUSH1 0x20 DUP3 ADD SWAP1 POP DUP2 DUP2 SUB PUSH1 0x0 DUP4 ADD MSTORE PUSH2 0x1EF9 DUP2 PUSH2 0x1EBD JUMP JUMPDEST SWAP1 POP SWAP2 SWAP1 POP JUMP JUMPDEST PUSH1 0x0 PUSH2 0x1F0B DUP3 PUSH2 0xCB0 JUMP JUMPDEST SWAP1 POP SWAP2 SWAP1 POP JUMP JUMPDEST PUSH2 0x1F1B DUP2 PUSH2 0x1F00 JUMP JUMPDEST DUP2 EQ PUSH2 0x1F26 JUMPI PUSH1 0x0 DUP1 REVERT JUMPDEST POP JUMP JUMPDEST PUSH1 0x0 DUP2 MLOAD SWAP1 POP PUSH2 0x1F38 DUP2 PUSH2 0x1F12 JUMP JUMPDEST SWAP3 SWAP2 POP POP JUMP JUMPDEST PUSH1 0x0 JUMPDEST DUP4 DUP2 LT ISZERO PUSH2 0x1F5C JUMPI DUP1 DUP3 ADD MLOAD DUP2 DUP5 ADD MSTORE PUSH1 0x20 DUP2 ADD SWAP1 POP PUSH2 0x1F41 JUMP JUMPDEST PUSH1 0x0 DUP5 DUP5 ADD MSTORE POP POP POP POP JUMP JUMPDEST PUSH1 0x0 PUSH2 0x1F7B PUSH2 0x1F76 DUP5 PUSH2 0x1D1C JUMP JUMPDEST PUSH2 0x1C2A JUMP JUMPDEST SWAP1 POP DUP3 DUP2 MSTORE PUSH1 0x20 DUP2 ADD DUP5 DUP5 DUP5 ADD GT ISZERO PUSH2 0x1F97 JUMPI PUSH2 0x1F96 PUSH2 0x1D17 JUMP JUMPDEST JUMPDEST PUSH2 0x1FA2 DUP5 DUP3 DUP6 PUSH2 0x1F3E JUMP JUMPDEST POP SWAP4 SWAP3 POP POP POP JUMP JUMPDEST PUSH1 0x0 DUP3 PUSH1 0x1F DUP4 ADD SLT PUSH2 0x1FBF JUMPI PUSH2 0x1FBE PUSH2 0x1C4A JUMP JUMPDEST JUMPDEST DUP2 MLOAD PUSH2 0x1FCF DUP5 DUP3 PUSH1 0x20 DUP7 ADD PUSH2 0x1F68 JUMP JUMPDEST SWAP2 POP POP SWAP3 SWAP2 POP POP JUMP JUMPDEST PUSH1 0x0 DUP1 PUSH1 0x0 DUP1 PUSH1 0x80 DUP6 DUP8 SUB SLT ISZERO PUSH2 0x1FF2 JUMPI PUSH2 0x1FF1 PUSH2 0xC03 JUMP JUMPDEST JUMPDEST PUSH1 0x0 PUSH2 0x2000 DUP8 DUP3 DUP9 ADD PUSH2 0x1F29 JUMP JUMPDEST SWAP5 POP POP PUSH1 0x20 PUSH2 0x2011 DUP8 DUP3 DUP9 ADD PUSH2 0x19EC JUMP JUMPDEST SWAP4 POP POP PUSH1 0x40 DUP6 ADD MLOAD PUSH8 0xFFFFFFFFFFFFFFFF DUP2 GT ISZERO PUSH2 0x2032 JUMPI PUSH2 0x2031 PUSH2 0xC08 JUMP JUMPDEST JUMPDEST PUSH2 0x203E DUP8 DUP3 DUP9 ADD PUSH2 0x1FAA JUMP JUMPDEST SWAP3 POP POP PUSH1 0x60 DUP6 ADD MLOAD PUSH8 0xFFFFFFFFFFFFFFFF DUP2 GT ISZERO PUSH2 0x205F JUMPI PUSH2 0x205E PUSH2 0xC08 JUMP JUMPDEST JUMPDEST PUSH2 0x206B DUP8 DUP3 DUP9 ADD PUSH2 0x1FAA JUMP JUMPDEST SWAP2 POP POP SWAP3 SWAP6 SWAP2 SWAP5 POP SWAP3 POP JUMP JUMPDEST PUSH32 0x496E76616C696420746F6B656E20616464726573730000000000000000000000 PUSH1 0x0 DUP3 ADD MSTORE POP JUMP JUMPDEST PUSH1 0x0 PUSH2 0x20AD PUSH1 0x15 DUP4 PUSH2 0x1A2E JUMP JUMPDEST SWAP2 POP PUSH2 0x20B8 DUP3 PUSH2 0x2077 JUMP JUMPDEST PUSH1 0x20 DUP3 ADD SWAP1 POP SWAP2 SWAP1 POP JUMP JUMPDEST PUSH1 0x0 PUSH1 0x20 DUP3 ADD SWAP1 POP DUP2 DUP2 SUB PUSH1 0x0 DUP4 ADD MSTORE PUSH2 0x20DC DUP2 PUSH2 0x20A0 JUMP JUMPDEST SWAP1 POP SWAP2 SWAP1 POP JUMP JUMPDEST PUSH2 0x20EC DUP2 PUSH2 0xD0E JUMP JUMPDEST DUP3 MSTORE POP POP JUMP JUMPDEST PUSH1 0x0 PUSH1 0x40 DUP3 ADD SWAP1 POP PUSH2 0x2107 PUSH1 0x0 DUP4 ADD DUP6 PUSH2 0xE9B JUMP JUMPDEST PUSH2 0x2114 PUSH1 0x20 DUP4 ADD DUP5 PUSH2 0x20E3 JUMP JUMPDEST SWAP4 SWAP3 POP POP POP JUMP JUMPDEST PUSH1 0x0 DUP2 MLOAD SWAP1 POP SWAP2 SWAP1 POP JUMP JUMPDEST PUSH1 0x0 DUP3 DUP3 MSTORE PUSH1 0x20 DUP3 ADD SWAP1 POP SWAP3 SWAP2 POP POP JUMP JUMPDEST PUSH1 0x0 PUSH2 0x2142 DUP3 PUSH2 0x211B JUMP JUMPDEST PUSH2 0x214C DUP2 DUP6 PUSH2 0x2126 JUMP JUMPDEST SWAP4 POP PUSH2 0x215C DUP2 DUP6 PUSH1 0x20 DUP7 ADD PUSH2 0x1F3E JUMP JUMPDEST PUSH2 0x2165 DUP2 PUSH2 0x151B JUMP JUMPDEST DUP5 ADD SWAP2 POP POP SWAP3 SWAP2 POP POP JUMP JUMPDEST PUSH1 0x0 DUP2 SWAP1 POP SWAP2 SWAP1 POP JUMP JUMPDEST PUSH1 0x0 PUSH2 0x2195 PUSH2 0x2190 PUSH2 0x218B DUP5 PUSH2 0x2170 JUMP JUMPDEST PUSH2 0xE21 JUMP JUMPDEST PUSH2 0xD0E JUMP JUMPDEST SWAP1 POP SWAP2 SWAP1 POP JUMP JUMPDEST PUSH2 0x21A5 DUP2 PUSH2 0x217A JUMP JUMPDEST DUP3 MSTORE POP POP JUMP JUMPDEST PUSH1 0x0 PUSH1 0x80 DUP3 ADD SWAP1 POP PUSH2 0x21C0 PUSH1 0x0 DUP4 ADD DUP8 PUSH2 0xE9B JUMP JUMPDEST DUP2 DUP2 SUB PUSH1 0x20 DUP4 ADD MSTORE PUSH2 0x21D2 DUP2 DUP7 PUSH2 0x2137 JUMP JUMPDEST SWAP1 POP PUSH2 0x21E1 PUSH1 0x40 DUP4 ADD DUP6 PUSH2 0xE9B JUMP JUMPDEST PUSH2 0x21EE PUSH1 0x60 DUP4 ADD DUP5 PUSH2 0x219C JUMP JUMPDEST SWAP6 SWAP5 POP POP POP POP POP JUMP JUMPDEST PUSH32 0x496E76616C69642050726F6F6600000000000000000000000000000000000000 PUSH1 0x0 DUP3 ADD MSTORE POP JUMP JUMPDEST PUSH1 0x0 PUSH2 0x222D PUSH1 0xD DUP4 PUSH2 0x1A2E JUMP JUMPDEST SWAP2 POP PUSH2 0x2238 DUP3 PUSH2 0x21F7 JUMP JUMPDEST PUSH1 0x20 DUP3 ADD SWAP1 POP SWAP2 SWAP1 POP JUMP JUMPDEST PUSH1 0x0 PUSH1 0x20 DUP3 ADD SWAP1 POP DUP2 DUP2 SUB PUSH1 0x0 DUP4 ADD MSTORE PUSH2 0x225C DUP2 PUSH2 0x2220 JUMP JUMPDEST SWAP1 POP SWAP2 SWAP1 POP JUMP JUMPDEST PUSH1 0x0 DUP2 MLOAD SWAP1 POP SWAP2 SWAP1 POP JUMP JUMPDEST PUSH1 0x0 PUSH2 0x2279 DUP3 PUSH2 0x2263 JUMP JUMPDEST PUSH2 0x2283 DUP2 DUP6 PUSH2 0x1A2E JUMP JUMPDEST SWAP4 POP PUSH2 0x2293 DUP2 DUP6 PUSH1 0x20 DUP7 ADD PUSH2 0x1F3E JUMP JUMPDEST PUSH2 0x229C DUP2 PUSH2 0x151B JUMP JUMPDEST DUP5 ADD SWAP2 POP POP SWAP3 SWAP2 POP POP JUMP JUMPDEST PUSH1 0x0 PUSH1 0x20 DUP3 ADD SWAP1 POP DUP2 DUP2 SUB PUSH1 0x0 DUP4 ADD MSTORE PUSH2 0x22C1 DUP2 DUP5 PUSH2 0x226E JUMP JUMPDEST SWAP1 POP SWAP3 SWAP2 POP POP JUMP JUMPDEST PUSH32 0x4E487B7100000000000000000000000000000000000000000000000000000000 PUSH1 0x0 MSTORE PUSH1 0x51 PUSH1 0x4 MSTORE PUSH1 0x24 PUSH1 0x0 REVERT INVALID LOG2 PUSH5 0x6970667358 0x22 SLT KECCAK256 LOG2 PUSH1 0x9C 0xB3 0xFC SWAP1 NOT PUSH4 0xB93DB89 0x21 CALLDATASIZE DUP7 SWAP6 0xE1 SLT 0xEC CALLER 0x4F MLOAD DUP12 PUSH2 0x4C95 PUSH14 0x1029D8538F64736F6C6343000818 STOP CALLER "},"methodIdentifiers":{"coinContract()":"72dd52e3","isBurnProofValid((bytes32[],(bytes32,bytes32,uint64,uint64,(bytes32,uint16,bool,bool,uint32[]),(uint64,uint64,address,bool,address,uint256,bytes,uint8,(uint32,address,bytes32[],bytes,bool)[]))),address,address,uint256)":"21f918ef","isEVMTransactionProofValid((bytes32[],(bytes32,bytes32,uint64,uint64,(bytes32,uint16,bool,bool,uint32[]),(uint64,uint64,address,bool,address,uint256,bytes,uint8,(uint32,address,bytes32[],bytes,bool)[]))))":"09f5dc91","owner()":"8da5cb5b","receiveToken(address,uint256,(bytes32[],(bytes32,bytes32,uint64,uint64,(bytes32,uint16,bool,bool,uint32[]),(uint64,uint64,address,bool,address,uint256,bytes,uint8,(uint32,address,bytes32[],bytes,bool)[]))))":"c56156b4","relayerContract()":"c669439e","renounceOwnership()":"715018a6","sendToken(uint256)":"437e95f1","setBridgedCoinContract(address)":"24b6e709","setRelay(address)":"c805f68b","transferOwnership(address)":"f2fde38b"}}}}}