{"contracts/RelayGateway.sol":{"RelayGateway":{"abi":[{"inputs":[{"internalType":"address","name":"_relayer","type":"address"},{"internalType":"bool","name":"_is_destination","type":"bool"}],"stateMutability":"nonpayable","type":"constructor"},{"inputs":[],"name":"ReentrancyGuardReentrantCall","type":"error"},{"anonymous":false,"inputs":[{"indexed":false,"internalType":"uint256","name":"uid","type":"uint256"},{"indexed":false,"internalType":"address","name":"relayInitiator","type":"address"},{"indexed":false,"internalType":"address","name":"relayTarget","type":"address"},{"indexed":false,"internalType":"bytes","name":"additionalCalldata","type":"bytes"},{"indexed":false,"internalType":"address","name":"sourceToken","type":"address"},{"indexed":false,"internalType":"address","name":"targetToken","type":"address"},{"indexed":false,"internalType":"uint256","name":"amount","type":"uint256"}],"name":"RelayExecuted","type":"event"},{"anonymous":false,"inputs":[{"indexed":false,"internalType":"uint256","name":"uid","type":"uint256"},{"indexed":false,"internalType":"address","name":"relayInitiator","type":"address"},{"indexed":false,"internalType":"address","name":"relayTarget","type":"address"},{"indexed":false,"internalType":"bytes","name":"additionalCalldata","type":"bytes"},{"indexed":false,"internalType":"address","name":"sourceToken","type":"address"},{"indexed":false,"internalType":"address","name":"targetToken","type":"address"},{"indexed":false,"internalType":"uint256","name":"amount","type":"uint256"}],"name":"RelayRequested","type":"event"},{"inputs":[{"internalType":"contract IERC20","name":"_sourceToken","type":"address"},{"internalType":"address","name":"_targetToken","type":"address"}],"name":"addTokenPair","outputs":[],"stateMutability":"nonpayable","type":"function"},{"inputs":[{"internalType":"uint256","name":"","type":"uint256"}],"name":"availableTokens","outputs":[{"internalType":"contract IERC20","name":"","type":"address"}],"stateMutability":"view","type":"function"},{"inputs":[],"name":"calldataInterface","outputs":[{"internalType":"contract CalldataInterface","name":"","type":"address"}],"stateMutability":"view","type":"function"},{"inputs":[{"components":[{"internalType":"uint256","name":"uid","type":"uint256"},{"internalType":"address","name":"relayInitiator","type":"address"},{"internalType":"address","name":"relayTarget","type":"address"},{"internalType":"bytes","name":"additionalCalldata","type":"bytes"},{"internalType":"address","name":"sourceToken","type":"address"},{"internalType":"address","name":"targetToken","type":"address"},{"internalType":"uint256","name":"amount","type":"uint256"},{"internalType":"uint256","name":"executionResult","type":"uint256"},{"internalType":"bytes32","name":"relayDataHash","type":"bytes32"}],"internalType":"struct RelayData","name":"_relayData","type":"tuple"}],"name":"executeRelay","outputs":[],"stateMutability":"nonpayable","type":"function"},{"inputs":[{"internalType":"uint256","name":"","type":"uint256"}],"name":"executedRelays","outputs":[{"internalType":"uint256","name":"uid","type":"uint256"},{"internalType":"address","name":"relayInitiator","type":"address"},{"internalType":"address","name":"relayTarget","type":"address"},{"internalType":"bytes","name":"additionalCalldata","type":"bytes"},{"internalType":"address","name":"sourceToken","type":"address"},{"internalType":"address","name":"targetToken","type":"address"},{"internalType":"uint256","name":"amount","type":"uint256"},{"internalType":"uint256","name":"executionResult","type":"uint256"},{"internalType":"bytes32","name":"relayDataHash","type":"bytes32"}],"stateMutability":"view","type":"function"},{"inputs":[],"name":"getExecutedRelays","outputs":[{"components":[{"internalType":"uint256","name":"uid","type":"uint256"},{"internalType":"address","name":"relayInitiator","type":"address"},{"internalType":"address","name":"relayTarget","type":"address"},{"internalType":"bytes","name":"additionalCalldata","type":"bytes"},{"internalType":"address","name":"sourceToken","type":"address"},{"internalType":"address","name":"targetToken","type":"address"},{"internalType":"uint256","name":"amount","type":"uint256"},{"internalType":"uint256","name":"executionResult","type":"uint256"},{"internalType":"bytes32","name":"relayDataHash","type":"bytes32"}],"internalType":"struct RelayData[]","name":"","type":"tuple[]"}],"stateMutability":"view","type":"function"},{"inputs":[],"name":"getRequestedRelays","outputs":[{"components":[{"internalType":"uint256","name":"uid","type":"uint256"},{"internalType":"address","name":"relayInitiator","type":"address"},{"internalType":"address","name":"relayTarget","type":"address"},{"internalType":"bytes","name":"additionalCalldata","type":"bytes"},{"internalType":"address","name":"sourceToken","type":"address"},{"internalType":"address","name":"targetToken","type":"address"},{"internalType":"uint256","name":"amount","type":"uint256"},{"internalType":"uint256","name":"executionResult","type":"uint256"},{"internalType":"bytes32","name":"relayDataHash","type":"bytes32"}],"internalType":"struct RelayData[]","name":"","type":"tuple[]"}],"stateMutability":"view","type":"function"},{"inputs":[],"name":"is_destination","outputs":[{"internalType":"bool","name":"","type":"bool"}],"stateMutability":"view","type":"function"},{"inputs":[],"name":"owner","outputs":[{"internalType":"address","name":"","type":"address"}],"stateMutability":"view","type":"function"},{"inputs":[],"name":"relayer","outputs":[{"internalType":"address","name":"","type":"address"}],"stateMutability":"view","type":"function"},{"inputs":[{"internalType":"contract IERC20","name":"_sourceToken","type":"address"},{"internalType":"uint256","name":"tokenId","type":"uint256"}],"name":"removeTokenPair","outputs":[],"stateMutability":"nonpayable","type":"function"},{"inputs":[{"internalType":"address","name":"_relayTarget","type":"address"},{"internalType":"bytes","name":"_additionalCalldata","type":"bytes"},{"internalType":"address","name":"_sourceToken","type":"address"},{"internalType":"uint256","name":"_amount","type":"uint256"}],"name":"requestRelay","outputs":[],"stateMutability":"nonpayable","type":"function"},{"inputs":[{"internalType":"uint256","name":"","type":"uint256"}],"name":"requestedRelays","outputs":[{"internalType":"uint256","name":"uid","type":"uint256"},{"internalType":"address","name":"relayInitiator","type":"address"},{"internalType":"address","name":"relayTarget","type":"address"},{"internalType":"bytes","name":"additionalCalldata","type":"bytes"},{"internalType":"address","name":"sourceToken","type":"address"},{"internalType":"address","name":"targetToken","type":"address"},{"internalType":"uint256","name":"amount","type":"uint256"},{"internalType":"uint256","name":"executionResult","type":"uint256"},{"internalType":"bytes32","name":"relayDataHash","type":"bytes32"}],"stateMutability":"view","type":"function"},{"inputs":[{"internalType":"address","name":"_owner","type":"address"}],"name":"setOwner","outputs":[],"stateMutability":"nonpayable","type":"function"},{"inputs":[{"internalType":"uint256","name":"_uid","type":"uint256"},{"internalType":"uint256","name":"_executionResult","type":"uint256"},{"internalType":"bytes32","name":"relayDataHash","type":"bytes32"}],"name":"setRelayResult","outputs":[],"stateMutability":"nonpayable","type":"function"},{"inputs":[{"internalType":"address","name":"_relayer","type":"address"}],"name":"setRelayer","outputs":[],"stateMutability":"nonpayable","type":"function"},{"inputs":[{"internalType":"contract IERC20","name":"","type":"address"}],"name":"tokenPair","outputs":[{"internalType":"address","name":"","type":"address"}],"stateMutability":"view","type":"function"}],"evm":{"bytecode":{"linkReferences":{},"object":"60806040523480156200001157600080fd5b50604051620039ea380380620039ea833981810160405281019062000037919062000204565b600160008190555033600160006101000a81548173ffffffffffffffffffffffffffffffffffffffff021916908373ffffffffffffffffffffffffffffffffffffffff16021790555081600260006101000a81548173ffffffffffffffffffffffffffffffffffffffff021916908373ffffffffffffffffffffffffffffffffffffffff16021790555080600260146101000a81548160ff021916908315150217905550604051620000e9906200014f565b604051809103906000f08015801562000106573d6000803e3d6000fd5b50600360006101000a81548173ffffffffffffffffffffffffffffffffffffffff021916908373ffffffffffffffffffffffffffffffffffffffff16021790555050506200024b565b610688806200336283390190565b600080fd5b600073ffffffffffffffffffffffffffffffffffffffff82169050919050565b60006200018f8262000162565b9050919050565b620001a18162000182565b8114620001ad57600080fd5b50565b600081519050620001c18162000196565b92915050565b60008115159050919050565b620001de81620001c7565b8114620001ea57600080fd5b50565b600081519050620001fe81620001d3565b92915050565b600080604083850312156200021e576200021d6200015d565b5b60006200022e85828601620001b0565b92505060206200024185828601620001ed565b9150509250929050565b613107806200025b6000396000f3fe608060405234801561001057600080fd5b506004361061010b5760003560e01c80638406c079116100a2578063a23b907f11610071578063a23b907f1461029a578063a7c87ec2146102b8578063ad64d068146102d4578063e897e8de14610304578063fe2ed668146103205761010b565b80638406c079146102225780638da5cb5b1461024057806393d99d6e1461025e57806393f3dd481461027c5761010b565b806333dd6d85116100de57806333dd6d851461019457806349d6ec84146101cc5780636548e9bc146101e8578063747dcd08146102045761010b565b806313af403514610110578063148f59331461012c5780631cc6391e14610148578063267422e714610178575b600080fd5b61012a60048036038101906101259190611ee9565b610358565b005b61014660048036038101906101419190611f82565b61042c565b005b610162600480360381019061015d9190612013565b6105aa565b60405161016f919061204f565b60405180910390f35b610192600480360381019061018d91906122b6565b6105dd565b005b6101ae60048036038101906101a991906122ff565b610997565b6040516101c3999897969594939291906123c9565b60405180910390f35b6101e660048036038101906101e1919061245d565b610afd565b005b61020260048036038101906101fd9190611ee9565b610e60565b005b61020c610f34565b604051610219919061269b565b60405180910390f35b61022a611216565b604051610237919061204f565b60405180910390f35b61024861123c565b604051610255919061204f565b60405180910390f35b610266611262565b60405161027391906126d8565b60405180910390f35b610284611275565b6040516102919190612752565b60405180910390f35b6102a261129b565b6040516102af919061269b565b60405180910390f35b6102d260048036038101906102cd919061276d565b61157d565b005b6102ee60048036038101906102e991906122ff565b6117c0565b6040516102fb91906127ce565b60405180910390f35b61031e600480360381019061031991906127e9565b6117ff565b005b61033a600480360381019061033591906122ff565b611c1a565b60405161034f999897969594939291906123c9565b60405180910390f35b600160009054906101000a900473ffffffffffffffffffffffffffffffffffffffff1673ffffffffffffffffffffffffffffffffffffffff163373ffffffffffffffffffffffffffffffffffffffff16146103e8576040517f08c379a00000000000000000000000000000000000000000000000000000000081526004016103df906128c9565b60405180910390fd5b80600160006101000a81548173ffffffffffffffffffffffffffffffffffffffff021916908373ffffffffffffffffffffffffffffffffffffffff16021790555050565b600260009054906101000a900473ffffffffffffffffffffffffffffffffffffffff1673ffffffffffffffffffffffffffffffffffffffff163373ffffffffffffffffffffffffffffffffffffffff16146104bc576040517f08c379a00000000000000000000000000000000000000000000000000000000081526004016104b390612935565b60405180910390fd5b6004805490508310610503576040517f08c379a00000000000000000000000000000000000000000000000000000000081526004016104fa906129a1565b60405180910390fd5b60018214806105125750600282145b610551576040517f08c379a000000000000000000000000000000000000000000000000000000000815260040161054890612a0d565b60405180910390fd5b816004848154811061056657610565612a2d565b5b90600052602060002090600902016007018190555080600484815481106105905761058f612a2d565b5b906000526020600020906009020160080181905550505050565b60076020528060005260406000206000915054906101000a900473ffffffffffffffffffffffffffffffffffffffff1681565b600260009054906101000a900473ffffffffffffffffffffffffffffffffffffffff1673ffffffffffffffffffffffffffffffffffffffff163373ffffffffffffffffffffffffffffffffffffffff161461066d576040517f08c379a000000000000000000000000000000000000000000000000000000000815260040161066490612935565b60405180910390fd5b60008160c001511115610706578060a0015173ffffffffffffffffffffffffffffffffffffffff1663a9059cbb82604001518360c001516040518363ffffffff1660e01b81526004016106c1929190612a5c565b6020604051808303816000875af11580156106e0573d6000803e3d6000fd5b505050506040513d601f19601f820116820180604052508101906107049190612ab1565b505b600081606001515111156107ac57600360009054906101000a900473ffffffffffffffffffffffffffffffffffffffff1673ffffffffffffffffffffffffffffffffffffffff1663bca8c7b5826040015183606001516040518363ffffffff1660e01b8152600401610779929190612ade565b600060405180830381600087803b15801561079357600080fd5b505af11580156107a7573d6000803e3d6000fd5b505050505b60048190806001815401808255809150506001900390600052602060002090600902016000909190919091506000820151816000015560208201518160010160006101000a81548173ffffffffffffffffffffffffffffffffffffffff021916908373ffffffffffffffffffffffffffffffffffffffff16021790555060408201518160020160006101000a81548173ffffffffffffffffffffffffffffffffffffffff021916908373ffffffffffffffffffffffffffffffffffffffff16021790555060608201518160030190816108859190612d10565b5060808201518160040160006101000a81548173ffffffffffffffffffffffffffffffffffffffff021916908373ffffffffffffffffffffffffffffffffffffffff16021790555060a08201518160050160006101000a81548173ffffffffffffffffffffffffffffffffffffffff021916908373ffffffffffffffffffffffffffffffffffffffff16021790555060c0820151816006015560e08201518160070155610100820151816008015550507f8d80bcc3460b53031d8aa27a772098820b942987d9c639cb66c8318541841e81816000015182602001518360400151846060015185608001518660a001518760c0015160405161098c9796959493929190612de2565b60405180910390a150565b600581815481106109a757600080fd5b90600052602060002090600902016000915090508060000154908060010160009054906101000a900473ffffffffffffffffffffffffffffffffffffffff16908060020160009054906101000a900473ffffffffffffffffffffffffffffffffffffffff1690806003018054610a1c90612b3d565b80601f0160208091040260200160405190810160405280929190818152602001828054610a4890612b3d565b8015610a955780601f10610a6a57610100808354040283529160200191610a95565b820191906000526020600020905b815481529060010190602001808311610a7857829003601f168201915b5050505050908060040160009054906101000a900473ffffffffffffffffffffffffffffffffffffffff16908060050160009054906101000a900473ffffffffffffffffffffffffffffffffffffffff16908060060154908060070154908060080154905089565b600160009054906101000a900473ffffffffffffffffffffffffffffffffffffffff1673ffffffffffffffffffffffffffffffffffffffff163373ffffffffffffffffffffffffffffffffffffffff1614610b8d576040517f08c379a0000000000000000000000000000000000000000000000000000000008152600401610b84906128c9565b60405180910390fd5b600073ffffffffffffffffffffffffffffffffffffffff16600760008473ffffffffffffffffffffffffffffffffffffffff1673ffffffffffffffffffffffffffffffffffffffff16815260200190815260200160002060009054906101000a900473ffffffffffffffffffffffffffffffffffffffff1673ffffffffffffffffffffffffffffffffffffffff1603610c5b576040517f08c379a0000000000000000000000000000000000000000000000000000000008152600401610c5290612ea4565b60405180910390fd5b8173ffffffffffffffffffffffffffffffffffffffff1660068281548110610c8657610c85612a2d565b5b9060005260206000200160009054906101000a900473ffffffffffffffffffffffffffffffffffffffff1673ffffffffffffffffffffffffffffffffffffffff1614610d07576040517f08c379a0000000000000000000000000000000000000000000000000000000008152600401610cfe90612f10565b60405180910390fd5b60066001600680549050610d1b9190612f5f565b81548110610d2c57610d2b612a2d565b5b9060005260206000200160009054906101000a900473ffffffffffffffffffffffffffffffffffffffff1660068281548110610d6b57610d6a612a2d565b5b9060005260206000200160006101000a81548173ffffffffffffffffffffffffffffffffffffffff021916908373ffffffffffffffffffffffffffffffffffffffff1602179055506006805480610dc557610dc4612f93565b5b6001900381819060005260206000200160006101000a81549073ffffffffffffffffffffffffffffffffffffffff02191690559055600760008373ffffffffffffffffffffffffffffffffffffffff1673ffffffffffffffffffffffffffffffffffffffff16815260200190815260200160002060006101000a81549073ffffffffffffffffffffffffffffffffffffffff02191690555050565b600160009054906101000a900473ffffffffffffffffffffffffffffffffffffffff1673ffffffffffffffffffffffffffffffffffffffff163373ffffffffffffffffffffffffffffffffffffffff1614610ef0576040517f08c379a0000000000000000000000000000000000000000000000000000000008152600401610ee7906128c9565b60405180910390fd5b80600260006101000a81548173ffffffffffffffffffffffffffffffffffffffff021916908373ffffffffffffffffffffffffffffffffffffffff16021790555050565b6060600060058054905067ffffffffffffffff811115610f5757610f56612080565b5b604051908082528060200260200182016040528015610f9057816020015b610f7d611dd0565b815260200190600190039081610f755790505b50905060005b60058054905081101561120e5760058181548110610fb757610fb6612a2d565b5b906000526020600020906009020160405180610120016040529081600082015481526020016001820160009054906101000a900473ffffffffffffffffffffffffffffffffffffffff1673ffffffffffffffffffffffffffffffffffffffff1673ffffffffffffffffffffffffffffffffffffffff1681526020016002820160009054906101000a900473ffffffffffffffffffffffffffffffffffffffff1673ffffffffffffffffffffffffffffffffffffffff1673ffffffffffffffffffffffffffffffffffffffff16815260200160038201805461109790612b3d565b80601f01602080910402602001604051908101604052809291908181526020018280546110c390612b3d565b80156111105780601f106110e557610100808354040283529160200191611110565b820191906000526020600020905b8154815290600101906020018083116110f357829003601f168201915b505050505081526020016004820160009054906101000a900473ffffffffffffffffffffffffffffffffffffffff1673ffffffffffffffffffffffffffffffffffffffff1673ffffffffffffffffffffffffffffffffffffffff1681526020016005820160009054906101000a900473ffffffffffffffffffffffffffffffffffffffff1673ffffffffffffffffffffffffffffffffffffffff1673ffffffffffffffffffffffffffffffffffffffff16815260200160068201548152602001600782015481526020016008820154815250508282815181106111f6576111f5612a2d565b5b60200260200101819052508080600101915050610f96565b508091505090565b600260009054906101000a900473ffffffffffffffffffffffffffffffffffffffff1681565b600160009054906101000a900473ffffffffffffffffffffffffffffffffffffffff1681565b600260149054906101000a900460ff1681565b600360009054906101000a900473ffffffffffffffffffffffffffffffffffffffff1681565b6060600060048054905067ffffffffffffffff8111156112be576112bd612080565b5b6040519080825280602002602001820160405280156112f757816020015b6112e4611dd0565b8152602001906001900390816112dc5790505b50905060005b600480549050811015611575576004818154811061131e5761131d612a2d565b5b906000526020600020906009020160405180610120016040529081600082015481526020016001820160009054906101000a900473ffffffffffffffffffffffffffffffffffffffff1673ffffffffffffffffffffffffffffffffffffffff1673ffffffffffffffffffffffffffffffffffffffff1681526020016002820160009054906101000a900473ffffffffffffffffffffffffffffffffffffffff1673ffffffffffffffffffffffffffffffffffffffff1673ffffffffffffffffffffffffffffffffffffffff1681526020016003820180546113fe90612b3d565b80601f016020809104026020016040519081016040528092919081815260200182805461142a90612b3d565b80156114775780601f1061144c57610100808354040283529160200191611477565b820191906000526020600020905b81548152906001019060200180831161145a57829003601f168201915b505050505081526020016004820160009054906101000a900473ffffffffffffffffffffffffffffffffffffffff1673ffffffffffffffffffffffffffffffffffffffff1673ffffffffffffffffffffffffffffffffffffffff1681526020016005820160009054906101000a900473ffffffffffffffffffffffffffffffffffffffff1673ffffffffffffffffffffffffffffffffffffffff1673ffffffffffffffffffffffffffffffffffffffff168152602001600682015481526020016007820154815260200160088201548152505082828151811061155d5761155c612a2d565b5b602002602001018190525080806001019150506112fd565b508091505090565b600160009054906101000a900473ffffffffffffffffffffffffffffffffffffffff1673ffffffffffffffffffffffffffffffffffffffff163373ffffffffffffffffffffffffffffffffffffffff161461160d576040517f08c379a0000000000000000000000000000000000000000000000000000000008152600401611604906128c9565b60405180910390fd5b600073ffffffffffffffffffffffffffffffffffffffff16600760008473ffffffffffffffffffffffffffffffffffffffff1673ffffffffffffffffffffffffffffffffffffffff16815260200190815260200160002060009054906101000a900473ffffffffffffffffffffffffffffffffffffffff1673ffffffffffffffffffffffffffffffffffffffff16146116db576040517f08c379a00000000000000000000000000000000000000000000000000000000081526004016116d29061300e565b60405180910390fd5b6006829080600181540180825580915050600190039060005260206000200160009091909190916101000a81548173ffffffffffffffffffffffffffffffffffffffff021916908373ffffffffffffffffffffffffffffffffffffffff16021790555080600760008473ffffffffffffffffffffffffffffffffffffffff1673ffffffffffffffffffffffffffffffffffffffff16815260200190815260200160002060006101000a81548173ffffffffffffffffffffffffffffffffffffffff021916908373ffffffffffffffffffffffffffffffffffffffff1602179055505050565b600681815481106117d057600080fd5b906000526020600020016000915054906101000a900473ffffffffffffffffffffffffffffffffffffffff1681565b611807611d80565b6000600760008473ffffffffffffffffffffffffffffffffffffffff1673ffffffffffffffffffffffffffffffffffffffff16815260200190815260200160002060009054906101000a900473ffffffffffffffffffffffffffffffffffffffff169050600073ffffffffffffffffffffffffffffffffffffffff168173ffffffffffffffffffffffffffffffffffffffff16036118da576040517f08c379a00000000000000000000000000000000000000000000000000000000081526004016118d19061307a565b60405180910390fd5b600060405180610120016040528060058054905081526020013373ffffffffffffffffffffffffffffffffffffffff1681526020018773ffffffffffffffffffffffffffffffffffffffff1681526020018681526020018573ffffffffffffffffffffffffffffffffffffffff1681526020018373ffffffffffffffffffffffffffffffffffffffff168152602001848152602001600081526020016000801b815250905060058190806001815401808255809150506001900390600052602060002090600902016000909190919091506000820151816000015560208201518160010160006101000a81548173ffffffffffffffffffffffffffffffffffffffff021916908373ffffffffffffffffffffffffffffffffffffffff16021790555060408201518160020160006101000a81548173ffffffffffffffffffffffffffffffffffffffff021916908373ffffffffffffffffffffffffffffffffffffffff1602179055506060820151816003019081611a589190612d10565b5060808201518160040160006101000a81548173ffffffffffffffffffffffffffffffffffffffff021916908373ffffffffffffffffffffffffffffffffffffffff16021790555060a08201518160050160006101000a81548173ffffffffffffffffffffffffffffffffffffffff021916908373ffffffffffffffffffffffffffffffffffffffff16021790555060c0820151816006015560e08201518160070155610100820151816008015550508373ffffffffffffffffffffffffffffffffffffffff166323b872dd33600160009054906101000a900473ffffffffffffffffffffffffffffffffffffffff16866040518463ffffffff1660e01b8152600401611b679392919061309a565b6020604051808303816000875af1158015611b86573d6000803e3d6000fd5b505050506040513d601f19601f82011682018060405250810190611baa9190612ab1565b507f4599a14afb01d51b75540a961262ad1157de6ef44f1780ef686af91fef984be7816000015182602001518360400151846060015185608001518660a001518760c00151604051611c029796959493929190612de2565b60405180910390a15050611c14611dc6565b50505050565b60048181548110611c2a57600080fd5b90600052602060002090600902016000915090508060000154908060010160009054906101000a900473ffffffffffffffffffffffffffffffffffffffff16908060020160009054906101000a900473ffffffffffffffffffffffffffffffffffffffff1690806003018054611c9f90612b3d565b80601f0160208091040260200160405190810160405280929190818152602001828054611ccb90612b3d565b8015611d185780601f10611ced57610100808354040283529160200191611d18565b820191906000526020600020905b815481529060010190602001808311611cfb57829003601f168201915b5050505050908060040160009054906101000a900473ffffffffffffffffffffffffffffffffffffffff16908060050160009054906101000a900473ffffffffffffffffffffffffffffffffffffffff16908060060154908060070154908060080154905089565b600260005403611dbc576040517f3ee5aeb500000000000000000000000000000000000000000000000000000000815260040160405180910390fd5b6002600081905550565b6001600081905550565b60405180610120016040528060008152602001600073ffffffffffffffffffffffffffffffffffffffff168152602001600073ffffffffffffffffffffffffffffffffffffffff16815260200160608152602001600073ffffffffffffffffffffffffffffffffffffffff168152602001600073ffffffffffffffffffffffffffffffffffffffff1681526020016000815260200160008152602001600080191681525090565b6000604051905090565b600080fd5b600080fd5b600073ffffffffffffffffffffffffffffffffffffffff82169050919050565b6000611eb682611e8b565b9050919050565b611ec681611eab565b8114611ed157600080fd5b50565b600081359050611ee381611ebd565b92915050565b600060208284031215611eff57611efe611e81565b5b6000611f0d84828501611ed4565b91505092915050565b6000819050919050565b611f2981611f16565b8114611f3457600080fd5b50565b600081359050611f4681611f20565b92915050565b6000819050919050565b611f5f81611f4c565b8114611f6a57600080fd5b50565b600081359050611f7c81611f56565b92915050565b600080600060608486031215611f9b57611f9a611e81565b5b6000611fa986828701611f37565b9350506020611fba86828701611f37565b9250506040611fcb86828701611f6d565b9150509250925092565b6000611fe082611eab565b9050919050565b611ff081611fd5565b8114611ffb57600080fd5b50565b60008135905061200d81611fe7565b92915050565b60006020828403121561202957612028611e81565b5b600061203784828501611ffe565b91505092915050565b61204981611eab565b82525050565b60006020820190506120646000830184612040565b92915050565b600080fd5b6000601f19601f8301169050919050565b7f4e487b7100000000000000000000000000000000000000000000000000000000600052604160045260246000fd5b6120b88261206f565b810181811067ffffffffffffffff821117156120d7576120d6612080565b5b80604052505050565b60006120ea611e77565b90506120f682826120af565b919050565b600080fd5b600080fd5b600080fd5b600067ffffffffffffffff82111561212557612124612080565b5b61212e8261206f565b9050602081019050919050565b82818337600083830152505050565b600061215d6121588461210a565b6120e0565b90508281526020810184848401111561217957612178612105565b5b61218484828561213b565b509392505050565b600082601f8301126121a1576121a0612100565b5b81356121b184826020860161214a565b91505092915050565b600061012082840312156121d1576121d061206a565b5b6121dc6101206120e0565b905060006121ec84828501611f37565b600083015250602061220084828501611ed4565b602083015250604061221484828501611ed4565b604083015250606082013567ffffffffffffffff811115612238576122376120fb565b5b6122448482850161218c565b606083015250608061225884828501611ed4565b60808301525060a061226c84828501611ed4565b60a08301525060c061228084828501611f37565b60c08301525060e061229484828501611f37565b60e0830152506101006122a984828501611f6d565b6101008301525092915050565b6000602082840312156122cc576122cb611e81565b5b600082013567ffffffffffffffff8111156122ea576122e9611e86565b5b6122f6848285016121ba565b91505092915050565b60006020828403121561231557612314611e81565b5b600061232384828501611f37565b91505092915050565b61233581611f16565b82525050565b600081519050919050565b600082825260208201905092915050565b60005b8381101561237557808201518184015260208101905061235a565b60008484015250505050565b600061238c8261233b565b6123968185612346565b93506123a6818560208601612357565b6123af8161206f565b840191505092915050565b6123c381611f4c565b82525050565b6000610120820190506123df600083018c61232c565b6123ec602083018b612040565b6123f9604083018a612040565b818103606083015261240b8189612381565b905061241a6080830188612040565b61242760a0830187612040565b61243460c083018661232c565b61244160e083018561232c565b61244f6101008301846123ba565b9a9950505050505050505050565b6000806040838503121561247457612473611e81565b5b600061248285828601611ffe565b925050602061249385828601611f37565b9150509250929050565b600081519050919050565b600082825260208201905092915050565b6000819050602082019050919050565b6124d281611f16565b82525050565b6124e181611eab565b82525050565b600082825260208201905092915050565b60006125038261233b565b61250d81856124e7565b935061251d818560208601612357565b6125268161206f565b840191505092915050565b61253a81611f4c565b82525050565b60006101208301600083015161255960008601826124c9565b50602083015161256c60208601826124d8565b50604083015161257f60408601826124d8565b506060830151848203606086015261259782826124f8565b91505060808301516125ac60808601826124d8565b5060a08301516125bf60a08601826124d8565b5060c08301516125d260c08601826124c9565b5060e08301516125e560e08601826124c9565b506101008301516125fa610100860182612531565b508091505092915050565b60006126118383612540565b905092915050565b6000602082019050919050565b60006126318261249d565b61263b81856124a8565b93508360208202850161264d856124b9565b8060005b85811015612689578484038952815161266a8582612605565b945061267583612619565b925060208a01995050600181019050612651565b50829750879550505050505092915050565b600060208201905081810360008301526126b58184612626565b905092915050565b60008115159050919050565b6126d2816126bd565b82525050565b60006020820190506126ed60008301846126c9565b92915050565b6000819050919050565b600061271861271361270e84611e8b565b6126f3565b611e8b565b9050919050565b600061272a826126fd565b9050919050565b600061273c8261271f565b9050919050565b61274c81612731565b82525050565b60006020820190506127676000830184612743565b92915050565b6000806040838503121561278457612783611e81565b5b600061279285828601611ffe565b92505060206127a385828601611ed4565b9150509250929050565b60006127b88261271f565b9050919050565b6127c8816127ad565b82525050565b60006020820190506127e360008301846127bf565b92915050565b6000806000806080858703121561280357612802611e81565b5b600061281187828801611ed4565b945050602085013567ffffffffffffffff81111561283257612831611e86565b5b61283e8782880161218c565b935050604061284f87828801611ed4565b925050606061286087828801611f37565b91505092959194509250565b600082825260208201905092915050565b7f4e6f74206f776e65720000000000000000000000000000000000000000000000600082015250565b60006128b360098361286c565b91506128be8261287d565b602082019050919050565b600060208201905081810360008301526128e2816128a6565b9050919050565b7f4e6f742072656c61796572000000000000000000000000000000000000000000600082015250565b600061291f600b8361286c565b915061292a826128e9565b602082019050919050565b6000602082019050818103600083015261294e81612912565b9050919050565b7f496e76616c696420756964000000000000000000000000000000000000000000600082015250565b600061298b600b8361286c565b915061299682612955565b602082019050919050565b600060208201905081810360008301526129ba8161297e565b9050919050565b7f496e76616c696420657865637574696f6e20726573756c740000000000000000600082015250565b60006129f760188361286c565b9150612a02826129c1565b602082019050919050565b60006020820190508181036000830152612a26816129ea565b9050919050565b7f4e487b7100000000000000000000000000000000000000000000000000000000600052603260045260246000fd5b6000604082019050612a716000830185612040565b612a7e602083018461232c565b9392505050565b612a8e816126bd565b8114612a9957600080fd5b50565b600081519050612aab81612a85565b92915050565b600060208284031215612ac757612ac6611e81565b5b6000612ad584828501612a9c565b91505092915050565b6000604082019050612af36000830185612040565b8181036020830152612b058184612381565b90509392505050565b7f4e487b7100000000000000000000000000000000000000000000000000000000600052602260045260246000fd5b60006002820490506001821680612b5557607f821691505b602082108103612b6857612b67612b0e565b5b50919050565b60008190508160005260206000209050919050565b60006020601f8301049050919050565b600082821b905092915050565b600060088302612bd07fffffffffffffffffffffffffffffffffffffffffffffffffffffffffffffffff82612b93565b612bda8683612b93565b95508019841693508086168417925050509392505050565b6000612c0d612c08612c0384611f16565b6126f3565b611f16565b9050919050565b6000819050919050565b612c2783612bf2565b612c3b612c3382612c14565b848454612ba0565b825550505050565b600090565b612c50612c43565b612c5b818484612c1e565b505050565b5b81811015612c7f57612c74600082612c48565b600181019050612c61565b5050565b601f821115612cc457612c9581612b6e565b612c9e84612b83565b81016020851015612cad578190505b612cc1612cb985612b83565b830182612c60565b50505b505050565b600082821c905092915050565b6000612ce760001984600802612cc9565b1980831691505092915050565b6000612d008383612cd6565b9150826002028217905092915050565b612d198261233b565b67ffffffffffffffff811115612d3257612d31612080565b5b612d3c8254612b3d565b612d47828285612c83565b600060209050601f831160018114612d7a5760008415612d68578287015190505b612d728582612cf4565b865550612dda565b601f198416612d8886612b6e565b60005b82811015612db057848901518255600182019150602085019450602081019050612d8b565b86831015612dcd5784890151612dc9601f891682612cd6565b8355505b6001600288020188555050505b505050505050565b600060e082019050612df7600083018a61232c565b612e046020830189612040565b612e116040830188612040565b8181036060830152612e238187612381565b9050612e326080830186612040565b612e3f60a0830185612040565b612e4c60c083018461232c565b98975050505050505050565b7f546f6b656e207061697220646f6573206e6f7420657869737400000000000000600082015250565b6000612e8e60198361286c565b9150612e9982612e58565b602082019050919050565b60006020820190508181036000830152612ebd81612e81565b9050919050565b7f496e76616c696420746f6b656e20696400000000000000000000000000000000600082015250565b6000612efa60108361286c565b9150612f0582612ec4565b602082019050919050565b60006020820190508181036000830152612f2981612eed565b9050919050565b7f4e487b7100000000000000000000000000000000000000000000000000000000600052601160045260246000fd5b6000612f6a82611f16565b9150612f7583611f16565b9250828203905081811115612f8d57612f8c612f30565b5b92915050565b7f4e487b7100000000000000000000000000000000000000000000000000000000600052603160045260246000fd5b7f546f6b656e207061697220616c72656164792065786973747300000000000000600082015250565b6000612ff860198361286c565b915061300382612fc2565b602082019050919050565b6000602082019050818103600083015261302781612feb565b9050919050565b7f546f6b656e206e6f7420737570706f7274656400000000000000000000000000600082015250565b600061306460138361286c565b915061306f8261302e565b602082019050919050565b6000602082019050818103600083015261309381613057565b9050919050565b60006060820190506130af6000830186612040565b6130bc6020830185612040565b6130c9604083018461232c565b94935050505056fea2646970667358221220dd5de5d71d218f582db2529532edd51814dfa7bfd425ec28ef80c67cd3f90d9564736f6c63430008180033608060405234801561001057600080fd5b506001600081905550610660806100286000396000f3fe608060405234801561001057600080fd5b506004361061002b5760003560e01c8063bca8c7b514610030575b600080fd5b61004a60048036038101906100459190610379565b61004c565b005b610054610171565b6000808373ffffffffffffffffffffffffffffffffffffffff168360405161007c9190610446565b6000604051808303816000865af19150503d80600081146100b9576040519150601f19603f3d011682016040523d82523d6000602084013e6100be565b606091505b5091509150816101635760448151101561010d576040517f08c379a0000000000000000000000000000000000000000000000000000000008152600401610104906104ba565b60405180910390fd5b60048101905080806020019051810190610127919061057b565b6040517f08c379a000000000000000000000000000000000000000000000000000000000815260040161015a9190610608565b60405180910390fd5b505061016d6101b7565b5050565b6002600054036101ad576040517f3ee5aeb500000000000000000000000000000000000000000000000000000000815260040160405180910390fd5b6002600081905550565b6001600081905550565b6000604051905090565b600080fd5b600080fd5b600073ffffffffffffffffffffffffffffffffffffffff82169050919050565b6000610200826101d5565b9050919050565b610210816101f5565b811461021b57600080fd5b50565b60008135905061022d81610207565b92915050565b600080fd5b600080fd5b6000601f19601f8301169050919050565b7f4e487b7100000000000000000000000000000000000000000000000000000000600052604160045260246000fd5b6102868261023d565b810181811067ffffffffffffffff821117156102a5576102a461024e565b5b80604052505050565b60006102b86101c1565b90506102c4828261027d565b919050565b600067ffffffffffffffff8211156102e4576102e361024e565b5b6102ed8261023d565b9050602081019050919050565b82818337600083830152505050565b600061031c610317846102c9565b6102ae565b90508281526020810184848401111561033857610337610238565b5b6103438482856102fa565b509392505050565b600082601f8301126103605761035f610233565b5b8135610370848260208601610309565b91505092915050565b600080604083850312156103905761038f6101cb565b5b600061039e8582860161021e565b925050602083013567ffffffffffffffff8111156103bf576103be6101d0565b5b6103cb8582860161034b565b9150509250929050565b600081519050919050565b600081905092915050565b60005b838110156104095780820151818401526020810190506103ee565b60008484015250505050565b6000610420826103d5565b61042a81856103e0565b935061043a8185602086016103eb565b80840191505092915050565b60006104528284610415565b915081905092915050565b600082825260208201905092915050565b7f4572726f7220696e20657865637574696f6e0000000000000000000000000000600082015250565b60006104a460128361045d565b91506104af8261046e565b602082019050919050565b600060208201905081810360008301526104d381610497565b9050919050565b600067ffffffffffffffff8211156104f5576104f461024e565b5b6104fe8261023d565b9050602081019050919050565b600061051e610519846104da565b6102ae565b90508281526020810184848401111561053a57610539610238565b5b6105458482856103eb565b509392505050565b600082601f83011261056257610561610233565b5b815161057284826020860161050b565b91505092915050565b600060208284031215610591576105906101cb565b5b600082015167ffffffffffffffff8111156105af576105ae6101d0565b5b6105bb8482850161054d565b91505092915050565b600081519050919050565b60006105da826105c4565b6105e4818561045d565b93506105f48185602086016103eb565b6105fd8161023d565b840191505092915050565b6000602082019050818103600083015261062281846105cf565b90509291505056fea2646970667358221220f021a3c7ffa32b8601f43ff60324daa1b621d4cd4922370c7fad91f6e1bd88e064736f6c63430008180033","opcodes":"PUSH1 0x80 PUSH1 0x40 MSTORE CALLVALUE DUP1 ISZERO PUSH3 0x11 JUMPI PUSH1 0x0 DUP1 REVERT JUMPDEST POP PUSH1 0x40 MLOAD PUSH3 0x39EA CODESIZE SUB DUP1 PUSH3 0x39EA DUP4 CODECOPY DUP2 DUP2 ADD PUSH1 0x40 MSTORE DUP2 ADD SWAP1 PUSH3 0x37 SWAP2 SWAP1 PUSH3 0x204 JUMP JUMPDEST PUSH1 0x1 PUSH1 0x0 DUP2 SWAP1 SSTORE POP CALLER PUSH1 0x1 PUSH1 0x0 PUSH2 0x100 EXP DUP2 SLOAD DUP2 PUSH20 0xFFFFFFFFFFFFFFFFFFFFFFFFFFFFFFFFFFFFFFFF MUL NOT AND SWAP1 DUP4 PUSH20 0xFFFFFFFFFFFFFFFFFFFFFFFFFFFFFFFFFFFFFFFF AND MUL OR SWAP1 SSTORE POP DUP2 PUSH1 0x2 PUSH1 0x0 PUSH2 0x100 EXP DUP2 SLOAD DUP2 PUSH20 0xFFFFFFFFFFFFFFFFFFFFFFFFFFFFFFFFFFFFFFFF MUL NOT AND SWAP1 DUP4 PUSH20 0xFFFFFFFFFFFFFFFFFFFFFFFFFFFFFFFFFFFFFFFF AND MUL OR SWAP1 SSTORE POP DUP1 PUSH1 0x2 PUSH1 0x14 PUSH2 0x100 EXP DUP2 SLOAD DUP2 PUSH1 0xFF MUL NOT AND SWAP1 DUP4 ISZERO ISZERO MUL OR SWAP1 SSTORE POP PUSH1 0x40 MLOAD PUSH3 0xE9 SWAP1 PUSH3 0x14F JUMP JUMPDEST PUSH1 0x40 MLOAD DUP1 SWAP2 SUB SWAP1 PUSH1 0x0 CREATE DUP1 ISZERO DUP1 ISZERO PUSH3 0x106 JUMPI RETURNDATASIZE PUSH1 0x0 DUP1 RETURNDATACOPY RETURNDATASIZE PUSH1 0x0 REVERT JUMPDEST POP PUSH1 0x3 PUSH1 0x0 PUSH2 0x100 EXP DUP2 SLOAD DUP2 PUSH20 0xFFFFFFFFFFFFFFFFFFFFFFFFFFFFFFFFFFFFFFFF MUL NOT AND SWAP1 DUP4 PUSH20 0xFFFFFFFFFFFFFFFFFFFFFFFFFFFFFFFFFFFFFFFF AND MUL OR SWAP1 SSTORE POP POP POP PUSH3 0x24B JUMP JUMPDEST PUSH2 0x688 DUP1 PUSH3 0x3362 DUP4 CODECOPY ADD SWAP1 JUMP JUMPDEST PUSH1 0x0 DUP1 REVERT JUMPDEST PUSH1 0x0 PUSH20 0xFFFFFFFFFFFFFFFFFFFFFFFFFFFFFFFFFFFFFFFF DUP3 AND SWAP1 POP SWAP2 SWAP1 POP JUMP JUMPDEST PUSH1 0x0 PUSH3 0x18F DUP3 PUSH3 0x162 JUMP JUMPDEST SWAP1 POP SWAP2 SWAP1 POP JUMP JUMPDEST PUSH3 0x1A1 DUP2 PUSH3 0x182 JUMP JUMPDEST DUP2 EQ PUSH3 0x1AD JUMPI PUSH1 0x0 DUP1 REVERT JUMPDEST POP JUMP JUMPDEST PUSH1 0x0 DUP2 MLOAD SWAP1 POP PUSH3 0x1C1 DUP2 PUSH3 0x196 JUMP JUMPDEST SWAP3 SWAP2 POP POP JUMP JUMPDEST PUSH1 0x0 DUP2 ISZERO ISZERO SWAP1 POP SWAP2 SWAP1 POP JUMP JUMPDEST PUSH3 0x1DE DUP2 PUSH3 0x1C7 JUMP JUMPDEST DUP2 EQ PUSH3 0x1EA JUMPI PUSH1 0x0 DUP1 REVERT JUMPDEST POP JUMP JUMPDEST PUSH1 0x0 DUP2 MLOAD SWAP1 POP PUSH3 0x1FE DUP2 PUSH3 0x1D3 JUMP JUMPDEST SWAP3 SWAP2 POP POP JUMP JUMPDEST PUSH1 0x0 DUP1 PUSH1 0x40 DUP4 DUP6 SUB SLT ISZERO PUSH3 0x21E JUMPI PUSH3 0x21D PUSH3 0x15D JUMP JUMPDEST JUMPDEST PUSH1 0x0 PUSH3 0x22E DUP6 DUP3 DUP7 ADD PUSH3 0x1B0 JUMP JUMPDEST SWAP3 POP POP PUSH1 0x20 PUSH3 0x241 DUP6 DUP3 DUP7 ADD PUSH3 0x1ED JUMP JUMPDEST SWAP2 POP POP SWAP3 POP SWAP3 SWAP1 POP JUMP JUMPDEST PUSH2 0x3107 DUP1 PUSH3 0x25B PUSH1 0x0 CODECOPY PUSH1 0x0 RETURN INVALID PUSH1 0x80 PUSH1 0x40 MSTORE CALLVALUE DUP1 ISZERO PUSH2 0x10 JUMPI PUSH1 0x0 DUP1 REVERT JUMPDEST POP PUSH1 0x4 CALLDATASIZE LT PUSH2 0x10B JUMPI PUSH1 0x0 CALLDATALOAD PUSH1 0xE0 SHR DUP1 PUSH4 0x8406C079 GT PUSH2 0xA2 JUMPI DUP1 PUSH4 0xA23B907F GT PUSH2 0x71 JUMPI DUP1 PUSH4 0xA23B907F EQ PUSH2 0x29A JUMPI DUP1 PUSH4 0xA7C87EC2 EQ PUSH2 0x2B8 JUMPI DUP1 PUSH4 0xAD64D068 EQ PUSH2 0x2D4 JUMPI DUP1 PUSH4 0xE897E8DE EQ PUSH2 0x304 JUMPI DUP1 PUSH4 0xFE2ED668 EQ PUSH2 0x320 JUMPI PUSH2 0x10B JUMP JUMPDEST DUP1 PUSH4 0x8406C079 EQ PUSH2 0x222 JUMPI DUP1 PUSH4 0x8DA5CB5B EQ PUSH2 0x240 JUMPI DUP1 PUSH4 0x93D99D6E EQ PUSH2 0x25E JUMPI DUP1 PUSH4 0x93F3DD48 EQ PUSH2 0x27C JUMPI PUSH2 0x10B JUMP JUMPDEST DUP1 PUSH4 0x33DD6D85 GT PUSH2 0xDE JUMPI DUP1 PUSH4 0x33DD6D85 EQ PUSH2 0x194 JUMPI DUP1 PUSH4 0x49D6EC84 EQ PUSH2 0x1CC JUMPI DUP1 PUSH4 0x6548E9BC EQ PUSH2 0x1E8 JUMPI DUP1 PUSH4 0x747DCD08 EQ PUSH2 0x204 JUMPI PUSH2 0x10B JUMP JUMPDEST DUP1 PUSH4 0x13AF4035 EQ PUSH2 0x110 JUMPI DUP1 PUSH4 0x148F5933 EQ PUSH2 0x12C JUMPI DUP1 PUSH4 0x1CC6391E EQ PUSH2 0x148 JUMPI DUP1 PUSH4 0x267422E7 EQ PUSH2 0x178 JUMPI JUMPDEST PUSH1 0x0 DUP1 REVERT JUMPDEST PUSH2 0x12A PUSH1 0x4 DUP1 CALLDATASIZE SUB DUP2 ADD SWAP1 PUSH2 0x125 SWAP2 SWAP1 PUSH2 0x1EE9 JUMP JUMPDEST PUSH2 0x358 JUMP JUMPDEST STOP JUMPDEST PUSH2 0x146 PUSH1 0x4 DUP1 CALLDATASIZE SUB DUP2 ADD SWAP1 PUSH2 0x141 SWAP2 SWAP1 PUSH2 0x1F82 JUMP JUMPDEST PUSH2 0x42C JUMP JUMPDEST STOP JUMPDEST PUSH2 0x162 PUSH1 0x4 DUP1 CALLDATASIZE SUB DUP2 ADD SWAP1 PUSH2 0x15D SWAP2 SWAP1 PUSH2 0x2013 JUMP JUMPDEST PUSH2 0x5AA JUMP JUMPDEST PUSH1 0x40 MLOAD PUSH2 0x16F SWAP2 SWAP1 PUSH2 0x204F JUMP JUMPDEST PUSH1 0x40 MLOAD DUP1 SWAP2 SUB SWAP1 RETURN JUMPDEST PUSH2 0x192 PUSH1 0x4 DUP1 CALLDATASIZE SUB DUP2 ADD SWAP1 PUSH2 0x18D SWAP2 SWAP1 PUSH2 0x22B6 JUMP JUMPDEST PUSH2 0x5DD JUMP JUMPDEST STOP JUMPDEST PUSH2 0x1AE PUSH1 0x4 DUP1 CALLDATASIZE SUB DUP2 ADD SWAP1 PUSH2 0x1A9 SWAP2 SWAP1 PUSH2 0x22FF JUMP JUMPDEST PUSH2 0x997 JUMP JUMPDEST PUSH1 0x40 MLOAD PUSH2 0x1C3 SWAP10 SWAP9 SWAP8 SWAP7 SWAP6 SWAP5 SWAP4 SWAP3 SWAP2 SWAP1 PUSH2 0x23C9 JUMP JUMPDEST PUSH1 0x40 MLOAD DUP1 SWAP2 SUB SWAP1 RETURN JUMPDEST PUSH2 0x1E6 PUSH1 0x4 DUP1 CALLDATASIZE SUB DUP2 ADD SWAP1 PUSH2 0x1E1 SWAP2 SWAP1 PUSH2 0x245D JUMP JUMPDEST PUSH2 0xAFD JUMP JUMPDEST STOP JUMPDEST PUSH2 0x202 PUSH1 0x4 DUP1 CALLDATASIZE SUB DUP2 ADD SWAP1 PUSH2 0x1FD SWAP2 SWAP1 PUSH2 0x1EE9 JUMP JUMPDEST PUSH2 0xE60 JUMP JUMPDEST STOP JUMPDEST PUSH2 0x20C PUSH2 0xF34 JUMP JUMPDEST PUSH1 0x40 MLOAD PUSH2 0x219 SWAP2 SWAP1 PUSH2 0x269B JUMP JUMPDEST PUSH1 0x40 MLOAD DUP1 SWAP2 SUB SWAP1 RETURN JUMPDEST PUSH2 0x22A PUSH2 0x1216 JUMP JUMPDEST PUSH1 0x40 MLOAD PUSH2 0x237 SWAP2 SWAP1 PUSH2 0x204F JUMP JUMPDEST PUSH1 0x40 MLOAD DUP1 SWAP2 SUB SWAP1 RETURN JUMPDEST PUSH2 0x248 PUSH2 0x123C JUMP JUMPDEST PUSH1 0x40 MLOAD PUSH2 0x255 SWAP2 SWAP1 PUSH2 0x204F JUMP JUMPDEST PUSH1 0x40 MLOAD DUP1 SWAP2 SUB SWAP1 RETURN JUMPDEST PUSH2 0x266 PUSH2 0x1262 JUMP JUMPDEST PUSH1 0x40 MLOAD PUSH2 0x273 SWAP2 SWAP1 PUSH2 0x26D8 JUMP JUMPDEST PUSH1 0x40 MLOAD DUP1 SWAP2 SUB SWAP1 RETURN JUMPDEST PUSH2 0x284 PUSH2 0x1275 JUMP JUMPDEST PUSH1 0x40 MLOAD PUSH2 0x291 SWAP2 SWAP1 PUSH2 0x2752 JUMP JUMPDEST PUSH1 0x40 MLOAD DUP1 SWAP2 SUB SWAP1 RETURN JUMPDEST PUSH2 0x2A2 PUSH2 0x129B JUMP JUMPDEST PUSH1 0x40 MLOAD PUSH2 0x2AF SWAP2 SWAP1 PUSH2 0x269B JUMP JUMPDEST PUSH1 0x40 MLOAD DUP1 SWAP2 SUB SWAP1 RETURN JUMPDEST PUSH2 0x2D2 PUSH1 0x4 DUP1 CALLDATASIZE SUB DUP2 ADD SWAP1 PUSH2 0x2CD SWAP2 SWAP1 PUSH2 0x276D JUMP JUMPDEST PUSH2 0x157D JUMP JUMPDEST STOP JUMPDEST PUSH2 0x2EE PUSH1 0x4 DUP1 CALLDATASIZE SUB DUP2 ADD SWAP1 PUSH2 0x2E9 SWAP2 SWAP1 PUSH2 0x22FF JUMP JUMPDEST PUSH2 0x17C0 JUMP JUMPDEST PUSH1 0x40 MLOAD PUSH2 0x2FB SWAP2 SWAP1 PUSH2 0x27CE JUMP JUMPDEST PUSH1 0x40 MLOAD DUP1 SWAP2 SUB SWAP1 RETURN JUMPDEST PUSH2 0x31E PUSH1 0x4 DUP1 CALLDATASIZE SUB DUP2 ADD SWAP1 PUSH2 0x319 SWAP2 SWAP1 PUSH2 0x27E9 JUMP JUMPDEST PUSH2 0x17FF JUMP JUMPDEST STOP JUMPDEST PUSH2 0x33A PUSH1 0x4 DUP1 CALLDATASIZE SUB DUP2 ADD SWAP1 PUSH2 0x335 SWAP2 SWAP1 PUSH2 0x22FF JUMP JUMPDEST PUSH2 0x1C1A JUMP JUMPDEST PUSH1 0x40 MLOAD PUSH2 0x34F SWAP10 SWAP9 SWAP8 SWAP7 SWAP6 SWAP5 SWAP4 SWAP3 SWAP2 SWAP1 PUSH2 0x23C9 JUMP JUMPDEST PUSH1 0x40 MLOAD DUP1 SWAP2 SUB SWAP1 RETURN JUMPDEST PUSH1 0x1 PUSH1 0x0 SWAP1 SLOAD SWAP1 PUSH2 0x100 EXP SWAP1 DIV PUSH20 0xFFFFFFFFFFFFFFFFFFFFFFFFFFFFFFFFFFFFFFFF AND PUSH20 0xFFFFFFFFFFFFFFFFFFFFFFFFFFFFFFFFFFFFFFFF AND CALLER PUSH20 0xFFFFFFFFFFFFFFFFFFFFFFFFFFFFFFFFFFFFFFFF AND EQ PUSH2 0x3E8 JUMPI PUSH1 0x40 MLOAD PUSH32 0x8C379A000000000000000000000000000000000000000000000000000000000 DUP2 MSTORE PUSH1 0x4 ADD PUSH2 0x3DF SWAP1 PUSH2 0x28C9 JUMP JUMPDEST PUSH1 0x40 MLOAD DUP1 SWAP2 SUB SWAP1 REVERT JUMPDEST DUP1 PUSH1 0x1 PUSH1 0x0 PUSH2 0x100 EXP DUP2 SLOAD DUP2 PUSH20 0xFFFFFFFFFFFFFFFFFFFFFFFFFFFFFFFFFFFFFFFF MUL NOT AND SWAP1 DUP4 PUSH20 0xFFFFFFFFFFFFFFFFFFFFFFFFFFFFFFFFFFFFFFFF AND MUL OR SWAP1 SSTORE POP POP JUMP JUMPDEST PUSH1 0x2 PUSH1 0x0 SWAP1 SLOAD SWAP1 PUSH2 0x100 EXP SWAP1 DIV PUSH20 0xFFFFFFFFFFFFFFFFFFFFFFFFFFFFFFFFFFFFFFFF AND PUSH20 0xFFFFFFFFFFFFFFFFFFFFFFFFFFFFFFFFFFFFFFFF AND CALLER PUSH20 0xFFFFFFFFFFFFFFFFFFFFFFFFFFFFFFFFFFFFFFFF AND EQ PUSH2 0x4BC JUMPI PUSH1 0x40 MLOAD PUSH32 0x8C379A000000000000000000000000000000000000000000000000000000000 DUP2 MSTORE PUSH1 0x4 ADD PUSH2 0x4B3 SWAP1 PUSH2 0x2935 JUMP JUMPDEST PUSH1 0x40 MLOAD DUP1 SWAP2 SUB SWAP1 REVERT JUMPDEST PUSH1 0x4 DUP1 SLOAD SWAP1 POP DUP4 LT PUSH2 0x503 JUMPI PUSH1 0x40 MLOAD PUSH32 0x8C379A000000000000000000000000000000000000000000000000000000000 DUP2 MSTORE PUSH1 0x4 ADD PUSH2 0x4FA SWAP1 PUSH2 0x29A1 JUMP JUMPDEST PUSH1 0x40 MLOAD DUP1 SWAP2 SUB SWAP1 REVERT JUMPDEST PUSH1 0x1 DUP3 EQ DUP1 PUSH2 0x512 JUMPI POP PUSH1 0x2 DUP3 EQ JUMPDEST PUSH2 0x551 JUMPI PUSH1 0x40 MLOAD PUSH32 0x8C379A000000000000000000000000000000000000000000000000000000000 DUP2 MSTORE PUSH1 0x4 ADD PUSH2 0x548 SWAP1 PUSH2 0x2A0D JUMP JUMPDEST PUSH1 0x40 MLOAD DUP1 SWAP2 SUB SWAP1 REVERT JUMPDEST DUP2 PUSH1 0x4 DUP5 DUP2 SLOAD DUP2 LT PUSH2 0x566 JUMPI PUSH2 0x565 PUSH2 0x2A2D JUMP JUMPDEST JUMPDEST SWAP1 PUSH1 0x0 MSTORE PUSH1 0x20 PUSH1 0x0 KECCAK256 SWAP1 PUSH1 0x9 MUL ADD PUSH1 0x7 ADD DUP2 SWAP1 SSTORE POP DUP1 PUSH1 0x4 DUP5 DUP2 SLOAD DUP2 LT PUSH2 0x590 JUMPI PUSH2 0x58F PUSH2 0x2A2D JUMP JUMPDEST JUMPDEST SWAP1 PUSH1 0x0 MSTORE PUSH1 0x20 PUSH1 0x0 KECCAK256 SWAP1 PUSH1 0x9 MUL ADD PUSH1 0x8 ADD DUP2 SWAP1 SSTORE POP POP POP POP JUMP JUMPDEST PUSH1 0x7 PUSH1 0x20 MSTORE DUP1 PUSH1 0x0 MSTORE PUSH1 0x40 PUSH1 0x0 KECCAK256 PUSH1 0x0 SWAP2 POP SLOAD SWAP1 PUSH2 0x100 EXP SWAP1 DIV PUSH20 0xFFFFFFFFFFFFFFFFFFFFFFFFFFFFFFFFFFFFFFFF AND DUP2 JUMP JUMPDEST PUSH1 0x2 PUSH1 0x0 SWAP1 SLOAD SWAP1 PUSH2 0x100 EXP SWAP1 DIV PUSH20 0xFFFFFFFFFFFFFFFFFFFFFFFFFFFFFFFFFFFFFFFF AND PUSH20 0xFFFFFFFFFFFFFFFFFFFFFFFFFFFFFFFFFFFFFFFF AND CALLER PUSH20 0xFFFFFFFFFFFFFFFFFFFFFFFFFFFFFFFFFFFFFFFF AND EQ PUSH2 0x66D JUMPI PUSH1 0x40 MLOAD PUSH32 0x8C379A000000000000000000000000000000000000000000000000000000000 DUP2 MSTORE PUSH1 0x4 ADD PUSH2 0x664 SWAP1 PUSH2 0x2935 JUMP JUMPDEST PUSH1 0x40 MLOAD DUP1 SWAP2 SUB SWAP1 REVERT JUMPDEST PUSH1 0x0 DUP2 PUSH1 0xC0 ADD MLOAD GT ISZERO PUSH2 0x706 JUMPI DUP1 PUSH1 0xA0 ADD MLOAD PUSH20 0xFFFFFFFFFFFFFFFFFFFFFFFFFFFFFFFFFFFFFFFF AND PUSH4 0xA9059CBB DUP3 PUSH1 0x40 ADD MLOAD DUP4 PUSH1 0xC0 ADD MLOAD PUSH1 0x40 MLOAD DUP4 PUSH4 0xFFFFFFFF AND PUSH1 0xE0 SHL DUP2 MSTORE PUSH1 0x4 ADD PUSH2 0x6C1 SWAP3 SWAP2 SWAP1 PUSH2 0x2A5C JUMP JUMPDEST PUSH1 0x20 PUSH1 0x40 MLOAD DUP1 DUP4 SUB DUP2 PUSH1 0x0 DUP8 GAS CALL ISZERO DUP1 ISZERO PUSH2 0x6E0 JUMPI RETURNDATASIZE PUSH1 0x0 DUP1 RETURNDATACOPY RETURNDATASIZE PUSH1 0x0 REVERT JUMPDEST POP POP POP POP PUSH1 0x40 MLOAD RETURNDATASIZE PUSH1 0x1F NOT PUSH1 0x1F DUP3 ADD AND DUP3 ADD DUP1 PUSH1 0x40 MSTORE POP DUP2 ADD SWAP1 PUSH2 0x704 SWAP2 SWAP1 PUSH2 0x2AB1 JUMP JUMPDEST POP JUMPDEST PUSH1 0x0 DUP2 PUSH1 0x60 ADD MLOAD MLOAD GT ISZERO PUSH2 0x7AC JUMPI PUSH1 0x3 PUSH1 0x0 SWAP1 SLOAD SWAP1 PUSH2 0x100 EXP SWAP1 DIV PUSH20 0xFFFFFFFFFFFFFFFFFFFFFFFFFFFFFFFFFFFFFFFF AND PUSH20 0xFFFFFFFFFFFFFFFFFFFFFFFFFFFFFFFFFFFFFFFF AND PUSH4 0xBCA8C7B5 DUP3 PUSH1 0x40 ADD MLOAD DUP4 PUSH1 0x60 ADD MLOAD PUSH1 0x40 MLOAD DUP4 PUSH4 0xFFFFFFFF AND PUSH1 0xE0 SHL DUP2 MSTORE PUSH1 0x4 ADD PUSH2 0x779 SWAP3 SWAP2 SWAP1 PUSH2 0x2ADE JUMP JUMPDEST PUSH1 0x0 PUSH1 0x40 MLOAD DUP1 DUP4 SUB DUP2 PUSH1 0x0 DUP8 DUP1 EXTCODESIZE ISZERO DUP1 ISZERO PUSH2 0x793 JUMPI PUSH1 0x0 DUP1 REVERT JUMPDEST POP GAS CALL ISZERO DUP1 ISZERO PUSH2 0x7A7 JUMPI RETURNDATASIZE PUSH1 0x0 DUP1 RETURNDATACOPY RETURNDATASIZE PUSH1 0x0 REVERT JUMPDEST POP POP POP POP JUMPDEST PUSH1 0x4 DUP2 SWAP1 DUP1 PUSH1 0x1 DUP2 SLOAD ADD DUP1 DUP3 SSTORE DUP1 SWAP2 POP POP PUSH1 0x1 SWAP1 SUB SWAP1 PUSH1 0x0 MSTORE PUSH1 0x20 PUSH1 0x0 KECCAK256 SWAP1 PUSH1 0x9 MUL ADD PUSH1 0x0 SWAP1 SWAP2 SWAP1 SWAP2 SWAP1 SWAP2 POP PUSH1 0x0 DUP3 ADD MLOAD DUP2 PUSH1 0x0 ADD SSTORE PUSH1 0x20 DUP3 ADD MLOAD DUP2 PUSH1 0x1 ADD PUSH1 0x0 PUSH2 0x100 EXP DUP2 SLOAD DUP2 PUSH20 0xFFFFFFFFFFFFFFFFFFFFFFFFFFFFFFFFFFFFFFFF MUL NOT AND SWAP1 DUP4 PUSH20 0xFFFFFFFFFFFFFFFFFFFFFFFFFFFFFFFFFFFFFFFF AND MUL OR SWAP1 SSTORE POP PUSH1 0x40 DUP3 ADD MLOAD DUP2 PUSH1 0x2 ADD PUSH1 0x0 PUSH2 0x100 EXP DUP2 SLOAD DUP2 PUSH20 0xFFFFFFFFFFFFFFFFFFFFFFFFFFFFFFFFFFFFFFFF MUL NOT AND SWAP1 DUP4 PUSH20 0xFFFFFFFFFFFFFFFFFFFFFFFFFFFFFFFFFFFFFFFF AND MUL OR SWAP1 SSTORE POP PUSH1 0x60 DUP3 ADD MLOAD DUP2 PUSH1 0x3 ADD SWAP1 DUP2 PUSH2 0x885 SWAP2 SWAP1 PUSH2 0x2D10 JUMP JUMPDEST POP PUSH1 0x80 DUP3 ADD MLOAD DUP2 PUSH1 0x4 ADD PUSH1 0x0 PUSH2 0x100 EXP DUP2 SLOAD DUP2 PUSH20 0xFFFFFFFFFFFFFFFFFFFFFFFFFFFFFFFFFFFFFFFF MUL NOT AND SWAP1 DUP4 PUSH20 0xFFFFFFFFFFFFFFFFFFFFFFFFFFFFFFFFFFFFFFFF AND MUL OR SWAP1 SSTORE POP PUSH1 0xA0 DUP3 ADD MLOAD DUP2 PUSH1 0x5 ADD PUSH1 0x0 PUSH2 0x100 EXP DUP2 SLOAD DUP2 PUSH20 0xFFFFFFFFFFFFFFFFFFFFFFFFFFFFFFFFFFFFFFFF MUL NOT AND SWAP1 DUP4 PUSH20 0xFFFFFFFFFFFFFFFFFFFFFFFFFFFFFFFFFFFFFFFF AND MUL OR SWAP1 SSTORE POP PUSH1 0xC0 DUP3 ADD MLOAD DUP2 PUSH1 0x6 ADD SSTORE PUSH1 0xE0 DUP3 ADD MLOAD DUP2 PUSH1 0x7 ADD SSTORE PUSH2 0x100 DUP3 ADD MLOAD DUP2 PUSH1 0x8 ADD SSTORE POP POP PUSH32 0x8D80BCC3460B53031D8AA27A772098820B942987D9C639CB66C8318541841E81 DUP2 PUSH1 0x0 ADD MLOAD DUP3 PUSH1 0x20 ADD MLOAD DUP4 PUSH1 0x40 ADD MLOAD DUP5 PUSH1 0x60 ADD MLOAD DUP6 PUSH1 0x80 ADD MLOAD DUP7 PUSH1 0xA0 ADD MLOAD DUP8 PUSH1 0xC0 ADD MLOAD PUSH1 0x40 MLOAD PUSH2 0x98C SWAP8 SWAP7 SWAP6 SWAP5 SWAP4 SWAP3 SWAP2 SWAP1 PUSH2 0x2DE2 JUMP JUMPDEST PUSH1 0x40 MLOAD DUP1 SWAP2 SUB SWAP1 LOG1 POP JUMP JUMPDEST PUSH1 0x5 DUP2 DUP2 SLOAD DUP2 LT PUSH2 0x9A7 JUMPI PUSH1 0x0 DUP1 REVERT JUMPDEST SWAP1 PUSH1 0x0 MSTORE PUSH1 0x20 PUSH1 0x0 KECCAK256 SWAP1 PUSH1 0x9 MUL ADD PUSH1 0x0 SWAP2 POP SWAP1 POP DUP1 PUSH1 0x0 ADD SLOAD SWAP1 DUP1 PUSH1 0x1 ADD PUSH1 0x0 SWAP1 SLOAD SWAP1 PUSH2 0x100 EXP SWAP1 DIV PUSH20 0xFFFFFFFFFFFFFFFFFFFFFFFFFFFFFFFFFFFFFFFF AND SWAP1 DUP1 PUSH1 0x2 ADD PUSH1 0x0 SWAP1 SLOAD SWAP1 PUSH2 0x100 EXP SWAP1 DIV PUSH20 0xFFFFFFFFFFFFFFFFFFFFFFFFFFFFFFFFFFFFFFFF AND SWAP1 DUP1 PUSH1 0x3 ADD DUP1 SLOAD PUSH2 0xA1C SWAP1 PUSH2 0x2B3D JUMP JUMPDEST DUP1 PUSH1 0x1F ADD PUSH1 0x20 DUP1 SWAP2 DIV MUL PUSH1 0x20 ADD PUSH1 0x40 MLOAD SWAP1 DUP2 ADD PUSH1 0x40 MSTORE DUP1 SWAP3 SWAP2 SWAP1 DUP2 DUP2 MSTORE PUSH1 0x20 ADD DUP3 DUP1 SLOAD PUSH2 0xA48 SWAP1 PUSH2 0x2B3D JUMP JUMPDEST DUP1 ISZERO PUSH2 0xA95 JUMPI DUP1 PUSH1 0x1F LT PUSH2 0xA6A JUMPI PUSH2 0x100 DUP1 DUP4 SLOAD DIV MUL DUP4 MSTORE SWAP2 PUSH1 0x20 ADD SWAP2 PUSH2 0xA95 JUMP JUMPDEST DUP3 ADD SWAP2 SWAP1 PUSH1 0x0 MSTORE PUSH1 0x20 PUSH1 0x0 KECCAK256 SWAP1 JUMPDEST DUP2 SLOAD DUP2 MSTORE SWAP1 PUSH1 0x1 ADD SWAP1 PUSH1 0x20 ADD DUP1 DUP4 GT PUSH2 0xA78 JUMPI DUP3 SWAP1 SUB PUSH1 0x1F AND DUP3 ADD SWAP2 JUMPDEST POP POP POP POP POP SWAP1 DUP1 PUSH1 0x4 ADD PUSH1 0x0 SWAP1 SLOAD SWAP1 PUSH2 0x100 EXP SWAP1 DIV PUSH20 0xFFFFFFFFFFFFFFFFFFFFFFFFFFFFFFFFFFFFFFFF AND SWAP1 DUP1 PUSH1 0x5 ADD PUSH1 0x0 SWAP1 SLOAD SWAP1 PUSH2 0x100 EXP SWAP1 DIV PUSH20 0xFFFFFFFFFFFFFFFFFFFFFFFFFFFFFFFFFFFFFFFF AND SWAP1 DUP1 PUSH1 0x6 ADD SLOAD SWAP1 DUP1 PUSH1 0x7 ADD SLOAD SWAP1 DUP1 PUSH1 0x8 ADD SLOAD SWAP1 POP DUP10 JUMP JUMPDEST PUSH1 0x1 PUSH1 0x0 SWAP1 SLOAD SWAP1 PUSH2 0x100 EXP SWAP1 DIV PUSH20 0xFFFFFFFFFFFFFFFFFFFFFFFFFFFFFFFFFFFFFFFF AND PUSH20 0xFFFFFFFFFFFFFFFFFFFFFFFFFFFFFFFFFFFFFFFF AND CALLER PUSH20 0xFFFFFFFFFFFFFFFFFFFFFFFFFFFFFFFFFFFFFFFF AND EQ PUSH2 0xB8D JUMPI PUSH1 0x40 MLOAD PUSH32 0x8C379A000000000000000000000000000000000000000000000000000000000 DUP2 MSTORE PUSH1 0x4 ADD PUSH2 0xB84 SWAP1 PUSH2 0x28C9 JUMP JUMPDEST PUSH1 0x40 MLOAD DUP1 SWAP2 SUB SWAP1 REVERT JUMPDEST PUSH1 0x0 PUSH20 0xFFFFFFFFFFFFFFFFFFFFFFFFFFFFFFFFFFFFFFFF AND PUSH1 0x7 PUSH1 0x0 DUP5 PUSH20 0xFFFFFFFFFFFFFFFFFFFFFFFFFFFFFFFFFFFFFFFF AND PUSH20 0xFFFFFFFFFFFFFFFFFFFFFFFFFFFFFFFFFFFFFFFF AND DUP2 MSTORE PUSH1 0x20 ADD SWAP1 DUP2 MSTORE PUSH1 0x20 ADD PUSH1 0x0 KECCAK256 PUSH1 0x0 SWAP1 SLOAD SWAP1 PUSH2 0x100 EXP SWAP1 DIV PUSH20 0xFFFFFFFFFFFFFFFFFFFFFFFFFFFFFFFFFFFFFFFF AND PUSH20 0xFFFFFFFFFFFFFFFFFFFFFFFFFFFFFFFFFFFFFFFF AND SUB PUSH2 0xC5B JUMPI PUSH1 0x40 MLOAD PUSH32 0x8C379A000000000000000000000000000000000000000000000000000000000 DUP2 MSTORE PUSH1 0x4 ADD PUSH2 0xC52 SWAP1 PUSH2 0x2EA4 JUMP JUMPDEST PUSH1 0x40 MLOAD DUP1 SWAP2 SUB SWAP1 REVERT JUMPDEST DUP2 PUSH20 0xFFFFFFFFFFFFFFFFFFFFFFFFFFFFFFFFFFFFFFFF AND PUSH1 0x6 DUP3 DUP2 SLOAD DUP2 LT PUSH2 0xC86 JUMPI PUSH2 0xC85 PUSH2 0x2A2D JUMP JUMPDEST JUMPDEST SWAP1 PUSH1 0x0 MSTORE PUSH1 0x20 PUSH1 0x0 KECCAK256 ADD PUSH1 0x0 SWAP1 SLOAD SWAP1 PUSH2 0x100 EXP SWAP1 DIV PUSH20 0xFFFFFFFFFFFFFFFFFFFFFFFFFFFFFFFFFFFFFFFF AND PUSH20 0xFFFFFFFFFFFFFFFFFFFFFFFFFFFFFFFFFFFFFFFF AND EQ PUSH2 0xD07 JUMPI PUSH1 0x40 MLOAD PUSH32 0x8C379A000000000000000000000000000000000000000000000000000000000 DUP2 MSTORE PUSH1 0x4 ADD PUSH2 0xCFE SWAP1 PUSH2 0x2F10 JUMP JUMPDEST PUSH1 0x40 MLOAD DUP1 SWAP2 SUB SWAP1 REVERT JUMPDEST PUSH1 0x6 PUSH1 0x1 PUSH1 0x6 DUP1 SLOAD SWAP1 POP PUSH2 0xD1B SWAP2 SWAP1 PUSH2 0x2F5F JUMP JUMPDEST DUP2 SLOAD DUP2 LT PUSH2 0xD2C JUMPI PUSH2 0xD2B PUSH2 0x2A2D JUMP JUMPDEST JUMPDEST SWAP1 PUSH1 0x0 MSTORE PUSH1 0x20 PUSH1 0x0 KECCAK256 ADD PUSH1 0x0 SWAP1 SLOAD SWAP1 PUSH2 0x100 EXP SWAP1 DIV PUSH20 0xFFFFFFFFFFFFFFFFFFFFFFFFFFFFFFFFFFFFFFFF AND PUSH1 0x6 DUP3 DUP2 SLOAD DUP2 LT PUSH2 0xD6B JUMPI PUSH2 0xD6A PUSH2 0x2A2D JUMP JUMPDEST JUMPDEST SWAP1 PUSH1 0x0 MSTORE PUSH1 0x20 PUSH1 0x0 KECCAK256 ADD PUSH1 0x0 PUSH2 0x100 EXP DUP2 SLOAD DUP2 PUSH20 0xFFFFFFFFFFFFFFFFFFFFFFFFFFFFFFFFFFFFFFFF MUL NOT AND SWAP1 DUP4 PUSH20 0xFFFFFFFFFFFFFFFFFFFFFFFFFFFFFFFFFFFFFFFF AND MUL OR SWAP1 SSTORE POP PUSH1 0x6 DUP1 SLOAD DUP1 PUSH2 0xDC5 JUMPI PUSH2 0xDC4 PUSH2 0x2F93 JUMP JUMPDEST JUMPDEST PUSH1 0x1 SWAP1 SUB DUP2 DUP2 SWAP1 PUSH1 0x0 MSTORE PUSH1 0x20 PUSH1 0x0 KECCAK256 ADD PUSH1 0x0 PUSH2 0x100 EXP DUP2 SLOAD SWAP1 PUSH20 0xFFFFFFFFFFFFFFFFFFFFFFFFFFFFFFFFFFFFFFFF MUL NOT AND SWAP1 SSTORE SWAP1 SSTORE PUSH1 0x7 PUSH1 0x0 DUP4 PUSH20 0xFFFFFFFFFFFFFFFFFFFFFFFFFFFFFFFFFFFFFFFF AND PUSH20 0xFFFFFFFFFFFFFFFFFFFFFFFFFFFFFFFFFFFFFFFF AND DUP2 MSTORE PUSH1 0x20 ADD SWAP1 DUP2 MSTORE PUSH1 0x20 ADD PUSH1 0x0 KECCAK256 PUSH1 0x0 PUSH2 0x100 EXP DUP2 SLOAD SWAP1 PUSH20 0xFFFFFFFFFFFFFFFFFFFFFFFFFFFFFFFFFFFFFFFF MUL NOT AND SWAP1 SSTORE POP POP JUMP JUMPDEST PUSH1 0x1 PUSH1 0x0 SWAP1 SLOAD SWAP1 PUSH2 0x100 EXP SWAP1 DIV PUSH20 0xFFFFFFFFFFFFFFFFFFFFFFFFFFFFFFFFFFFFFFFF AND PUSH20 0xFFFFFFFFFFFFFFFFFFFFFFFFFFFFFFFFFFFFFFFF AND CALLER PUSH20 0xFFFFFFFFFFFFFFFFFFFFFFFFFFFFFFFFFFFFFFFF AND EQ PUSH2 0xEF0 JUMPI PUSH1 0x40 MLOAD PUSH32 0x8C379A000000000000000000000000000000000000000000000000000000000 DUP2 MSTORE PUSH1 0x4 ADD PUSH2 0xEE7 SWAP1 PUSH2 0x28C9 JUMP JUMPDEST PUSH1 0x40 MLOAD DUP1 SWAP2 SUB SWAP1 REVERT JUMPDEST DUP1 PUSH1 0x2 PUSH1 0x0 PUSH2 0x100 EXP DUP2 SLOAD DUP2 PUSH20 0xFFFFFFFFFFFFFFFFFFFFFFFFFFFFFFFFFFFFFFFF MUL NOT AND SWAP1 DUP4 PUSH20 0xFFFFFFFFFFFFFFFFFFFFFFFFFFFFFFFFFFFFFFFF AND MUL OR SWAP1 SSTORE POP POP JUMP JUMPDEST PUSH1 0x60 PUSH1 0x0 PUSH1 0x5 DUP1 SLOAD SWAP1 POP PUSH8 0xFFFFFFFFFFFFFFFF DUP2 GT ISZERO PUSH2 0xF57 JUMPI PUSH2 0xF56 PUSH2 0x2080 JUMP JUMPDEST JUMPDEST PUSH1 0x40 MLOAD SWAP1 DUP1 DUP3 MSTORE DUP1 PUSH1 0x20 MUL PUSH1 0x20 ADD DUP3 ADD PUSH1 0x40 MSTORE DUP1 ISZERO PUSH2 0xF90 JUMPI DUP2 PUSH1 0x20 ADD JUMPDEST PUSH2 0xF7D PUSH2 0x1DD0 JUMP JUMPDEST DUP2 MSTORE PUSH1 0x20 ADD SWAP1 PUSH1 0x1 SWAP1 SUB SWAP1 DUP2 PUSH2 0xF75 JUMPI SWAP1 POP JUMPDEST POP SWAP1 POP PUSH1 0x0 JUMPDEST PUSH1 0x5 DUP1 SLOAD SWAP1 POP DUP2 LT ISZERO PUSH2 0x120E JUMPI PUSH1 0x5 DUP2 DUP2 SLOAD DUP2 LT PUSH2 0xFB7 JUMPI PUSH2 0xFB6 PUSH2 0x2A2D JUMP JUMPDEST JUMPDEST SWAP1 PUSH1 0x0 MSTORE PUSH1 0x20 PUSH1 0x0 KECCAK256 SWAP1 PUSH1 0x9 MUL ADD PUSH1 0x40 MLOAD DUP1 PUSH2 0x120 ADD PUSH1 0x40 MSTORE SWAP1 DUP2 PUSH1 0x0 DUP3 ADD SLOAD DUP2 MSTORE PUSH1 0x20 ADD PUSH1 0x1 DUP3 ADD PUSH1 0x0 SWAP1 SLOAD SWAP1 PUSH2 0x100 EXP SWAP1 DIV PUSH20 0xFFFFFFFFFFFFFFFFFFFFFFFFFFFFFFFFFFFFFFFF AND PUSH20 0xFFFFFFFFFFFFFFFFFFFFFFFFFFFFFFFFFFFFFFFF AND PUSH20 0xFFFFFFFFFFFFFFFFFFFFFFFFFFFFFFFFFFFFFFFF AND DUP2 MSTORE PUSH1 0x20 ADD PUSH1 0x2 DUP3 ADD PUSH1 0x0 SWAP1 SLOAD SWAP1 PUSH2 0x100 EXP SWAP1 DIV PUSH20 0xFFFFFFFFFFFFFFFFFFFFFFFFFFFFFFFFFFFFFFFF AND PUSH20 0xFFFFFFFFFFFFFFFFFFFFFFFFFFFFFFFFFFFFFFFF AND PUSH20 0xFFFFFFFFFFFFFFFFFFFFFFFFFFFFFFFFFFFFFFFF AND DUP2 MSTORE PUSH1 0x20 ADD PUSH1 0x3 DUP3 ADD DUP1 SLOAD PUSH2 0x1097 SWAP1 PUSH2 0x2B3D JUMP JUMPDEST DUP1 PUSH1 0x1F ADD PUSH1 0x20 DUP1 SWAP2 DIV MUL PUSH1 0x20 ADD PUSH1 0x40 MLOAD SWAP1 DUP2 ADD PUSH1 0x40 MSTORE DUP1 SWAP3 SWAP2 SWAP1 DUP2 DUP2 MSTORE PUSH1 0x20 ADD DUP3 DUP1 SLOAD PUSH2 0x10C3 SWAP1 PUSH2 0x2B3D JUMP JUMPDEST DUP1 ISZERO PUSH2 0x1110 JUMPI DUP1 PUSH1 0x1F LT PUSH2 0x10E5 JUMPI PUSH2 0x100 DUP1 DUP4 SLOAD DIV MUL DUP4 MSTORE SWAP2 PUSH1 0x20 ADD SWAP2 PUSH2 0x1110 JUMP JUMPDEST DUP3 ADD SWAP2 SWAP1 PUSH1 0x0 MSTORE PUSH1 0x20 PUSH1 0x0 KECCAK256 SWAP1 JUMPDEST DUP2 SLOAD DUP2 MSTORE SWAP1 PUSH1 0x1 ADD SWAP1 PUSH1 0x20 ADD DUP1 DUP4 GT PUSH2 0x10F3 JUMPI DUP3 SWAP1 SUB PUSH1 0x1F AND DUP3 ADD SWAP2 JUMPDEST POP POP POP POP POP DUP2 MSTORE PUSH1 0x20 ADD PUSH1 0x4 DUP3 ADD PUSH1 0x0 SWAP1 SLOAD SWAP1 PUSH2 0x100 EXP SWAP1 DIV PUSH20 0xFFFFFFFFFFFFFFFFFFFFFFFFFFFFFFFFFFFFFFFF AND PUSH20 0xFFFFFFFFFFFFFFFFFFFFFFFFFFFFFFFFFFFFFFFF AND PUSH20 0xFFFFFFFFFFFFFFFFFFFFFFFFFFFFFFFFFFFFFFFF AND DUP2 MSTORE PUSH1 0x20 ADD PUSH1 0x5 DUP3 ADD PUSH1 0x0 SWAP1 SLOAD SWAP1 PUSH2 0x100 EXP SWAP1 DIV PUSH20 0xFFFFFFFFFFFFFFFFFFFFFFFFFFFFFFFFFFFFFFFF AND PUSH20 0xFFFFFFFFFFFFFFFFFFFFFFFFFFFFFFFFFFFFFFFF AND PUSH20 0xFFFFFFFFFFFFFFFFFFFFFFFFFFFFFFFFFFFFFFFF AND DUP2 MSTORE PUSH1 0x20 ADD PUSH1 0x6 DUP3 ADD SLOAD DUP2 MSTORE PUSH1 0x20 ADD PUSH1 0x7 DUP3 ADD SLOAD DUP2 MSTORE PUSH1 0x20 ADD PUSH1 0x8 DUP3 ADD SLOAD DUP2 MSTORE POP POP DUP3 DUP3 DUP2 MLOAD DUP2 LT PUSH2 0x11F6 JUMPI PUSH2 0x11F5 PUSH2 0x2A2D JUMP JUMPDEST JUMPDEST PUSH1 0x20 MUL PUSH1 0x20 ADD ADD DUP2 SWAP1 MSTORE POP DUP1 DUP1 PUSH1 0x1 ADD SWAP2 POP POP PUSH2 0xF96 JUMP JUMPDEST POP DUP1 SWAP2 POP POP SWAP1 JUMP JUMPDEST PUSH1 0x2 PUSH1 0x0 SWAP1 SLOAD SWAP1 PUSH2 0x100 EXP SWAP1 DIV PUSH20 0xFFFFFFFFFFFFFFFFFFFFFFFFFFFFFFFFFFFFFFFF AND DUP2 JUMP JUMPDEST PUSH1 0x1 PUSH1 0x0 SWAP1 SLOAD SWAP1 PUSH2 0x100 EXP SWAP1 DIV PUSH20 0xFFFFFFFFFFFFFFFFFFFFFFFFFFFFFFFFFFFFFFFF AND DUP2 JUMP JUMPDEST PUSH1 0x2 PUSH1 0x14 SWAP1 SLOAD SWAP1 PUSH2 0x100 EXP SWAP1 DIV PUSH1 0xFF AND DUP2 JUMP JUMPDEST PUSH1 0x3 PUSH1 0x0 SWAP1 SLOAD SWAP1 PUSH2 0x100 EXP SWAP1 DIV PUSH20 0xFFFFFFFFFFFFFFFFFFFFFFFFFFFFFFFFFFFFFFFF AND DUP2 JUMP JUMPDEST PUSH1 0x60 PUSH1 0x0 PUSH1 0x4 DUP1 SLOAD SWAP1 POP PUSH8 0xFFFFFFFFFFFFFFFF DUP2 GT ISZERO PUSH2 0x12BE JUMPI PUSH2 0x12BD PUSH2 0x2080 JUMP JUMPDEST JUMPDEST PUSH1 0x40 MLOAD SWAP1 DUP1 DUP3 MSTORE DUP1 PUSH1 0x20 MUL PUSH1 0x20 ADD DUP3 ADD PUSH1 0x40 MSTORE DUP1 ISZERO PUSH2 0x12F7 JUMPI DUP2 PUSH1 0x20 ADD JUMPDEST PUSH2 0x12E4 PUSH2 0x1DD0 JUMP JUMPDEST DUP2 MSTORE PUSH1 0x20 ADD SWAP1 PUSH1 0x1 SWAP1 SUB SWAP1 DUP2 PUSH2 0x12DC JUMPI SWAP1 POP JUMPDEST POP SWAP1 POP PUSH1 0x0 JUMPDEST PUSH1 0x4 DUP1 SLOAD SWAP1 POP DUP2 LT ISZERO PUSH2 0x1575 JUMPI PUSH1 0x4 DUP2 DUP2 SLOAD DUP2 LT PUSH2 0x131E JUMPI PUSH2 0x131D PUSH2 0x2A2D JUMP JUMPDEST JUMPDEST SWAP1 PUSH1 0x0 MSTORE PUSH1 0x20 PUSH1 0x0 KECCAK256 SWAP1 PUSH1 0x9 MUL ADD PUSH1 0x40 MLOAD DUP1 PUSH2 0x120 ADD PUSH1 0x40 MSTORE SWAP1 DUP2 PUSH1 0x0 DUP3 ADD SLOAD DUP2 MSTORE PUSH1 0x20 ADD PUSH1 0x1 DUP3 ADD PUSH1 0x0 SWAP1 SLOAD SWAP1 PUSH2 0x100 EXP SWAP1 DIV PUSH20 0xFFFFFFFFFFFFFFFFFFFFFFFFFFFFFFFFFFFFFFFF AND PUSH20 0xFFFFFFFFFFFFFFFFFFFFFFFFFFFFFFFFFFFFFFFF AND PUSH20 0xFFFFFFFFFFFFFFFFFFFFFFFFFFFFFFFFFFFFFFFF AND DUP2 MSTORE PUSH1 0x20 ADD PUSH1 0x2 DUP3 ADD PUSH1 0x0 SWAP1 SLOAD SWAP1 PUSH2 0x100 EXP SWAP1 DIV PUSH20 0xFFFFFFFFFFFFFFFFFFFFFFFFFFFFFFFFFFFFFFFF AND PUSH20 0xFFFFFFFFFFFFFFFFFFFFFFFFFFFFFFFFFFFFFFFF AND PUSH20 0xFFFFFFFFFFFFFFFFFFFFFFFFFFFFFFFFFFFFFFFF AND DUP2 MSTORE PUSH1 0x20 ADD PUSH1 0x3 DUP3 ADD DUP1 SLOAD PUSH2 0x13FE SWAP1 PUSH2 0x2B3D JUMP JUMPDEST DUP1 PUSH1 0x1F ADD PUSH1 0x20 DUP1 SWAP2 DIV MUL PUSH1 0x20 ADD PUSH1 0x40 MLOAD SWAP1 DUP2 ADD PUSH1 0x40 MSTORE DUP1 SWAP3 SWAP2 SWAP1 DUP2 DUP2 MSTORE PUSH1 0x20 ADD DUP3 DUP1 SLOAD PUSH2 0x142A SWAP1 PUSH2 0x2B3D JUMP JUMPDEST DUP1 ISZERO PUSH2 0x1477 JUMPI DUP1 PUSH1 0x1F LT PUSH2 0x144C JUMPI PUSH2 0x100 DUP1 DUP4 SLOAD DIV MUL DUP4 MSTORE SWAP2 PUSH1 0x20 ADD SWAP2 PUSH2 0x1477 JUMP JUMPDEST DUP3 ADD SWAP2 SWAP1 PUSH1 0x0 MSTORE PUSH1 0x20 PUSH1 0x0 KECCAK256 SWAP1 JUMPDEST DUP2 SLOAD DUP2 MSTORE SWAP1 PUSH1 0x1 ADD SWAP1 PUSH1 0x20 ADD DUP1 DUP4 GT PUSH2 0x145A JUMPI DUP3 SWAP1 SUB PUSH1 0x1F AND DUP3 ADD SWAP2 JUMPDEST POP POP POP POP POP DUP2 MSTORE PUSH1 0x20 ADD PUSH1 0x4 DUP3 ADD PUSH1 0x0 SWAP1 SLOAD SWAP1 PUSH2 0x100 EXP SWAP1 DIV PUSH20 0xFFFFFFFFFFFFFFFFFFFFFFFFFFFFFFFFFFFFFFFF AND PUSH20 0xFFFFFFFFFFFFFFFFFFFFFFFFFFFFFFFFFFFFFFFF AND PUSH20 0xFFFFFFFFFFFFFFFFFFFFFFFFFFFFFFFFFFFFFFFF AND DUP2 MSTORE PUSH1 0x20 ADD PUSH1 0x5 DUP3 ADD PUSH1 0x0 SWAP1 SLOAD SWAP1 PUSH2 0x100 EXP SWAP1 DIV PUSH20 0xFFFFFFFFFFFFFFFFFFFFFFFFFFFFFFFFFFFFFFFF AND PUSH20 0xFFFFFFFFFFFFFFFFFFFFFFFFFFFFFFFFFFFFFFFF AND PUSH20 0xFFFFFFFFFFFFFFFFFFFFFFFFFFFFFFFFFFFFFFFF AND DUP2 MSTORE PUSH1 0x20 ADD PUSH1 0x6 DUP3 ADD SLOAD DUP2 MSTORE PUSH1 0x20 ADD PUSH1 0x7 DUP3 ADD SLOAD DUP2 MSTORE PUSH1 0x20 ADD PUSH1 0x8 DUP3 ADD SLOAD DUP2 MSTORE POP POP DUP3 DUP3 DUP2 MLOAD DUP2 LT PUSH2 0x155D JUMPI PUSH2 0x155C PUSH2 0x2A2D JUMP JUMPDEST JUMPDEST PUSH1 0x20 MUL PUSH1 0x20 ADD ADD DUP2 SWAP1 MSTORE POP DUP1 DUP1 PUSH1 0x1 ADD SWAP2 POP POP PUSH2 0x12FD JUMP JUMPDEST POP DUP1 SWAP2 POP POP SWAP1 JUMP JUMPDEST PUSH1 0x1 PUSH1 0x0 SWAP1 SLOAD SWAP1 PUSH2 0x100 EXP SWAP1 DIV PUSH20 0xFFFFFFFFFFFFFFFFFFFFFFFFFFFFFFFFFFFFFFFF AND PUSH20 0xFFFFFFFFFFFFFFFFFFFFFFFFFFFFFFFFFFFFFFFF AND CALLER PUSH20 0xFFFFFFFFFFFFFFFFFFFFFFFFFFFFFFFFFFFFFFFF AND EQ PUSH2 0x160D JUMPI PUSH1 0x40 MLOAD PUSH32 0x8C379A000000000000000000000000000000000000000000000000000000000 DUP2 MSTORE PUSH1 0x4 ADD PUSH2 0x1604 SWAP1 PUSH2 0x28C9 JUMP JUMPDEST PUSH1 0x40 MLOAD DUP1 SWAP2 SUB SWAP1 REVERT JUMPDEST PUSH1 0x0 PUSH20 0xFFFFFFFFFFFFFFFFFFFFFFFFFFFFFFFFFFFFFFFF AND PUSH1 0x7 PUSH1 0x0 DUP5 PUSH20 0xFFFFFFFFFFFFFFFFFFFFFFFFFFFFFFFFFFFFFFFF AND PUSH20 0xFFFFFFFFFFFFFFFFFFFFFFFFFFFFFFFFFFFFFFFF AND DUP2 MSTORE PUSH1 0x20 ADD SWAP1 DUP2 MSTORE PUSH1 0x20 ADD PUSH1 0x0 KECCAK256 PUSH1 0x0 SWAP1 SLOAD SWAP1 PUSH2 0x100 EXP SWAP1 DIV PUSH20 0xFFFFFFFFFFFFFFFFFFFFFFFFFFFFFFFFFFFFFFFF AND PUSH20 0xFFFFFFFFFFFFFFFFFFFFFFFFFFFFFFFFFFFFFFFF AND EQ PUSH2 0x16DB JUMPI PUSH1 0x40 MLOAD PUSH32 0x8C379A000000000000000000000000000000000000000000000000000000000 DUP2 MSTORE PUSH1 0x4 ADD PUSH2 0x16D2 SWAP1 PUSH2 0x300E JUMP JUMPDEST PUSH1 0x40 MLOAD DUP1 SWAP2 SUB SWAP1 REVERT JUMPDEST PUSH1 0x6 DUP3 SWAP1 DUP1 PUSH1 0x1 DUP2 SLOAD ADD DUP1 DUP3 SSTORE DUP1 SWAP2 POP POP PUSH1 0x1 SWAP1 SUB SWAP1 PUSH1 0x0 MSTORE PUSH1 0x20 PUSH1 0x0 KECCAK256 ADD PUSH1 0x0 SWAP1 SWAP2 SWAP1 SWAP2 SWAP1 SWAP2 PUSH2 0x100 EXP DUP2 SLOAD DUP2 PUSH20 0xFFFFFFFFFFFFFFFFFFFFFFFFFFFFFFFFFFFFFFFF MUL NOT AND SWAP1 DUP4 PUSH20 0xFFFFFFFFFFFFFFFFFFFFFFFFFFFFFFFFFFFFFFFF AND MUL OR SWAP1 SSTORE POP DUP1 PUSH1 0x7 PUSH1 0x0 DUP5 PUSH20 0xFFFFFFFFFFFFFFFFFFFFFFFFFFFFFFFFFFFFFFFF AND PUSH20 0xFFFFFFFFFFFFFFFFFFFFFFFFFFFFFFFFFFFFFFFF AND DUP2 MSTORE PUSH1 0x20 ADD SWAP1 DUP2 MSTORE PUSH1 0x20 ADD PUSH1 0x0 KECCAK256 PUSH1 0x0 PUSH2 0x100 EXP DUP2 SLOAD DUP2 PUSH20 0xFFFFFFFFFFFFFFFFFFFFFFFFFFFFFFFFFFFFFFFF MUL NOT AND SWAP1 DUP4 PUSH20 0xFFFFFFFFFFFFFFFFFFFFFFFFFFFFFFFFFFFFFFFF AND MUL OR SWAP1 SSTORE POP POP POP JUMP JUMPDEST PUSH1 0x6 DUP2 DUP2 SLOAD DUP2 LT PUSH2 0x17D0 JUMPI PUSH1 0x0 DUP1 REVERT JUMPDEST SWAP1 PUSH1 0x0 MSTORE PUSH1 0x20 PUSH1 0x0 KECCAK256 ADD PUSH1 0x0 SWAP2 POP SLOAD SWAP1 PUSH2 0x100 EXP SWAP1 DIV PUSH20 0xFFFFFFFFFFFFFFFFFFFFFFFFFFFFFFFFFFFFFFFF AND DUP2 JUMP JUMPDEST PUSH2 0x1807 PUSH2 0x1D80 JUMP JUMPDEST PUSH1 0x0 PUSH1 0x7 PUSH1 0x0 DUP5 PUSH20 0xFFFFFFFFFFFFFFFFFFFFFFFFFFFFFFFFFFFFFFFF AND PUSH20 0xFFFFFFFFFFFFFFFFFFFFFFFFFFFFFFFFFFFFFFFF AND DUP2 MSTORE PUSH1 0x20 ADD SWAP1 DUP2 MSTORE PUSH1 0x20 ADD PUSH1 0x0 KECCAK256 PUSH1 0x0 SWAP1 SLOAD SWAP1 PUSH2 0x100 EXP SWAP1 DIV PUSH20 0xFFFFFFFFFFFFFFFFFFFFFFFFFFFFFFFFFFFFFFFF AND SWAP1 POP PUSH1 0x0 PUSH20 0xFFFFFFFFFFFFFFFFFFFFFFFFFFFFFFFFFFFFFFFF AND DUP2 PUSH20 0xFFFFFFFFFFFFFFFFFFFFFFFFFFFFFFFFFFFFFFFF AND SUB PUSH2 0x18DA JUMPI PUSH1 0x40 MLOAD PUSH32 0x8C379A000000000000000000000000000000000000000000000000000000000 DUP2 MSTORE PUSH1 0x4 ADD PUSH2 0x18D1 SWAP1 PUSH2 0x307A JUMP JUMPDEST PUSH1 0x40 MLOAD DUP1 SWAP2 SUB SWAP1 REVERT JUMPDEST PUSH1 0x0 PUSH1 0x40 MLOAD DUP1 PUSH2 0x120 ADD PUSH1 0x40 MSTORE DUP1 PUSH1 0x5 DUP1 SLOAD SWAP1 POP DUP2 MSTORE PUSH1 0x20 ADD CALLER PUSH20 0xFFFFFFFFFFFFFFFFFFFFFFFFFFFFFFFFFFFFFFFF AND DUP2 MSTORE PUSH1 0x20 ADD DUP8 PUSH20 0xFFFFFFFFFFFFFFFFFFFFFFFFFFFFFFFFFFFFFFFF AND DUP2 MSTORE PUSH1 0x20 ADD DUP7 DUP2 MSTORE PUSH1 0x20 ADD DUP6 PUSH20 0xFFFFFFFFFFFFFFFFFFFFFFFFFFFFFFFFFFFFFFFF AND DUP2 MSTORE PUSH1 0x20 ADD DUP4 PUSH20 0xFFFFFFFFFFFFFFFFFFFFFFFFFFFFFFFFFFFFFFFF AND DUP2 MSTORE PUSH1 0x20 ADD DUP5 DUP2 MSTORE PUSH1 0x20 ADD PUSH1 0x0 DUP2 MSTORE PUSH1 0x20 ADD PUSH1 0x0 DUP1 SHL DUP2 MSTORE POP SWAP1 POP PUSH1 0x5 DUP2 SWAP1 DUP1 PUSH1 0x1 DUP2 SLOAD ADD DUP1 DUP3 SSTORE DUP1 SWAP2 POP POP PUSH1 0x1 SWAP1 SUB SWAP1 PUSH1 0x0 MSTORE PUSH1 0x20 PUSH1 0x0 KECCAK256 SWAP1 PUSH1 0x9 MUL ADD PUSH1 0x0 SWAP1 SWAP2 SWAP1 SWAP2 SWAP1 SWAP2 POP PUSH1 0x0 DUP3 ADD MLOAD DUP2 PUSH1 0x0 ADD SSTORE PUSH1 0x20 DUP3 ADD MLOAD DUP2 PUSH1 0x1 ADD PUSH1 0x0 PUSH2 0x100 EXP DUP2 SLOAD DUP2 PUSH20 0xFFFFFFFFFFFFFFFFFFFFFFFFFFFFFFFFFFFFFFFF MUL NOT AND SWAP1 DUP4 PUSH20 0xFFFFFFFFFFFFFFFFFFFFFFFFFFFFFFFFFFFFFFFF AND MUL OR SWAP1 SSTORE POP PUSH1 0x40 DUP3 ADD MLOAD DUP2 PUSH1 0x2 ADD PUSH1 0x0 PUSH2 0x100 EXP DUP2 SLOAD DUP2 PUSH20 0xFFFFFFFFFFFFFFFFFFFFFFFFFFFFFFFFFFFFFFFF MUL NOT AND SWAP1 DUP4 PUSH20 0xFFFFFFFFFFFFFFFFFFFFFFFFFFFFFFFFFFFFFFFF AND MUL OR SWAP1 SSTORE POP PUSH1 0x60 DUP3 ADD MLOAD DUP2 PUSH1 0x3 ADD SWAP1 DUP2 PUSH2 0x1A58 SWAP2 SWAP1 PUSH2 0x2D10 JUMP JUMPDEST POP PUSH1 0x80 DUP3 ADD MLOAD DUP2 PUSH1 0x4 ADD PUSH1 0x0 PUSH2 0x100 EXP DUP2 SLOAD DUP2 PUSH20 0xFFFFFFFFFFFFFFFFFFFFFFFFFFFFFFFFFFFFFFFF MUL NOT AND SWAP1 DUP4 PUSH20 0xFFFFFFFFFFFFFFFFFFFFFFFFFFFFFFFFFFFFFFFF AND MUL OR SWAP1 SSTORE POP PUSH1 0xA0 DUP3 ADD MLOAD DUP2 PUSH1 0x5 ADD PUSH1 0x0 PUSH2 0x100 EXP DUP2 SLOAD DUP2 PUSH20 0xFFFFFFFFFFFFFFFFFFFFFFFFFFFFFFFFFFFFFFFF MUL NOT AND SWAP1 DUP4 PUSH20 0xFFFFFFFFFFFFFFFFFFFFFFFFFFFFFFFFFFFFFFFF AND MUL OR SWAP1 SSTORE POP PUSH1 0xC0 DUP3 ADD MLOAD DUP2 PUSH1 0x6 ADD SSTORE PUSH1 0xE0 DUP3 ADD MLOAD DUP2 PUSH1 0x7 ADD SSTORE PUSH2 0x100 DUP3 ADD MLOAD DUP2 PUSH1 0x8 ADD SSTORE POP POP DUP4 PUSH20 0xFFFFFFFFFFFFFFFFFFFFFFFFFFFFFFFFFFFFFFFF AND PUSH4 0x23B872DD CALLER PUSH1 0x1 PUSH1 0x0 SWAP1 SLOAD SWAP1 PUSH2 0x100 EXP SWAP1 DIV PUSH20 0xFFFFFFFFFFFFFFFFFFFFFFFFFFFFFFFFFFFFFFFF AND DUP7 PUSH1 0x40 MLOAD DUP5 PUSH4 0xFFFFFFFF AND PUSH1 0xE0 SHL DUP2 MSTORE PUSH1 0x4 ADD PUSH2 0x1B67 SWAP4 SWAP3 SWAP2 SWAP1 PUSH2 0x309A JUMP JUMPDEST PUSH1 0x20 PUSH1 0x40 MLOAD DUP1 DUP4 SUB DUP2 PUSH1 0x0 DUP8 GAS CALL ISZERO DUP1 ISZERO PUSH2 0x1B86 JUMPI RETURNDATASIZE PUSH1 0x0 DUP1 RETURNDATACOPY RETURNDATASIZE PUSH1 0x0 REVERT JUMPDEST POP POP POP POP PUSH1 0x40 MLOAD RETURNDATASIZE PUSH1 0x1F NOT PUSH1 0x1F DUP3 ADD AND DUP3 ADD DUP1 PUSH1 0x40 MSTORE POP DUP2 ADD SWAP1 PUSH2 0x1BAA SWAP2 SWAP1 PUSH2 0x2AB1 JUMP JUMPDEST POP PUSH32 0x4599A14AFB01D51B75540A961262AD1157DE6EF44F1780EF686AF91FEF984BE7 DUP2 PUSH1 0x0 ADD MLOAD DUP3 PUSH1 0x20 ADD MLOAD DUP4 PUSH1 0x40 ADD MLOAD DUP5 PUSH1 0x60 ADD MLOAD DUP6 PUSH1 0x80 ADD MLOAD DUP7 PUSH1 0xA0 ADD MLOAD DUP8 PUSH1 0xC0 ADD MLOAD PUSH1 0x40 MLOAD PUSH2 0x1C02 SWAP8 SWAP7 SWAP6 SWAP5 SWAP4 SWAP3 SWAP2 SWAP1 PUSH2 0x2DE2 JUMP JUMPDEST PUSH1 0x40 MLOAD DUP1 SWAP2 SUB SWAP1 LOG1 POP POP PUSH2 0x1C14 PUSH2 0x1DC6 JUMP JUMPDEST POP POP POP POP JUMP JUMPDEST PUSH1 0x4 DUP2 DUP2 SLOAD DUP2 LT PUSH2 0x1C2A JUMPI PUSH1 0x0 DUP1 REVERT JUMPDEST SWAP1 PUSH1 0x0 MSTORE PUSH1 0x20 PUSH1 0x0 KECCAK256 SWAP1 PUSH1 0x9 MUL ADD PUSH1 0x0 SWAP2 POP SWAP1 POP DUP1 PUSH1 0x0 ADD SLOAD SWAP1 DUP1 PUSH1 0x1 ADD PUSH1 0x0 SWAP1 SLOAD SWAP1 PUSH2 0x100 EXP SWAP1 DIV PUSH20 0xFFFFFFFFFFFFFFFFFFFFFFFFFFFFFFFFFFFFFFFF AND SWAP1 DUP1 PUSH1 0x2 ADD PUSH1 0x0 SWAP1 SLOAD SWAP1 PUSH2 0x100 EXP SWAP1 DIV PUSH20 0xFFFFFFFFFFFFFFFFFFFFFFFFFFFFFFFFFFFFFFFF AND SWAP1 DUP1 PUSH1 0x3 ADD DUP1 SLOAD PUSH2 0x1C9F SWAP1 PUSH2 0x2B3D JUMP JUMPDEST DUP1 PUSH1 0x1F ADD PUSH1 0x20 DUP1 SWAP2 DIV MUL PUSH1 0x20 ADD PUSH1 0x40 MLOAD SWAP1 DUP2 ADD PUSH1 0x40 MSTORE DUP1 SWAP3 SWAP2 SWAP1 DUP2 DUP2 MSTORE PUSH1 0x20 ADD DUP3 DUP1 SLOAD PUSH2 0x1CCB SWAP1 PUSH2 0x2B3D JUMP JUMPDEST DUP1 ISZERO PUSH2 0x1D18 JUMPI DUP1 PUSH1 0x1F LT PUSH2 0x1CED JUMPI PUSH2 0x100 DUP1 DUP4 SLOAD DIV MUL DUP4 MSTORE SWAP2 PUSH1 0x20 ADD SWAP2 PUSH2 0x1D18 JUMP JUMPDEST DUP3 ADD SWAP2 SWAP1 PUSH1 0x0 MSTORE PUSH1 0x20 PUSH1 0x0 KECCAK256 SWAP1 JUMPDEST DUP2 SLOAD DUP2 MSTORE SWAP1 PUSH1 0x1 ADD SWAP1 PUSH1 0x20 ADD DUP1 DUP4 GT PUSH2 0x1CFB JUMPI DUP3 SWAP1 SUB PUSH1 0x1F AND DUP3 ADD SWAP2 JUMPDEST POP POP POP POP POP SWAP1 DUP1 PUSH1 0x4 ADD PUSH1 0x0 SWAP1 SLOAD SWAP1 PUSH2 0x100 EXP SWAP1 DIV PUSH20 0xFFFFFFFFFFFFFFFFFFFFFFFFFFFFFFFFFFFFFFFF AND SWAP1 DUP1 PUSH1 0x5 ADD PUSH1 0x0 SWAP1 SLOAD SWAP1 PUSH2 0x100 EXP SWAP1 DIV PUSH20 0xFFFFFFFFFFFFFFFFFFFFFFFFFFFFFFFFFFFFFFFF AND SWAP1 DUP1 PUSH1 0x6 ADD SLOAD SWAP1 DUP1 PUSH1 0x7 ADD SLOAD SWAP1 DUP1 PUSH1 0x8 ADD SLOAD SWAP1 POP DUP10 JUMP JUMPDEST PUSH1 0x2 PUSH1 0x0 SLOAD SUB PUSH2 0x1DBC JUMPI PUSH1 0x40 MLOAD PUSH32 0x3EE5AEB500000000000000000000000000000000000000000000000000000000 DUP2 MSTORE PUSH1 0x4 ADD PUSH1 0x40 MLOAD DUP1 SWAP2 SUB SWAP1 REVERT JUMPDEST PUSH1 0x2 PUSH1 0x0 DUP2 SWAP1 SSTORE POP JUMP JUMPDEST PUSH1 0x1 PUSH1 0x0 DUP2 SWAP1 SSTORE POP JUMP JUMPDEST PUSH1 0x40 MLOAD DUP1 PUSH2 0x120 ADD PUSH1 0x40 MSTORE DUP1 PUSH1 0x0 DUP2 MSTORE PUSH1 0x20 ADD PUSH1 0x0 PUSH20 0xFFFFFFFFFFFFFFFFFFFFFFFFFFFFFFFFFFFFFFFF AND DUP2 MSTORE PUSH1 0x20 ADD PUSH1 0x0 PUSH20 0xFFFFFFFFFFFFFFFFFFFFFFFFFFFFFFFFFFFFFFFF AND DUP2 MSTORE PUSH1 0x20 ADD PUSH1 0x60 DUP2 MSTORE PUSH1 0x20 ADD PUSH1 0x0 PUSH20 0xFFFFFFFFFFFFFFFFFFFFFFFFFFFFFFFFFFFFFFFF AND DUP2 MSTORE PUSH1 0x20 ADD PUSH1 0x0 PUSH20 0xFFFFFFFFFFFFFFFFFFFFFFFFFFFFFFFFFFFFFFFF AND DUP2 MSTORE PUSH1 0x20 ADD PUSH1 0x0 DUP2 MSTORE PUSH1 0x20 ADD PUSH1 0x0 DUP2 MSTORE PUSH1 0x20 ADD PUSH1 0x0 DUP1 NOT AND DUP2 MSTORE POP SWAP1 JUMP JUMPDEST PUSH1 0x0 PUSH1 0x40 MLOAD SWAP1 POP SWAP1 JUMP JUMPDEST PUSH1 0x0 DUP1 REVERT JUMPDEST PUSH1 0x0 DUP1 REVERT JUMPDEST PUSH1 0x0 PUSH20 0xFFFFFFFFFFFFFFFFFFFFFFFFFFFFFFFFFFFFFFFF DUP3 AND SWAP1 POP SWAP2 SWAP1 POP JUMP JUMPDEST PUSH1 0x0 PUSH2 0x1EB6 DUP3 PUSH2 0x1E8B JUMP JUMPDEST SWAP1 POP SWAP2 SWAP1 POP JUMP JUMPDEST PUSH2 0x1EC6 DUP2 PUSH2 0x1EAB JUMP JUMPDEST DUP2 EQ PUSH2 0x1ED1 JUMPI PUSH1 0x0 DUP1 REVERT JUMPDEST POP JUMP JUMPDEST PUSH1 0x0 DUP2 CALLDATALOAD SWAP1 POP PUSH2 0x1EE3 DUP2 PUSH2 0x1EBD JUMP JUMPDEST SWAP3 SWAP2 POP POP JUMP JUMPDEST PUSH1 0x0 PUSH1 0x20 DUP3 DUP5 SUB SLT ISZERO PUSH2 0x1EFF JUMPI PUSH2 0x1EFE PUSH2 0x1E81 JUMP JUMPDEST JUMPDEST PUSH1 0x0 PUSH2 0x1F0D DUP5 DUP3 DUP6 ADD PUSH2 0x1ED4 JUMP JUMPDEST SWAP2 POP POP SWAP3 SWAP2 POP POP JUMP JUMPDEST PUSH1 0x0 DUP2 SWAP1 POP SWAP2 SWAP1 POP JUMP JUMPDEST PUSH2 0x1F29 DUP2 PUSH2 0x1F16 JUMP JUMPDEST DUP2 EQ PUSH2 0x1F34 JUMPI PUSH1 0x0 DUP1 REVERT JUMPDEST POP JUMP JUMPDEST PUSH1 0x0 DUP2 CALLDATALOAD SWAP1 POP PUSH2 0x1F46 DUP2 PUSH2 0x1F20 JUMP JUMPDEST SWAP3 SWAP2 POP POP JUMP JUMPDEST PUSH1 0x0 DUP2 SWAP1 POP SWAP2 SWAP1 POP JUMP JUMPDEST PUSH2 0x1F5F DUP2 PUSH2 0x1F4C JUMP JUMPDEST DUP2 EQ PUSH2 0x1F6A JUMPI PUSH1 0x0 DUP1 REVERT JUMPDEST POP JUMP JUMPDEST PUSH1 0x0 DUP2 CALLDATALOAD SWAP1 POP PUSH2 0x1F7C DUP2 PUSH2 0x1F56 JUMP JUMPDEST SWAP3 SWAP2 POP POP JUMP JUMPDEST PUSH1 0x0 DUP1 PUSH1 0x0 PUSH1 0x60 DUP5 DUP7 SUB SLT ISZERO PUSH2 0x1F9B JUMPI PUSH2 0x1F9A PUSH2 0x1E81 JUMP JUMPDEST JUMPDEST PUSH1 0x0 PUSH2 0x1FA9 DUP7 DUP3 DUP8 ADD PUSH2 0x1F37 JUMP JUMPDEST SWAP4 POP POP PUSH1 0x20 PUSH2 0x1FBA DUP7 DUP3 DUP8 ADD PUSH2 0x1F37 JUMP JUMPDEST SWAP3 POP POP PUSH1 0x40 PUSH2 0x1FCB DUP7 DUP3 DUP8 ADD PUSH2 0x1F6D JUMP JUMPDEST SWAP2 POP POP SWAP3 POP SWAP3 POP SWAP3 JUMP JUMPDEST PUSH1 0x0 PUSH2 0x1FE0 DUP3 PUSH2 0x1EAB JUMP JUMPDEST SWAP1 POP SWAP2 SWAP1 POP JUMP JUMPDEST PUSH2 0x1FF0 DUP2 PUSH2 0x1FD5 JUMP JUMPDEST DUP2 EQ PUSH2 0x1FFB JUMPI PUSH1 0x0 DUP1 REVERT JUMPDEST POP JUMP JUMPDEST PUSH1 0x0 DUP2 CALLDATALOAD SWAP1 POP PUSH2 0x200D DUP2 PUSH2 0x1FE7 JUMP JUMPDEST SWAP3 SWAP2 POP POP JUMP JUMPDEST PUSH1 0x0 PUSH1 0x20 DUP3 DUP5 SUB SLT ISZERO PUSH2 0x2029 JUMPI PUSH2 0x2028 PUSH2 0x1E81 JUMP JUMPDEST JUMPDEST PUSH1 0x0 PUSH2 0x2037 DUP5 DUP3 DUP6 ADD PUSH2 0x1FFE JUMP JUMPDEST SWAP2 POP POP SWAP3 SWAP2 POP POP JUMP JUMPDEST PUSH2 0x2049 DUP2 PUSH2 0x1EAB JUMP JUMPDEST DUP3 MSTORE POP POP JUMP JUMPDEST PUSH1 0x0 PUSH1 0x20 DUP3 ADD SWAP1 POP PUSH2 0x2064 PUSH1 0x0 DUP4 ADD DUP5 PUSH2 0x2040 JUMP JUMPDEST SWAP3 SWAP2 POP POP JUMP JUMPDEST PUSH1 0x0 DUP1 REVERT JUMPDEST PUSH1 0x0 PUSH1 0x1F NOT PUSH1 0x1F DUP4 ADD AND SWAP1 POP SWAP2 SWAP1 POP JUMP JUMPDEST PUSH32 0x4E487B7100000000000000000000000000000000000000000000000000000000 PUSH1 0x0 MSTORE PUSH1 0x41 PUSH1 0x4 MSTORE PUSH1 0x24 PUSH1 0x0 REVERT JUMPDEST PUSH2 0x20B8 DUP3 PUSH2 0x206F JUMP JUMPDEST DUP2 ADD DUP2 DUP2 LT PUSH8 0xFFFFFFFFFFFFFFFF DUP3 GT OR ISZERO PUSH2 0x20D7 JUMPI PUSH2 0x20D6 PUSH2 0x2080 JUMP JUMPDEST JUMPDEST DUP1 PUSH1 0x40 MSTORE POP POP POP JUMP JUMPDEST PUSH1 0x0 PUSH2 0x20EA PUSH2 0x1E77 JUMP JUMPDEST SWAP1 POP PUSH2 0x20F6 DUP3 DUP3 PUSH2 0x20AF JUMP JUMPDEST SWAP2 SWAP1 POP JUMP JUMPDEST PUSH1 0x0 DUP1 REVERT JUMPDEST PUSH1 0x0 DUP1 REVERT JUMPDEST PUSH1 0x0 DUP1 REVERT JUMPDEST PUSH1 0x0 PUSH8 0xFFFFFFFFFFFFFFFF DUP3 GT ISZERO PUSH2 0x2125 JUMPI PUSH2 0x2124 PUSH2 0x2080 JUMP JUMPDEST JUMPDEST PUSH2 0x212E DUP3 PUSH2 0x206F JUMP JUMPDEST SWAP1 POP PUSH1 0x20 DUP2 ADD SWAP1 POP SWAP2 SWAP1 POP JUMP JUMPDEST DUP3 DUP2 DUP4 CALLDATACOPY PUSH1 0x0 DUP4 DUP4 ADD MSTORE POP POP POP JUMP JUMPDEST PUSH1 0x0 PUSH2 0x215D PUSH2 0x2158 DUP5 PUSH2 0x210A JUMP JUMPDEST PUSH2 0x20E0 JUMP JUMPDEST SWAP1 POP DUP3 DUP2 MSTORE PUSH1 0x20 DUP2 ADD DUP5 DUP5 DUP5 ADD GT ISZERO PUSH2 0x2179 JUMPI PUSH2 0x2178 PUSH2 0x2105 JUMP JUMPDEST JUMPDEST PUSH2 0x2184 DUP5 DUP3 DUP6 PUSH2 0x213B JUMP JUMPDEST POP SWAP4 SWAP3 POP POP POP JUMP JUMPDEST PUSH1 0x0 DUP3 PUSH1 0x1F DUP4 ADD SLT PUSH2 0x21A1 JUMPI PUSH2 0x21A0 PUSH2 0x2100 JUMP JUMPDEST JUMPDEST DUP2 CALLDATALOAD PUSH2 0x21B1 DUP5 DUP3 PUSH1 0x20 DUP7 ADD PUSH2 0x214A JUMP JUMPDEST SWAP2 POP POP SWAP3 SWAP2 POP POP JUMP JUMPDEST PUSH1 0x0 PUSH2 0x120 DUP3 DUP5 SUB SLT ISZERO PUSH2 0x21D1 JUMPI PUSH2 0x21D0 PUSH2 0x206A JUMP JUMPDEST JUMPDEST PUSH2 0x21DC PUSH2 0x120 PUSH2 0x20E0 JUMP JUMPDEST SWAP1 POP PUSH1 0x0 PUSH2 0x21EC DUP5 DUP3 DUP6 ADD PUSH2 0x1F37 JUMP JUMPDEST PUSH1 0x0 DUP4 ADD MSTORE POP PUSH1 0x20 PUSH2 0x2200 DUP5 DUP3 DUP6 ADD PUSH2 0x1ED4 JUMP JUMPDEST PUSH1 0x20 DUP4 ADD MSTORE POP PUSH1 0x40 PUSH2 0x2214 DUP5 DUP3 DUP6 ADD PUSH2 0x1ED4 JUMP JUMPDEST PUSH1 0x40 DUP4 ADD MSTORE POP PUSH1 0x60 DUP3 ADD CALLDATALOAD PUSH8 0xFFFFFFFFFFFFFFFF DUP2 GT ISZERO PUSH2 0x2238 JUMPI PUSH2 0x2237 PUSH2 0x20FB JUMP JUMPDEST JUMPDEST PUSH2 0x2244 DUP5 DUP3 DUP6 ADD PUSH2 0x218C JUMP JUMPDEST PUSH1 0x60 DUP4 ADD MSTORE POP PUSH1 0x80 PUSH2 0x2258 DUP5 DUP3 DUP6 ADD PUSH2 0x1ED4 JUMP JUMPDEST PUSH1 0x80 DUP4 ADD MSTORE POP PUSH1 0xA0 PUSH2 0x226C DUP5 DUP3 DUP6 ADD PUSH2 0x1ED4 JUMP JUMPDEST PUSH1 0xA0 DUP4 ADD MSTORE POP PUSH1 0xC0 PUSH2 0x2280 DUP5 DUP3 DUP6 ADD PUSH2 0x1F37 JUMP JUMPDEST PUSH1 0xC0 DUP4 ADD MSTORE POP PUSH1 0xE0 PUSH2 0x2294 DUP5 DUP3 DUP6 ADD PUSH2 0x1F37 JUMP JUMPDEST PUSH1 0xE0 DUP4 ADD MSTORE POP PUSH2 0x100 PUSH2 0x22A9 DUP5 DUP3 DUP6 ADD PUSH2 0x1F6D JUMP JUMPDEST PUSH2 0x100 DUP4 ADD MSTORE POP SWAP3 SWAP2 POP POP JUMP JUMPDEST PUSH1 0x0 PUSH1 0x20 DUP3 DUP5 SUB SLT ISZERO PUSH2 0x22CC JUMPI PUSH2 0x22CB PUSH2 0x1E81 JUMP JUMPDEST JUMPDEST PUSH1 0x0 DUP3 ADD CALLDATALOAD PUSH8 0xFFFFFFFFFFFFFFFF DUP2 GT ISZERO PUSH2 0x22EA JUMPI PUSH2 0x22E9 PUSH2 0x1E86 JUMP JUMPDEST JUMPDEST PUSH2 0x22F6 DUP5 DUP3 DUP6 ADD PUSH2 0x21BA JUMP JUMPDEST SWAP2 POP POP SWAP3 SWAP2 POP POP JUMP JUMPDEST PUSH1 0x0 PUSH1 0x20 DUP3 DUP5 SUB SLT ISZERO PUSH2 0x2315 JUMPI PUSH2 0x2314 PUSH2 0x1E81 JUMP JUMPDEST JUMPDEST PUSH1 0x0 PUSH2 0x2323 DUP5 DUP3 DUP6 ADD PUSH2 0x1F37 JUMP JUMPDEST SWAP2 POP POP SWAP3 SWAP2 POP POP JUMP JUMPDEST PUSH2 0x2335 DUP2 PUSH2 0x1F16 JUMP JUMPDEST DUP3 MSTORE POP POP JUMP JUMPDEST PUSH1 0x0 DUP2 MLOAD SWAP1 POP SWAP2 SWAP1 POP JUMP JUMPDEST PUSH1 0x0 DUP3 DUP3 MSTORE PUSH1 0x20 DUP3 ADD SWAP1 POP SWAP3 SWAP2 POP POP JUMP JUMPDEST PUSH1 0x0 JUMPDEST DUP4 DUP2 LT ISZERO PUSH2 0x2375 JUMPI DUP1 DUP3 ADD MLOAD DUP2 DUP5 ADD MSTORE PUSH1 0x20 DUP2 ADD SWAP1 POP PUSH2 0x235A JUMP JUMPDEST PUSH1 0x0 DUP5 DUP5 ADD MSTORE POP POP POP POP JUMP JUMPDEST PUSH1 0x0 PUSH2 0x238C DUP3 PUSH2 0x233B JUMP JUMPDEST PUSH2 0x2396 DUP2 DUP6 PUSH2 0x2346 JUMP JUMPDEST SWAP4 POP PUSH2 0x23A6 DUP2 DUP6 PUSH1 0x20 DUP7 ADD PUSH2 0x2357 JUMP JUMPDEST PUSH2 0x23AF DUP2 PUSH2 0x206F JUMP JUMPDEST DUP5 ADD SWAP2 POP POP SWAP3 SWAP2 POP POP JUMP JUMPDEST PUSH2 0x23C3 DUP2 PUSH2 0x1F4C JUMP JUMPDEST DUP3 MSTORE POP POP JUMP JUMPDEST PUSH1 0x0 PUSH2 0x120 DUP3 ADD SWAP1 POP PUSH2 0x23DF PUSH1 0x0 DUP4 ADD DUP13 PUSH2 0x232C JUMP JUMPDEST PUSH2 0x23EC PUSH1 0x20 DUP4 ADD DUP12 PUSH2 0x2040 JUMP JUMPDEST PUSH2 0x23F9 PUSH1 0x40 DUP4 ADD DUP11 PUSH2 0x2040 JUMP JUMPDEST DUP2 DUP2 SUB PUSH1 0x60 DUP4 ADD MSTORE PUSH2 0x240B DUP2 DUP10 PUSH2 0x2381 JUMP JUMPDEST SWAP1 POP PUSH2 0x241A PUSH1 0x80 DUP4 ADD DUP9 PUSH2 0x2040 JUMP JUMPDEST PUSH2 0x2427 PUSH1 0xA0 DUP4 ADD DUP8 PUSH2 0x2040 JUMP JUMPDEST PUSH2 0x2434 PUSH1 0xC0 DUP4 ADD DUP7 PUSH2 0x232C JUMP JUMPDEST PUSH2 0x2441 PUSH1 0xE0 DUP4 ADD DUP6 PUSH2 0x232C JUMP JUMPDEST PUSH2 0x244F PUSH2 0x100 DUP4 ADD DUP5 PUSH2 0x23BA JUMP JUMPDEST SWAP11 SWAP10 POP POP POP POP POP POP POP POP POP POP JUMP JUMPDEST PUSH1 0x0 DUP1 PUSH1 0x40 DUP4 DUP6 SUB SLT ISZERO PUSH2 0x2474 JUMPI PUSH2 0x2473 PUSH2 0x1E81 JUMP JUMPDEST JUMPDEST PUSH1 0x0 PUSH2 0x2482 DUP6 DUP3 DUP7 ADD PUSH2 0x1FFE JUMP JUMPDEST SWAP3 POP POP PUSH1 0x20 PUSH2 0x2493 DUP6 DUP3 DUP7 ADD PUSH2 0x1F37 JUMP JUMPDEST SWAP2 POP POP SWAP3 POP SWAP3 SWAP1 POP JUMP JUMPDEST PUSH1 0x0 DUP2 MLOAD SWAP1 POP SWAP2 SWAP1 POP JUMP JUMPDEST PUSH1 0x0 DUP3 DUP3 MSTORE PUSH1 0x20 DUP3 ADD SWAP1 POP SWAP3 SWAP2 POP POP JUMP JUMPDEST PUSH1 0x0 DUP2 SWAP1 POP PUSH1 0x20 DUP3 ADD SWAP1 POP SWAP2 SWAP1 POP JUMP JUMPDEST PUSH2 0x24D2 DUP2 PUSH2 0x1F16 JUMP JUMPDEST DUP3 MSTORE POP POP JUMP JUMPDEST PUSH2 0x24E1 DUP2 PUSH2 0x1EAB JUMP JUMPDEST DUP3 MSTORE POP POP JUMP JUMPDEST PUSH1 0x0 DUP3 DUP3 MSTORE PUSH1 0x20 DUP3 ADD SWAP1 POP SWAP3 SWAP2 POP POP JUMP JUMPDEST PUSH1 0x0 PUSH2 0x2503 DUP3 PUSH2 0x233B JUMP JUMPDEST PUSH2 0x250D DUP2 DUP6 PUSH2 0x24E7 JUMP JUMPDEST SWAP4 POP PUSH2 0x251D DUP2 DUP6 PUSH1 0x20 DUP7 ADD PUSH2 0x2357 JUMP JUMPDEST PUSH2 0x2526 DUP2 PUSH2 0x206F JUMP JUMPDEST DUP5 ADD SWAP2 POP POP SWAP3 SWAP2 POP POP JUMP JUMPDEST PUSH2 0x253A DUP2 PUSH2 0x1F4C JUMP JUMPDEST DUP3 MSTORE POP POP JUMP JUMPDEST PUSH1 0x0 PUSH2 0x120 DUP4 ADD PUSH1 0x0 DUP4 ADD MLOAD PUSH2 0x2559 PUSH1 0x0 DUP7 ADD DUP3 PUSH2 0x24C9 JUMP JUMPDEST POP PUSH1 0x20 DUP4 ADD MLOAD PUSH2 0x256C PUSH1 0x20 DUP7 ADD DUP3 PUSH2 0x24D8 JUMP JUMPDEST POP PUSH1 0x40 DUP4 ADD MLOAD PUSH2 0x257F PUSH1 0x40 DUP7 ADD DUP3 PUSH2 0x24D8 JUMP JUMPDEST POP PUSH1 0x60 DUP4 ADD MLOAD DUP5 DUP3 SUB PUSH1 0x60 DUP7 ADD MSTORE PUSH2 0x2597 DUP3 DUP3 PUSH2 0x24F8 JUMP JUMPDEST SWAP2 POP POP PUSH1 0x80 DUP4 ADD MLOAD PUSH2 0x25AC PUSH1 0x80 DUP7 ADD DUP3 PUSH2 0x24D8 JUMP JUMPDEST POP PUSH1 0xA0 DUP4 ADD MLOAD PUSH2 0x25BF PUSH1 0xA0 DUP7 ADD DUP3 PUSH2 0x24D8 JUMP JUMPDEST POP PUSH1 0xC0 DUP4 ADD MLOAD PUSH2 0x25D2 PUSH1 0xC0 DUP7 ADD DUP3 PUSH2 0x24C9 JUMP JUMPDEST POP PUSH1 0xE0 DUP4 ADD MLOAD PUSH2 0x25E5 PUSH1 0xE0 DUP7 ADD DUP3 PUSH2 0x24C9 JUMP JUMPDEST POP PUSH2 0x100 DUP4 ADD MLOAD PUSH2 0x25FA PUSH2 0x100 DUP7 ADD DUP3 PUSH2 0x2531 JUMP JUMPDEST POP DUP1 SWAP2 POP POP SWAP3 SWAP2 POP POP JUMP JUMPDEST PUSH1 0x0 PUSH2 0x2611 DUP4 DUP4 PUSH2 0x2540 JUMP JUMPDEST SWAP1 POP SWAP3 SWAP2 POP POP JUMP JUMPDEST PUSH1 0x0 PUSH1 0x20 DUP3 ADD SWAP1 POP SWAP2 SWAP1 POP JUMP JUMPDEST PUSH1 0x0 PUSH2 0x2631 DUP3 PUSH2 0x249D JUMP JUMPDEST PUSH2 0x263B DUP2 DUP6 PUSH2 0x24A8 JUMP JUMPDEST SWAP4 POP DUP4 PUSH1 0x20 DUP3 MUL DUP6 ADD PUSH2 0x264D DUP6 PUSH2 0x24B9 JUMP JUMPDEST DUP1 PUSH1 0x0 JUMPDEST DUP6 DUP2 LT ISZERO PUSH2 0x2689 JUMPI DUP5 DUP5 SUB DUP10 MSTORE DUP2 MLOAD PUSH2 0x266A DUP6 DUP3 PUSH2 0x2605 JUMP JUMPDEST SWAP5 POP PUSH2 0x2675 DUP4 PUSH2 0x2619 JUMP JUMPDEST SWAP3 POP PUSH1 0x20 DUP11 ADD SWAP10 POP POP PUSH1 0x1 DUP2 ADD SWAP1 POP PUSH2 0x2651 JUMP JUMPDEST POP DUP3 SWAP8 POP DUP8 SWAP6 POP POP POP POP POP POP SWAP3 SWAP2 POP POP JUMP JUMPDEST PUSH1 0x0 PUSH1 0x20 DUP3 ADD SWAP1 POP DUP2 DUP2 SUB PUSH1 0x0 DUP4 ADD MSTORE PUSH2 0x26B5 DUP2 DUP5 PUSH2 0x2626 JUMP JUMPDEST SWAP1 POP SWAP3 SWAP2 POP POP JUMP JUMPDEST PUSH1 0x0 DUP2 ISZERO ISZERO SWAP1 POP SWAP2 SWAP1 POP JUMP JUMPDEST PUSH2 0x26D2 DUP2 PUSH2 0x26BD JUMP JUMPDEST DUP3 MSTORE POP POP JUMP JUMPDEST PUSH1 0x0 PUSH1 0x20 DUP3 ADD SWAP1 POP PUSH2 0x26ED PUSH1 0x0 DUP4 ADD DUP5 PUSH2 0x26C9 JUMP JUMPDEST SWAP3 SWAP2 POP POP JUMP JUMPDEST PUSH1 0x0 DUP2 SWAP1 POP SWAP2 SWAP1 POP JUMP JUMPDEST PUSH1 0x0 PUSH2 0x2718 PUSH2 0x2713 PUSH2 0x270E DUP5 PUSH2 0x1E8B JUMP JUMPDEST PUSH2 0x26F3 JUMP JUMPDEST PUSH2 0x1E8B JUMP JUMPDEST SWAP1 POP SWAP2 SWAP1 POP JUMP JUMPDEST PUSH1 0x0 PUSH2 0x272A DUP3 PUSH2 0x26FD JUMP JUMPDEST SWAP1 POP SWAP2 SWAP1 POP JUMP JUMPDEST PUSH1 0x0 PUSH2 0x273C DUP3 PUSH2 0x271F JUMP JUMPDEST SWAP1 POP SWAP2 SWAP1 POP JUMP JUMPDEST PUSH2 0x274C DUP2 PUSH2 0x2731 JUMP JUMPDEST DUP3 MSTORE POP POP JUMP JUMPDEST PUSH1 0x0 PUSH1 0x20 DUP3 ADD SWAP1 POP PUSH2 0x2767 PUSH1 0x0 DUP4 ADD DUP5 PUSH2 0x2743 JUMP JUMPDEST SWAP3 SWAP2 POP POP JUMP JUMPDEST PUSH1 0x0 DUP1 PUSH1 0x40 DUP4 DUP6 SUB SLT ISZERO PUSH2 0x2784 JUMPI PUSH2 0x2783 PUSH2 0x1E81 JUMP JUMPDEST JUMPDEST PUSH1 0x0 PUSH2 0x2792 DUP6 DUP3 DUP7 ADD PUSH2 0x1FFE JUMP JUMPDEST SWAP3 POP POP PUSH1 0x20 PUSH2 0x27A3 DUP6 DUP3 DUP7 ADD PUSH2 0x1ED4 JUMP JUMPDEST SWAP2 POP POP SWAP3 POP SWAP3 SWAP1 POP JUMP JUMPDEST PUSH1 0x0 PUSH2 0x27B8 DUP3 PUSH2 0x271F JUMP JUMPDEST SWAP1 POP SWAP2 SWAP1 POP JUMP JUMPDEST PUSH2 0x27C8 DUP2 PUSH2 0x27AD JUMP JUMPDEST DUP3 MSTORE POP POP JUMP JUMPDEST PUSH1 0x0 PUSH1 0x20 DUP3 ADD SWAP1 POP PUSH2 0x27E3 PUSH1 0x0 DUP4 ADD DUP5 PUSH2 0x27BF JUMP JUMPDEST SWAP3 SWAP2 POP POP JUMP JUMPDEST PUSH1 0x0 DUP1 PUSH1 0x0 DUP1 PUSH1 0x80 DUP6 DUP8 SUB SLT ISZERO PUSH2 0x2803 JUMPI PUSH2 0x2802 PUSH2 0x1E81 JUMP JUMPDEST JUMPDEST PUSH1 0x0 PUSH2 0x2811 DUP8 DUP3 DUP9 ADD PUSH2 0x1ED4 JUMP JUMPDEST SWAP5 POP POP PUSH1 0x20 DUP6 ADD CALLDATALOAD PUSH8 0xFFFFFFFFFFFFFFFF DUP2 GT ISZERO PUSH2 0x2832 JUMPI PUSH2 0x2831 PUSH2 0x1E86 JUMP JUMPDEST JUMPDEST PUSH2 0x283E DUP8 DUP3 DUP9 ADD PUSH2 0x218C JUMP JUMPDEST SWAP4 POP POP PUSH1 0x40 PUSH2 0x284F DUP8 DUP3 DUP9 ADD PUSH2 0x1ED4 JUMP JUMPDEST SWAP3 POP POP PUSH1 0x60 PUSH2 0x2860 DUP8 DUP3 DUP9 ADD PUSH2 0x1F37 JUMP JUMPDEST SWAP2 POP POP SWAP3 SWAP6 SWAP2 SWAP5 POP SWAP3 POP JUMP JUMPDEST PUSH1 0x0 DUP3 DUP3 MSTORE PUSH1 0x20 DUP3 ADD SWAP1 POP SWAP3 SWAP2 POP POP JUMP JUMPDEST PUSH32 0x4E6F74206F776E65720000000000000000000000000000000000000000000000 PUSH1 0x0 DUP3 ADD MSTORE POP JUMP JUMPDEST PUSH1 0x0 PUSH2 0x28B3 PUSH1 0x9 DUP4 PUSH2 0x286C JUMP JUMPDEST SWAP2 POP PUSH2 0x28BE DUP3 PUSH2 0x287D JUMP JUMPDEST PUSH1 0x20 DUP3 ADD SWAP1 POP SWAP2 SWAP1 POP JUMP JUMPDEST PUSH1 0x0 PUSH1 0x20 DUP3 ADD SWAP1 POP DUP2 DUP2 SUB PUSH1 0x0 DUP4 ADD MSTORE PUSH2 0x28E2 DUP2 PUSH2 0x28A6 JUMP JUMPDEST SWAP1 POP SWAP2 SWAP1 POP JUMP JUMPDEST PUSH32 0x4E6F742072656C61796572000000000000000000000000000000000000000000 PUSH1 0x0 DUP3 ADD MSTORE POP JUMP JUMPDEST PUSH1 0x0 PUSH2 0x291F PUSH1 0xB DUP4 PUSH2 0x286C JUMP JUMPDEST SWAP2 POP PUSH2 0x292A DUP3 PUSH2 0x28E9 JUMP JUMPDEST PUSH1 0x20 DUP3 ADD SWAP1 POP SWAP2 SWAP1 POP JUMP JUMPDEST PUSH1 0x0 PUSH1 0x20 DUP3 ADD SWAP1 POP DUP2 DUP2 SUB PUSH1 0x0 DUP4 ADD MSTORE PUSH2 0x294E DUP2 PUSH2 0x2912 JUMP JUMPDEST SWAP1 POP SWAP2 SWAP1 POP JUMP JUMPDEST PUSH32 0x496E76616C696420756964000000000000000000000000000000000000000000 PUSH1 0x0 DUP3 ADD MSTORE POP JUMP JUMPDEST PUSH1 0x0 PUSH2 0x298B PUSH1 0xB DUP4 PUSH2 0x286C JUMP JUMPDEST SWAP2 POP PUSH2 0x2996 DUP3 PUSH2 0x2955 JUMP JUMPDEST PUSH1 0x20 DUP3 ADD SWAP1 POP SWAP2 SWAP1 POP JUMP JUMPDEST PUSH1 0x0 PUSH1 0x20 DUP3 ADD SWAP1 POP DUP2 DUP2 SUB PUSH1 0x0 DUP4 ADD MSTORE PUSH2 0x29BA DUP2 PUSH2 0x297E JUMP JUMPDEST SWAP1 POP SWAP2 SWAP1 POP JUMP JUMPDEST PUSH32 0x496E76616C696420657865637574696F6E20726573756C740000000000000000 PUSH1 0x0 DUP3 ADD MSTORE POP JUMP JUMPDEST PUSH1 0x0 PUSH2 0x29F7 PUSH1 0x18 DUP4 PUSH2 0x286C JUMP JUMPDEST SWAP2 POP PUSH2 0x2A02 DUP3 PUSH2 0x29C1 JUMP JUMPDEST PUSH1 0x20 DUP3 ADD SWAP1 POP SWAP2 SWAP1 POP JUMP JUMPDEST PUSH1 0x0 PUSH1 0x20 DUP3 ADD SWAP1 POP DUP2 DUP2 SUB PUSH1 0x0 DUP4 ADD MSTORE PUSH2 0x2A26 DUP2 PUSH2 0x29EA JUMP JUMPDEST SWAP1 POP SWAP2 SWAP1 POP JUMP JUMPDEST PUSH32 0x4E487B7100000000000000000000000000000000000000000000000000000000 PUSH1 0x0 MSTORE PUSH1 0x32 PUSH1 0x4 MSTORE PUSH1 0x24 PUSH1 0x0 REVERT JUMPDEST PUSH1 0x0 PUSH1 0x40 DUP3 ADD SWAP1 POP PUSH2 0x2A71 PUSH1 0x0 DUP4 ADD DUP6 PUSH2 0x2040 JUMP JUMPDEST PUSH2 0x2A7E PUSH1 0x20 DUP4 ADD DUP5 PUSH2 0x232C JUMP JUMPDEST SWAP4 SWAP3 POP POP POP JUMP JUMPDEST PUSH2 0x2A8E DUP2 PUSH2 0x26BD JUMP JUMPDEST DUP2 EQ PUSH2 0x2A99 JUMPI PUSH1 0x0 DUP1 REVERT JUMPDEST POP JUMP JUMPDEST PUSH1 0x0 DUP2 MLOAD SWAP1 POP PUSH2 0x2AAB DUP2 PUSH2 0x2A85 JUMP JUMPDEST SWAP3 SWAP2 POP POP JUMP JUMPDEST PUSH1 0x0 PUSH1 0x20 DUP3 DUP5 SUB SLT ISZERO PUSH2 0x2AC7 JUMPI PUSH2 0x2AC6 PUSH2 0x1E81 JUMP JUMPDEST JUMPDEST PUSH1 0x0 PUSH2 0x2AD5 DUP5 DUP3 DUP6 ADD PUSH2 0x2A9C JUMP JUMPDEST SWAP2 POP POP SWAP3 SWAP2 POP POP JUMP JUMPDEST PUSH1 0x0 PUSH1 0x40 DUP3 ADD SWAP1 POP PUSH2 0x2AF3 PUSH1 0x0 DUP4 ADD DUP6 PUSH2 0x2040 JUMP JUMPDEST DUP2 DUP2 SUB PUSH1 0x20 DUP4 ADD MSTORE PUSH2 0x2B05 DUP2 DUP5 PUSH2 0x2381 JUMP JUMPDEST SWAP1 POP SWAP4 SWAP3 POP POP POP JUMP JUMPDEST PUSH32 0x4E487B7100000000000000000000000000000000000000000000000000000000 PUSH1 0x0 MSTORE PUSH1 0x22 PUSH1 0x4 MSTORE PUSH1 0x24 PUSH1 0x0 REVERT JUMPDEST PUSH1 0x0 PUSH1 0x2 DUP3 DIV SWAP1 POP PUSH1 0x1 DUP3 AND DUP1 PUSH2 0x2B55 JUMPI PUSH1 0x7F DUP3 AND SWAP2 POP JUMPDEST PUSH1 0x20 DUP3 LT DUP2 SUB PUSH2 0x2B68 JUMPI PUSH2 0x2B67 PUSH2 0x2B0E JUMP JUMPDEST JUMPDEST POP SWAP2 SWAP1 POP JUMP JUMPDEST PUSH1 0x0 DUP2 SWAP1 POP DUP2 PUSH1 0x0 MSTORE PUSH1 0x20 PUSH1 0x0 KECCAK256 SWAP1 POP SWAP2 SWAP1 POP JUMP JUMPDEST PUSH1 0x0 PUSH1 0x20 PUSH1 0x1F DUP4 ADD DIV SWAP1 POP SWAP2 SWAP1 POP JUMP JUMPDEST PUSH1 0x0 DUP3 DUP3 SHL SWAP1 POP SWAP3 SWAP2 POP POP JUMP JUMPDEST PUSH1 0x0 PUSH1 0x8 DUP4 MUL PUSH2 0x2BD0 PUSH32 0xFFFFFFFFFFFFFFFFFFFFFFFFFFFFFFFFFFFFFFFFFFFFFFFFFFFFFFFFFFFFFFFF DUP3 PUSH2 0x2B93 JUMP JUMPDEST PUSH2 0x2BDA DUP7 DUP4 PUSH2 0x2B93 JUMP JUMPDEST SWAP6 POP DUP1 NOT DUP5 AND SWAP4 POP DUP1 DUP7 AND DUP5 OR SWAP3 POP POP POP SWAP4 SWAP3 POP POP POP JUMP JUMPDEST PUSH1 0x0 PUSH2 0x2C0D PUSH2 0x2C08 PUSH2 0x2C03 DUP5 PUSH2 0x1F16 JUMP JUMPDEST PUSH2 0x26F3 JUMP JUMPDEST PUSH2 0x1F16 JUMP JUMPDEST SWAP1 POP SWAP2 SWAP1 POP JUMP JUMPDEST PUSH1 0x0 DUP2 SWAP1 POP SWAP2 SWAP1 POP JUMP JUMPDEST PUSH2 0x2C27 DUP4 PUSH2 0x2BF2 JUMP JUMPDEST PUSH2 0x2C3B PUSH2 0x2C33 DUP3 PUSH2 0x2C14 JUMP JUMPDEST DUP5 DUP5 SLOAD PUSH2 0x2BA0 JUMP JUMPDEST DUP3 SSTORE POP POP POP POP JUMP JUMPDEST PUSH1 0x0 SWAP1 JUMP JUMPDEST PUSH2 0x2C50 PUSH2 0x2C43 JUMP JUMPDEST PUSH2 0x2C5B DUP2 DUP5 DUP5 PUSH2 0x2C1E JUMP JUMPDEST POP POP POP JUMP JUMPDEST JUMPDEST DUP2 DUP2 LT ISZERO PUSH2 0x2C7F JUMPI PUSH2 0x2C74 PUSH1 0x0 DUP3 PUSH2 0x2C48 JUMP JUMPDEST PUSH1 0x1 DUP2 ADD SWAP1 POP PUSH2 0x2C61 JUMP JUMPDEST POP POP JUMP JUMPDEST PUSH1 0x1F DUP3 GT ISZERO PUSH2 0x2CC4 JUMPI PUSH2 0x2C95 DUP2 PUSH2 0x2B6E JUMP JUMPDEST PUSH2 0x2C9E DUP5 PUSH2 0x2B83 JUMP JUMPDEST DUP2 ADD PUSH1 0x20 DUP6 LT ISZERO PUSH2 0x2CAD JUMPI DUP2 SWAP1 POP JUMPDEST PUSH2 0x2CC1 PUSH2 0x2CB9 DUP6 PUSH2 0x2B83 JUMP JUMPDEST DUP4 ADD DUP3 PUSH2 0x2C60 JUMP JUMPDEST POP POP JUMPDEST POP POP POP JUMP JUMPDEST PUSH1 0x0 DUP3 DUP3 SHR SWAP1 POP SWAP3 SWAP2 POP POP JUMP JUMPDEST PUSH1 0x0 PUSH2 0x2CE7 PUSH1 0x0 NOT DUP5 PUSH1 0x8 MUL PUSH2 0x2CC9 JUMP JUMPDEST NOT DUP1 DUP4 AND SWAP2 POP POP SWAP3 SWAP2 POP POP JUMP JUMPDEST PUSH1 0x0 PUSH2 0x2D00 DUP4 DUP4 PUSH2 0x2CD6 JUMP JUMPDEST SWAP2 POP DUP3 PUSH1 0x2 MUL DUP3 OR SWAP1 POP SWAP3 SWAP2 POP POP JUMP JUMPDEST PUSH2 0x2D19 DUP3 PUSH2 0x233B JUMP JUMPDEST PUSH8 0xFFFFFFFFFFFFFFFF DUP2 GT ISZERO PUSH2 0x2D32 JUMPI PUSH2 0x2D31 PUSH2 0x2080 JUMP JUMPDEST JUMPDEST PUSH2 0x2D3C DUP3 SLOAD PUSH2 0x2B3D JUMP JUMPDEST PUSH2 0x2D47 DUP3 DUP3 DUP6 PUSH2 0x2C83 JUMP JUMPDEST PUSH1 0x0 PUSH1 0x20 SWAP1 POP PUSH1 0x1F DUP4 GT PUSH1 0x1 DUP2 EQ PUSH2 0x2D7A JUMPI PUSH1 0x0 DUP5 ISZERO PUSH2 0x2D68 JUMPI DUP3 DUP8 ADD MLOAD SWAP1 POP JUMPDEST PUSH2 0x2D72 DUP6 DUP3 PUSH2 0x2CF4 JUMP JUMPDEST DUP7 SSTORE POP PUSH2 0x2DDA JUMP JUMPDEST PUSH1 0x1F NOT DUP5 AND PUSH2 0x2D88 DUP7 PUSH2 0x2B6E JUMP JUMPDEST PUSH1 0x0 JUMPDEST DUP3 DUP2 LT ISZERO PUSH2 0x2DB0 JUMPI DUP5 DUP10 ADD MLOAD DUP3 SSTORE PUSH1 0x1 DUP3 ADD SWAP2 POP PUSH1 0x20 DUP6 ADD SWAP5 POP PUSH1 0x20 DUP2 ADD SWAP1 POP PUSH2 0x2D8B JUMP JUMPDEST DUP7 DUP4 LT ISZERO PUSH2 0x2DCD JUMPI DUP5 DUP10 ADD MLOAD PUSH2 0x2DC9 PUSH1 0x1F DUP10 AND DUP3 PUSH2 0x2CD6 JUMP JUMPDEST DUP4 SSTORE POP JUMPDEST PUSH1 0x1 PUSH1 0x2 DUP9 MUL ADD DUP9 SSTORE POP POP POP JUMPDEST POP POP POP POP POP POP JUMP JUMPDEST PUSH1 0x0 PUSH1 0xE0 DUP3 ADD SWAP1 POP PUSH2 0x2DF7 PUSH1 0x0 DUP4 ADD DUP11 PUSH2 0x232C JUMP JUMPDEST PUSH2 0x2E04 PUSH1 0x20 DUP4 ADD DUP10 PUSH2 0x2040 JUMP JUMPDEST PUSH2 0x2E11 PUSH1 0x40 DUP4 ADD DUP9 PUSH2 0x2040 JUMP JUMPDEST DUP2 DUP2 SUB PUSH1 0x60 DUP4 ADD MSTORE PUSH2 0x2E23 DUP2 DUP8 PUSH2 0x2381 JUMP JUMPDEST SWAP1 POP PUSH2 0x2E32 PUSH1 0x80 DUP4 ADD DUP7 PUSH2 0x2040 JUMP JUMPDEST PUSH2 0x2E3F PUSH1 0xA0 DUP4 ADD DUP6 PUSH2 0x2040 JUMP JUMPDEST PUSH2 0x2E4C PUSH1 0xC0 DUP4 ADD DUP5 PUSH2 0x232C JUMP JUMPDEST SWAP9 SWAP8 POP POP POP POP POP POP POP POP JUMP JUMPDEST PUSH32 0x546F6B656E207061697220646F6573206E6F7420657869737400000000000000 PUSH1 0x0 DUP3 ADD MSTORE POP JUMP JUMPDEST PUSH1 0x0 PUSH2 0x2E8E PUSH1 0x19 DUP4 PUSH2 0x286C JUMP JUMPDEST SWAP2 POP PUSH2 0x2E99 DUP3 PUSH2 0x2E58 JUMP JUMPDEST PUSH1 0x20 DUP3 ADD SWAP1 POP SWAP2 SWAP1 POP JUMP JUMPDEST PUSH1 0x0 PUSH1 0x20 DUP3 ADD SWAP1 POP DUP2 DUP2 SUB PUSH1 0x0 DUP4 ADD MSTORE PUSH2 0x2EBD DUP2 PUSH2 0x2E81 JUMP JUMPDEST SWAP1 POP SWAP2 SWAP1 POP JUMP JUMPDEST PUSH32 0x496E76616C696420746F6B656E20696400000000000000000000000000000000 PUSH1 0x0 DUP3 ADD MSTORE POP JUMP JUMPDEST PUSH1 0x0 PUSH2 0x2EFA PUSH1 0x10 DUP4 PUSH2 0x286C JUMP JUMPDEST SWAP2 POP PUSH2 0x2F05 DUP3 PUSH2 0x2EC4 JUMP JUMPDEST PUSH1 0x20 DUP3 ADD SWAP1 POP SWAP2 SWAP1 POP JUMP JUMPDEST PUSH1 0x0 PUSH1 0x20 DUP3 ADD SWAP1 POP DUP2 DUP2 SUB PUSH1 0x0 DUP4 ADD MSTORE PUSH2 0x2F29 DUP2 PUSH2 0x2EED JUMP JUMPDEST SWAP1 POP SWAP2 SWAP1 POP JUMP JUMPDEST PUSH32 0x4E487B7100000000000000000000000000000000000000000000000000000000 PUSH1 0x0 MSTORE PUSH1 0x11 PUSH1 0x4 MSTORE PUSH1 0x24 PUSH1 0x0 REVERT JUMPDEST PUSH1 0x0 PUSH2 0x2F6A DUP3 PUSH2 0x1F16 JUMP JUMPDEST SWAP2 POP PUSH2 0x2F75 DUP4 PUSH2 0x1F16 JUMP JUMPDEST SWAP3 POP DUP3 DUP3 SUB SWAP1 POP DUP2 DUP2 GT ISZERO PUSH2 0x2F8D JUMPI PUSH2 0x2F8C PUSH2 0x2F30 JUMP JUMPDEST JUMPDEST SWAP3 SWAP2 POP POP JUMP JUMPDEST PUSH32 0x4E487B7100000000000000000000000000000000000000000000000000000000 PUSH1 0x0 MSTORE PUSH1 0x31 PUSH1 0x4 MSTORE PUSH1 0x24 PUSH1 0x0 REVERT JUMPDEST PUSH32 0x546F6B656E207061697220616C72656164792065786973747300000000000000 PUSH1 0x0 DUP3 ADD MSTORE POP JUMP JUMPDEST PUSH1 0x0 PUSH2 0x2FF8 PUSH1 0x19 DUP4 PUSH2 0x286C JUMP JUMPDEST SWAP2 POP PUSH2 0x3003 DUP3 PUSH2 0x2FC2 JUMP JUMPDEST PUSH1 0x20 DUP3 ADD SWAP1 POP SWAP2 SWAP1 POP JUMP JUMPDEST PUSH1 0x0 PUSH1 0x20 DUP3 ADD SWAP1 POP DUP2 DUP2 SUB PUSH1 0x0 DUP4 ADD MSTORE PUSH2 0x3027 DUP2 PUSH2 0x2FEB JUMP JUMPDEST SWAP1 POP SWAP2 SWAP1 POP JUMP JUMPDEST PUSH32 0x546F6B656E206E6F7420737570706F7274656400000000000000000000000000 PUSH1 0x0 DUP3 ADD MSTORE POP JUMP JUMPDEST PUSH1 0x0 PUSH2 0x3064 PUSH1 0x13 DUP4 PUSH2 0x286C JUMP JUMPDEST SWAP2 POP PUSH2 0x306F DUP3 PUSH2 0x302E JUMP JUMPDEST PUSH1 0x20 DUP3 ADD SWAP1 POP SWAP2 SWAP1 POP JUMP JUMPDEST PUSH1 0x0 PUSH1 0x20 DUP3 ADD SWAP1 POP DUP2 DUP2 SUB PUSH1 0x0 DUP4 ADD MSTORE PUSH2 0x3093 DUP2 PUSH2 0x3057 JUMP JUMPDEST SWAP1 POP SWAP2 SWAP1 POP JUMP JUMPDEST PUSH1 0x0 PUSH1 0x60 DUP3 ADD SWAP1 POP PUSH2 0x30AF PUSH1 0x0 DUP4 ADD DUP7 PUSH2 0x2040 JUMP JUMPDEST PUSH2 0x30BC PUSH1 0x20 DUP4 ADD DUP6 PUSH2 0x2040 JUMP JUMPDEST PUSH2 0x30C9 PUSH1 0x40 DUP4 ADD DUP5 PUSH2 0x232C JUMP JUMPDEST SWAP5 SWAP4 POP POP POP POP JUMP INVALID LOG2 PUSH5 0x6970667358 0x22 SLT KECCAK256 0xDD TSTORE 0xE5 0xD7 SAR 0x21 DUP16 PC 0x2D 0xB2 MSTORE SWAP6 ORIGIN 0xED 0xD5 XOR EQ 0xDF 0xA7 0xBF 0xD4 0x25 0xEC 0x28 0xEF DUP1 0xC6 PUSH29 0xD3F90D9564736F6C634300081800336080604052348015610010576000 DUP1 REVERT JUMPDEST POP PUSH1 0x1 PUSH1 0x0 DUP2 SWAP1 SSTORE POP PUSH2 0x660 DUP1 PUSH2 0x28 PUSH1 0x0 CODECOPY PUSH1 0x0 RETURN INVALID PUSH1 0x80 PUSH1 0x40 MSTORE CALLVALUE DUP1 ISZERO PUSH2 0x10 JUMPI PUSH1 0x0 DUP1 REVERT JUMPDEST POP PUSH1 0x4 CALLDATASIZE LT PUSH2 0x2B JUMPI PUSH1 0x0 CALLDATALOAD PUSH1 0xE0 SHR DUP1 PUSH4 0xBCA8C7B5 EQ PUSH2 0x30 JUMPI JUMPDEST PUSH1 0x0 DUP1 REVERT JUMPDEST PUSH2 0x4A PUSH1 0x4 DUP1 CALLDATASIZE SUB DUP2 ADD SWAP1 PUSH2 0x45 SWAP2 SWAP1 PUSH2 0x379 JUMP JUMPDEST PUSH2 0x4C JUMP JUMPDEST STOP JUMPDEST PUSH2 0x54 PUSH2 0x171 JUMP JUMPDEST PUSH1 0x0 DUP1 DUP4 PUSH20 0xFFFFFFFFFFFFFFFFFFFFFFFFFFFFFFFFFFFFFFFF AND DUP4 PUSH1 0x40 MLOAD PUSH2 0x7C SWAP2 SWAP1 PUSH2 0x446 JUMP JUMPDEST PUSH1 0x0 PUSH1 0x40 MLOAD DUP1 DUP4 SUB DUP2 PUSH1 0x0 DUP7 GAS CALL SWAP2 POP POP RETURNDATASIZE DUP1 PUSH1 0x0 DUP2 EQ PUSH2 0xB9 JUMPI PUSH1 0x40 MLOAD SWAP2 POP PUSH1 0x1F NOT PUSH1 0x3F RETURNDATASIZE ADD AND DUP3 ADD PUSH1 0x40 MSTORE RETURNDATASIZE DUP3 MSTORE RETURNDATASIZE PUSH1 0x0 PUSH1 0x20 DUP5 ADD RETURNDATACOPY PUSH2 0xBE JUMP JUMPDEST PUSH1 0x60 SWAP2 POP JUMPDEST POP SWAP2 POP SWAP2 POP DUP2 PUSH2 0x163 JUMPI PUSH1 0x44 DUP2 MLOAD LT ISZERO PUSH2 0x10D JUMPI PUSH1 0x40 MLOAD PUSH32 0x8C379A000000000000000000000000000000000000000000000000000000000 DUP2 MSTORE PUSH1 0x4 ADD PUSH2 0x104 SWAP1 PUSH2 0x4BA JUMP JUMPDEST PUSH1 0x40 MLOAD DUP1 SWAP2 SUB SWAP1 REVERT JUMPDEST PUSH1 0x4 DUP2 ADD SWAP1 POP DUP1 DUP1 PUSH1 0x20 ADD SWAP1 MLOAD DUP2 ADD SWAP1 PUSH2 0x127 SWAP2 SWAP1 PUSH2 0x57B JUMP JUMPDEST PUSH1 0x40 MLOAD PUSH32 0x8C379A000000000000000000000000000000000000000000000000000000000 DUP2 MSTORE PUSH1 0x4 ADD PUSH2 0x15A SWAP2 SWAP1 PUSH2 0x608 JUMP JUMPDEST PUSH1 0x40 MLOAD DUP1 SWAP2 SUB SWAP1 REVERT JUMPDEST POP POP PUSH2 0x16D PUSH2 0x1B7 JUMP JUMPDEST POP POP JUMP JUMPDEST PUSH1 0x2 PUSH1 0x0 SLOAD SUB PUSH2 0x1AD JUMPI PUSH1 0x40 MLOAD PUSH32 0x3EE5AEB500000000000000000000000000000000000000000000000000000000 DUP2 MSTORE PUSH1 0x4 ADD PUSH1 0x40 MLOAD DUP1 SWAP2 SUB SWAP1 REVERT JUMPDEST PUSH1 0x2 PUSH1 0x0 DUP2 SWAP1 SSTORE POP JUMP JUMPDEST PUSH1 0x1 PUSH1 0x0 DUP2 SWAP1 SSTORE POP JUMP JUMPDEST PUSH1 0x0 PUSH1 0x40 MLOAD SWAP1 POP SWAP1 JUMP JUMPDEST PUSH1 0x0 DUP1 REVERT JUMPDEST PUSH1 0x0 DUP1 REVERT JUMPDEST PUSH1 0x0 PUSH20 0xFFFFFFFFFFFFFFFFFFFFFFFFFFFFFFFFFFFFFFFF DUP3 AND SWAP1 POP SWAP2 SWAP1 POP JUMP JUMPDEST PUSH1 0x0 PUSH2 0x200 DUP3 PUSH2 0x1D5 JUMP JUMPDEST SWAP1 POP SWAP2 SWAP1 POP JUMP JUMPDEST PUSH2 0x210 DUP2 PUSH2 0x1F5 JUMP JUMPDEST DUP2 EQ PUSH2 0x21B JUMPI PUSH1 0x0 DUP1 REVERT JUMPDEST POP JUMP JUMPDEST PUSH1 0x0 DUP2 CALLDATALOAD SWAP1 POP PUSH2 0x22D DUP2 PUSH2 0x207 JUMP JUMPDEST SWAP3 SWAP2 POP POP JUMP JUMPDEST PUSH1 0x0 DUP1 REVERT JUMPDEST PUSH1 0x0 DUP1 REVERT JUMPDEST PUSH1 0x0 PUSH1 0x1F NOT PUSH1 0x1F DUP4 ADD AND SWAP1 POP SWAP2 SWAP1 POP JUMP JUMPDEST PUSH32 0x4E487B7100000000000000000000000000000000000000000000000000000000 PUSH1 0x0 MSTORE PUSH1 0x41 PUSH1 0x4 MSTORE PUSH1 0x24 PUSH1 0x0 REVERT JUMPDEST PUSH2 0x286 DUP3 PUSH2 0x23D JUMP JUMPDEST DUP2 ADD DUP2 DUP2 LT PUSH8 0xFFFFFFFFFFFFFFFF DUP3 GT OR ISZERO PUSH2 0x2A5 JUMPI PUSH2 0x2A4 PUSH2 0x24E JUMP JUMPDEST JUMPDEST DUP1 PUSH1 0x40 MSTORE POP POP POP JUMP JUMPDEST PUSH1 0x0 PUSH2 0x2B8 PUSH2 0x1C1 JUMP JUMPDEST SWAP1 POP PUSH2 0x2C4 DUP3 DUP3 PUSH2 0x27D JUMP JUMPDEST SWAP2 SWAP1 POP JUMP JUMPDEST PUSH1 0x0 PUSH8 0xFFFFFFFFFFFFFFFF DUP3 GT ISZERO PUSH2 0x2E4 JUMPI PUSH2 0x2E3 PUSH2 0x24E JUMP JUMPDEST JUMPDEST PUSH2 0x2ED DUP3 PUSH2 0x23D JUMP JUMPDEST SWAP1 POP PUSH1 0x20 DUP2 ADD SWAP1 POP SWAP2 SWAP1 POP JUMP JUMPDEST DUP3 DUP2 DUP4 CALLDATACOPY PUSH1 0x0 DUP4 DUP4 ADD MSTORE POP POP POP JUMP JUMPDEST PUSH1 0x0 PUSH2 0x31C PUSH2 0x317 DUP5 PUSH2 0x2C9 JUMP JUMPDEST PUSH2 0x2AE JUMP JUMPDEST SWAP1 POP DUP3 DUP2 MSTORE PUSH1 0x20 DUP2 ADD DUP5 DUP5 DUP5 ADD GT ISZERO PUSH2 0x338 JUMPI PUSH2 0x337 PUSH2 0x238 JUMP JUMPDEST JUMPDEST PUSH2 0x343 DUP5 DUP3 DUP6 PUSH2 0x2FA JUMP JUMPDEST POP SWAP4 SWAP3 POP POP POP JUMP JUMPDEST PUSH1 0x0 DUP3 PUSH1 0x1F DUP4 ADD SLT PUSH2 0x360 JUMPI PUSH2 0x35F PUSH2 0x233 JUMP JUMPDEST JUMPDEST DUP2 CALLDATALOAD PUSH2 0x370 DUP5 DUP3 PUSH1 0x20 DUP7 ADD PUSH2 0x309 JUMP JUMPDEST SWAP2 POP POP SWAP3 SWAP2 POP POP JUMP JUMPDEST PUSH1 0x0 DUP1 PUSH1 0x40 DUP4 DUP6 SUB SLT ISZERO PUSH2 0x390 JUMPI PUSH2 0x38F PUSH2 0x1CB JUMP JUMPDEST JUMPDEST PUSH1 0x0 PUSH2 0x39E DUP6 DUP3 DUP7 ADD PUSH2 0x21E JUMP JUMPDEST SWAP3 POP POP PUSH1 0x20 DUP4 ADD CALLDATALOAD PUSH8 0xFFFFFFFFFFFFFFFF DUP2 GT ISZERO PUSH2 0x3BF JUMPI PUSH2 0x3BE PUSH2 0x1D0 JUMP JUMPDEST JUMPDEST PUSH2 0x3CB DUP6 DUP3 DUP7 ADD PUSH2 0x34B JUMP JUMPDEST SWAP2 POP POP SWAP3 POP SWAP3 SWAP1 POP JUMP JUMPDEST PUSH1 0x0 DUP2 MLOAD SWAP1 POP SWAP2 SWAP1 POP JUMP JUMPDEST PUSH1 0x0 DUP2 SWAP1 POP SWAP3 SWAP2 POP POP JUMP JUMPDEST PUSH1 0x0 JUMPDEST DUP4 DUP2 LT ISZERO PUSH2 0x409 JUMPI DUP1 DUP3 ADD MLOAD DUP2 DUP5 ADD MSTORE PUSH1 0x20 DUP2 ADD SWAP1 POP PUSH2 0x3EE JUMP JUMPDEST PUSH1 0x0 DUP5 DUP5 ADD MSTORE POP POP POP POP JUMP JUMPDEST PUSH1 0x0 PUSH2 0x420 DUP3 PUSH2 0x3D5 JUMP JUMPDEST PUSH2 0x42A DUP2 DUP6 PUSH2 0x3E0 JUMP JUMPDEST SWAP4 POP PUSH2 0x43A DUP2 DUP6 PUSH1 0x20 DUP7 ADD PUSH2 0x3EB JUMP JUMPDEST DUP1 DUP5 ADD SWAP2 POP POP SWAP3 SWAP2 POP POP JUMP JUMPDEST PUSH1 0x0 PUSH2 0x452 DUP3 DUP5 PUSH2 0x415 JUMP JUMPDEST SWAP2 POP DUP2 SWAP1 POP SWAP3 SWAP2 POP POP JUMP JUMPDEST PUSH1 0x0 DUP3 DUP3 MSTORE PUSH1 0x20 DUP3 ADD SWAP1 POP SWAP3 SWAP2 POP POP JUMP JUMPDEST PUSH32 0x4572726F7220696E20657865637574696F6E0000000000000000000000000000 PUSH1 0x0 DUP3 ADD MSTORE POP JUMP JUMPDEST PUSH1 0x0 PUSH2 0x4A4 PUSH1 0x12 DUP4 PUSH2 0x45D JUMP JUMPDEST SWAP2 POP PUSH2 0x4AF DUP3 PUSH2 0x46E JUMP JUMPDEST PUSH1 0x20 DUP3 ADD SWAP1 POP SWAP2 SWAP1 POP JUMP JUMPDEST PUSH1 0x0 PUSH1 0x20 DUP3 ADD SWAP1 POP DUP2 DUP2 SUB PUSH1 0x0 DUP4 ADD MSTORE PUSH2 0x4D3 DUP2 PUSH2 0x497 JUMP JUMPDEST SWAP1 POP SWAP2 SWAP1 POP JUMP JUMPDEST PUSH1 0x0 PUSH8 0xFFFFFFFFFFFFFFFF DUP3 GT ISZERO PUSH2 0x4F5 JUMPI PUSH2 0x4F4 PUSH2 0x24E JUMP JUMPDEST JUMPDEST PUSH2 0x4FE DUP3 PUSH2 0x23D JUMP JUMPDEST SWAP1 POP PUSH1 0x20 DUP2 ADD SWAP1 POP SWAP2 SWAP1 POP JUMP JUMPDEST PUSH1 0x0 PUSH2 0x51E PUSH2 0x519 DUP5 PUSH2 0x4DA JUMP JUMPDEST PUSH2 0x2AE JUMP JUMPDEST SWAP1 POP DUP3 DUP2 MSTORE PUSH1 0x20 DUP2 ADD DUP5 DUP5 DUP5 ADD GT ISZERO PUSH2 0x53A JUMPI PUSH2 0x539 PUSH2 0x238 JUMP JUMPDEST JUMPDEST PUSH2 0x545 DUP5 DUP3 DUP6 PUSH2 0x3EB JUMP JUMPDEST POP SWAP4 SWAP3 POP POP POP JUMP JUMPDEST PUSH1 0x0 DUP3 PUSH1 0x1F DUP4 ADD SLT PUSH2 0x562 JUMPI PUSH2 0x561 PUSH2 0x233 JUMP JUMPDEST JUMPDEST DUP2 MLOAD PUSH2 0x572 DUP5 DUP3 PUSH1 0x20 DUP7 ADD PUSH2 0x50B JUMP JUMPDEST SWAP2 POP POP SWAP3 SWAP2 POP POP JUMP JUMPDEST PUSH1 0x0 PUSH1 0x20 DUP3 DUP5 SUB SLT ISZERO PUSH2 0x591 JUMPI PUSH2 0x590 PUSH2 0x1CB JUMP JUMPDEST JUMPDEST PUSH1 0x0 DUP3 ADD MLOAD PUSH8 0xFFFFFFFFFFFFFFFF DUP2 GT ISZERO PUSH2 0x5AF JUMPI PUSH2 0x5AE PUSH2 0x1D0 JUMP JUMPDEST JUMPDEST PUSH2 0x5BB DUP5 DUP3 DUP6 ADD PUSH2 0x54D JUMP JUMPDEST SWAP2 POP POP SWAP3 SWAP2 POP POP JUMP JUMPDEST PUSH1 0x0 DUP2 MLOAD SWAP1 POP SWAP2 SWAP1 POP JUMP JUMPDEST PUSH1 0x0 PUSH2 0x5DA DUP3 PUSH2 0x5C4 JUMP JUMPDEST PUSH2 0x5E4 DUP2 DUP6 PUSH2 0x45D JUMP JUMPDEST SWAP4 POP PUSH2 0x5F4 DUP2 DUP6 PUSH1 0x20 DUP7 ADD PUSH2 0x3EB JUMP JUMPDEST PUSH2 0x5FD DUP2 PUSH2 0x23D JUMP JUMPDEST DUP5 ADD SWAP2 POP POP SWAP3 SWAP2 POP POP JUMP JUMPDEST PUSH1 0x0 PUSH1 0x20 DUP3 ADD SWAP1 POP DUP2 DUP2 SUB PUSH1 0x0 DUP4 ADD MSTORE PUSH2 0x622 DUP2 DUP5 PUSH2 0x5CF JUMP JUMPDEST SWAP1 POP SWAP3 SWAP2 POP POP JUMP INVALID LOG2 PUSH5 0x6970667358 0x22 SLT KECCAK256 CREATE 0x21 LOG3 0xC7 SELFDESTRUCT LOG3 0x2B DUP7 ADD DELEGATECALL EXTCODEHASH 0xF6 SUB 0x24 0xDA LOG1 0xB6 0x21 0xD4 0xCD BLOBHASH 0x22 CALLDATACOPY 0xC PUSH32 0xAD91F6E1BD88E064736F6C634300081800330000000000000000000000000000 "},"methodIdentifiers":{"addTokenPair(address,address)":"a7c87ec2","availableTokens(uint256)":"ad64d068","calldataInterface()":"93f3dd48","executeRelay((uint256,address,address,bytes,address,address,uint256,uint256,bytes32))":"267422e7","executedRelays(uint256)":"fe2ed668","getExecutedRelays()":"a23b907f","getRequestedRelays()":"747dcd08","is_destination()":"93d99d6e","owner()":"8da5cb5b","relayer()":"8406c079","removeTokenPair(address,uint256)":"49d6ec84","requestRelay(address,bytes,address,uint256)":"e897e8de","requestedRelays(uint256)":"33dd6d85","setOwner(address)":"13af4035","setRelayResult(uint256,uint256,bytes32)":"148f5933","setRelayer(address)":"6548e9bc","tokenPair(address)":"1cc6391e"}}}}}