{"contracts/Gateway.sol":{"Gateway":{"abi":[{"inputs":[{"internalType":"address","name":"relayer","type":"address"},{"internalType":"address","name":"coin","type":"address"}],"stateMutability":"nonpayable","type":"constructor"},{"inputs":[{"internalType":"address","name":"owner","type":"address"}],"name":"OwnableInvalidOwner","type":"error"},{"inputs":[{"internalType":"address","name":"account","type":"address"}],"name":"OwnableUnauthorizedAccount","type":"error"},{"anonymous":false,"inputs":[{"indexed":true,"internalType":"address","name":"previousOwner","type":"address"},{"indexed":true,"internalType":"address","name":"newOwner","type":"address"}],"name":"OwnershipTransferred","type":"event"},{"anonymous":false,"inputs":[],"name":"TokensBridged","type":"event"},{"inputs":[],"name":"coinContract","outputs":[{"internalType":"contract IERC20Bridge","name":"","type":"address"}],"stateMutability":"view","type":"function"},{"inputs":[{"components":[{"internalType":"bytes32[]","name":"merkleProof","type":"bytes32[]"},{"components":[{"internalType":"bytes32","name":"attestationType","type":"bytes32"},{"internalType":"bytes32","name":"sourceId","type":"bytes32"},{"internalType":"uint64","name":"votingRound","type":"uint64"},{"internalType":"uint64","name":"lowestUsedTimestamp","type":"uint64"},{"components":[{"internalType":"bytes32","name":"transactionHash","type":"bytes32"},{"internalType":"uint16","name":"requiredConfirmations","type":"uint16"},{"internalType":"bool","name":"provideInput","type":"bool"},{"internalType":"bool","name":"listEvents","type":"bool"},{"internalType":"uint32[]","name":"logIndices","type":"uint32[]"}],"internalType":"struct EVMTransaction.RequestBody","name":"requestBody","type":"tuple"},{"components":[{"internalType":"uint64","name":"blockNumber","type":"uint64"},{"internalType":"uint64","name":"timestamp","type":"uint64"},{"internalType":"address","name":"sourceAddress","type":"address"},{"internalType":"bool","name":"isDeployment","type":"bool"},{"internalType":"address","name":"receivingAddress","type":"address"},{"internalType":"uint256","name":"value","type":"uint256"},{"internalType":"bytes","name":"input","type":"bytes"},{"internalType":"uint8","name":"status","type":"uint8"},{"components":[{"internalType":"uint32","name":"logIndex","type":"uint32"},{"internalType":"address","name":"emitterAddress","type":"address"},{"internalType":"bytes32[]","name":"topics","type":"bytes32[]"},{"internalType":"bytes","name":"data","type":"bytes"},{"internalType":"bool","name":"removed","type":"bool"}],"internalType":"struct EVMTransaction.Event[]","name":"events","type":"tuple[]"}],"internalType":"struct EVMTransaction.ResponseBody","name":"responseBody","type":"tuple"}],"internalType":"struct EVMTransaction.Response","name":"data","type":"tuple"}],"internalType":"struct EVMTransaction.Proof","name":"transaction","type":"tuple"},{"internalType":"address","name":"tokenAddress","type":"address"},{"internalType":"address","name":"to","type":"address"},{"internalType":"uint256","name":"amount","type":"uint256"}],"name":"isBurnProofValid","outputs":[{"internalType":"bool","name":"","type":"bool"}],"stateMutability":"view","type":"function"},{"inputs":[{"components":[{"internalType":"bytes32[]","name":"merkleProof","type":"bytes32[]"},{"components":[{"internalType":"bytes32","name":"attestationType","type":"bytes32"},{"internalType":"bytes32","name":"sourceId","type":"bytes32"},{"internalType":"uint64","name":"votingRound","type":"uint64"},{"internalType":"uint64","name":"lowestUsedTimestamp","type":"uint64"},{"components":[{"internalType":"bytes32","name":"transactionHash","type":"bytes32"},{"internalType":"uint16","name":"requiredConfirmations","type":"uint16"},{"internalType":"bool","name":"provideInput","type":"bool"},{"internalType":"bool","name":"listEvents","type":"bool"},{"internalType":"uint32[]","name":"logIndices","type":"uint32[]"}],"internalType":"struct EVMTransaction.RequestBody","name":"requestBody","type":"tuple"},{"components":[{"internalType":"uint64","name":"blockNumber","type":"uint64"},{"internalType":"uint64","name":"timestamp","type":"uint64"},{"internalType":"address","name":"sourceAddress","type":"address"},{"internalType":"bool","name":"isDeployment","type":"bool"},{"internalType":"address","name":"receivingAddress","type":"address"},{"internalType":"uint256","name":"value","type":"uint256"},{"internalType":"bytes","name":"input","type":"bytes"},{"internalType":"uint8","name":"status","type":"uint8"},{"components":[{"internalType":"uint32","name":"logIndex","type":"uint32"},{"internalType":"address","name":"emitterAddress","type":"address"},{"internalType":"bytes32[]","name":"topics","type":"bytes32[]"},{"internalType":"bytes","name":"data","type":"bytes"},{"internalType":"bool","name":"removed","type":"bool"}],"internalType":"struct EVMTransaction.Event[]","name":"events","type":"tuple[]"}],"internalType":"struct EVMTransaction.ResponseBody","name":"responseBody","type":"tuple"}],"internalType":"struct EVMTransaction.Response","name":"data","type":"tuple"}],"internalType":"struct EVMTransaction.Proof","name":"transaction","type":"tuple"}],"name":"isEVMTransactionProofValid","outputs":[{"internalType":"bool","name":"","type":"bool"}],"stateMutability":"view","type":"function"},{"inputs":[],"name":"owner","outputs":[{"internalType":"address","name":"","type":"address"}],"stateMutability":"view","type":"function"},{"inputs":[{"internalType":"address","name":"to","type":"address"},{"internalType":"uint256","name":"amount","type":"uint256"},{"components":[{"internalType":"bytes32[]","name":"merkleProof","type":"bytes32[]"},{"components":[{"internalType":"bytes32","name":"attestationType","type":"bytes32"},{"internalType":"bytes32","name":"sourceId","type":"bytes32"},{"internalType":"uint64","name":"votingRound","type":"uint64"},{"internalType":"uint64","name":"lowestUsedTimestamp","type":"uint64"},{"components":[{"internalType":"bytes32","name":"transactionHash","type":"bytes32"},{"internalType":"uint16","name":"requiredConfirmations","type":"uint16"},{"internalType":"bool","name":"provideInput","type":"bool"},{"internalType":"bool","name":"listEvents","type":"bool"},{"internalType":"uint32[]","name":"logIndices","type":"uint32[]"}],"internalType":"struct EVMTransaction.RequestBody","name":"requestBody","type":"tuple"},{"components":[{"internalType":"uint64","name":"blockNumber","type":"uint64"},{"internalType":"uint64","name":"timestamp","type":"uint64"},{"internalType":"address","name":"sourceAddress","type":"address"},{"internalType":"bool","name":"isDeployment","type":"bool"},{"internalType":"address","name":"receivingAddress","type":"address"},{"internalType":"uint256","name":"value","type":"uint256"},{"internalType":"bytes","name":"input","type":"bytes"},{"internalType":"uint8","name":"status","type":"uint8"},{"components":[{"internalType":"uint32","name":"logIndex","type":"uint32"},{"internalType":"address","name":"emitterAddress","type":"address"},{"internalType":"bytes32[]","name":"topics","type":"bytes32[]"},{"internalType":"bytes","name":"data","type":"bytes"},{"internalType":"bool","name":"removed","type":"bool"}],"internalType":"struct EVMTransaction.Event[]","name":"events","type":"tuple[]"}],"internalType":"struct EVMTransaction.ResponseBody","name":"responseBody","type":"tuple"}],"internalType":"struct EVMTransaction.Response","name":"data","type":"tuple"}],"internalType":"struct EVMTransaction.Proof","name":"transaction","type":"tuple"}],"name":"receiveToken","outputs":[],"stateMutability":"nonpayable","type":"function"},{"inputs":[],"name":"relayerContract","outputs":[{"internalType":"contract IRelayer","name":"","type":"address"}],"stateMutability":"view","type":"function"},{"inputs":[],"name":"renounceOwnership","outputs":[],"stateMutability":"nonpayable","type":"function"},{"inputs":[{"internalType":"uint256","name":"amount","type":"uint256"}],"name":"sendToken","outputs":[],"stateMutability":"nonpayable","type":"function"},{"inputs":[{"internalType":"address","name":"_bridgedContract","type":"address"}],"name":"setBridgedCoinContract","outputs":[],"stateMutability":"nonpayable","type":"function"},{"inputs":[{"internalType":"address","name":"_target","type":"address"}],"name":"setRelay","outputs":[],"stateMutability":"nonpayable","type":"function"},{"inputs":[{"internalType":"address","name":"newOwner","type":"address"}],"name":"transferOwnership","outputs":[],"stateMutability":"nonpayable","type":"function"}],"evm":{"bytecode":{"linkReferences":{},"object":"60806040523480156200001157600080fd5b506040516200241438038062002414833981810160405281019062000037919062000277565b33600073ffffffffffffffffffffffffffffffffffffffff168173ffffffffffffffffffffffffffffffffffffffff1603620000ad5760006040517f1e4fbdf7000000000000000000000000000000000000000000000000000000008152600401620000a49190620002cf565b60405180910390fd5b620000be816200014960201b60201c565b5080600160006101000a81548173ffffffffffffffffffffffffffffffffffffffff021916908373ffffffffffffffffffffffffffffffffffffffff16021790555081600260006101000a81548173ffffffffffffffffffffffffffffffffffffffff021916908373ffffffffffffffffffffffffffffffffffffffff1602179055505050620002ec565b60008060009054906101000a900473ffffffffffffffffffffffffffffffffffffffff169050816000806101000a81548173ffffffffffffffffffffffffffffffffffffffff021916908373ffffffffffffffffffffffffffffffffffffffff1602179055508173ffffffffffffffffffffffffffffffffffffffff168173ffffffffffffffffffffffffffffffffffffffff167f8be0079c531659141344cd1fd0a4f28419497f9722a3daafe3b4186f6b6457e060405160405180910390a35050565b600080fd5b600073ffffffffffffffffffffffffffffffffffffffff82169050919050565b60006200023f8262000212565b9050919050565b620002518162000232565b81146200025d57600080fd5b50565b600081519050620002718162000246565b92915050565b600080604083850312156200029157620002906200020d565b5b6000620002a18582860162000260565b9250506020620002b48582860162000260565b9150509250929050565b620002c98162000232565b82525050565b6000602082019050620002e66000830184620002be565b92915050565b61211880620002fc6000396000f3fe608060405234801561001057600080fd5b50600436106100a95760003560e01c806372dd52e31161007157806372dd52e3146101505780638da5cb5b1461016e578063c56156b41461018c578063c669439e146101a8578063c805f68b146101c6578063f2fde38b146101e2576100a9565b806309f5dc91146100ae57806321f918ef146100de57806324b6e7091461010e578063437e95f11461012a578063715018a614610146575b600080fd5b6100c860048036038101906100c39190610ab0565b6101fe565b6040516100d59190610b14565b60405180910390f35b6100f860048036038101906100f39190610bc3565b610288565b6040516101059190610b14565b60405180910390f35b61012860048036038101906101239190610c46565b610462565b005b610144600480360381019061013f9190610c73565b6104ae565b005b61014e6106ad565b005b6101586106c1565b6040516101659190610cff565b60405180910390f35b6101766106e7565b6040516101839190610d29565b60405180910390f35b6101a660048036038101906101a19190610d44565b610710565b005b6101b0610811565b6040516101bd9190610dd4565b60405180910390f35b6101e060048036038101906101db9190610c46565b610837565b005b6101fc60048036038101906101f79190610c46565b610883565b005b6000610208610909565b73ffffffffffffffffffffffffffffffffffffffff166358fbe9e1836040518263ffffffff1660e01b81526004016102409190611849565b602060405180830381865afa15801561025d573d6000803e3d6000fd5b505050506040513d601f19601f820116820180604052508101906102819190611880565b9050919050565b600060018061029c575061029b856101fe565b5b6102db576040517f08c379a00000000000000000000000000000000000000000000000000000000081526004016102d29061190a565b60405180910390fd5b6000808680602001906102ee9190611939565b8060a001906102fd9190611961565b80610100019061030d919061198a565b8381811061031e5761031d6119ed565b5b90506020028101906103309190611a1c565b61033990611d00565b90507fe1b725358090db1f537294b09c773c14622b44c1bc2832d105fb28cc48f5bd908160400151600081518110610374576103736119ed565b5b6020026020010151146103bc576040517f08c379a00000000000000000000000000000000000000000000000000000000081526004016103b390611d5f565b60405180910390fd5b60008060008084606001518060200190518101906103da9190611e57565b93509350935093508973ffffffffffffffffffffffffffffffffffffffff168473ffffffffffffffffffffffffffffffffffffffff1614610450576040517f08c379a000000000000000000000000000000000000000000000000000000000815260040161044790611f42565b60405180910390fd5b60019650505050505050949350505050565b61046a610925565b80600460006101000a81548173ffffffffffffffffffffffffffffffffffffffff021916908373ffffffffffffffffffffffffffffffffffffffff16021790555050565b600160009054906101000a900473ffffffffffffffffffffffffffffffffffffffff1673ffffffffffffffffffffffffffffffffffffffff166379cc679033836040518363ffffffff1660e01b815260040161050b929190611f71565b600060405180830381600087803b15801561052557600080fd5b505af1158015610539573d6000803e3d6000fd5b5050505060003382604051602401610552929190611f71565b6040516020818303038152906040527f2a7e5818000000000000000000000000000000000000000000000000000000007bffffffffffffffffffffffffffffffffffffffffffffffffffffffff19166020820180517bffffffffffffffffffffffffffffffffffffffffffffffffffffffff83818316178352505050509050600260009054906101000a900473ffffffffffffffffffffffffffffffffffffffff1673ffffffffffffffffffffffffffffffffffffffff1663e897e8de600360009054906101000a900473ffffffffffffffffffffffffffffffffffffffff1683600160009054906101000a900473ffffffffffffffffffffffffffffffffffffffff1660006040518563ffffffff1660e01b8152600401610677949392919061202a565b600060405180830381600087803b15801561069157600080fd5b505af11580156106a5573d6000803e3d6000fd5b505050505050565b6106b5610925565b6106bf60006109ac565b565b600160009054906101000a900473ffffffffffffffffffffffffffffffffffffffff1681565b60008060009054906101000a900473ffffffffffffffffffffffffffffffffffffffff16905090565b61073e81600460009054906101000a900473ffffffffffffffffffffffffffffffffffffffff168585610288565b61077d576040517f08c379a0000000000000000000000000000000000000000000000000000000008152600401610774906120c2565b60405180910390fd5b600160009054906101000a900473ffffffffffffffffffffffffffffffffffffffff1673ffffffffffffffffffffffffffffffffffffffff166340c10f1984846040518363ffffffff1660e01b81526004016107da929190611f71565b600060405180830381600087803b1580156107f457600080fd5b505af1158015610808573d6000803e3d6000fd5b50505050505050565b600260009054906101000a900473ffffffffffffffffffffffffffffffffffffffff1681565b61083f610925565b80600360006101000a81548173ffffffffffffffffffffffffffffffffffffffff021916908373ffffffffffffffffffffffffffffffffffffffff16021790555050565b61088b610925565b600073ffffffffffffffffffffffffffffffffffffffff168173ffffffffffffffffffffffffffffffffffffffff16036108fd5760006040517f1e4fbdf70000000000000000000000000000000000000000000000000000000081526004016108f49190610d29565b60405180910390fd5b610906816109ac565b50565b600073f37ad1278917c04fb291c75a42e61710964cb57c905090565b61092d610a70565b73ffffffffffffffffffffffffffffffffffffffff1661094b6106e7565b73ffffffffffffffffffffffffffffffffffffffff16146109aa5761096e610a70565b6040517f118cdaa70000000000000000000000000000000000000000000000000000000081526004016109a19190610d29565b60405180910390fd5b565b60008060009054906101000a900473ffffffffffffffffffffffffffffffffffffffff169050816000806101000a81548173ffffffffffffffffffffffffffffffffffffffff021916908373ffffffffffffffffffffffffffffffffffffffff1602179055508173ffffffffffffffffffffffffffffffffffffffff168173ffffffffffffffffffffffffffffffffffffffff167f8be0079c531659141344cd1fd0a4f28419497f9722a3daafe3b4186f6b6457e060405160405180910390a35050565b600033905090565b6000604051905090565b600080fd5b600080fd5b600080fd5b600060408284031215610aa757610aa6610a8c565b5b81905092915050565b600060208284031215610ac657610ac5610a82565b5b600082013567ffffffffffffffff811115610ae457610ae3610a87565b5b610af084828501610a91565b91505092915050565b60008115159050919050565b610b0e81610af9565b82525050565b6000602082019050610b296000830184610b05565b92915050565b600073ffffffffffffffffffffffffffffffffffffffff82169050919050565b6000610b5a82610b2f565b9050919050565b610b6a81610b4f565b8114610b7557600080fd5b50565b600081359050610b8781610b61565b92915050565b6000819050919050565b610ba081610b8d565b8114610bab57600080fd5b50565b600081359050610bbd81610b97565b92915050565b60008060008060808587031215610bdd57610bdc610a82565b5b600085013567ffffffffffffffff811115610bfb57610bfa610a87565b5b610c0787828801610a91565b9450506020610c1887828801610b78565b9350506040610c2987828801610b78565b9250506060610c3a87828801610bae565b91505092959194509250565b600060208284031215610c5c57610c5b610a82565b5b6000610c6a84828501610b78565b91505092915050565b600060208284031215610c8957610c88610a82565b5b6000610c9784828501610bae565b91505092915050565b6000819050919050565b6000610cc5610cc0610cbb84610b2f565b610ca0565b610b2f565b9050919050565b6000610cd782610caa565b9050919050565b6000610ce982610ccc565b9050919050565b610cf981610cde565b82525050565b6000602082019050610d146000830184610cf0565b92915050565b610d2381610b4f565b82525050565b6000602082019050610d3e6000830184610d1a565b92915050565b600080600060608486031215610d5d57610d5c610a82565b5b6000610d6b86828701610b78565b9350506020610d7c86828701610bae565b925050604084013567ffffffffffffffff811115610d9d57610d9c610a87565b5b610da986828701610a91565b9150509250925092565b6000610dbe82610ccc565b9050919050565b610dce81610db3565b82525050565b6000602082019050610de96000830184610dc5565b92915050565b600080fd5b600080fd5b600080fd5b60008083356001602003843603038112610e1b57610e1a610df9565b5b83810192508235915060208301925067ffffffffffffffff821115610e4357610e42610def565b5b602082023603831315610e5957610e58610df4565b5b509250929050565b600082825260208201905092915050565b600080fd5b82818337505050565b6000610e8c8385610e61565b93507f07ffffffffffffffffffffffffffffffffffffffffffffffffffffffffffffff831115610ebf57610ebe610e72565b5b602083029250610ed0838584610e77565b82840190509392505050565b60008235600160c003833603038112610ef857610ef7610df9565b5b82810191505092915050565b6000819050919050565b610f1781610f04565b8114610f2257600080fd5b50565b600081359050610f3481610f0e565b92915050565b6000610f496020840184610f25565b905092915050565b610f5a81610f04565b82525050565b600067ffffffffffffffff82169050919050565b610f7d81610f60565b8114610f8857600080fd5b50565b600081359050610f9a81610f74565b92915050565b6000610faf6020840184610f8b565b905092915050565b610fc081610f60565b82525050565b60008235600160a003833603038112610fe257610fe1610df9565b5b82810191505092915050565b600061ffff82169050919050565b61100581610fee565b811461101057600080fd5b50565b60008135905061102281610ffc565b92915050565b60006110376020840184611013565b905092915050565b61104881610fee565b82525050565b61105781610af9565b811461106257600080fd5b50565b6000813590506110748161104e565b92915050565b60006110896020840184611065565b905092915050565b61109a81610af9565b82525050565b600080833560016020038436030381126110bd576110bc610df9565b5b83810192508235915060208301925067ffffffffffffffff8211156110e5576110e4610def565b5b6020820236038313156110fb576110fa610df4565b5b509250929050565b600082825260208201905092915050565b6000819050919050565b600063ffffffff82169050919050565b6111378161111e565b82525050565b6000611149838361112e565b60208301905092915050565b61115e8161111e565b811461116957600080fd5b50565b60008135905061117b81611155565b92915050565b6000611190602084018461116c565b905092915050565b6000602082019050919050565b60006111b18385611103565b93506111bc82611114565b8060005b858110156111f5576111d28284611181565b6111dc888261113d565b97506111e783611198565b9250506001810190506111c0565b5085925050509392505050565b600060a083016112156000840184610f3a565b6112226000860182610f51565b506112306020840184611028565b61123d602086018261103f565b5061124b604084018461107a565b6112586040860182611091565b50611266606084018461107a565b6112736060860182611091565b5061128160808401846110a0565b85830360808701526112948382846111a5565b925050508091505092915050565b600082356001610120038336030381126112bf576112be610df9565b5b82810191505092915050565b60006112da6020840184610b78565b905092915050565b6112eb81610b4f565b82525050565b60006113006020840184610bae565b905092915050565b61131181610b8d565b82525050565b6000808335600160200384360303811261133457611333610df9565b5b83810192508235915060208301925067ffffffffffffffff82111561135c5761135b610def565b5b60018202360383131561137257611371610df4565b5b509250929050565b600082825260208201905092915050565b82818337600083830152505050565b6000601f19601f8301169050919050565b60006113b7838561137a565b93506113c483858461138b565b6113cd8361139a565b840190509392505050565b600060ff82169050919050565b6113ee816113d8565b81146113f957600080fd5b50565b60008135905061140b816113e5565b92915050565b600061142060208401846113fc565b905092915050565b611431816113d8565b82525050565b6000808335600160200384360303811261145457611453610df9565b5b83810192508235915060208301925067ffffffffffffffff82111561147c5761147b610def565b5b60208202360383131561149257611491610df4565b5b509250929050565b600082825260208201905092915050565b6000819050919050565b600060a083016114c86000840184611181565b6114d5600086018261112e565b506114e360208401846112cb565b6114f060208601826112e2565b506114fe6040840184610dfe565b8583036040870152611511838284610e80565b925050506115226060840184611317565b85830360608701526115358382846113ab565b92505050611546608084018461107a565b6115536080860182611091565b508091505092915050565b600061156a83836114b5565b905092915050565b60008235600160a00383360303811261158e5761158d610df9565b5b82810191505092915050565b6000602082019050919050565b60006115b3838561149a565b9350836020840285016115c5846114ab565b8060005b878110156116095784840389526115e08284611572565b6115ea858261155e565b94506115f58361159a565b925060208a019950506001810190506115c9565b50829750879450505050509392505050565b6000610120830161162f6000840184610fa0565b61163c6000860182610fb7565b5061164a6020840184610fa0565b6116576020860182610fb7565b5061166560408401846112cb565b61167260408601826112e2565b50611680606084018461107a565b61168d6060860182611091565b5061169b60808401846112cb565b6116a860808601826112e2565b506116b660a08401846112f1565b6116c360a0860182611308565b506116d160c0840184611317565b85830360c08701526116e48382846113ab565b925050506116f560e0840184611411565b61170260e0860182611428565b50611711610100840184611437565b8583036101008701526117258382846115a7565b925050508091505092915050565b600060c083016117466000840184610f3a565b6117536000860182610f51565b506117616020840184610f3a565b61176e6020860182610f51565b5061177c6040840184610fa0565b6117896040860182610fb7565b506117976060840184610fa0565b6117a46060860182610fb7565b506117b26080840184610fc6565b84820360808601526117c48282611202565b9150506117d460a08401846112a2565b84820360a08601526117e6828261161b565b9150508091505092915050565b6000604083016118066000840184610dfe565b8583036000870152611819838284610e80565b9250505061182a6020840184610edc565b848203602086015261183c8282611733565b9150508091505092915050565b6000602082019050818103600083015261186381846117f3565b905092915050565b60008151905061187a8161104e565b92915050565b60006020828403121561189657611895610a82565b5b60006118a48482850161186b565b91505092915050565b600082825260208201905092915050565b7f496e76616c69642070726f6f6600000000000000000000000000000000000000600082015250565b60006118f4600d836118ad565b91506118ff826118be565b602082019050919050565b60006020820190508181036000830152611923816118e7565b9050919050565b600080fd5b600080fd5b600080fd5b60008235600160c0038336030381126119555761195461192a565b5b80830191505092915050565b6000823560016101200383360303811261197e5761197d61192a565b5b80830191505092915050565b600080833560016020038436030381126119a7576119a661192a565b5b80840192508235915067ffffffffffffffff8211156119c9576119c861192f565b5b6020830192506020820236038313156119e5576119e4611934565b5b509250929050565b7f4e487b7100000000000000000000000000000000000000000000000000000000600052603260045260246000fd5b60008235600160a003833603038112611a3857611a3761192a565b5b80830191505092915050565b600080fd5b7f4e487b7100000000000000000000000000000000000000000000000000000000600052604160045260246000fd5b611a818261139a565b810181811067ffffffffffffffff82111715611aa057611a9f611a49565b5b80604052505050565b6000611ab3610a78565b9050611abf8282611a78565b919050565b600080fd5b600080fd5b600067ffffffffffffffff821115611ae957611ae8611a49565b5b602082029050602081019050919050565b600080fd5b6000611b12611b0d84611ace565b611aa9565b90508083825260208201905060208402830185811115611b3557611b34611afa565b5b835b81811015611b5e5780611b4a8882610f25565b845260208401935050602081019050611b37565b5050509392505050565b600082601f830112611b7d57611b7c611ac9565b5b8135611b8d848260208601611aff565b91505092915050565b600080fd5b600067ffffffffffffffff821115611bb657611bb5611a49565b5b611bbf8261139a565b9050602081019050919050565b6000611bdf611bda84611b9b565b611aa9565b905082815260208101848484011115611bfb57611bfa611b96565b5b611c0684828561138b565b509392505050565b600082601f830112611c2357611c22611ac9565b5b8135611c33848260208601611bcc565b91505092915050565b600060a08284031215611c5257611c51611a44565b5b611c5c60a0611aa9565b90506000611c6c8482850161116c565b6000830152506020611c8084828501610b78565b602083015250604082013567ffffffffffffffff811115611ca457611ca3611ac4565b5b611cb084828501611b68565b604083015250606082013567ffffffffffffffff811115611cd457611cd3611ac4565b5b611ce084828501611c0e565b6060830152506080611cf484828501611065565b60808301525092915050565b6000611d0c3683611c3c565b9050919050565b7f496e76616c6964206576656e7400000000000000000000000000000000000000600082015250565b6000611d49600d836118ad565b9150611d5482611d13565b602082019050919050565b60006020820190508181036000830152611d7881611d3c565b9050919050565b6000611d8a82610b2f565b9050919050565b611d9a81611d7f565b8114611da557600080fd5b50565b600081519050611db781611d91565b92915050565b60005b83811015611ddb578082015181840152602081019050611dc0565b60008484015250505050565b6000611dfa611df584611b9b565b611aa9565b905082815260208101848484011115611e1657611e15611b96565b5b611e21848285611dbd565b509392505050565b600082601f830112611e3e57611e3d611ac9565b5b8151611e4e848260208601611de7565b91505092915050565b60008060008060808587031215611e7157611e70610a82565b5b6000611e7f87828801611da8565b9450506020611e908782880161186b565b935050604085015167ffffffffffffffff811115611eb157611eb0610a87565b5b611ebd87828801611e29565b925050606085015167ffffffffffffffff811115611ede57611edd610a87565b5b611eea87828801611e29565b91505092959194509250565b7f496e76616c696420746f6b656e20616464726573730000000000000000000000600082015250565b6000611f2c6015836118ad565b9150611f3782611ef6565b602082019050919050565b60006020820190508181036000830152611f5b81611f1f565b9050919050565b611f6b81610b8d565b82525050565b6000604082019050611f866000830185610d1a565b611f936020830184611f62565b9392505050565b600081519050919050565b600082825260208201905092915050565b6000611fc182611f9a565b611fcb8185611fa5565b9350611fdb818560208601611dbd565b611fe48161139a565b840191505092915050565b6000819050919050565b600061201461200f61200a84611fef565b610ca0565b610b8d565b9050919050565b61202481611ff9565b82525050565b600060808201905061203f6000830187610d1a565b81810360208301526120518186611fb6565b90506120606040830185610d1a565b61206d606083018461201b565b95945050505050565b7f496e76616c69642050726f6f6600000000000000000000000000000000000000600082015250565b60006120ac600d836118ad565b91506120b782612076565b602082019050919050565b600060208201905081810360008301526120db8161209f565b905091905056fea264697066735822122002a3f10de74a242092f3fee40e36e0578e293bb730e8512e2f4adea2a9ef247564736f6c63430008180033","opcodes":"PUSH1 0x80 PUSH1 0x40 MSTORE CALLVALUE DUP1 ISZERO PUSH3 0x11 JUMPI PUSH1 0x0 DUP1 REVERT JUMPDEST POP PUSH1 0x40 MLOAD PUSH3 0x2414 CODESIZE SUB DUP1 PUSH3 0x2414 DUP4 CODECOPY DUP2 DUP2 ADD PUSH1 0x40 MSTORE DUP2 ADD SWAP1 PUSH3 0x37 SWAP2 SWAP1 PUSH3 0x277 JUMP JUMPDEST CALLER PUSH1 0x0 PUSH20 0xFFFFFFFFFFFFFFFFFFFFFFFFFFFFFFFFFFFFFFFF AND DUP2 PUSH20 0xFFFFFFFFFFFFFFFFFFFFFFFFFFFFFFFFFFFFFFFF AND SUB PUSH3 0xAD JUMPI PUSH1 0x0 PUSH1 0x40 MLOAD PUSH32 0x1E4FBDF700000000000000000000000000000000000000000000000000000000 DUP2 MSTORE PUSH1 0x4 ADD PUSH3 0xA4 SWAP2 SWAP1 PUSH3 0x2CF JUMP JUMPDEST PUSH1 0x40 MLOAD DUP1 SWAP2 SUB SWAP1 REVERT JUMPDEST PUSH3 0xBE DUP2 PUSH3 0x149 PUSH1 0x20 SHL PUSH1 0x20 SHR JUMP JUMPDEST POP DUP1 PUSH1 0x1 PUSH1 0x0 PUSH2 0x100 EXP DUP2 SLOAD DUP2 PUSH20 0xFFFFFFFFFFFFFFFFFFFFFFFFFFFFFFFFFFFFFFFF MUL NOT AND SWAP1 DUP4 PUSH20 0xFFFFFFFFFFFFFFFFFFFFFFFFFFFFFFFFFFFFFFFF AND MUL OR SWAP1 SSTORE POP DUP2 PUSH1 0x2 PUSH1 0x0 PUSH2 0x100 EXP DUP2 SLOAD DUP2 PUSH20 0xFFFFFFFFFFFFFFFFFFFFFFFFFFFFFFFFFFFFFFFF MUL NOT AND SWAP1 DUP4 PUSH20 0xFFFFFFFFFFFFFFFFFFFFFFFFFFFFFFFFFFFFFFFF AND MUL OR SWAP1 SSTORE POP POP POP PUSH3 0x2EC JUMP JUMPDEST PUSH1 0x0 DUP1 PUSH1 0x0 SWAP1 SLOAD SWAP1 PUSH2 0x100 EXP SWAP1 DIV PUSH20 0xFFFFFFFFFFFFFFFFFFFFFFFFFFFFFFFFFFFFFFFF AND SWAP1 POP DUP2 PUSH1 0x0 DUP1 PUSH2 0x100 EXP DUP2 SLOAD DUP2 PUSH20 0xFFFFFFFFFFFFFFFFFFFFFFFFFFFFFFFFFFFFFFFF MUL NOT AND SWAP1 DUP4 PUSH20 0xFFFFFFFFFFFFFFFFFFFFFFFFFFFFFFFFFFFFFFFF AND MUL OR SWAP1 SSTORE POP DUP2 PUSH20 0xFFFFFFFFFFFFFFFFFFFFFFFFFFFFFFFFFFFFFFFF AND DUP2 PUSH20 0xFFFFFFFFFFFFFFFFFFFFFFFFFFFFFFFFFFFFFFFF AND PUSH32 0x8BE0079C531659141344CD1FD0A4F28419497F9722A3DAAFE3B4186F6B6457E0 PUSH1 0x40 MLOAD PUSH1 0x40 MLOAD DUP1 SWAP2 SUB SWAP1 LOG3 POP POP JUMP JUMPDEST PUSH1 0x0 DUP1 REVERT JUMPDEST PUSH1 0x0 PUSH20 0xFFFFFFFFFFFFFFFFFFFFFFFFFFFFFFFFFFFFFFFF DUP3 AND SWAP1 POP SWAP2 SWAP1 POP JUMP JUMPDEST PUSH1 0x0 PUSH3 0x23F DUP3 PUSH3 0x212 JUMP JUMPDEST SWAP1 POP SWAP2 SWAP1 POP JUMP JUMPDEST PUSH3 0x251 DUP2 PUSH3 0x232 JUMP JUMPDEST DUP2 EQ PUSH3 0x25D JUMPI PUSH1 0x0 DUP1 REVERT JUMPDEST POP JUMP JUMPDEST PUSH1 0x0 DUP2 MLOAD SWAP1 POP PUSH3 0x271 DUP2 PUSH3 0x246 JUMP JUMPDEST SWAP3 SWAP2 POP POP JUMP JUMPDEST PUSH1 0x0 DUP1 PUSH1 0x40 DUP4 DUP6 SUB SLT ISZERO PUSH3 0x291 JUMPI PUSH3 0x290 PUSH3 0x20D JUMP JUMPDEST JUMPDEST PUSH1 0x0 PUSH3 0x2A1 DUP6 DUP3 DUP7 ADD PUSH3 0x260 JUMP JUMPDEST SWAP3 POP POP PUSH1 0x20 PUSH3 0x2B4 DUP6 DUP3 DUP7 ADD PUSH3 0x260 JUMP JUMPDEST SWAP2 POP POP SWAP3 POP SWAP3 SWAP1 POP JUMP JUMPDEST PUSH3 0x2C9 DUP2 PUSH3 0x232 JUMP JUMPDEST DUP3 MSTORE POP POP JUMP JUMPDEST PUSH1 0x0 PUSH1 0x20 DUP3 ADD SWAP1 POP PUSH3 0x2E6 PUSH1 0x0 DUP4 ADD DUP5 PUSH3 0x2BE JUMP JUMPDEST SWAP3 SWAP2 POP POP JUMP JUMPDEST PUSH2 0x2118 DUP1 PUSH3 0x2FC PUSH1 0x0 CODECOPY PUSH1 0x0 RETURN INVALID PUSH1 0x80 PUSH1 0x40 MSTORE CALLVALUE DUP1 ISZERO PUSH2 0x10 JUMPI PUSH1 0x0 DUP1 REVERT JUMPDEST POP PUSH1 0x4 CALLDATASIZE LT PUSH2 0xA9 JUMPI PUSH1 0x0 CALLDATALOAD PUSH1 0xE0 SHR DUP1 PUSH4 0x72DD52E3 GT PUSH2 0x71 JUMPI DUP1 PUSH4 0x72DD52E3 EQ PUSH2 0x150 JUMPI DUP1 PUSH4 0x8DA5CB5B EQ PUSH2 0x16E JUMPI DUP1 PUSH4 0xC56156B4 EQ PUSH2 0x18C JUMPI DUP1 PUSH4 0xC669439E EQ PUSH2 0x1A8 JUMPI DUP1 PUSH4 0xC805F68B EQ PUSH2 0x1C6 JUMPI DUP1 PUSH4 0xF2FDE38B EQ PUSH2 0x1E2 JUMPI PUSH2 0xA9 JUMP JUMPDEST DUP1 PUSH4 0x9F5DC91 EQ PUSH2 0xAE JUMPI DUP1 PUSH4 0x21F918EF EQ PUSH2 0xDE JUMPI DUP1 PUSH4 0x24B6E709 EQ PUSH2 0x10E JUMPI DUP1 PUSH4 0x437E95F1 EQ PUSH2 0x12A JUMPI DUP1 PUSH4 0x715018A6 EQ PUSH2 0x146 JUMPI JUMPDEST PUSH1 0x0 DUP1 REVERT JUMPDEST PUSH2 0xC8 PUSH1 0x4 DUP1 CALLDATASIZE SUB DUP2 ADD SWAP1 PUSH2 0xC3 SWAP2 SWAP1 PUSH2 0xAB0 JUMP JUMPDEST PUSH2 0x1FE JUMP JUMPDEST PUSH1 0x40 MLOAD PUSH2 0xD5 SWAP2 SWAP1 PUSH2 0xB14 JUMP JUMPDEST PUSH1 0x40 MLOAD DUP1 SWAP2 SUB SWAP1 RETURN JUMPDEST PUSH2 0xF8 PUSH1 0x4 DUP1 CALLDATASIZE SUB DUP2 ADD SWAP1 PUSH2 0xF3 SWAP2 SWAP1 PUSH2 0xBC3 JUMP JUMPDEST PUSH2 0x288 JUMP JUMPDEST PUSH1 0x40 MLOAD PUSH2 0x105 SWAP2 SWAP1 PUSH2 0xB14 JUMP JUMPDEST PUSH1 0x40 MLOAD DUP1 SWAP2 SUB SWAP1 RETURN JUMPDEST PUSH2 0x128 PUSH1 0x4 DUP1 CALLDATASIZE SUB DUP2 ADD SWAP1 PUSH2 0x123 SWAP2 SWAP1 PUSH2 0xC46 JUMP JUMPDEST PUSH2 0x462 JUMP JUMPDEST STOP JUMPDEST PUSH2 0x144 PUSH1 0x4 DUP1 CALLDATASIZE SUB DUP2 ADD SWAP1 PUSH2 0x13F SWAP2 SWAP1 PUSH2 0xC73 JUMP JUMPDEST PUSH2 0x4AE JUMP JUMPDEST STOP JUMPDEST PUSH2 0x14E PUSH2 0x6AD JUMP JUMPDEST STOP JUMPDEST PUSH2 0x158 PUSH2 0x6C1 JUMP JUMPDEST PUSH1 0x40 MLOAD PUSH2 0x165 SWAP2 SWAP1 PUSH2 0xCFF JUMP JUMPDEST PUSH1 0x40 MLOAD DUP1 SWAP2 SUB SWAP1 RETURN JUMPDEST PUSH2 0x176 PUSH2 0x6E7 JUMP JUMPDEST PUSH1 0x40 MLOAD PUSH2 0x183 SWAP2 SWAP1 PUSH2 0xD29 JUMP JUMPDEST PUSH1 0x40 MLOAD DUP1 SWAP2 SUB SWAP1 RETURN JUMPDEST PUSH2 0x1A6 PUSH1 0x4 DUP1 CALLDATASIZE SUB DUP2 ADD SWAP1 PUSH2 0x1A1 SWAP2 SWAP1 PUSH2 0xD44 JUMP JUMPDEST PUSH2 0x710 JUMP JUMPDEST STOP JUMPDEST PUSH2 0x1B0 PUSH2 0x811 JUMP JUMPDEST PUSH1 0x40 MLOAD PUSH2 0x1BD SWAP2 SWAP1 PUSH2 0xDD4 JUMP JUMPDEST PUSH1 0x40 MLOAD DUP1 SWAP2 SUB SWAP1 RETURN JUMPDEST PUSH2 0x1E0 PUSH1 0x4 DUP1 CALLDATASIZE SUB DUP2 ADD SWAP1 PUSH2 0x1DB SWAP2 SWAP1 PUSH2 0xC46 JUMP JUMPDEST PUSH2 0x837 JUMP JUMPDEST STOP JUMPDEST PUSH2 0x1FC PUSH1 0x4 DUP1 CALLDATASIZE SUB DUP2 ADD SWAP1 PUSH2 0x1F7 SWAP2 SWAP1 PUSH2 0xC46 JUMP JUMPDEST PUSH2 0x883 JUMP JUMPDEST STOP JUMPDEST PUSH1 0x0 PUSH2 0x208 PUSH2 0x909 JUMP JUMPDEST PUSH20 0xFFFFFFFFFFFFFFFFFFFFFFFFFFFFFFFFFFFFFFFF AND PUSH4 0x58FBE9E1 DUP4 PUSH1 0x40 MLOAD DUP3 PUSH4 0xFFFFFFFF AND PUSH1 0xE0 SHL DUP2 MSTORE PUSH1 0x4 ADD PUSH2 0x240 SWAP2 SWAP1 PUSH2 0x1849 JUMP JUMPDEST PUSH1 0x20 PUSH1 0x40 MLOAD DUP1 DUP4 SUB DUP2 DUP7 GAS STATICCALL ISZERO DUP1 ISZERO PUSH2 0x25D JUMPI RETURNDATASIZE PUSH1 0x0 DUP1 RETURNDATACOPY RETURNDATASIZE PUSH1 0x0 REVERT JUMPDEST POP POP POP POP PUSH1 0x40 MLOAD RETURNDATASIZE PUSH1 0x1F NOT PUSH1 0x1F DUP3 ADD AND DUP3 ADD DUP1 PUSH1 0x40 MSTORE POP DUP2 ADD SWAP1 PUSH2 0x281 SWAP2 SWAP1 PUSH2 0x1880 JUMP JUMPDEST SWAP1 POP SWAP2 SWAP1 POP JUMP JUMPDEST PUSH1 0x0 PUSH1 0x1 DUP1 PUSH2 0x29C JUMPI POP PUSH2 0x29B DUP6 PUSH2 0x1FE JUMP JUMPDEST JUMPDEST PUSH2 0x2DB JUMPI PUSH1 0x40 MLOAD PUSH32 0x8C379A000000000000000000000000000000000000000000000000000000000 DUP2 MSTORE PUSH1 0x4 ADD PUSH2 0x2D2 SWAP1 PUSH2 0x190A JUMP JUMPDEST PUSH1 0x40 MLOAD DUP1 SWAP2 SUB SWAP1 REVERT JUMPDEST PUSH1 0x0 DUP1 DUP7 DUP1 PUSH1 0x20 ADD SWAP1 PUSH2 0x2EE SWAP2 SWAP1 PUSH2 0x1939 JUMP JUMPDEST DUP1 PUSH1 0xA0 ADD SWAP1 PUSH2 0x2FD SWAP2 SWAP1 PUSH2 0x1961 JUMP JUMPDEST DUP1 PUSH2 0x100 ADD SWAP1 PUSH2 0x30D SWAP2 SWAP1 PUSH2 0x198A JUMP JUMPDEST DUP4 DUP2 DUP2 LT PUSH2 0x31E JUMPI PUSH2 0x31D PUSH2 0x19ED JUMP JUMPDEST JUMPDEST SWAP1 POP PUSH1 0x20 MUL DUP2 ADD SWAP1 PUSH2 0x330 SWAP2 SWAP1 PUSH2 0x1A1C JUMP JUMPDEST PUSH2 0x339 SWAP1 PUSH2 0x1D00 JUMP JUMPDEST SWAP1 POP PUSH32 0xE1B725358090DB1F537294B09C773C14622B44C1BC2832D105FB28CC48F5BD90 DUP2 PUSH1 0x40 ADD MLOAD PUSH1 0x0 DUP2 MLOAD DUP2 LT PUSH2 0x374 JUMPI PUSH2 0x373 PUSH2 0x19ED JUMP JUMPDEST JUMPDEST PUSH1 0x20 MUL PUSH1 0x20 ADD ADD MLOAD EQ PUSH2 0x3BC JUMPI PUSH1 0x40 MLOAD PUSH32 0x8C379A000000000000000000000000000000000000000000000000000000000 DUP2 MSTORE PUSH1 0x4 ADD PUSH2 0x3B3 SWAP1 PUSH2 0x1D5F JUMP JUMPDEST PUSH1 0x40 MLOAD DUP1 SWAP2 SUB SWAP1 REVERT JUMPDEST PUSH1 0x0 DUP1 PUSH1 0x0 DUP1 DUP5 PUSH1 0x60 ADD MLOAD DUP1 PUSH1 0x20 ADD SWAP1 MLOAD DUP2 ADD SWAP1 PUSH2 0x3DA SWAP2 SWAP1 PUSH2 0x1E57 JUMP JUMPDEST SWAP4 POP SWAP4 POP SWAP4 POP SWAP4 POP DUP10 PUSH20 0xFFFFFFFFFFFFFFFFFFFFFFFFFFFFFFFFFFFFFFFF AND DUP5 PUSH20 0xFFFFFFFFFFFFFFFFFFFFFFFFFFFFFFFFFFFFFFFF AND EQ PUSH2 0x450 JUMPI PUSH1 0x40 MLOAD PUSH32 0x8C379A000000000000000000000000000000000000000000000000000000000 DUP2 MSTORE PUSH1 0x4 ADD PUSH2 0x447 SWAP1 PUSH2 0x1F42 JUMP JUMPDEST PUSH1 0x40 MLOAD DUP1 SWAP2 SUB SWAP1 REVERT JUMPDEST PUSH1 0x1 SWAP7 POP POP POP POP POP POP POP SWAP5 SWAP4 POP POP POP POP JUMP JUMPDEST PUSH2 0x46A PUSH2 0x925 JUMP JUMPDEST DUP1 PUSH1 0x4 PUSH1 0x0 PUSH2 0x100 EXP DUP2 SLOAD DUP2 PUSH20 0xFFFFFFFFFFFFFFFFFFFFFFFFFFFFFFFFFFFFFFFF MUL NOT AND SWAP1 DUP4 PUSH20 0xFFFFFFFFFFFFFFFFFFFFFFFFFFFFFFFFFFFFFFFF AND MUL OR SWAP1 SSTORE POP POP JUMP JUMPDEST PUSH1 0x1 PUSH1 0x0 SWAP1 SLOAD SWAP1 PUSH2 0x100 EXP SWAP1 DIV PUSH20 0xFFFFFFFFFFFFFFFFFFFFFFFFFFFFFFFFFFFFFFFF AND PUSH20 0xFFFFFFFFFFFFFFFFFFFFFFFFFFFFFFFFFFFFFFFF AND PUSH4 0x79CC6790 CALLER DUP4 PUSH1 0x40 MLOAD DUP4 PUSH4 0xFFFFFFFF AND PUSH1 0xE0 SHL DUP2 MSTORE PUSH1 0x4 ADD PUSH2 0x50B SWAP3 SWAP2 SWAP1 PUSH2 0x1F71 JUMP JUMPDEST PUSH1 0x0 PUSH1 0x40 MLOAD DUP1 DUP4 SUB DUP2 PUSH1 0x0 DUP8 DUP1 EXTCODESIZE ISZERO DUP1 ISZERO PUSH2 0x525 JUMPI PUSH1 0x0 DUP1 REVERT JUMPDEST POP GAS CALL ISZERO DUP1 ISZERO PUSH2 0x539 JUMPI RETURNDATASIZE PUSH1 0x0 DUP1 RETURNDATACOPY RETURNDATASIZE PUSH1 0x0 REVERT JUMPDEST POP POP POP POP PUSH1 0x0 CALLER DUP3 PUSH1 0x40 MLOAD PUSH1 0x24 ADD PUSH2 0x552 SWAP3 SWAP2 SWAP1 PUSH2 0x1F71 JUMP JUMPDEST PUSH1 0x40 MLOAD PUSH1 0x20 DUP2 DUP4 SUB SUB DUP2 MSTORE SWAP1 PUSH1 0x40 MSTORE PUSH32 0x2A7E581800000000000000000000000000000000000000000000000000000000 PUSH28 0xFFFFFFFFFFFFFFFFFFFFFFFFFFFFFFFFFFFFFFFFFFFFFFFFFFFFFFFF NOT AND PUSH1 0x20 DUP3 ADD DUP1 MLOAD PUSH28 0xFFFFFFFFFFFFFFFFFFFFFFFFFFFFFFFFFFFFFFFFFFFFFFFFFFFFFFFF DUP4 DUP2 DUP4 AND OR DUP4 MSTORE POP POP POP POP SWAP1 POP PUSH1 0x2 PUSH1 0x0 SWAP1 SLOAD SWAP1 PUSH2 0x100 EXP SWAP1 DIV PUSH20 0xFFFFFFFFFFFFFFFFFFFFFFFFFFFFFFFFFFFFFFFF AND PUSH20 0xFFFFFFFFFFFFFFFFFFFFFFFFFFFFFFFFFFFFFFFF AND PUSH4 0xE897E8DE PUSH1 0x3 PUSH1 0x0 SWAP1 SLOAD SWAP1 PUSH2 0x100 EXP SWAP1 DIV PUSH20 0xFFFFFFFFFFFFFFFFFFFFFFFFFFFFFFFFFFFFFFFF AND DUP4 PUSH1 0x1 PUSH1 0x0 SWAP1 SLOAD SWAP1 PUSH2 0x100 EXP SWAP1 DIV PUSH20 0xFFFFFFFFFFFFFFFFFFFFFFFFFFFFFFFFFFFFFFFF AND PUSH1 0x0 PUSH1 0x40 MLOAD DUP6 PUSH4 0xFFFFFFFF AND PUSH1 0xE0 SHL DUP2 MSTORE PUSH1 0x4 ADD PUSH2 0x677 SWAP5 SWAP4 SWAP3 SWAP2 SWAP1 PUSH2 0x202A JUMP JUMPDEST PUSH1 0x0 PUSH1 0x40 MLOAD DUP1 DUP4 SUB DUP2 PUSH1 0x0 DUP8 DUP1 EXTCODESIZE ISZERO DUP1 ISZERO PUSH2 0x691 JUMPI PUSH1 0x0 DUP1 REVERT JUMPDEST POP GAS CALL ISZERO DUP1 ISZERO PUSH2 0x6A5 JUMPI RETURNDATASIZE PUSH1 0x0 DUP1 RETURNDATACOPY RETURNDATASIZE PUSH1 0x0 REVERT JUMPDEST POP POP POP POP POP POP JUMP JUMPDEST PUSH2 0x6B5 PUSH2 0x925 JUMP JUMPDEST PUSH2 0x6BF PUSH1 0x0 PUSH2 0x9AC JUMP JUMPDEST JUMP JUMPDEST PUSH1 0x1 PUSH1 0x0 SWAP1 SLOAD SWAP1 PUSH2 0x100 EXP SWAP1 DIV PUSH20 0xFFFFFFFFFFFFFFFFFFFFFFFFFFFFFFFFFFFFFFFF AND DUP2 JUMP JUMPDEST PUSH1 0x0 DUP1 PUSH1 0x0 SWAP1 SLOAD SWAP1 PUSH2 0x100 EXP SWAP1 DIV PUSH20 0xFFFFFFFFFFFFFFFFFFFFFFFFFFFFFFFFFFFFFFFF AND SWAP1 POP SWAP1 JUMP JUMPDEST PUSH2 0x73E DUP2 PUSH1 0x4 PUSH1 0x0 SWAP1 SLOAD SWAP1 PUSH2 0x100 EXP SWAP1 DIV PUSH20 0xFFFFFFFFFFFFFFFFFFFFFFFFFFFFFFFFFFFFFFFF AND DUP6 DUP6 PUSH2 0x288 JUMP JUMPDEST PUSH2 0x77D JUMPI PUSH1 0x40 MLOAD PUSH32 0x8C379A000000000000000000000000000000000000000000000000000000000 DUP2 MSTORE PUSH1 0x4 ADD PUSH2 0x774 SWAP1 PUSH2 0x20C2 JUMP JUMPDEST PUSH1 0x40 MLOAD DUP1 SWAP2 SUB SWAP1 REVERT JUMPDEST PUSH1 0x1 PUSH1 0x0 SWAP1 SLOAD SWAP1 PUSH2 0x100 EXP SWAP1 DIV PUSH20 0xFFFFFFFFFFFFFFFFFFFFFFFFFFFFFFFFFFFFFFFF AND PUSH20 0xFFFFFFFFFFFFFFFFFFFFFFFFFFFFFFFFFFFFFFFF AND PUSH4 0x40C10F19 DUP5 DUP5 PUSH1 0x40 MLOAD DUP4 PUSH4 0xFFFFFFFF AND PUSH1 0xE0 SHL DUP2 MSTORE PUSH1 0x4 ADD PUSH2 0x7DA SWAP3 SWAP2 SWAP1 PUSH2 0x1F71 JUMP JUMPDEST PUSH1 0x0 PUSH1 0x40 MLOAD DUP1 DUP4 SUB DUP2 PUSH1 0x0 DUP8 DUP1 EXTCODESIZE ISZERO DUP1 ISZERO PUSH2 0x7F4 JUMPI PUSH1 0x0 DUP1 REVERT JUMPDEST POP GAS CALL ISZERO DUP1 ISZERO PUSH2 0x808 JUMPI RETURNDATASIZE PUSH1 0x0 DUP1 RETURNDATACOPY RETURNDATASIZE PUSH1 0x0 REVERT JUMPDEST POP POP POP POP POP POP POP JUMP JUMPDEST PUSH1 0x2 PUSH1 0x0 SWAP1 SLOAD SWAP1 PUSH2 0x100 EXP SWAP1 DIV PUSH20 0xFFFFFFFFFFFFFFFFFFFFFFFFFFFFFFFFFFFFFFFF AND DUP2 JUMP JUMPDEST PUSH2 0x83F PUSH2 0x925 JUMP JUMPDEST DUP1 PUSH1 0x3 PUSH1 0x0 PUSH2 0x100 EXP DUP2 SLOAD DUP2 PUSH20 0xFFFFFFFFFFFFFFFFFFFFFFFFFFFFFFFFFFFFFFFF MUL NOT AND SWAP1 DUP4 PUSH20 0xFFFFFFFFFFFFFFFFFFFFFFFFFFFFFFFFFFFFFFFF AND MUL OR SWAP1 SSTORE POP POP JUMP JUMPDEST PUSH2 0x88B PUSH2 0x925 JUMP JUMPDEST PUSH1 0x0 PUSH20 0xFFFFFFFFFFFFFFFFFFFFFFFFFFFFFFFFFFFFFFFF AND DUP2 PUSH20 0xFFFFFFFFFFFFFFFFFFFFFFFFFFFFFFFFFFFFFFFF AND SUB PUSH2 0x8FD JUMPI PUSH1 0x0 PUSH1 0x40 MLOAD PUSH32 0x1E4FBDF700000000000000000000000000000000000000000000000000000000 DUP2 MSTORE PUSH1 0x4 ADD PUSH2 0x8F4 SWAP2 SWAP1 PUSH2 0xD29 JUMP JUMPDEST PUSH1 0x40 MLOAD DUP1 SWAP2 SUB SWAP1 REVERT JUMPDEST PUSH2 0x906 DUP2 PUSH2 0x9AC JUMP JUMPDEST POP JUMP JUMPDEST PUSH1 0x0 PUSH20 0xF37AD1278917C04FB291C75A42E61710964CB57C SWAP1 POP SWAP1 JUMP JUMPDEST PUSH2 0x92D PUSH2 0xA70 JUMP JUMPDEST PUSH20 0xFFFFFFFFFFFFFFFFFFFFFFFFFFFFFFFFFFFFFFFF AND PUSH2 0x94B PUSH2 0x6E7 JUMP JUMPDEST PUSH20 0xFFFFFFFFFFFFFFFFFFFFFFFFFFFFFFFFFFFFFFFF AND EQ PUSH2 0x9AA JUMPI PUSH2 0x96E PUSH2 0xA70 JUMP JUMPDEST PUSH1 0x40 MLOAD PUSH32 0x118CDAA700000000000000000000000000000000000000000000000000000000 DUP2 MSTORE PUSH1 0x4 ADD PUSH2 0x9A1 SWAP2 SWAP1 PUSH2 0xD29 JUMP JUMPDEST PUSH1 0x40 MLOAD DUP1 SWAP2 SUB SWAP1 REVERT JUMPDEST JUMP JUMPDEST PUSH1 0x0 DUP1 PUSH1 0x0 SWAP1 SLOAD SWAP1 PUSH2 0x100 EXP SWAP1 DIV PUSH20 0xFFFFFFFFFFFFFFFFFFFFFFFFFFFFFFFFFFFFFFFF AND SWAP1 POP DUP2 PUSH1 0x0 DUP1 PUSH2 0x100 EXP DUP2 SLOAD DUP2 PUSH20 0xFFFFFFFFFFFFFFFFFFFFFFFFFFFFFFFFFFFFFFFF MUL NOT AND SWAP1 DUP4 PUSH20 0xFFFFFFFFFFFFFFFFFFFFFFFFFFFFFFFFFFFFFFFF AND MUL OR SWAP1 SSTORE POP DUP2 PUSH20 0xFFFFFFFFFFFFFFFFFFFFFFFFFFFFFFFFFFFFFFFF AND DUP2 PUSH20 0xFFFFFFFFFFFFFFFFFFFFFFFFFFFFFFFFFFFFFFFF AND PUSH32 0x8BE0079C531659141344CD1FD0A4F28419497F9722A3DAAFE3B4186F6B6457E0 PUSH1 0x40 MLOAD PUSH1 0x40 MLOAD DUP1 SWAP2 SUB SWAP1 LOG3 POP POP JUMP JUMPDEST PUSH1 0x0 CALLER SWAP1 POP SWAP1 JUMP JUMPDEST PUSH1 0x0 PUSH1 0x40 MLOAD SWAP1 POP SWAP1 JUMP JUMPDEST PUSH1 0x0 DUP1 REVERT JUMPDEST PUSH1 0x0 DUP1 REVERT JUMPDEST PUSH1 0x0 DUP1 REVERT JUMPDEST PUSH1 0x0 PUSH1 0x40 DUP3 DUP5 SUB SLT ISZERO PUSH2 0xAA7 JUMPI PUSH2 0xAA6 PUSH2 0xA8C JUMP JUMPDEST JUMPDEST DUP2 SWAP1 POP SWAP3 SWAP2 POP POP JUMP JUMPDEST PUSH1 0x0 PUSH1 0x20 DUP3 DUP5 SUB SLT ISZERO PUSH2 0xAC6 JUMPI PUSH2 0xAC5 PUSH2 0xA82 JUMP JUMPDEST JUMPDEST PUSH1 0x0 DUP3 ADD CALLDATALOAD PUSH8 0xFFFFFFFFFFFFFFFF DUP2 GT ISZERO PUSH2 0xAE4 JUMPI PUSH2 0xAE3 PUSH2 0xA87 JUMP JUMPDEST JUMPDEST PUSH2 0xAF0 DUP5 DUP3 DUP6 ADD PUSH2 0xA91 JUMP JUMPDEST SWAP2 POP POP SWAP3 SWAP2 POP POP JUMP JUMPDEST PUSH1 0x0 DUP2 ISZERO ISZERO SWAP1 POP SWAP2 SWAP1 POP JUMP JUMPDEST PUSH2 0xB0E DUP2 PUSH2 0xAF9 JUMP JUMPDEST DUP3 MSTORE POP POP JUMP JUMPDEST PUSH1 0x0 PUSH1 0x20 DUP3 ADD SWAP1 POP PUSH2 0xB29 PUSH1 0x0 DUP4 ADD DUP5 PUSH2 0xB05 JUMP JUMPDEST SWAP3 SWAP2 POP POP JUMP JUMPDEST PUSH1 0x0 PUSH20 0xFFFFFFFFFFFFFFFFFFFFFFFFFFFFFFFFFFFFFFFF DUP3 AND SWAP1 POP SWAP2 SWAP1 POP JUMP JUMPDEST PUSH1 0x0 PUSH2 0xB5A DUP3 PUSH2 0xB2F JUMP JUMPDEST SWAP1 POP SWAP2 SWAP1 POP JUMP JUMPDEST PUSH2 0xB6A DUP2 PUSH2 0xB4F JUMP JUMPDEST DUP2 EQ PUSH2 0xB75 JUMPI PUSH1 0x0 DUP1 REVERT JUMPDEST POP JUMP JUMPDEST PUSH1 0x0 DUP2 CALLDATALOAD SWAP1 POP PUSH2 0xB87 DUP2 PUSH2 0xB61 JUMP JUMPDEST SWAP3 SWAP2 POP POP JUMP JUMPDEST PUSH1 0x0 DUP2 SWAP1 POP SWAP2 SWAP1 POP JUMP JUMPDEST PUSH2 0xBA0 DUP2 PUSH2 0xB8D JUMP JUMPDEST DUP2 EQ PUSH2 0xBAB JUMPI PUSH1 0x0 DUP1 REVERT JUMPDEST POP JUMP JUMPDEST PUSH1 0x0 DUP2 CALLDATALOAD SWAP1 POP PUSH2 0xBBD DUP2 PUSH2 0xB97 JUMP JUMPDEST SWAP3 SWAP2 POP POP JUMP JUMPDEST PUSH1 0x0 DUP1 PUSH1 0x0 DUP1 PUSH1 0x80 DUP6 DUP8 SUB SLT ISZERO PUSH2 0xBDD JUMPI PUSH2 0xBDC PUSH2 0xA82 JUMP JUMPDEST JUMPDEST PUSH1 0x0 DUP6 ADD CALLDATALOAD PUSH8 0xFFFFFFFFFFFFFFFF DUP2 GT ISZERO PUSH2 0xBFB JUMPI PUSH2 0xBFA PUSH2 0xA87 JUMP JUMPDEST JUMPDEST PUSH2 0xC07 DUP8 DUP3 DUP9 ADD PUSH2 0xA91 JUMP JUMPDEST SWAP5 POP POP PUSH1 0x20 PUSH2 0xC18 DUP8 DUP3 DUP9 ADD PUSH2 0xB78 JUMP JUMPDEST SWAP4 POP POP PUSH1 0x40 PUSH2 0xC29 DUP8 DUP3 DUP9 ADD PUSH2 0xB78 JUMP JUMPDEST SWAP3 POP POP PUSH1 0x60 PUSH2 0xC3A DUP8 DUP3 DUP9 ADD PUSH2 0xBAE JUMP JUMPDEST SWAP2 POP POP SWAP3 SWAP6 SWAP2 SWAP5 POP SWAP3 POP JUMP JUMPDEST PUSH1 0x0 PUSH1 0x20 DUP3 DUP5 SUB SLT ISZERO PUSH2 0xC5C JUMPI PUSH2 0xC5B PUSH2 0xA82 JUMP JUMPDEST JUMPDEST PUSH1 0x0 PUSH2 0xC6A DUP5 DUP3 DUP6 ADD PUSH2 0xB78 JUMP JUMPDEST SWAP2 POP POP SWAP3 SWAP2 POP POP JUMP JUMPDEST PUSH1 0x0 PUSH1 0x20 DUP3 DUP5 SUB SLT ISZERO PUSH2 0xC89 JUMPI PUSH2 0xC88 PUSH2 0xA82 JUMP JUMPDEST JUMPDEST PUSH1 0x0 PUSH2 0xC97 DUP5 DUP3 DUP6 ADD PUSH2 0xBAE JUMP JUMPDEST SWAP2 POP POP SWAP3 SWAP2 POP POP JUMP JUMPDEST PUSH1 0x0 DUP2 SWAP1 POP SWAP2 SWAP1 POP JUMP JUMPDEST PUSH1 0x0 PUSH2 0xCC5 PUSH2 0xCC0 PUSH2 0xCBB DUP5 PUSH2 0xB2F JUMP JUMPDEST PUSH2 0xCA0 JUMP JUMPDEST PUSH2 0xB2F JUMP JUMPDEST SWAP1 POP SWAP2 SWAP1 POP JUMP JUMPDEST PUSH1 0x0 PUSH2 0xCD7 DUP3 PUSH2 0xCAA JUMP JUMPDEST SWAP1 POP SWAP2 SWAP1 POP JUMP JUMPDEST PUSH1 0x0 PUSH2 0xCE9 DUP3 PUSH2 0xCCC JUMP JUMPDEST SWAP1 POP SWAP2 SWAP1 POP JUMP JUMPDEST PUSH2 0xCF9 DUP2 PUSH2 0xCDE JUMP JUMPDEST DUP3 MSTORE POP POP JUMP JUMPDEST PUSH1 0x0 PUSH1 0x20 DUP3 ADD SWAP1 POP PUSH2 0xD14 PUSH1 0x0 DUP4 ADD DUP5 PUSH2 0xCF0 JUMP JUMPDEST SWAP3 SWAP2 POP POP JUMP JUMPDEST PUSH2 0xD23 DUP2 PUSH2 0xB4F JUMP JUMPDEST DUP3 MSTORE POP POP JUMP JUMPDEST PUSH1 0x0 PUSH1 0x20 DUP3 ADD SWAP1 POP PUSH2 0xD3E PUSH1 0x0 DUP4 ADD DUP5 PUSH2 0xD1A JUMP JUMPDEST SWAP3 SWAP2 POP POP JUMP JUMPDEST PUSH1 0x0 DUP1 PUSH1 0x0 PUSH1 0x60 DUP5 DUP7 SUB SLT ISZERO PUSH2 0xD5D JUMPI PUSH2 0xD5C PUSH2 0xA82 JUMP JUMPDEST JUMPDEST PUSH1 0x0 PUSH2 0xD6B DUP7 DUP3 DUP8 ADD PUSH2 0xB78 JUMP JUMPDEST SWAP4 POP POP PUSH1 0x20 PUSH2 0xD7C DUP7 DUP3 DUP8 ADD PUSH2 0xBAE JUMP JUMPDEST SWAP3 POP POP PUSH1 0x40 DUP5 ADD CALLDATALOAD PUSH8 0xFFFFFFFFFFFFFFFF DUP2 GT ISZERO PUSH2 0xD9D JUMPI PUSH2 0xD9C PUSH2 0xA87 JUMP JUMPDEST JUMPDEST PUSH2 0xDA9 DUP7 DUP3 DUP8 ADD PUSH2 0xA91 JUMP JUMPDEST SWAP2 POP POP SWAP3 POP SWAP3 POP SWAP3 JUMP JUMPDEST PUSH1 0x0 PUSH2 0xDBE DUP3 PUSH2 0xCCC JUMP JUMPDEST SWAP1 POP SWAP2 SWAP1 POP JUMP JUMPDEST PUSH2 0xDCE DUP2 PUSH2 0xDB3 JUMP JUMPDEST DUP3 MSTORE POP POP JUMP JUMPDEST PUSH1 0x0 PUSH1 0x20 DUP3 ADD SWAP1 POP PUSH2 0xDE9 PUSH1 0x0 DUP4 ADD DUP5 PUSH2 0xDC5 JUMP JUMPDEST SWAP3 SWAP2 POP POP JUMP JUMPDEST PUSH1 0x0 DUP1 REVERT JUMPDEST PUSH1 0x0 DUP1 REVERT JUMPDEST PUSH1 0x0 DUP1 REVERT JUMPDEST PUSH1 0x0 DUP1 DUP4 CALLDATALOAD PUSH1 0x1 PUSH1 0x20 SUB DUP5 CALLDATASIZE SUB SUB DUP2 SLT PUSH2 0xE1B JUMPI PUSH2 0xE1A PUSH2 0xDF9 JUMP JUMPDEST JUMPDEST DUP4 DUP2 ADD SWAP3 POP DUP3 CALLDATALOAD SWAP2 POP PUSH1 0x20 DUP4 ADD SWAP3 POP PUSH8 0xFFFFFFFFFFFFFFFF DUP3 GT ISZERO PUSH2 0xE43 JUMPI PUSH2 0xE42 PUSH2 0xDEF JUMP JUMPDEST JUMPDEST PUSH1 0x20 DUP3 MUL CALLDATASIZE SUB DUP4 SGT ISZERO PUSH2 0xE59 JUMPI PUSH2 0xE58 PUSH2 0xDF4 JUMP JUMPDEST JUMPDEST POP SWAP3 POP SWAP3 SWAP1 POP JUMP JUMPDEST PUSH1 0x0 DUP3 DUP3 MSTORE PUSH1 0x20 DUP3 ADD SWAP1 POP SWAP3 SWAP2 POP POP JUMP JUMPDEST PUSH1 0x0 DUP1 REVERT JUMPDEST DUP3 DUP2 DUP4 CALLDATACOPY POP POP POP JUMP JUMPDEST PUSH1 0x0 PUSH2 0xE8C DUP4 DUP6 PUSH2 0xE61 JUMP JUMPDEST SWAP4 POP PUSH32 0x7FFFFFFFFFFFFFFFFFFFFFFFFFFFFFFFFFFFFFFFFFFFFFFFFFFFFFFFFFFFFFF DUP4 GT ISZERO PUSH2 0xEBF JUMPI PUSH2 0xEBE PUSH2 0xE72 JUMP JUMPDEST JUMPDEST PUSH1 0x20 DUP4 MUL SWAP3 POP PUSH2 0xED0 DUP4 DUP6 DUP5 PUSH2 0xE77 JUMP JUMPDEST DUP3 DUP5 ADD SWAP1 POP SWAP4 SWAP3 POP POP POP JUMP JUMPDEST PUSH1 0x0 DUP3 CALLDATALOAD PUSH1 0x1 PUSH1 0xC0 SUB DUP4 CALLDATASIZE SUB SUB DUP2 SLT PUSH2 0xEF8 JUMPI PUSH2 0xEF7 PUSH2 0xDF9 JUMP JUMPDEST JUMPDEST DUP3 DUP2 ADD SWAP2 POP POP SWAP3 SWAP2 POP POP JUMP JUMPDEST PUSH1 0x0 DUP2 SWAP1 POP SWAP2 SWAP1 POP JUMP JUMPDEST PUSH2 0xF17 DUP2 PUSH2 0xF04 JUMP JUMPDEST DUP2 EQ PUSH2 0xF22 JUMPI PUSH1 0x0 DUP1 REVERT JUMPDEST POP JUMP JUMPDEST PUSH1 0x0 DUP2 CALLDATALOAD SWAP1 POP PUSH2 0xF34 DUP2 PUSH2 0xF0E JUMP JUMPDEST SWAP3 SWAP2 POP POP JUMP JUMPDEST PUSH1 0x0 PUSH2 0xF49 PUSH1 0x20 DUP5 ADD DUP5 PUSH2 0xF25 JUMP JUMPDEST SWAP1 POP SWAP3 SWAP2 POP POP JUMP JUMPDEST PUSH2 0xF5A DUP2 PUSH2 0xF04 JUMP JUMPDEST DUP3 MSTORE POP POP JUMP JUMPDEST PUSH1 0x0 PUSH8 0xFFFFFFFFFFFFFFFF DUP3 AND SWAP1 POP SWAP2 SWAP1 POP JUMP JUMPDEST PUSH2 0xF7D DUP2 PUSH2 0xF60 JUMP JUMPDEST DUP2 EQ PUSH2 0xF88 JUMPI PUSH1 0x0 DUP1 REVERT JUMPDEST POP JUMP JUMPDEST PUSH1 0x0 DUP2 CALLDATALOAD SWAP1 POP PUSH2 0xF9A DUP2 PUSH2 0xF74 JUMP JUMPDEST SWAP3 SWAP2 POP POP JUMP JUMPDEST PUSH1 0x0 PUSH2 0xFAF PUSH1 0x20 DUP5 ADD DUP5 PUSH2 0xF8B JUMP JUMPDEST SWAP1 POP SWAP3 SWAP2 POP POP JUMP JUMPDEST PUSH2 0xFC0 DUP2 PUSH2 0xF60 JUMP JUMPDEST DUP3 MSTORE POP POP JUMP JUMPDEST PUSH1 0x0 DUP3 CALLDATALOAD PUSH1 0x1 PUSH1 0xA0 SUB DUP4 CALLDATASIZE SUB SUB DUP2 SLT PUSH2 0xFE2 JUMPI PUSH2 0xFE1 PUSH2 0xDF9 JUMP JUMPDEST JUMPDEST DUP3 DUP2 ADD SWAP2 POP POP SWAP3 SWAP2 POP POP JUMP JUMPDEST PUSH1 0x0 PUSH2 0xFFFF DUP3 AND SWAP1 POP SWAP2 SWAP1 POP JUMP JUMPDEST PUSH2 0x1005 DUP2 PUSH2 0xFEE JUMP JUMPDEST DUP2 EQ PUSH2 0x1010 JUMPI PUSH1 0x0 DUP1 REVERT JUMPDEST POP JUMP JUMPDEST PUSH1 0x0 DUP2 CALLDATALOAD SWAP1 POP PUSH2 0x1022 DUP2 PUSH2 0xFFC JUMP JUMPDEST SWAP3 SWAP2 POP POP JUMP JUMPDEST PUSH1 0x0 PUSH2 0x1037 PUSH1 0x20 DUP5 ADD DUP5 PUSH2 0x1013 JUMP JUMPDEST SWAP1 POP SWAP3 SWAP2 POP POP JUMP JUMPDEST PUSH2 0x1048 DUP2 PUSH2 0xFEE JUMP JUMPDEST DUP3 MSTORE POP POP JUMP JUMPDEST PUSH2 0x1057 DUP2 PUSH2 0xAF9 JUMP JUMPDEST DUP2 EQ PUSH2 0x1062 JUMPI PUSH1 0x0 DUP1 REVERT JUMPDEST POP JUMP JUMPDEST PUSH1 0x0 DUP2 CALLDATALOAD SWAP1 POP PUSH2 0x1074 DUP2 PUSH2 0x104E JUMP JUMPDEST SWAP3 SWAP2 POP POP JUMP JUMPDEST PUSH1 0x0 PUSH2 0x1089 PUSH1 0x20 DUP5 ADD DUP5 PUSH2 0x1065 JUMP JUMPDEST SWAP1 POP SWAP3 SWAP2 POP POP JUMP JUMPDEST PUSH2 0x109A DUP2 PUSH2 0xAF9 JUMP JUMPDEST DUP3 MSTORE POP POP JUMP JUMPDEST PUSH1 0x0 DUP1 DUP4 CALLDATALOAD PUSH1 0x1 PUSH1 0x20 SUB DUP5 CALLDATASIZE SUB SUB DUP2 SLT PUSH2 0x10BD JUMPI PUSH2 0x10BC PUSH2 0xDF9 JUMP JUMPDEST JUMPDEST DUP4 DUP2 ADD SWAP3 POP DUP3 CALLDATALOAD SWAP2 POP PUSH1 0x20 DUP4 ADD SWAP3 POP PUSH8 0xFFFFFFFFFFFFFFFF DUP3 GT ISZERO PUSH2 0x10E5 JUMPI PUSH2 0x10E4 PUSH2 0xDEF JUMP JUMPDEST JUMPDEST PUSH1 0x20 DUP3 MUL CALLDATASIZE SUB DUP4 SGT ISZERO PUSH2 0x10FB JUMPI PUSH2 0x10FA PUSH2 0xDF4 JUMP JUMPDEST JUMPDEST POP SWAP3 POP SWAP3 SWAP1 POP JUMP JUMPDEST PUSH1 0x0 DUP3 DUP3 MSTORE PUSH1 0x20 DUP3 ADD SWAP1 POP SWAP3 SWAP2 POP POP JUMP JUMPDEST PUSH1 0x0 DUP2 SWAP1 POP SWAP2 SWAP1 POP JUMP JUMPDEST PUSH1 0x0 PUSH4 0xFFFFFFFF DUP3 AND SWAP1 POP SWAP2 SWAP1 POP JUMP JUMPDEST PUSH2 0x1137 DUP2 PUSH2 0x111E JUMP JUMPDEST DUP3 MSTORE POP POP JUMP JUMPDEST PUSH1 0x0 PUSH2 0x1149 DUP4 DUP4 PUSH2 0x112E JUMP JUMPDEST PUSH1 0x20 DUP4 ADD SWAP1 POP SWAP3 SWAP2 POP POP JUMP JUMPDEST PUSH2 0x115E DUP2 PUSH2 0x111E JUMP JUMPDEST DUP2 EQ PUSH2 0x1169 JUMPI PUSH1 0x0 DUP1 REVERT JUMPDEST POP JUMP JUMPDEST PUSH1 0x0 DUP2 CALLDATALOAD SWAP1 POP PUSH2 0x117B DUP2 PUSH2 0x1155 JUMP JUMPDEST SWAP3 SWAP2 POP POP JUMP JUMPDEST PUSH1 0x0 PUSH2 0x1190 PUSH1 0x20 DUP5 ADD DUP5 PUSH2 0x116C JUMP JUMPDEST SWAP1 POP SWAP3 SWAP2 POP POP JUMP JUMPDEST PUSH1 0x0 PUSH1 0x20 DUP3 ADD SWAP1 POP SWAP2 SWAP1 POP JUMP JUMPDEST PUSH1 0x0 PUSH2 0x11B1 DUP4 DUP6 PUSH2 0x1103 JUMP JUMPDEST SWAP4 POP PUSH2 0x11BC DUP3 PUSH2 0x1114 JUMP JUMPDEST DUP1 PUSH1 0x0 JUMPDEST DUP6 DUP2 LT ISZERO PUSH2 0x11F5 JUMPI PUSH2 0x11D2 DUP3 DUP5 PUSH2 0x1181 JUMP JUMPDEST PUSH2 0x11DC DUP9 DUP3 PUSH2 0x113D JUMP JUMPDEST SWAP8 POP PUSH2 0x11E7 DUP4 PUSH2 0x1198 JUMP JUMPDEST SWAP3 POP POP PUSH1 0x1 DUP2 ADD SWAP1 POP PUSH2 0x11C0 JUMP JUMPDEST POP DUP6 SWAP3 POP POP POP SWAP4 SWAP3 POP POP POP JUMP JUMPDEST PUSH1 0x0 PUSH1 0xA0 DUP4 ADD PUSH2 0x1215 PUSH1 0x0 DUP5 ADD DUP5 PUSH2 0xF3A JUMP JUMPDEST PUSH2 0x1222 PUSH1 0x0 DUP7 ADD DUP3 PUSH2 0xF51 JUMP JUMPDEST POP PUSH2 0x1230 PUSH1 0x20 DUP5 ADD DUP5 PUSH2 0x1028 JUMP JUMPDEST PUSH2 0x123D PUSH1 0x20 DUP7 ADD DUP3 PUSH2 0x103F JUMP JUMPDEST POP PUSH2 0x124B PUSH1 0x40 DUP5 ADD DUP5 PUSH2 0x107A JUMP JUMPDEST PUSH2 0x1258 PUSH1 0x40 DUP7 ADD DUP3 PUSH2 0x1091 JUMP JUMPDEST POP PUSH2 0x1266 PUSH1 0x60 DUP5 ADD DUP5 PUSH2 0x107A JUMP JUMPDEST PUSH2 0x1273 PUSH1 0x60 DUP7 ADD DUP3 PUSH2 0x1091 JUMP JUMPDEST POP PUSH2 0x1281 PUSH1 0x80 DUP5 ADD DUP5 PUSH2 0x10A0 JUMP JUMPDEST DUP6 DUP4 SUB PUSH1 0x80 DUP8 ADD MSTORE PUSH2 0x1294 DUP4 DUP3 DUP5 PUSH2 0x11A5 JUMP JUMPDEST SWAP3 POP POP POP DUP1 SWAP2 POP POP SWAP3 SWAP2 POP POP JUMP JUMPDEST PUSH1 0x0 DUP3 CALLDATALOAD PUSH1 0x1 PUSH2 0x120 SUB DUP4 CALLDATASIZE SUB SUB DUP2 SLT PUSH2 0x12BF JUMPI PUSH2 0x12BE PUSH2 0xDF9 JUMP JUMPDEST JUMPDEST DUP3 DUP2 ADD SWAP2 POP POP SWAP3 SWAP2 POP POP JUMP JUMPDEST PUSH1 0x0 PUSH2 0x12DA PUSH1 0x20 DUP5 ADD DUP5 PUSH2 0xB78 JUMP JUMPDEST SWAP1 POP SWAP3 SWAP2 POP POP JUMP JUMPDEST PUSH2 0x12EB DUP2 PUSH2 0xB4F JUMP JUMPDEST DUP3 MSTORE POP POP JUMP JUMPDEST PUSH1 0x0 PUSH2 0x1300 PUSH1 0x20 DUP5 ADD DUP5 PUSH2 0xBAE JUMP JUMPDEST SWAP1 POP SWAP3 SWAP2 POP POP JUMP JUMPDEST PUSH2 0x1311 DUP2 PUSH2 0xB8D JUMP JUMPDEST DUP3 MSTORE POP POP JUMP JUMPDEST PUSH1 0x0 DUP1 DUP4 CALLDATALOAD PUSH1 0x1 PUSH1 0x20 SUB DUP5 CALLDATASIZE SUB SUB DUP2 SLT PUSH2 0x1334 JUMPI PUSH2 0x1333 PUSH2 0xDF9 JUMP JUMPDEST JUMPDEST DUP4 DUP2 ADD SWAP3 POP DUP3 CALLDATALOAD SWAP2 POP PUSH1 0x20 DUP4 ADD SWAP3 POP PUSH8 0xFFFFFFFFFFFFFFFF DUP3 GT ISZERO PUSH2 0x135C JUMPI PUSH2 0x135B PUSH2 0xDEF JUMP JUMPDEST JUMPDEST PUSH1 0x1 DUP3 MUL CALLDATASIZE SUB DUP4 SGT ISZERO PUSH2 0x1372 JUMPI PUSH2 0x1371 PUSH2 0xDF4 JUMP JUMPDEST JUMPDEST POP SWAP3 POP SWAP3 SWAP1 POP JUMP JUMPDEST PUSH1 0x0 DUP3 DUP3 MSTORE PUSH1 0x20 DUP3 ADD SWAP1 POP SWAP3 SWAP2 POP POP JUMP JUMPDEST DUP3 DUP2 DUP4 CALLDATACOPY PUSH1 0x0 DUP4 DUP4 ADD MSTORE POP POP POP JUMP JUMPDEST PUSH1 0x0 PUSH1 0x1F NOT PUSH1 0x1F DUP4 ADD AND SWAP1 POP SWAP2 SWAP1 POP JUMP JUMPDEST PUSH1 0x0 PUSH2 0x13B7 DUP4 DUP6 PUSH2 0x137A JUMP JUMPDEST SWAP4 POP PUSH2 0x13C4 DUP4 DUP6 DUP5 PUSH2 0x138B JUMP JUMPDEST PUSH2 0x13CD DUP4 PUSH2 0x139A JUMP JUMPDEST DUP5 ADD SWAP1 POP SWAP4 SWAP3 POP POP POP JUMP JUMPDEST PUSH1 0x0 PUSH1 0xFF DUP3 AND SWAP1 POP SWAP2 SWAP1 POP JUMP JUMPDEST PUSH2 0x13EE DUP2 PUSH2 0x13D8 JUMP JUMPDEST DUP2 EQ PUSH2 0x13F9 JUMPI PUSH1 0x0 DUP1 REVERT JUMPDEST POP JUMP JUMPDEST PUSH1 0x0 DUP2 CALLDATALOAD SWAP1 POP PUSH2 0x140B DUP2 PUSH2 0x13E5 JUMP JUMPDEST SWAP3 SWAP2 POP POP JUMP JUMPDEST PUSH1 0x0 PUSH2 0x1420 PUSH1 0x20 DUP5 ADD DUP5 PUSH2 0x13FC JUMP JUMPDEST SWAP1 POP SWAP3 SWAP2 POP POP JUMP JUMPDEST PUSH2 0x1431 DUP2 PUSH2 0x13D8 JUMP JUMPDEST DUP3 MSTORE POP POP JUMP JUMPDEST PUSH1 0x0 DUP1 DUP4 CALLDATALOAD PUSH1 0x1 PUSH1 0x20 SUB DUP5 CALLDATASIZE SUB SUB DUP2 SLT PUSH2 0x1454 JUMPI PUSH2 0x1453 PUSH2 0xDF9 JUMP JUMPDEST JUMPDEST DUP4 DUP2 ADD SWAP3 POP DUP3 CALLDATALOAD SWAP2 POP PUSH1 0x20 DUP4 ADD SWAP3 POP PUSH8 0xFFFFFFFFFFFFFFFF DUP3 GT ISZERO PUSH2 0x147C JUMPI PUSH2 0x147B PUSH2 0xDEF JUMP JUMPDEST JUMPDEST PUSH1 0x20 DUP3 MUL CALLDATASIZE SUB DUP4 SGT ISZERO PUSH2 0x1492 JUMPI PUSH2 0x1491 PUSH2 0xDF4 JUMP JUMPDEST JUMPDEST POP SWAP3 POP SWAP3 SWAP1 POP JUMP JUMPDEST PUSH1 0x0 DUP3 DUP3 MSTORE PUSH1 0x20 DUP3 ADD SWAP1 POP SWAP3 SWAP2 POP POP JUMP JUMPDEST PUSH1 0x0 DUP2 SWAP1 POP SWAP2 SWAP1 POP JUMP JUMPDEST PUSH1 0x0 PUSH1 0xA0 DUP4 ADD PUSH2 0x14C8 PUSH1 0x0 DUP5 ADD DUP5 PUSH2 0x1181 JUMP JUMPDEST PUSH2 0x14D5 PUSH1 0x0 DUP7 ADD DUP3 PUSH2 0x112E JUMP JUMPDEST POP PUSH2 0x14E3 PUSH1 0x20 DUP5 ADD DUP5 PUSH2 0x12CB JUMP JUMPDEST PUSH2 0x14F0 PUSH1 0x20 DUP7 ADD DUP3 PUSH2 0x12E2 JUMP JUMPDEST POP PUSH2 0x14FE PUSH1 0x40 DUP5 ADD DUP5 PUSH2 0xDFE JUMP JUMPDEST DUP6 DUP4 SUB PUSH1 0x40 DUP8 ADD MSTORE PUSH2 0x1511 DUP4 DUP3 DUP5 PUSH2 0xE80 JUMP JUMPDEST SWAP3 POP POP POP PUSH2 0x1522 PUSH1 0x60 DUP5 ADD DUP5 PUSH2 0x1317 JUMP JUMPDEST DUP6 DUP4 SUB PUSH1 0x60 DUP8 ADD MSTORE PUSH2 0x1535 DUP4 DUP3 DUP5 PUSH2 0x13AB JUMP JUMPDEST SWAP3 POP POP POP PUSH2 0x1546 PUSH1 0x80 DUP5 ADD DUP5 PUSH2 0x107A JUMP JUMPDEST PUSH2 0x1553 PUSH1 0x80 DUP7 ADD DUP3 PUSH2 0x1091 JUMP JUMPDEST POP DUP1 SWAP2 POP POP SWAP3 SWAP2 POP POP JUMP JUMPDEST PUSH1 0x0 PUSH2 0x156A DUP4 DUP4 PUSH2 0x14B5 JUMP JUMPDEST SWAP1 POP SWAP3 SWAP2 POP POP JUMP JUMPDEST PUSH1 0x0 DUP3 CALLDATALOAD PUSH1 0x1 PUSH1 0xA0 SUB DUP4 CALLDATASIZE SUB SUB DUP2 SLT PUSH2 0x158E JUMPI PUSH2 0x158D PUSH2 0xDF9 JUMP JUMPDEST JUMPDEST DUP3 DUP2 ADD SWAP2 POP POP SWAP3 SWAP2 POP POP JUMP JUMPDEST PUSH1 0x0 PUSH1 0x20 DUP3 ADD SWAP1 POP SWAP2 SWAP1 POP JUMP JUMPDEST PUSH1 0x0 PUSH2 0x15B3 DUP4 DUP6 PUSH2 0x149A JUMP JUMPDEST SWAP4 POP DUP4 PUSH1 0x20 DUP5 MUL DUP6 ADD PUSH2 0x15C5 DUP5 PUSH2 0x14AB JUMP JUMPDEST DUP1 PUSH1 0x0 JUMPDEST DUP8 DUP2 LT ISZERO PUSH2 0x1609 JUMPI DUP5 DUP5 SUB DUP10 MSTORE PUSH2 0x15E0 DUP3 DUP5 PUSH2 0x1572 JUMP JUMPDEST PUSH2 0x15EA DUP6 DUP3 PUSH2 0x155E JUMP JUMPDEST SWAP5 POP PUSH2 0x15F5 DUP4 PUSH2 0x159A JUMP JUMPDEST SWAP3 POP PUSH1 0x20 DUP11 ADD SWAP10 POP POP PUSH1 0x1 DUP2 ADD SWAP1 POP PUSH2 0x15C9 JUMP JUMPDEST POP DUP3 SWAP8 POP DUP8 SWAP5 POP POP POP POP POP SWAP4 SWAP3 POP POP POP JUMP JUMPDEST PUSH1 0x0 PUSH2 0x120 DUP4 ADD PUSH2 0x162F PUSH1 0x0 DUP5 ADD DUP5 PUSH2 0xFA0 JUMP JUMPDEST PUSH2 0x163C PUSH1 0x0 DUP7 ADD DUP3 PUSH2 0xFB7 JUMP JUMPDEST POP PUSH2 0x164A PUSH1 0x20 DUP5 ADD DUP5 PUSH2 0xFA0 JUMP JUMPDEST PUSH2 0x1657 PUSH1 0x20 DUP7 ADD DUP3 PUSH2 0xFB7 JUMP JUMPDEST POP PUSH2 0x1665 PUSH1 0x40 DUP5 ADD DUP5 PUSH2 0x12CB JUMP JUMPDEST PUSH2 0x1672 PUSH1 0x40 DUP7 ADD DUP3 PUSH2 0x12E2 JUMP JUMPDEST POP PUSH2 0x1680 PUSH1 0x60 DUP5 ADD DUP5 PUSH2 0x107A JUMP JUMPDEST PUSH2 0x168D PUSH1 0x60 DUP7 ADD DUP3 PUSH2 0x1091 JUMP JUMPDEST POP PUSH2 0x169B PUSH1 0x80 DUP5 ADD DUP5 PUSH2 0x12CB JUMP JUMPDEST PUSH2 0x16A8 PUSH1 0x80 DUP7 ADD DUP3 PUSH2 0x12E2 JUMP JUMPDEST POP PUSH2 0x16B6 PUSH1 0xA0 DUP5 ADD DUP5 PUSH2 0x12F1 JUMP JUMPDEST PUSH2 0x16C3 PUSH1 0xA0 DUP7 ADD DUP3 PUSH2 0x1308 JUMP JUMPDEST POP PUSH2 0x16D1 PUSH1 0xC0 DUP5 ADD DUP5 PUSH2 0x1317 JUMP JUMPDEST DUP6 DUP4 SUB PUSH1 0xC0 DUP8 ADD MSTORE PUSH2 0x16E4 DUP4 DUP3 DUP5 PUSH2 0x13AB JUMP JUMPDEST SWAP3 POP POP POP PUSH2 0x16F5 PUSH1 0xE0 DUP5 ADD DUP5 PUSH2 0x1411 JUMP JUMPDEST PUSH2 0x1702 PUSH1 0xE0 DUP7 ADD DUP3 PUSH2 0x1428 JUMP JUMPDEST POP PUSH2 0x1711 PUSH2 0x100 DUP5 ADD DUP5 PUSH2 0x1437 JUMP JUMPDEST DUP6 DUP4 SUB PUSH2 0x100 DUP8 ADD MSTORE PUSH2 0x1725 DUP4 DUP3 DUP5 PUSH2 0x15A7 JUMP JUMPDEST SWAP3 POP POP POP DUP1 SWAP2 POP POP SWAP3 SWAP2 POP POP JUMP JUMPDEST PUSH1 0x0 PUSH1 0xC0 DUP4 ADD PUSH2 0x1746 PUSH1 0x0 DUP5 ADD DUP5 PUSH2 0xF3A JUMP JUMPDEST PUSH2 0x1753 PUSH1 0x0 DUP7 ADD DUP3 PUSH2 0xF51 JUMP JUMPDEST POP PUSH2 0x1761 PUSH1 0x20 DUP5 ADD DUP5 PUSH2 0xF3A JUMP JUMPDEST PUSH2 0x176E PUSH1 0x20 DUP7 ADD DUP3 PUSH2 0xF51 JUMP JUMPDEST POP PUSH2 0x177C PUSH1 0x40 DUP5 ADD DUP5 PUSH2 0xFA0 JUMP JUMPDEST PUSH2 0x1789 PUSH1 0x40 DUP7 ADD DUP3 PUSH2 0xFB7 JUMP JUMPDEST POP PUSH2 0x1797 PUSH1 0x60 DUP5 ADD DUP5 PUSH2 0xFA0 JUMP JUMPDEST PUSH2 0x17A4 PUSH1 0x60 DUP7 ADD DUP3 PUSH2 0xFB7 JUMP JUMPDEST POP PUSH2 0x17B2 PUSH1 0x80 DUP5 ADD DUP5 PUSH2 0xFC6 JUMP JUMPDEST DUP5 DUP3 SUB PUSH1 0x80 DUP7 ADD MSTORE PUSH2 0x17C4 DUP3 DUP3 PUSH2 0x1202 JUMP JUMPDEST SWAP2 POP POP PUSH2 0x17D4 PUSH1 0xA0 DUP5 ADD DUP5 PUSH2 0x12A2 JUMP JUMPDEST DUP5 DUP3 SUB PUSH1 0xA0 DUP7 ADD MSTORE PUSH2 0x17E6 DUP3 DUP3 PUSH2 0x161B JUMP JUMPDEST SWAP2 POP POP DUP1 SWAP2 POP POP SWAP3 SWAP2 POP POP JUMP JUMPDEST PUSH1 0x0 PUSH1 0x40 DUP4 ADD PUSH2 0x1806 PUSH1 0x0 DUP5 ADD DUP5 PUSH2 0xDFE JUMP JUMPDEST DUP6 DUP4 SUB PUSH1 0x0 DUP8 ADD MSTORE PUSH2 0x1819 DUP4 DUP3 DUP5 PUSH2 0xE80 JUMP JUMPDEST SWAP3 POP POP POP PUSH2 0x182A PUSH1 0x20 DUP5 ADD DUP5 PUSH2 0xEDC JUMP JUMPDEST DUP5 DUP3 SUB PUSH1 0x20 DUP7 ADD MSTORE PUSH2 0x183C DUP3 DUP3 PUSH2 0x1733 JUMP JUMPDEST SWAP2 POP POP DUP1 SWAP2 POP POP SWAP3 SWAP2 POP POP JUMP JUMPDEST PUSH1 0x0 PUSH1 0x20 DUP3 ADD SWAP1 POP DUP2 DUP2 SUB PUSH1 0x0 DUP4 ADD MSTORE PUSH2 0x1863 DUP2 DUP5 PUSH2 0x17F3 JUMP JUMPDEST SWAP1 POP SWAP3 SWAP2 POP POP JUMP JUMPDEST PUSH1 0x0 DUP2 MLOAD SWAP1 POP PUSH2 0x187A DUP2 PUSH2 0x104E JUMP JUMPDEST SWAP3 SWAP2 POP POP JUMP JUMPDEST PUSH1 0x0 PUSH1 0x20 DUP3 DUP5 SUB SLT ISZERO PUSH2 0x1896 JUMPI PUSH2 0x1895 PUSH2 0xA82 JUMP JUMPDEST JUMPDEST PUSH1 0x0 PUSH2 0x18A4 DUP5 DUP3 DUP6 ADD PUSH2 0x186B JUMP JUMPDEST SWAP2 POP POP SWAP3 SWAP2 POP POP JUMP JUMPDEST PUSH1 0x0 DUP3 DUP3 MSTORE PUSH1 0x20 DUP3 ADD SWAP1 POP SWAP3 SWAP2 POP POP JUMP JUMPDEST PUSH32 0x496E76616C69642070726F6F6600000000000000000000000000000000000000 PUSH1 0x0 DUP3 ADD MSTORE POP JUMP JUMPDEST PUSH1 0x0 PUSH2 0x18F4 PUSH1 0xD DUP4 PUSH2 0x18AD JUMP JUMPDEST SWAP2 POP PUSH2 0x18FF DUP3 PUSH2 0x18BE JUMP JUMPDEST PUSH1 0x20 DUP3 ADD SWAP1 POP SWAP2 SWAP1 POP JUMP JUMPDEST PUSH1 0x0 PUSH1 0x20 DUP3 ADD SWAP1 POP DUP2 DUP2 SUB PUSH1 0x0 DUP4 ADD MSTORE PUSH2 0x1923 DUP2 PUSH2 0x18E7 JUMP JUMPDEST SWAP1 POP SWAP2 SWAP1 POP JUMP JUMPDEST PUSH1 0x0 DUP1 REVERT JUMPDEST PUSH1 0x0 DUP1 REVERT JUMPDEST PUSH1 0x0 DUP1 REVERT JUMPDEST PUSH1 0x0 DUP3 CALLDATALOAD PUSH1 0x1 PUSH1 0xC0 SUB DUP4 CALLDATASIZE SUB SUB DUP2 SLT PUSH2 0x1955 JUMPI PUSH2 0x1954 PUSH2 0x192A JUMP JUMPDEST JUMPDEST DUP1 DUP4 ADD SWAP2 POP POP SWAP3 SWAP2 POP POP JUMP JUMPDEST PUSH1 0x0 DUP3 CALLDATALOAD PUSH1 0x1 PUSH2 0x120 SUB DUP4 CALLDATASIZE SUB SUB DUP2 SLT PUSH2 0x197E JUMPI PUSH2 0x197D PUSH2 0x192A JUMP JUMPDEST JUMPDEST DUP1 DUP4 ADD SWAP2 POP POP SWAP3 SWAP2 POP POP JUMP JUMPDEST PUSH1 0x0 DUP1 DUP4 CALLDATALOAD PUSH1 0x1 PUSH1 0x20 SUB DUP5 CALLDATASIZE SUB SUB DUP2 SLT PUSH2 0x19A7 JUMPI PUSH2 0x19A6 PUSH2 0x192A JUMP JUMPDEST JUMPDEST DUP1 DUP5 ADD SWAP3 POP DUP3 CALLDATALOAD SWAP2 POP PUSH8 0xFFFFFFFFFFFFFFFF DUP3 GT ISZERO PUSH2 0x19C9 JUMPI PUSH2 0x19C8 PUSH2 0x192F JUMP JUMPDEST JUMPDEST PUSH1 0x20 DUP4 ADD SWAP3 POP PUSH1 0x20 DUP3 MUL CALLDATASIZE SUB DUP4 SGT ISZERO PUSH2 0x19E5 JUMPI PUSH2 0x19E4 PUSH2 0x1934 JUMP JUMPDEST JUMPDEST POP SWAP3 POP SWAP3 SWAP1 POP JUMP JUMPDEST PUSH32 0x4E487B7100000000000000000000000000000000000000000000000000000000 PUSH1 0x0 MSTORE PUSH1 0x32 PUSH1 0x4 MSTORE PUSH1 0x24 PUSH1 0x0 REVERT JUMPDEST PUSH1 0x0 DUP3 CALLDATALOAD PUSH1 0x1 PUSH1 0xA0 SUB DUP4 CALLDATASIZE SUB SUB DUP2 SLT PUSH2 0x1A38 JUMPI PUSH2 0x1A37 PUSH2 0x192A JUMP JUMPDEST JUMPDEST DUP1 DUP4 ADD SWAP2 POP POP SWAP3 SWAP2 POP POP JUMP JUMPDEST PUSH1 0x0 DUP1 REVERT JUMPDEST PUSH32 0x4E487B7100000000000000000000000000000000000000000000000000000000 PUSH1 0x0 MSTORE PUSH1 0x41 PUSH1 0x4 MSTORE PUSH1 0x24 PUSH1 0x0 REVERT JUMPDEST PUSH2 0x1A81 DUP3 PUSH2 0x139A JUMP JUMPDEST DUP2 ADD DUP2 DUP2 LT PUSH8 0xFFFFFFFFFFFFFFFF DUP3 GT OR ISZERO PUSH2 0x1AA0 JUMPI PUSH2 0x1A9F PUSH2 0x1A49 JUMP JUMPDEST JUMPDEST DUP1 PUSH1 0x40 MSTORE POP POP POP JUMP JUMPDEST PUSH1 0x0 PUSH2 0x1AB3 PUSH2 0xA78 JUMP JUMPDEST SWAP1 POP PUSH2 0x1ABF DUP3 DUP3 PUSH2 0x1A78 JUMP JUMPDEST SWAP2 SWAP1 POP JUMP JUMPDEST PUSH1 0x0 DUP1 REVERT JUMPDEST PUSH1 0x0 DUP1 REVERT JUMPDEST PUSH1 0x0 PUSH8 0xFFFFFFFFFFFFFFFF DUP3 GT ISZERO PUSH2 0x1AE9 JUMPI PUSH2 0x1AE8 PUSH2 0x1A49 JUMP JUMPDEST JUMPDEST PUSH1 0x20 DUP3 MUL SWAP1 POP PUSH1 0x20 DUP2 ADD SWAP1 POP SWAP2 SWAP1 POP JUMP JUMPDEST PUSH1 0x0 DUP1 REVERT JUMPDEST PUSH1 0x0 PUSH2 0x1B12 PUSH2 0x1B0D DUP5 PUSH2 0x1ACE JUMP JUMPDEST PUSH2 0x1AA9 JUMP JUMPDEST SWAP1 POP DUP1 DUP4 DUP3 MSTORE PUSH1 0x20 DUP3 ADD SWAP1 POP PUSH1 0x20 DUP5 MUL DUP4 ADD DUP6 DUP2 GT ISZERO PUSH2 0x1B35 JUMPI PUSH2 0x1B34 PUSH2 0x1AFA JUMP JUMPDEST JUMPDEST DUP4 JUMPDEST DUP2 DUP2 LT ISZERO PUSH2 0x1B5E JUMPI DUP1 PUSH2 0x1B4A DUP9 DUP3 PUSH2 0xF25 JUMP JUMPDEST DUP5 MSTORE PUSH1 0x20 DUP5 ADD SWAP4 POP POP PUSH1 0x20 DUP2 ADD SWAP1 POP PUSH2 0x1B37 JUMP JUMPDEST POP POP POP SWAP4 SWAP3 POP POP POP JUMP JUMPDEST PUSH1 0x0 DUP3 PUSH1 0x1F DUP4 ADD SLT PUSH2 0x1B7D JUMPI PUSH2 0x1B7C PUSH2 0x1AC9 JUMP JUMPDEST JUMPDEST DUP2 CALLDATALOAD PUSH2 0x1B8D DUP5 DUP3 PUSH1 0x20 DUP7 ADD PUSH2 0x1AFF JUMP JUMPDEST SWAP2 POP POP SWAP3 SWAP2 POP POP JUMP JUMPDEST PUSH1 0x0 DUP1 REVERT JUMPDEST PUSH1 0x0 PUSH8 0xFFFFFFFFFFFFFFFF DUP3 GT ISZERO PUSH2 0x1BB6 JUMPI PUSH2 0x1BB5 PUSH2 0x1A49 JUMP JUMPDEST JUMPDEST PUSH2 0x1BBF DUP3 PUSH2 0x139A JUMP JUMPDEST SWAP1 POP PUSH1 0x20 DUP2 ADD SWAP1 POP SWAP2 SWAP1 POP JUMP JUMPDEST PUSH1 0x0 PUSH2 0x1BDF PUSH2 0x1BDA DUP5 PUSH2 0x1B9B JUMP JUMPDEST PUSH2 0x1AA9 JUMP JUMPDEST SWAP1 POP DUP3 DUP2 MSTORE PUSH1 0x20 DUP2 ADD DUP5 DUP5 DUP5 ADD GT ISZERO PUSH2 0x1BFB JUMPI PUSH2 0x1BFA PUSH2 0x1B96 JUMP JUMPDEST JUMPDEST PUSH2 0x1C06 DUP5 DUP3 DUP6 PUSH2 0x138B JUMP JUMPDEST POP SWAP4 SWAP3 POP POP POP JUMP JUMPDEST PUSH1 0x0 DUP3 PUSH1 0x1F DUP4 ADD SLT PUSH2 0x1C23 JUMPI PUSH2 0x1C22 PUSH2 0x1AC9 JUMP JUMPDEST JUMPDEST DUP2 CALLDATALOAD PUSH2 0x1C33 DUP5 DUP3 PUSH1 0x20 DUP7 ADD PUSH2 0x1BCC JUMP JUMPDEST SWAP2 POP POP SWAP3 SWAP2 POP POP JUMP JUMPDEST PUSH1 0x0 PUSH1 0xA0 DUP3 DUP5 SUB SLT ISZERO PUSH2 0x1C52 JUMPI PUSH2 0x1C51 PUSH2 0x1A44 JUMP JUMPDEST JUMPDEST PUSH2 0x1C5C PUSH1 0xA0 PUSH2 0x1AA9 JUMP JUMPDEST SWAP1 POP PUSH1 0x0 PUSH2 0x1C6C DUP5 DUP3 DUP6 ADD PUSH2 0x116C JUMP JUMPDEST PUSH1 0x0 DUP4 ADD MSTORE POP PUSH1 0x20 PUSH2 0x1C80 DUP5 DUP3 DUP6 ADD PUSH2 0xB78 JUMP JUMPDEST PUSH1 0x20 DUP4 ADD MSTORE POP PUSH1 0x40 DUP3 ADD CALLDATALOAD PUSH8 0xFFFFFFFFFFFFFFFF DUP2 GT ISZERO PUSH2 0x1CA4 JUMPI PUSH2 0x1CA3 PUSH2 0x1AC4 JUMP JUMPDEST JUMPDEST PUSH2 0x1CB0 DUP5 DUP3 DUP6 ADD PUSH2 0x1B68 JUMP JUMPDEST PUSH1 0x40 DUP4 ADD MSTORE POP PUSH1 0x60 DUP3 ADD CALLDATALOAD PUSH8 0xFFFFFFFFFFFFFFFF DUP2 GT ISZERO PUSH2 0x1CD4 JUMPI PUSH2 0x1CD3 PUSH2 0x1AC4 JUMP JUMPDEST JUMPDEST PUSH2 0x1CE0 DUP5 DUP3 DUP6 ADD PUSH2 0x1C0E JUMP JUMPDEST PUSH1 0x60 DUP4 ADD MSTORE POP PUSH1 0x80 PUSH2 0x1CF4 DUP5 DUP3 DUP6 ADD PUSH2 0x1065 JUMP JUMPDEST PUSH1 0x80 DUP4 ADD MSTORE POP SWAP3 SWAP2 POP POP JUMP JUMPDEST PUSH1 0x0 PUSH2 0x1D0C CALLDATASIZE DUP4 PUSH2 0x1C3C JUMP JUMPDEST SWAP1 POP SWAP2 SWAP1 POP JUMP JUMPDEST PUSH32 0x496E76616C6964206576656E7400000000000000000000000000000000000000 PUSH1 0x0 DUP3 ADD MSTORE POP JUMP JUMPDEST PUSH1 0x0 PUSH2 0x1D49 PUSH1 0xD DUP4 PUSH2 0x18AD JUMP JUMPDEST SWAP2 POP PUSH2 0x1D54 DUP3 PUSH2 0x1D13 JUMP JUMPDEST PUSH1 0x20 DUP3 ADD SWAP1 POP SWAP2 SWAP1 POP JUMP JUMPDEST PUSH1 0x0 PUSH1 0x20 DUP3 ADD SWAP1 POP DUP2 DUP2 SUB PUSH1 0x0 DUP4 ADD MSTORE PUSH2 0x1D78 DUP2 PUSH2 0x1D3C JUMP JUMPDEST SWAP1 POP SWAP2 SWAP1 POP JUMP JUMPDEST PUSH1 0x0 PUSH2 0x1D8A DUP3 PUSH2 0xB2F JUMP JUMPDEST SWAP1 POP SWAP2 SWAP1 POP JUMP JUMPDEST PUSH2 0x1D9A DUP2 PUSH2 0x1D7F JUMP JUMPDEST DUP2 EQ PUSH2 0x1DA5 JUMPI PUSH1 0x0 DUP1 REVERT JUMPDEST POP JUMP JUMPDEST PUSH1 0x0 DUP2 MLOAD SWAP1 POP PUSH2 0x1DB7 DUP2 PUSH2 0x1D91 JUMP JUMPDEST SWAP3 SWAP2 POP POP JUMP JUMPDEST PUSH1 0x0 JUMPDEST DUP4 DUP2 LT ISZERO PUSH2 0x1DDB JUMPI DUP1 DUP3 ADD MLOAD DUP2 DUP5 ADD MSTORE PUSH1 0x20 DUP2 ADD SWAP1 POP PUSH2 0x1DC0 JUMP JUMPDEST PUSH1 0x0 DUP5 DUP5 ADD MSTORE POP POP POP POP JUMP JUMPDEST PUSH1 0x0 PUSH2 0x1DFA PUSH2 0x1DF5 DUP5 PUSH2 0x1B9B JUMP JUMPDEST PUSH2 0x1AA9 JUMP JUMPDEST SWAP1 POP DUP3 DUP2 MSTORE PUSH1 0x20 DUP2 ADD DUP5 DUP5 DUP5 ADD GT ISZERO PUSH2 0x1E16 JUMPI PUSH2 0x1E15 PUSH2 0x1B96 JUMP JUMPDEST JUMPDEST PUSH2 0x1E21 DUP5 DUP3 DUP6 PUSH2 0x1DBD JUMP JUMPDEST POP SWAP4 SWAP3 POP POP POP JUMP JUMPDEST PUSH1 0x0 DUP3 PUSH1 0x1F DUP4 ADD SLT PUSH2 0x1E3E JUMPI PUSH2 0x1E3D PUSH2 0x1AC9 JUMP JUMPDEST JUMPDEST DUP2 MLOAD PUSH2 0x1E4E DUP5 DUP3 PUSH1 0x20 DUP7 ADD PUSH2 0x1DE7 JUMP JUMPDEST SWAP2 POP POP SWAP3 SWAP2 POP POP JUMP JUMPDEST PUSH1 0x0 DUP1 PUSH1 0x0 DUP1 PUSH1 0x80 DUP6 DUP8 SUB SLT ISZERO PUSH2 0x1E71 JUMPI PUSH2 0x1E70 PUSH2 0xA82 JUMP JUMPDEST JUMPDEST PUSH1 0x0 PUSH2 0x1E7F DUP8 DUP3 DUP9 ADD PUSH2 0x1DA8 JUMP JUMPDEST SWAP5 POP POP PUSH1 0x20 PUSH2 0x1E90 DUP8 DUP3 DUP9 ADD PUSH2 0x186B JUMP JUMPDEST SWAP4 POP POP PUSH1 0x40 DUP6 ADD MLOAD PUSH8 0xFFFFFFFFFFFFFFFF DUP2 GT ISZERO PUSH2 0x1EB1 JUMPI PUSH2 0x1EB0 PUSH2 0xA87 JUMP JUMPDEST JUMPDEST PUSH2 0x1EBD DUP8 DUP3 DUP9 ADD PUSH2 0x1E29 JUMP JUMPDEST SWAP3 POP POP PUSH1 0x60 DUP6 ADD MLOAD PUSH8 0xFFFFFFFFFFFFFFFF DUP2 GT ISZERO PUSH2 0x1EDE JUMPI PUSH2 0x1EDD PUSH2 0xA87 JUMP JUMPDEST JUMPDEST PUSH2 0x1EEA DUP8 DUP3 DUP9 ADD PUSH2 0x1E29 JUMP JUMPDEST SWAP2 POP POP SWAP3 SWAP6 SWAP2 SWAP5 POP SWAP3 POP JUMP JUMPDEST PUSH32 0x496E76616C696420746F6B656E20616464726573730000000000000000000000 PUSH1 0x0 DUP3 ADD MSTORE POP JUMP JUMPDEST PUSH1 0x0 PUSH2 0x1F2C PUSH1 0x15 DUP4 PUSH2 0x18AD JUMP JUMPDEST SWAP2 POP PUSH2 0x1F37 DUP3 PUSH2 0x1EF6 JUMP JUMPDEST PUSH1 0x20 DUP3 ADD SWAP1 POP SWAP2 SWAP1 POP JUMP JUMPDEST PUSH1 0x0 PUSH1 0x20 DUP3 ADD SWAP1 POP DUP2 DUP2 SUB PUSH1 0x0 DUP4 ADD MSTORE PUSH2 0x1F5B DUP2 PUSH2 0x1F1F JUMP JUMPDEST SWAP1 POP SWAP2 SWAP1 POP JUMP JUMPDEST PUSH2 0x1F6B DUP2 PUSH2 0xB8D JUMP JUMPDEST DUP3 MSTORE POP POP JUMP JUMPDEST PUSH1 0x0 PUSH1 0x40 DUP3 ADD SWAP1 POP PUSH2 0x1F86 PUSH1 0x0 DUP4 ADD DUP6 PUSH2 0xD1A JUMP JUMPDEST PUSH2 0x1F93 PUSH1 0x20 DUP4 ADD DUP5 PUSH2 0x1F62 JUMP JUMPDEST SWAP4 SWAP3 POP POP POP JUMP JUMPDEST PUSH1 0x0 DUP2 MLOAD SWAP1 POP SWAP2 SWAP1 POP JUMP JUMPDEST PUSH1 0x0 DUP3 DUP3 MSTORE PUSH1 0x20 DUP3 ADD SWAP1 POP SWAP3 SWAP2 POP POP JUMP JUMPDEST PUSH1 0x0 PUSH2 0x1FC1 DUP3 PUSH2 0x1F9A JUMP JUMPDEST PUSH2 0x1FCB DUP2 DUP6 PUSH2 0x1FA5 JUMP JUMPDEST SWAP4 POP PUSH2 0x1FDB DUP2 DUP6 PUSH1 0x20 DUP7 ADD PUSH2 0x1DBD JUMP JUMPDEST PUSH2 0x1FE4 DUP2 PUSH2 0x139A JUMP JUMPDEST DUP5 ADD SWAP2 POP POP SWAP3 SWAP2 POP POP JUMP JUMPDEST PUSH1 0x0 DUP2 SWAP1 POP SWAP2 SWAP1 POP JUMP JUMPDEST PUSH1 0x0 PUSH2 0x2014 PUSH2 0x200F PUSH2 0x200A DUP5 PUSH2 0x1FEF JUMP JUMPDEST PUSH2 0xCA0 JUMP JUMPDEST PUSH2 0xB8D JUMP JUMPDEST SWAP1 POP SWAP2 SWAP1 POP JUMP JUMPDEST PUSH2 0x2024 DUP2 PUSH2 0x1FF9 JUMP JUMPDEST DUP3 MSTORE POP POP JUMP JUMPDEST PUSH1 0x0 PUSH1 0x80 DUP3 ADD SWAP1 POP PUSH2 0x203F PUSH1 0x0 DUP4 ADD DUP8 PUSH2 0xD1A JUMP JUMPDEST DUP2 DUP2 SUB PUSH1 0x20 DUP4 ADD MSTORE PUSH2 0x2051 DUP2 DUP7 PUSH2 0x1FB6 JUMP JUMPDEST SWAP1 POP PUSH2 0x2060 PUSH1 0x40 DUP4 ADD DUP6 PUSH2 0xD1A JUMP JUMPDEST PUSH2 0x206D PUSH1 0x60 DUP4 ADD DUP5 PUSH2 0x201B JUMP JUMPDEST SWAP6 SWAP5 POP POP POP POP POP JUMP JUMPDEST PUSH32 0x496E76616C69642050726F6F6600000000000000000000000000000000000000 PUSH1 0x0 DUP3 ADD MSTORE POP JUMP JUMPDEST PUSH1 0x0 PUSH2 0x20AC PUSH1 0xD DUP4 PUSH2 0x18AD JUMP JUMPDEST SWAP2 POP PUSH2 0x20B7 DUP3 PUSH2 0x2076 JUMP JUMPDEST PUSH1 0x20 DUP3 ADD SWAP1 POP SWAP2 SWAP1 POP JUMP JUMPDEST PUSH1 0x0 PUSH1 0x20 DUP3 ADD SWAP1 POP DUP2 DUP2 SUB PUSH1 0x0 DUP4 ADD MSTORE PUSH2 0x20DB DUP2 PUSH2 0x209F JUMP JUMPDEST SWAP1 POP SWAP2 SWAP1 POP JUMP INVALID LOG2 PUSH5 0x6970667358 0x22 SLT KECCAK256 MUL LOG3 CALL 0xD 0xE7 BLOBBASEFEE 0x24 KECCAK256 SWAP3 RETURN INVALID 0xE4 0xE CALLDATASIZE 0xE0 JUMPI DUP15 0x29 EXTCODESIZE 0xB7 ADDRESS 0xE8 MLOAD 0x2E 0x2F BLOBBASEFEE 0xDE LOG2 0xA9 0xEF 0x24 PUSH22 0x64736F6C634300081800330000000000000000000000 "},"methodIdentifiers":{"coinContract()":"72dd52e3","isBurnProofValid((bytes32[],(bytes32,bytes32,uint64,uint64,(bytes32,uint16,bool,bool,uint32[]),(uint64,uint64,address,bool,address,uint256,bytes,uint8,(uint32,address,bytes32[],bytes,bool)[]))),address,address,uint256)":"21f918ef","isEVMTransactionProofValid((bytes32[],(bytes32,bytes32,uint64,uint64,(bytes32,uint16,bool,bool,uint32[]),(uint64,uint64,address,bool,address,uint256,bytes,uint8,(uint32,address,bytes32[],bytes,bool)[]))))":"09f5dc91","owner()":"8da5cb5b","receiveToken(address,uint256,(bytes32[],(bytes32,bytes32,uint64,uint64,(bytes32,uint16,bool,bool,uint32[]),(uint64,uint64,address,bool,address,uint256,bytes,uint8,(uint32,address,bytes32[],bytes,bool)[]))))":"c56156b4","relayerContract()":"c669439e","renounceOwnership()":"715018a6","sendToken(uint256)":"437e95f1","setBridgedCoinContract(address)":"24b6e709","setRelay(address)":"c805f68b","transferOwnership(address)":"f2fde38b"}}}}}