{
  "_format": "hh-sol-artifact-1",
  "contractName": "RelayGateway",
  "sourceName": "contracts/RelayGateway.sol",
  "abi": [
    {
      "inputs": [
        {
          "internalType": "address",
          "name": "_relayer",
          "type": "address"
        },
        {
          "internalType": "bool",
          "name": "_is_destination",
          "type": "bool"
        }
      ],
      "stateMutability": "nonpayable",
      "type": "constructor"
    },
    {
      "inputs": [],
      "name": "ReentrancyGuardReentrantCall",
      "type": "error"
    },
    {
      "anonymous": false,
      "inputs": [
        {
          "indexed": false,
          "internalType": "uint256",
          "name": "uid",
          "type": "uint256"
        },
        {
          "indexed": false,
          "internalType": "address",
          "name": "relayInitiator",
          "type": "address"
        },
        {
          "indexed": false,
          "internalType": "address",
          "name": "relayTarget",
          "type": "address"
        },
        {
          "indexed": false,
          "internalType": "bytes",
          "name": "additionalCalldata",
          "type": "bytes"
        },
        {
          "indexed": false,
          "internalType": "address",
          "name": "sourceToken",
          "type": "address"
        },
        {
          "indexed": false,
          "internalType": "address",
          "name": "targetToken",
          "type": "address"
        },
        {
          "indexed": false,
          "internalType": "uint256",
          "name": "amount",
          "type": "uint256"
        }
      ],
      "name": "RelayExecuted",
      "type": "event"
    },
    {
      "anonymous": false,
      "inputs": [
        {
          "indexed": false,
          "internalType": "uint256",
          "name": "uid",
          "type": "uint256"
        },
        {
          "indexed": false,
          "internalType": "address",
          "name": "relayInitiator",
          "type": "address"
        },
        {
          "indexed": false,
          "internalType": "address",
          "name": "relayTarget",
          "type": "address"
        },
        {
          "indexed": false,
          "internalType": "bytes",
          "name": "additionalCalldata",
          "type": "bytes"
        },
        {
          "indexed": false,
          "internalType": "address",
          "name": "sourceToken",
          "type": "address"
        },
        {
          "indexed": false,
          "internalType": "address",
          "name": "targetToken",
          "type": "address"
        },
        {
          "indexed": false,
          "internalType": "uint256",
          "name": "amount",
          "type": "uint256"
        }
      ],
      "name": "RelayRequested",
      "type": "event"
    },
    {
      "inputs": [
        {
          "internalType": "contract IERC20",
          "name": "_sourceToken",
          "type": "address"
        },
        {
          "internalType": "address",
          "name": "_targetToken",
          "type": "address"
        }
      ],
      "name": "addTokenPair",
      "outputs": [],
      "stateMutability": "nonpayable",
      "type": "function"
    },
    {
      "inputs": [
        {
          "internalType": "uint256",
          "name": "",
          "type": "uint256"
        }
      ],
      "name": "availableTokens",
      "outputs": [
        {
          "internalType": "contract IERC20",
          "name": "",
          "type": "address"
        }
      ],
      "stateMutability": "view",
      "type": "function"
    },
    {
      "inputs": [],
      "name": "calldataInterface",
      "outputs": [
        {
          "internalType": "contract CalldataInterface",
          "name": "",
          "type": "address"
        }
      ],
      "stateMutability": "view",
      "type": "function"
    },
    {
      "inputs": [
        {
          "components": [
            {
              "internalType": "uint256",
              "name": "uid",
              "type": "uint256"
            },
            {
              "internalType": "address",
              "name": "relayInitiator",
              "type": "address"
            },
            {
              "internalType": "address",
              "name": "relayTarget",
              "type": "address"
            },
            {
              "internalType": "bytes",
              "name": "additionalCalldata",
              "type": "bytes"
            },
            {
              "internalType": "address",
              "name": "sourceToken",
              "type": "address"
            },
            {
              "internalType": "address",
              "name": "targetToken",
              "type": "address"
            },
            {
              "internalType": "uint256",
              "name": "amount",
              "type": "uint256"
            },
            {
              "internalType": "uint256",
              "name": "executionResult",
              "type": "uint256"
            },
            {
              "internalType": "bytes32",
              "name": "relayDataHash",
              "type": "bytes32"
            }
          ],
          "internalType": "struct RelayData",
          "name": "_relayData",
          "type": "tuple"
        }
      ],
      "name": "executeRelay",
      "outputs": [],
      "stateMutability": "nonpayable",
      "type": "function"
    },
    {
      "inputs": [
        {
          "internalType": "uint256",
          "name": "",
          "type": "uint256"
        }
      ],
      "name": "executedRelays",
      "outputs": [
        {
          "internalType": "uint256",
          "name": "uid",
          "type": "uint256"
        },
        {
          "internalType": "address",
          "name": "relayInitiator",
          "type": "address"
        },
        {
          "internalType": "address",
          "name": "relayTarget",
          "type": "address"
        },
        {
          "internalType": "bytes",
          "name": "additionalCalldata",
          "type": "bytes"
        },
        {
          "internalType": "address",
          "name": "sourceToken",
          "type": "address"
        },
        {
          "internalType": "address",
          "name": "targetToken",
          "type": "address"
        },
        {
          "internalType": "uint256",
          "name": "amount",
          "type": "uint256"
        },
        {
          "internalType": "uint256",
          "name": "executionResult",
          "type": "uint256"
        },
        {
          "internalType": "bytes32",
          "name": "relayDataHash",
          "type": "bytes32"
        }
      ],
      "stateMutability": "view",
      "type": "function"
    },
    {
      "inputs": [],
      "name": "getExecutedRelays",
      "outputs": [
        {
          "components": [
            {
              "internalType": "uint256",
              "name": "uid",
              "type": "uint256"
            },
            {
              "internalType": "address",
              "name": "relayInitiator",
              "type": "address"
            },
            {
              "internalType": "address",
              "name": "relayTarget",
              "type": "address"
            },
            {
              "internalType": "bytes",
              "name": "additionalCalldata",
              "type": "bytes"
            },
            {
              "internalType": "address",
              "name": "sourceToken",
              "type": "address"
            },
            {
              "internalType": "address",
              "name": "targetToken",
              "type": "address"
            },
            {
              "internalType": "uint256",
              "name": "amount",
              "type": "uint256"
            },
            {
              "internalType": "uint256",
              "name": "executionResult",
              "type": "uint256"
            },
            {
              "internalType": "bytes32",
              "name": "relayDataHash",
              "type": "bytes32"
            }
          ],
          "internalType": "struct RelayData[]",
          "name": "",
          "type": "tuple[]"
        }
      ],
      "stateMutability": "view",
      "type": "function"
    },
    {
      "inputs": [],
      "name": "getRequestedRelays",
      "outputs": [
        {
          "components": [
            {
              "internalType": "uint256",
              "name": "uid",
              "type": "uint256"
            },
            {
              "internalType": "address",
              "name": "relayInitiator",
              "type": "address"
            },
            {
              "internalType": "address",
              "name": "relayTarget",
              "type": "address"
            },
            {
              "internalType": "bytes",
              "name": "additionalCalldata",
              "type": "bytes"
            },
            {
              "internalType": "address",
              "name": "sourceToken",
              "type": "address"
            },
            {
              "internalType": "address",
              "name": "targetToken",
              "type": "address"
            },
            {
              "internalType": "uint256",
              "name": "amount",
              "type": "uint256"
            },
            {
              "internalType": "uint256",
              "name": "executionResult",
              "type": "uint256"
            },
            {
              "internalType": "bytes32",
              "name": "relayDataHash",
              "type": "bytes32"
            }
          ],
          "internalType": "struct RelayData[]",
          "name": "",
          "type": "tuple[]"
        }
      ],
      "stateMutability": "view",
      "type": "function"
    },
    {
      "inputs": [],
      "name": "is_destination",
      "outputs": [
        {
          "internalType": "bool",
          "name": "",
          "type": "bool"
        }
      ],
      "stateMutability": "view",
      "type": "function"
    },
    {
      "inputs": [],
      "name": "owner",
      "outputs": [
        {
          "internalType": "address",
          "name": "",
          "type": "address"
        }
      ],
      "stateMutability": "view",
      "type": "function"
    },
    {
      "inputs": [],
      "name": "relayer",
      "outputs": [
        {
          "internalType": "address",
          "name": "",
          "type": "address"
        }
      ],
      "stateMutability": "view",
      "type": "function"
    },
    {
      "inputs": [
        {
          "internalType": "contract IERC20",
          "name": "_sourceToken",
          "type": "address"
        },
        {
          "internalType": "uint256",
          "name": "tokenId",
          "type": "uint256"
        }
      ],
      "name": "removeTokenPair",
      "outputs": [],
      "stateMutability": "nonpayable",
      "type": "function"
    },
    {
      "inputs": [
        {
          "internalType": "address",
          "name": "_relayTarget",
          "type": "address"
        },
        {
          "internalType": "bytes",
          "name": "_additionalCalldata",
          "type": "bytes"
        },
        {
          "internalType": "address",
          "name": "_sourceToken",
          "type": "address"
        },
        {
          "internalType": "uint256",
          "name": "_amount",
          "type": "uint256"
        }
      ],
      "name": "requestRelay",
      "outputs": [],
      "stateMutability": "nonpayable",
      "type": "function"
    },
    {
      "inputs": [
        {
          "internalType": "uint256",
          "name": "",
          "type": "uint256"
        }
      ],
      "name": "requestedRelays",
      "outputs": [
        {
          "internalType": "uint256",
          "name": "uid",
          "type": "uint256"
        },
        {
          "internalType": "address",
          "name": "relayInitiator",
          "type": "address"
        },
        {
          "internalType": "address",
          "name": "relayTarget",
          "type": "address"
        },
        {
          "internalType": "bytes",
          "name": "additionalCalldata",
          "type": "bytes"
        },
        {
          "internalType": "address",
          "name": "sourceToken",
          "type": "address"
        },
        {
          "internalType": "address",
          "name": "targetToken",
          "type": "address"
        },
        {
          "internalType": "uint256",
          "name": "amount",
          "type": "uint256"
        },
        {
          "internalType": "uint256",
          "name": "executionResult",
          "type": "uint256"
        },
        {
          "internalType": "bytes32",
          "name": "relayDataHash",
          "type": "bytes32"
        }
      ],
      "stateMutability": "view",
      "type": "function"
    },
    {
      "inputs": [
        {
          "internalType": "address",
          "name": "_owner",
          "type": "address"
        }
      ],
      "name": "setOwner",
      "outputs": [],
      "stateMutability": "nonpayable",
      "type": "function"
    },
    {
      "inputs": [
        {
          "internalType": "uint256",
          "name": "_uid",
          "type": "uint256"
        },
        {
          "internalType": "uint256",
          "name": "_executionResult",
          "type": "uint256"
        },
        {
          "internalType": "bytes32",
          "name": "relayDataHash",
          "type": "bytes32"
        }
      ],
      "name": "setRelayResult",
      "outputs": [],
      "stateMutability": "nonpayable",
      "type": "function"
    },
    {
      "inputs": [
        {
          "internalType": "address",
          "name": "_relayer",
          "type": "address"
        }
      ],
      "name": "setRelayer",
      "outputs": [],
      "stateMutability": "nonpayable",
      "type": "function"
    },
    {
      "inputs": [
        {
          "internalType": "contract IERC20",
          "name": "",
          "type": "address"
        }
      ],
      "name": "tokenPair",
      "outputs": [
        {
          "internalType": "address",
          "name": "",
          "type": "address"
        }
      ],
      "stateMutability": "view",
      "type": "function"
    }
  ],
  "bytecode": "0x60806040523480156200001157600080fd5b50604051620039ea380380620039ea833981810160405281019062000037919062000204565b600160008190555033600160006101000a81548173ffffffffffffffffffffffffffffffffffffffff021916908373ffffffffffffffffffffffffffffffffffffffff16021790555081600260006101000a81548173ffffffffffffffffffffffffffffffffffffffff021916908373ffffffffffffffffffffffffffffffffffffffff16021790555080600260146101000a81548160ff021916908315150217905550604051620000e9906200014f565b604051809103906000f08015801562000106573d6000803e3d6000fd5b50600360006101000a81548173ffffffffffffffffffffffffffffffffffffffff021916908373ffffffffffffffffffffffffffffffffffffffff16021790555050506200024b565b610688806200336283390190565b600080fd5b600073ffffffffffffffffffffffffffffffffffffffff82169050919050565b60006200018f8262000162565b9050919050565b620001a18162000182565b8114620001ad57600080fd5b50565b600081519050620001c18162000196565b92915050565b60008115159050919050565b620001de81620001c7565b8114620001ea57600080fd5b50565b600081519050620001fe81620001d3565b92915050565b600080604083850312156200021e576200021d6200015d565b5b60006200022e85828601620001b0565b92505060206200024185828601620001ed565b9150509250929050565b613107806200025b6000396000f3fe608060405234801561001057600080fd5b506004361061010b5760003560e01c80638406c079116100a2578063a23b907f11610071578063a23b907f1461029a578063a7c87ec2146102b8578063ad64d068146102d4578063e897e8de14610304578063fe2ed668146103205761010b565b80638406c079146102225780638da5cb5b1461024057806393d99d6e1461025e57806393f3dd481461027c5761010b565b806333dd6d85116100de57806333dd6d851461019457806349d6ec84146101cc5780636548e9bc146101e8578063747dcd08146102045761010b565b806313af403514610110578063148f59331461012c5780631cc6391e14610148578063267422e714610178575b600080fd5b61012a60048036038101906101259190611ee9565b610358565b005b61014660048036038101906101419190611f82565b61042c565b005b610162600480360381019061015d9190612013565b6105aa565b60405161016f919061204f565b60405180910390f35b610192600480360381019061018d91906122b6565b6105dd565b005b6101ae60048036038101906101a991906122ff565b610997565b6040516101c3999897969594939291906123c9565b60405180910390f35b6101e660048036038101906101e1919061245d565b610afd565b005b61020260048036038101906101fd9190611ee9565b610e60565b005b61020c610f34565b604051610219919061269b565b60405180910390f35b61022a611216565b604051610237919061204f565b60405180910390f35b61024861123c565b604051610255919061204f565b60405180910390f35b610266611262565b60405161027391906126d8565b60405180910390f35b610284611275565b6040516102919190612752565b60405180910390f35b6102a261129b565b6040516102af919061269b565b60405180910390f35b6102d260048036038101906102cd919061276d565b61157d565b005b6102ee60048036038101906102e991906122ff565b6117c0565b6040516102fb91906127ce565b60405180910390f35b61031e600480360381019061031991906127e9565b6117ff565b005b61033a600480360381019061033591906122ff565b611c1a565b60405161034f999897969594939291906123c9565b60405180910390f35b600160009054906101000a900473ffffffffffffffffffffffffffffffffffffffff1673ffffffffffffffffffffffffffffffffffffffff163373ffffffffffffffffffffffffffffffffffffffff16146103e8576040517f08c379a00000000000000000000000000000000000000000000000000000000081526004016103df906128c9565b60405180910390fd5b80600160006101000a81548173ffffffffffffffffffffffffffffffffffffffff021916908373ffffffffffffffffffffffffffffffffffffffff16021790555050565b600260009054906101000a900473ffffffffffffffffffffffffffffffffffffffff1673ffffffffffffffffffffffffffffffffffffffff163373ffffffffffffffffffffffffffffffffffffffff16146104bc576040517f08c379a00000000000000000000000000000000000000000000000000000000081526004016104b390612935565b60405180910390fd5b6004805490508310610503576040517f08c379a00000000000000000000000000000000000000000000000000000000081526004016104fa906129a1565b60405180910390fd5b60018214806105125750600282145b610551576040517f08c379a000000000000000000000000000000000000000000000000000000000815260040161054890612a0d565b60405180910390fd5b816004848154811061056657610565612a2d565b5b90600052602060002090600902016007018190555080600484815481106105905761058f612a2d565b5b906000526020600020906009020160080181905550505050565b60076020528060005260406000206000915054906101000a900473ffffffffffffffffffffffffffffffffffffffff1681565b600260009054906101000a900473ffffffffffffffffffffffffffffffffffffffff1673ffffffffffffffffffffffffffffffffffffffff163373ffffffffffffffffffffffffffffffffffffffff161461066d576040517f08c379a000000000000000000000000000000000000000000000000000000000815260040161066490612935565b60405180910390fd5b60008160c001511115610706578060a0015173ffffffffffffffffffffffffffffffffffffffff1663a9059cbb82604001518360c001516040518363ffffffff1660e01b81526004016106c1929190612a5c565b6020604051808303816000875af11580156106e0573d6000803e3d6000fd5b505050506040513d601f19601f820116820180604052508101906107049190612ab1565b505b600081606001515111156107ac57600360009054906101000a900473ffffffffffffffffffffffffffffffffffffffff1673ffffffffffffffffffffffffffffffffffffffff1663bca8c7b5826040015183606001516040518363ffffffff1660e01b8152600401610779929190612ade565b600060405180830381600087803b15801561079357600080fd5b505af11580156107a7573d6000803e3d6000fd5b505050505b60048190806001815401808255809150506001900390600052602060002090600902016000909190919091506000820151816000015560208201518160010160006101000a81548173ffffffffffffffffffffffffffffffffffffffff021916908373ffffffffffffffffffffffffffffffffffffffff16021790555060408201518160020160006101000a81548173ffffffffffffffffffffffffffffffffffffffff021916908373ffffffffffffffffffffffffffffffffffffffff16021790555060608201518160030190816108859190612d10565b5060808201518160040160006101000a81548173ffffffffffffffffffffffffffffffffffffffff021916908373ffffffffffffffffffffffffffffffffffffffff16021790555060a08201518160050160006101000a81548173ffffffffffffffffffffffffffffffffffffffff021916908373ffffffffffffffffffffffffffffffffffffffff16021790555060c0820151816006015560e08201518160070155610100820151816008015550507f8d80bcc3460b53031d8aa27a772098820b942987d9c639cb66c8318541841e81816000015182602001518360400151846060015185608001518660a001518760c0015160405161098c9796959493929190612de2565b60405180910390a150565b600581815481106109a757600080fd5b90600052602060002090600902016000915090508060000154908060010160009054906101000a900473ffffffffffffffffffffffffffffffffffffffff16908060020160009054906101000a900473ffffffffffffffffffffffffffffffffffffffff1690806003018054610a1c90612b3d565b80601f0160208091040260200160405190810160405280929190818152602001828054610a4890612b3d565b8015610a955780601f10610a6a57610100808354040283529160200191610a95565b820191906000526020600020905b815481529060010190602001808311610a7857829003601f168201915b5050505050908060040160009054906101000a900473ffffffffffffffffffffffffffffffffffffffff16908060050160009054906101000a900473ffffffffffffffffffffffffffffffffffffffff16908060060154908060070154908060080154905089565b600160009054906101000a900473ffffffffffffffffffffffffffffffffffffffff1673ffffffffffffffffffffffffffffffffffffffff163373ffffffffffffffffffffffffffffffffffffffff1614610b8d576040517f08c379a0000000000000000000000000000000000000000000000000000000008152600401610b84906128c9565b60405180910390fd5b600073ffffffffffffffffffffffffffffffffffffffff16600760008473ffffffffffffffffffffffffffffffffffffffff1673ffffffffffffffffffffffffffffffffffffffff16815260200190815260200160002060009054906101000a900473ffffffffffffffffffffffffffffffffffffffff1673ffffffffffffffffffffffffffffffffffffffff1603610c5b576040517f08c379a0000000000000000000000000000000000000000000000000000000008152600401610c5290612ea4565b60405180910390fd5b8173ffffffffffffffffffffffffffffffffffffffff1660068281548110610c8657610c85612a2d565b5b9060005260206000200160009054906101000a900473ffffffffffffffffffffffffffffffffffffffff1673ffffffffffffffffffffffffffffffffffffffff1614610d07576040517f08c379a0000000000000000000000000000000000000000000000000000000008152600401610cfe90612f10565b60405180910390fd5b60066001600680549050610d1b9190612f5f565b81548110610d2c57610d2b612a2d565b5b9060005260206000200160009054906101000a900473ffffffffffffffffffffffffffffffffffffffff1660068281548110610d6b57610d6a612a2d565b5b9060005260206000200160006101000a81548173ffffffffffffffffffffffffffffffffffffffff021916908373ffffffffffffffffffffffffffffffffffffffff1602179055506006805480610dc557610dc4612f93565b5b6001900381819060005260206000200160006101000a81549073ffffffffffffffffffffffffffffffffffffffff02191690559055600760008373ffffffffffffffffffffffffffffffffffffffff1673ffffffffffffffffffffffffffffffffffffffff16815260200190815260200160002060006101000a81549073ffffffffffffffffffffffffffffffffffffffff02191690555050565b600160009054906101000a900473ffffffffffffffffffffffffffffffffffffffff1673ffffffffffffffffffffffffffffffffffffffff163373ffffffffffffffffffffffffffffffffffffffff1614610ef0576040517f08c379a0000000000000000000000000000000000000000000000000000000008152600401610ee7906128c9565b60405180910390fd5b80600260006101000a81548173ffffffffffffffffffffffffffffffffffffffff021916908373ffffffffffffffffffffffffffffffffffffffff16021790555050565b6060600060058054905067ffffffffffffffff811115610f5757610f56612080565b5b604051908082528060200260200182016040528015610f9057816020015b610f7d611dd0565b815260200190600190039081610f755790505b50905060005b60058054905081101561120e5760058181548110610fb757610fb6612a2d565b5b906000526020600020906009020160405180610120016040529081600082015481526020016001820160009054906101000a900473ffffffffffffffffffffffffffffffffffffffff1673ffffffffffffffffffffffffffffffffffffffff1673ffffffffffffffffffffffffffffffffffffffff1681526020016002820160009054906101000a900473ffffffffffffffffffffffffffffffffffffffff1673ffffffffffffffffffffffffffffffffffffffff1673ffffffffffffffffffffffffffffffffffffffff16815260200160038201805461109790612b3d565b80601f01602080910402602001604051908101604052809291908181526020018280546110c390612b3d565b80156111105780601f106110e557610100808354040283529160200191611110565b820191906000526020600020905b8154815290600101906020018083116110f357829003601f168201915b505050505081526020016004820160009054906101000a900473ffffffffffffffffffffffffffffffffffffffff1673ffffffffffffffffffffffffffffffffffffffff1673ffffffffffffffffffffffffffffffffffffffff1681526020016005820160009054906101000a900473ffffffffffffffffffffffffffffffffffffffff1673ffffffffffffffffffffffffffffffffffffffff1673ffffffffffffffffffffffffffffffffffffffff16815260200160068201548152602001600782015481526020016008820154815250508282815181106111f6576111f5612a2d565b5b60200260200101819052508080600101915050610f96565b508091505090565b600260009054906101000a900473ffffffffffffffffffffffffffffffffffffffff1681565b600160009054906101000a900473ffffffffffffffffffffffffffffffffffffffff1681565b600260149054906101000a900460ff1681565b600360009054906101000a900473ffffffffffffffffffffffffffffffffffffffff1681565b6060600060048054905067ffffffffffffffff8111156112be576112bd612080565b5b6040519080825280602002602001820160405280156112f757816020015b6112e4611dd0565b8152602001906001900390816112dc5790505b50905060005b600480549050811015611575576004818154811061131e5761131d612a2d565b5b906000526020600020906009020160405180610120016040529081600082015481526020016001820160009054906101000a900473ffffffffffffffffffffffffffffffffffffffff1673ffffffffffffffffffffffffffffffffffffffff1673ffffffffffffffffffffffffffffffffffffffff1681526020016002820160009054906101000a900473ffffffffffffffffffffffffffffffffffffffff1673ffffffffffffffffffffffffffffffffffffffff1673ffffffffffffffffffffffffffffffffffffffff1681526020016003820180546113fe90612b3d565b80601f016020809104026020016040519081016040528092919081815260200182805461142a90612b3d565b80156114775780601f1061144c57610100808354040283529160200191611477565b820191906000526020600020905b81548152906001019060200180831161145a57829003601f168201915b505050505081526020016004820160009054906101000a900473ffffffffffffffffffffffffffffffffffffffff1673ffffffffffffffffffffffffffffffffffffffff1673ffffffffffffffffffffffffffffffffffffffff1681526020016005820160009054906101000a900473ffffffffffffffffffffffffffffffffffffffff1673ffffffffffffffffffffffffffffffffffffffff1673ffffffffffffffffffffffffffffffffffffffff168152602001600682015481526020016007820154815260200160088201548152505082828151811061155d5761155c612a2d565b5b602002602001018190525080806001019150506112fd565b508091505090565b600160009054906101000a900473ffffffffffffffffffffffffffffffffffffffff1673ffffffffffffffffffffffffffffffffffffffff163373ffffffffffffffffffffffffffffffffffffffff161461160d576040517f08c379a0000000000000000000000000000000000000000000000000000000008152600401611604906128c9565b60405180910390fd5b600073ffffffffffffffffffffffffffffffffffffffff16600760008473ffffffffffffffffffffffffffffffffffffffff1673ffffffffffffffffffffffffffffffffffffffff16815260200190815260200160002060009054906101000a900473ffffffffffffffffffffffffffffffffffffffff1673ffffffffffffffffffffffffffffffffffffffff16146116db576040517f08c379a00000000000000000000000000000000000000000000000000000000081526004016116d29061300e565b60405180910390fd5b6006829080600181540180825580915050600190039060005260206000200160009091909190916101000a81548173ffffffffffffffffffffffffffffffffffffffff021916908373ffffffffffffffffffffffffffffffffffffffff16021790555080600760008473ffffffffffffffffffffffffffffffffffffffff1673ffffffffffffffffffffffffffffffffffffffff16815260200190815260200160002060006101000a81548173ffffffffffffffffffffffffffffffffffffffff021916908373ffffffffffffffffffffffffffffffffffffffff1602179055505050565b600681815481106117d057600080fd5b906000526020600020016000915054906101000a900473ffffffffffffffffffffffffffffffffffffffff1681565b611807611d80565b6000600760008473ffffffffffffffffffffffffffffffffffffffff1673ffffffffffffffffffffffffffffffffffffffff16815260200190815260200160002060009054906101000a900473ffffffffffffffffffffffffffffffffffffffff169050600073ffffffffffffffffffffffffffffffffffffffff168173ffffffffffffffffffffffffffffffffffffffff16036118da576040517f08c379a00000000000000000000000000000000000000000000000000000000081526004016118d19061307a565b60405180910390fd5b600060405180610120016040528060058054905081526020013373ffffffffffffffffffffffffffffffffffffffff1681526020018773ffffffffffffffffffffffffffffffffffffffff1681526020018681526020018573ffffffffffffffffffffffffffffffffffffffff1681526020018373ffffffffffffffffffffffffffffffffffffffff168152602001848152602001600081526020016000801b815250905060058190806001815401808255809150506001900390600052602060002090600902016000909190919091506000820151816000015560208201518160010160006101000a81548173ffffffffffffffffffffffffffffffffffffffff021916908373ffffffffffffffffffffffffffffffffffffffff16021790555060408201518160020160006101000a81548173ffffffffffffffffffffffffffffffffffffffff021916908373ffffffffffffffffffffffffffffffffffffffff1602179055506060820151816003019081611a589190612d10565b5060808201518160040160006101000a81548173ffffffffffffffffffffffffffffffffffffffff021916908373ffffffffffffffffffffffffffffffffffffffff16021790555060a08201518160050160006101000a81548173ffffffffffffffffffffffffffffffffffffffff021916908373ffffffffffffffffffffffffffffffffffffffff16021790555060c0820151816006015560e08201518160070155610100820151816008015550508373ffffffffffffffffffffffffffffffffffffffff166323b872dd33600160009054906101000a900473ffffffffffffffffffffffffffffffffffffffff16866040518463ffffffff1660e01b8152600401611b679392919061309a565b6020604051808303816000875af1158015611b86573d6000803e3d6000fd5b505050506040513d601f19601f82011682018060405250810190611baa9190612ab1565b507f4599a14afb01d51b75540a961262ad1157de6ef44f1780ef686af91fef984be7816000015182602001518360400151846060015185608001518660a001518760c00151604051611c029796959493929190612de2565b60405180910390a15050611c14611dc6565b50505050565b60048181548110611c2a57600080fd5b90600052602060002090600902016000915090508060000154908060010160009054906101000a900473ffffffffffffffffffffffffffffffffffffffff16908060020160009054906101000a900473ffffffffffffffffffffffffffffffffffffffff1690806003018054611c9f90612b3d565b80601f0160208091040260200160405190810160405280929190818152602001828054611ccb90612b3d565b8015611d185780601f10611ced57610100808354040283529160200191611d18565b820191906000526020600020905b815481529060010190602001808311611cfb57829003601f168201915b5050505050908060040160009054906101000a900473ffffffffffffffffffffffffffffffffffffffff16908060050160009054906101000a900473ffffffffffffffffffffffffffffffffffffffff16908060060154908060070154908060080154905089565b600260005403611dbc576040517f3ee5aeb500000000000000000000000000000000000000000000000000000000815260040160405180910390fd5b6002600081905550565b6001600081905550565b60405180610120016040528060008152602001600073ffffffffffffffffffffffffffffffffffffffff168152602001600073ffffffffffffffffffffffffffffffffffffffff16815260200160608152602001600073ffffffffffffffffffffffffffffffffffffffff168152602001600073ffffffffffffffffffffffffffffffffffffffff1681526020016000815260200160008152602001600080191681525090565b6000604051905090565b600080fd5b600080fd5b600073ffffffffffffffffffffffffffffffffffffffff82169050919050565b6000611eb682611e8b565b9050919050565b611ec681611eab565b8114611ed157600080fd5b50565b600081359050611ee381611ebd565b92915050565b600060208284031215611eff57611efe611e81565b5b6000611f0d84828501611ed4565b91505092915050565b6000819050919050565b611f2981611f16565b8114611f3457600080fd5b50565b600081359050611f4681611f20565b92915050565b6000819050919050565b611f5f81611f4c565b8114611f6a57600080fd5b50565b600081359050611f7c81611f56565b92915050565b600080600060608486031215611f9b57611f9a611e81565b5b6000611fa986828701611f37565b9350506020611fba86828701611f37565b9250506040611fcb86828701611f6d565b9150509250925092565b6000611fe082611eab565b9050919050565b611ff081611fd5565b8114611ffb57600080fd5b50565b60008135905061200d81611fe7565b92915050565b60006020828403121561202957612028611e81565b5b600061203784828501611ffe565b91505092915050565b61204981611eab565b82525050565b60006020820190506120646000830184612040565b92915050565b600080fd5b6000601f19601f8301169050919050565b7f4e487b7100000000000000000000000000000000000000000000000000000000600052604160045260246000fd5b6120b88261206f565b810181811067ffffffffffffffff821117156120d7576120d6612080565b5b80604052505050565b60006120ea611e77565b90506120f682826120af565b919050565b600080fd5b600080fd5b600080fd5b600067ffffffffffffffff82111561212557612124612080565b5b61212e8261206f565b9050602081019050919050565b82818337600083830152505050565b600061215d6121588461210a565b6120e0565b90508281526020810184848401111561217957612178612105565b5b61218484828561213b565b509392505050565b600082601f8301126121a1576121a0612100565b5b81356121b184826020860161214a565b91505092915050565b600061012082840312156121d1576121d061206a565b5b6121dc6101206120e0565b905060006121ec84828501611f37565b600083015250602061220084828501611ed4565b602083015250604061221484828501611ed4565b604083015250606082013567ffffffffffffffff811115612238576122376120fb565b5b6122448482850161218c565b606083015250608061225884828501611ed4565b60808301525060a061226c84828501611ed4565b60a08301525060c061228084828501611f37565b60c08301525060e061229484828501611f37565b60e0830152506101006122a984828501611f6d565b6101008301525092915050565b6000602082840312156122cc576122cb611e81565b5b600082013567ffffffffffffffff8111156122ea576122e9611e86565b5b6122f6848285016121ba565b91505092915050565b60006020828403121561231557612314611e81565b5b600061232384828501611f37565b91505092915050565b61233581611f16565b82525050565b600081519050919050565b600082825260208201905092915050565b60005b8381101561237557808201518184015260208101905061235a565b60008484015250505050565b600061238c8261233b565b6123968185612346565b93506123a6818560208601612357565b6123af8161206f565b840191505092915050565b6123c381611f4c565b82525050565b6000610120820190506123df600083018c61232c565b6123ec602083018b612040565b6123f9604083018a612040565b818103606083015261240b8189612381565b905061241a6080830188612040565b61242760a0830187612040565b61243460c083018661232c565b61244160e083018561232c565b61244f6101008301846123ba565b9a9950505050505050505050565b6000806040838503121561247457612473611e81565b5b600061248285828601611ffe565b925050602061249385828601611f37565b9150509250929050565b600081519050919050565b600082825260208201905092915050565b6000819050602082019050919050565b6124d281611f16565b82525050565b6124e181611eab565b82525050565b600082825260208201905092915050565b60006125038261233b565b61250d81856124e7565b935061251d818560208601612357565b6125268161206f565b840191505092915050565b61253a81611f4c565b82525050565b60006101208301600083015161255960008601826124c9565b50602083015161256c60208601826124d8565b50604083015161257f60408601826124d8565b506060830151848203606086015261259782826124f8565b91505060808301516125ac60808601826124d8565b5060a08301516125bf60a08601826124d8565b5060c08301516125d260c08601826124c9565b5060e08301516125e560e08601826124c9565b506101008301516125fa610100860182612531565b508091505092915050565b60006126118383612540565b905092915050565b6000602082019050919050565b60006126318261249d565b61263b81856124a8565b93508360208202850161264d856124b9565b8060005b85811015612689578484038952815161266a8582612605565b945061267583612619565b925060208a01995050600181019050612651565b50829750879550505050505092915050565b600060208201905081810360008301526126b58184612626565b905092915050565b60008115159050919050565b6126d2816126bd565b82525050565b60006020820190506126ed60008301846126c9565b92915050565b6000819050919050565b600061271861271361270e84611e8b565b6126f3565b611e8b565b9050919050565b600061272a826126fd565b9050919050565b600061273c8261271f565b9050919050565b61274c81612731565b82525050565b60006020820190506127676000830184612743565b92915050565b6000806040838503121561278457612783611e81565b5b600061279285828601611ffe565b92505060206127a385828601611ed4565b9150509250929050565b60006127b88261271f565b9050919050565b6127c8816127ad565b82525050565b60006020820190506127e360008301846127bf565b92915050565b6000806000806080858703121561280357612802611e81565b5b600061281187828801611ed4565b945050602085013567ffffffffffffffff81111561283257612831611e86565b5b61283e8782880161218c565b935050604061284f87828801611ed4565b925050606061286087828801611f37565b91505092959194509250565b600082825260208201905092915050565b7f4e6f74206f776e65720000000000000000000000000000000000000000000000600082015250565b60006128b360098361286c565b91506128be8261287d565b602082019050919050565b600060208201905081810360008301526128e2816128a6565b9050919050565b7f4e6f742072656c61796572000000000000000000000000000000000000000000600082015250565b600061291f600b8361286c565b915061292a826128e9565b602082019050919050565b6000602082019050818103600083015261294e81612912565b9050919050565b7f496e76616c696420756964000000000000000000000000000000000000000000600082015250565b600061298b600b8361286c565b915061299682612955565b602082019050919050565b600060208201905081810360008301526129ba8161297e565b9050919050565b7f496e76616c696420657865637574696f6e20726573756c740000000000000000600082015250565b60006129f760188361286c565b9150612a02826129c1565b602082019050919050565b60006020820190508181036000830152612a26816129ea565b9050919050565b7f4e487b7100000000000000000000000000000000000000000000000000000000600052603260045260246000fd5b6000604082019050612a716000830185612040565b612a7e602083018461232c565b9392505050565b612a8e816126bd565b8114612a9957600080fd5b50565b600081519050612aab81612a85565b92915050565b600060208284031215612ac757612ac6611e81565b5b6000612ad584828501612a9c565b91505092915050565b6000604082019050612af36000830185612040565b8181036020830152612b058184612381565b90509392505050565b7f4e487b7100000000000000000000000000000000000000000000000000000000600052602260045260246000fd5b60006002820490506001821680612b5557607f821691505b602082108103612b6857612b67612b0e565b5b50919050565b60008190508160005260206000209050919050565b60006020601f8301049050919050565b600082821b905092915050565b600060088302612bd07fffffffffffffffffffffffffffffffffffffffffffffffffffffffffffffffff82612b93565b612bda8683612b93565b95508019841693508086168417925050509392505050565b6000612c0d612c08612c0384611f16565b6126f3565b611f16565b9050919050565b6000819050919050565b612c2783612bf2565b612c3b612c3382612c14565b848454612ba0565b825550505050565b600090565b612c50612c43565b612c5b818484612c1e565b505050565b5b81811015612c7f57612c74600082612c48565b600181019050612c61565b5050565b601f821115612cc457612c9581612b6e565b612c9e84612b83565b81016020851015612cad578190505b612cc1612cb985612b83565b830182612c60565b50505b505050565b600082821c905092915050565b6000612ce760001984600802612cc9565b1980831691505092915050565b6000612d008383612cd6565b9150826002028217905092915050565b612d198261233b565b67ffffffffffffffff811115612d3257612d31612080565b5b612d3c8254612b3d565b612d47828285612c83565b600060209050601f831160018114612d7a5760008415612d68578287015190505b612d728582612cf4565b865550612dda565b601f198416612d8886612b6e565b60005b82811015612db057848901518255600182019150602085019450602081019050612d8b565b86831015612dcd5784890151612dc9601f891682612cd6565b8355505b6001600288020188555050505b505050505050565b600060e082019050612df7600083018a61232c565b612e046020830189612040565b612e116040830188612040565b8181036060830152612e238187612381565b9050612e326080830186612040565b612e3f60a0830185612040565b612e4c60c083018461232c565b98975050505050505050565b7f546f6b656e207061697220646f6573206e6f7420657869737400000000000000600082015250565b6000612e8e60198361286c565b9150612e9982612e58565b602082019050919050565b60006020820190508181036000830152612ebd81612e81565b9050919050565b7f496e76616c696420746f6b656e20696400000000000000000000000000000000600082015250565b6000612efa60108361286c565b9150612f0582612ec4565b602082019050919050565b60006020820190508181036000830152612f2981612eed565b9050919050565b7f4e487b7100000000000000000000000000000000000000000000000000000000600052601160045260246000fd5b6000612f6a82611f16565b9150612f7583611f16565b9250828203905081811115612f8d57612f8c612f30565b5b92915050565b7f4e487b7100000000000000000000000000000000000000000000000000000000600052603160045260246000fd5b7f546f6b656e207061697220616c72656164792065786973747300000000000000600082015250565b6000612ff860198361286c565b915061300382612fc2565b602082019050919050565b6000602082019050818103600083015261302781612feb565b9050919050565b7f546f6b656e206e6f7420737570706f7274656400000000000000000000000000600082015250565b600061306460138361286c565b915061306f8261302e565b602082019050919050565b6000602082019050818103600083015261309381613057565b9050919050565b60006060820190506130af6000830186612040565b6130bc6020830185612040565b6130c9604083018461232c565b94935050505056fea2646970667358221220dd5de5d71d218f582db2529532edd51814dfa7bfd425ec28ef80c67cd3f90d9564736f6c63430008180033608060405234801561001057600080fd5b506001600081905550610660806100286000396000f3fe608060405234801561001057600080fd5b506004361061002b5760003560e01c8063bca8c7b514610030575b600080fd5b61004a60048036038101906100459190610379565b61004c565b005b610054610171565b6000808373ffffffffffffffffffffffffffffffffffffffff168360405161007c9190610446565b6000604051808303816000865af19150503d80600081146100b9576040519150601f19603f3d011682016040523d82523d6000602084013e6100be565b606091505b5091509150816101635760448151101561010d576040517f08c379a0000000000000000000000000000000000000000000000000000000008152600401610104906104ba565b60405180910390fd5b60048101905080806020019051810190610127919061057b565b6040517f08c379a000000000000000000000000000000000000000000000000000000000815260040161015a9190610608565b60405180910390fd5b505061016d6101b7565b5050565b6002600054036101ad576040517f3ee5aeb500000000000000000000000000000000000000000000000000000000815260040160405180910390fd5b6002600081905550565b6001600081905550565b6000604051905090565b600080fd5b600080fd5b600073ffffffffffffffffffffffffffffffffffffffff82169050919050565b6000610200826101d5565b9050919050565b610210816101f5565b811461021b57600080fd5b50565b60008135905061022d81610207565b92915050565b600080fd5b600080fd5b6000601f19601f8301169050919050565b7f4e487b7100000000000000000000000000000000000000000000000000000000600052604160045260246000fd5b6102868261023d565b810181811067ffffffffffffffff821117156102a5576102a461024e565b5b80604052505050565b60006102b86101c1565b90506102c4828261027d565b919050565b600067ffffffffffffffff8211156102e4576102e361024e565b5b6102ed8261023d565b9050602081019050919050565b82818337600083830152505050565b600061031c610317846102c9565b6102ae565b90508281526020810184848401111561033857610337610238565b5b6103438482856102fa565b509392505050565b600082601f8301126103605761035f610233565b5b8135610370848260208601610309565b91505092915050565b600080604083850312156103905761038f6101cb565b5b600061039e8582860161021e565b925050602083013567ffffffffffffffff8111156103bf576103be6101d0565b5b6103cb8582860161034b565b9150509250929050565b600081519050919050565b600081905092915050565b60005b838110156104095780820151818401526020810190506103ee565b60008484015250505050565b6000610420826103d5565b61042a81856103e0565b935061043a8185602086016103eb565b80840191505092915050565b60006104528284610415565b915081905092915050565b600082825260208201905092915050565b7f4572726f7220696e20657865637574696f6e0000000000000000000000000000600082015250565b60006104a460128361045d565b91506104af8261046e565b602082019050919050565b600060208201905081810360008301526104d381610497565b9050919050565b600067ffffffffffffffff8211156104f5576104f461024e565b5b6104fe8261023d565b9050602081019050919050565b600061051e610519846104da565b6102ae565b90508281526020810184848401111561053a57610539610238565b5b6105458482856103eb565b509392505050565b600082601f83011261056257610561610233565b5b815161057284826020860161050b565b91505092915050565b600060208284031215610591576105906101cb565b5b600082015167ffffffffffffffff8111156105af576105ae6101d0565b5b6105bb8482850161054d565b91505092915050565b600081519050919050565b60006105da826105c4565b6105e4818561045d565b93506105f48185602086016103eb565b6105fd8161023d565b840191505092915050565b6000602082019050818103600083015261062281846105cf565b90509291505056fea2646970667358221220f021a3c7ffa32b8601f43ff60324daa1b621d4cd4922370c7fad91f6e1bd88e064736f6c63430008180033",
  "linkReferences": {},
  "deployedLinkReferences": {}
}