{
  "_format": "hh-sol-artifact-1",
  "contractName": "ERC20Bridge",
  "sourceName": "contracts/ERC20Bridge.sol",
  "abi": [
    {
      "inputs": [
        {
          "internalType": "uint256",
          "name": "initialSupply",
          "type": "uint256"
        }
      ],
      "stateMutability": "nonpayable",
      "type": "constructor"
    },
    {
      "inputs": [],
      "name": "AccessControlBadConfirmation",
      "type": "error"
    },
    {
      "inputs": [
        {
          "internalType": "address",
          "name": "account",
          "type": "address"
        },
        {
          "internalType": "bytes32",
          "name": "neededRole",
          "type": "bytes32"
        }
      ],
      "name": "AccessControlUnauthorizedAccount",
      "type": "error"
    },
    {
      "inputs": [
        {
          "internalType": "address",
          "name": "caller",
          "type": "address"
        }
      ],
      "name": "CallerNotMinter",
      "type": "error"
    },
    {
      "inputs": [
        {
          "internalType": "address",
          "name": "caller",
          "type": "address"
        }
      ],
      "name": "CallerNotOwner",
      "type": "error"
    },
    {
      "inputs": [
        {
          "internalType": "address",
          "name": "spender",
          "type": "address"
        },
        {
          "internalType": "uint256",
          "name": "allowance",
          "type": "uint256"
        },
        {
          "internalType": "uint256",
          "name": "needed",
          "type": "uint256"
        }
      ],
      "name": "ERC20InsufficientAllowance",
      "type": "error"
    },
    {
      "inputs": [
        {
          "internalType": "address",
          "name": "sender",
          "type": "address"
        },
        {
          "internalType": "uint256",
          "name": "balance",
          "type": "uint256"
        },
        {
          "internalType": "uint256",
          "name": "needed",
          "type": "uint256"
        }
      ],
      "name": "ERC20InsufficientBalance",
      "type": "error"
    },
    {
      "inputs": [
        {
          "internalType": "address",
          "name": "approver",
          "type": "address"
        }
      ],
      "name": "ERC20InvalidApprover",
      "type": "error"
    },
    {
      "inputs": [
        {
          "internalType": "address",
          "name": "receiver",
          "type": "address"
        }
      ],
      "name": "ERC20InvalidReceiver",
      "type": "error"
    },
    {
      "inputs": [
        {
          "internalType": "address",
          "name": "sender",
          "type": "address"
        }
      ],
      "name": "ERC20InvalidSender",
      "type": "error"
    },
    {
      "inputs": [
        {
          "internalType": "address",
          "name": "spender",
          "type": "address"
        }
      ],
      "name": "ERC20InvalidSpender",
      "type": "error"
    },
    {
      "anonymous": false,
      "inputs": [
        {
          "indexed": true,
          "internalType": "address",
          "name": "owner",
          "type": "address"
        },
        {
          "indexed": true,
          "internalType": "address",
          "name": "spender",
          "type": "address"
        },
        {
          "indexed": false,
          "internalType": "uint256",
          "name": "value",
          "type": "uint256"
        }
      ],
      "name": "Approval",
      "type": "event"
    },
    {
      "anonymous": false,
      "inputs": [
        {
          "indexed": true,
          "internalType": "bytes32",
          "name": "role",
          "type": "bytes32"
        },
        {
          "indexed": true,
          "internalType": "bytes32",
          "name": "previousAdminRole",
          "type": "bytes32"
        },
        {
          "indexed": true,
          "internalType": "bytes32",
          "name": "newAdminRole",
          "type": "bytes32"
        }
      ],
      "name": "RoleAdminChanged",
      "type": "event"
    },
    {
      "anonymous": false,
      "inputs": [
        {
          "indexed": true,
          "internalType": "bytes32",
          "name": "role",
          "type": "bytes32"
        },
        {
          "indexed": true,
          "internalType": "address",
          "name": "account",
          "type": "address"
        },
        {
          "indexed": true,
          "internalType": "address",
          "name": "sender",
          "type": "address"
        }
      ],
      "name": "RoleGranted",
      "type": "event"
    },
    {
      "anonymous": false,
      "inputs": [
        {
          "indexed": true,
          "internalType": "bytes32",
          "name": "role",
          "type": "bytes32"
        },
        {
          "indexed": true,
          "internalType": "address",
          "name": "account",
          "type": "address"
        },
        {
          "indexed": true,
          "internalType": "address",
          "name": "sender",
          "type": "address"
        }
      ],
      "name": "RoleRevoked",
      "type": "event"
    },
    {
      "anonymous": false,
      "inputs": [
        {
          "indexed": true,
          "internalType": "address",
          "name": "from",
          "type": "address"
        },
        {
          "indexed": true,
          "internalType": "address",
          "name": "to",
          "type": "address"
        },
        {
          "indexed": false,
          "internalType": "uint256",
          "name": "value",
          "type": "uint256"
        }
      ],
      "name": "Transfer",
      "type": "event"
    },
    {
      "inputs": [],
      "name": "DEFAULT_ADMIN_ROLE",
      "outputs": [
        {
          "internalType": "bytes32",
          "name": "",
          "type": "bytes32"
        }
      ],
      "stateMutability": "view",
      "type": "function"
    },
    {
      "inputs": [],
      "name": "MINTER_ROLE",
      "outputs": [
        {
          "internalType": "bytes32",
          "name": "",
          "type": "bytes32"
        }
      ],
      "stateMutability": "view",
      "type": "function"
    },
    {
      "inputs": [],
      "name": "OWNER_ROLE",
      "outputs": [
        {
          "internalType": "bytes32",
          "name": "",
          "type": "bytes32"
        }
      ],
      "stateMutability": "view",
      "type": "function"
    },
    {
      "inputs": [
        {
          "internalType": "address",
          "name": "owner",
          "type": "address"
        },
        {
          "internalType": "address",
          "name": "spender",
          "type": "address"
        }
      ],
      "name": "allowance",
      "outputs": [
        {
          "internalType": "uint256",
          "name": "",
          "type": "uint256"
        }
      ],
      "stateMutability": "view",
      "type": "function"
    },
    {
      "inputs": [
        {
          "internalType": "address",
          "name": "spender",
          "type": "address"
        },
        {
          "internalType": "uint256",
          "name": "value",
          "type": "uint256"
        }
      ],
      "name": "approve",
      "outputs": [
        {
          "internalType": "bool",
          "name": "",
          "type": "bool"
        }
      ],
      "stateMutability": "nonpayable",
      "type": "function"
    },
    {
      "inputs": [
        {
          "internalType": "address",
          "name": "account",
          "type": "address"
        }
      ],
      "name": "balanceOf",
      "outputs": [
        {
          "internalType": "uint256",
          "name": "",
          "type": "uint256"
        }
      ],
      "stateMutability": "view",
      "type": "function"
    },
    {
      "inputs": [
        {
          "internalType": "uint256",
          "name": "value",
          "type": "uint256"
        }
      ],
      "name": "burn",
      "outputs": [],
      "stateMutability": "nonpayable",
      "type": "function"
    },
    {
      "inputs": [
        {
          "internalType": "address",
          "name": "account",
          "type": "address"
        },
        {
          "internalType": "uint256",
          "name": "value",
          "type": "uint256"
        }
      ],
      "name": "burnFrom",
      "outputs": [],
      "stateMutability": "nonpayable",
      "type": "function"
    },
    {
      "inputs": [],
      "name": "decimals",
      "outputs": [
        {
          "internalType": "uint8",
          "name": "",
          "type": "uint8"
        }
      ],
      "stateMutability": "view",
      "type": "function"
    },
    {
      "inputs": [
        {
          "internalType": "bytes32",
          "name": "role",
          "type": "bytes32"
        }
      ],
      "name": "getRoleAdmin",
      "outputs": [
        {
          "internalType": "bytes32",
          "name": "",
          "type": "bytes32"
        }
      ],
      "stateMutability": "view",
      "type": "function"
    },
    {
      "inputs": [
        {
          "internalType": "address",
          "name": "minter",
          "type": "address"
        }
      ],
      "name": "grantMinter",
      "outputs": [],
      "stateMutability": "nonpayable",
      "type": "function"
    },
    {
      "inputs": [
        {
          "internalType": "bytes32",
          "name": "role",
          "type": "bytes32"
        },
        {
          "internalType": "address",
          "name": "account",
          "type": "address"
        }
      ],
      "name": "grantRole",
      "outputs": [],
      "stateMutability": "nonpayable",
      "type": "function"
    },
    {
      "inputs": [
        {
          "internalType": "bytes32",
          "name": "role",
          "type": "bytes32"
        },
        {
          "internalType": "address",
          "name": "account",
          "type": "address"
        }
      ],
      "name": "hasRole",
      "outputs": [
        {
          "internalType": "bool",
          "name": "",
          "type": "bool"
        }
      ],
      "stateMutability": "view",
      "type": "function"
    },
    {
      "inputs": [
        {
          "internalType": "address",
          "name": "to",
          "type": "address"
        },
        {
          "internalType": "uint256",
          "name": "amount",
          "type": "uint256"
        }
      ],
      "name": "mint",
      "outputs": [],
      "stateMutability": "nonpayable",
      "type": "function"
    },
    {
      "inputs": [],
      "name": "name",
      "outputs": [
        {
          "internalType": "string",
          "name": "",
          "type": "string"
        }
      ],
      "stateMutability": "view",
      "type": "function"
    },
    {
      "inputs": [
        {
          "internalType": "bytes32",
          "name": "role",
          "type": "bytes32"
        },
        {
          "internalType": "address",
          "name": "callerConfirmation",
          "type": "address"
        }
      ],
      "name": "renounceRole",
      "outputs": [],
      "stateMutability": "nonpayable",
      "type": "function"
    },
    {
      "inputs": [
        {
          "internalType": "bytes32",
          "name": "role",
          "type": "bytes32"
        },
        {
          "internalType": "address",
          "name": "account",
          "type": "address"
        }
      ],
      "name": "revokeRole",
      "outputs": [],
      "stateMutability": "nonpayable",
      "type": "function"
    },
    {
      "inputs": [
        {
          "internalType": "bytes4",
          "name": "interfaceId",
          "type": "bytes4"
        }
      ],
      "name": "supportsInterface",
      "outputs": [
        {
          "internalType": "bool",
          "name": "",
          "type": "bool"
        }
      ],
      "stateMutability": "view",
      "type": "function"
    },
    {
      "inputs": [],
      "name": "symbol",
      "outputs": [
        {
          "internalType": "string",
          "name": "",
          "type": "string"
        }
      ],
      "stateMutability": "view",
      "type": "function"
    },
    {
      "inputs": [],
      "name": "totalSupply",
      "outputs": [
        {
          "internalType": "uint256",
          "name": "",
          "type": "uint256"
        }
      ],
      "stateMutability": "view",
      "type": "function"
    },
    {
      "inputs": [
        {
          "internalType": "address",
          "name": "to",
          "type": "address"
        },
        {
          "internalType": "uint256",
          "name": "value",
          "type": "uint256"
        }
      ],
      "name": "transfer",
      "outputs": [
        {
          "internalType": "bool",
          "name": "",
          "type": "bool"
        }
      ],
      "stateMutability": "nonpayable",
      "type": "function"
    },
    {
      "inputs": [
        {
          "internalType": "address",
          "name": "from",
          "type": "address"
        },
        {
          "internalType": "address",
          "name": "to",
          "type": "address"
        },
        {
          "internalType": "uint256",
          "name": "value",
          "type": "uint256"
        }
      ],
      "name": "transferFrom",
      "outputs": [
        {
          "internalType": "bool",
          "name": "",
          "type": "bool"
        }
      ],
      "stateMutability": "nonpayable",
      "type": "function"
    }
  ],
  "bytecode": "0x60806040523480156200001157600080fd5b50604051620023c5380380620023c583398181016040528101906200003791906200058a565b6040518060400160405280600781526020017f426162436f696e000000000000000000000000000000000000000000000000008152506040518060400160405280600381526020017f42414200000000000000000000000000000000000000000000000000000000008152508160049081620000b491906200082c565b508060059081620000c691906200082c565b505050620000fb7fb19546dff01e856fb3f010c267a7b1c60363cf8a4664e21cc89c26224620214e336200011560201b60201c565b506200010e33826200021860201b60201c565b5062000a4a565b6000620001298383620002a560201b60201c565b6200020d57600160008085815260200190815260200160002060000160008473ffffffffffffffffffffffffffffffffffffffff1673ffffffffffffffffffffffffffffffffffffffff16815260200190815260200160002060006101000a81548160ff021916908315150217905550620001a96200030f60201b60201c565b73ffffffffffffffffffffffffffffffffffffffff168273ffffffffffffffffffffffffffffffffffffffff16847f2f8788117e7eff1d82e926ec794901d17c78024a50270940304540a733656f0d60405160405180910390a46001905062000212565b600090505b92915050565b600073ffffffffffffffffffffffffffffffffffffffff168273ffffffffffffffffffffffffffffffffffffffff16036200028d5760006040517fec442f0500000000000000000000000000000000000000000000000000000000815260040162000284919062000958565b60405180910390fd5b620002a1600083836200031760201b60201c565b5050565b600080600084815260200190815260200160002060000160008373ffffffffffffffffffffffffffffffffffffffff1673ffffffffffffffffffffffffffffffffffffffff16815260200190815260200160002060009054906101000a900460ff16905092915050565b600033905090565b600073ffffffffffffffffffffffffffffffffffffffff168373ffffffffffffffffffffffffffffffffffffffff16036200036d578060036000828254620003609190620009a4565b9250508190555062000445565b6000600160008573ffffffffffffffffffffffffffffffffffffffff1673ffffffffffffffffffffffffffffffffffffffff16815260200190815260200160002054905081811015620003fd578381836040517fe450d38c000000000000000000000000000000000000000000000000000000008152600401620003f493929190620009f0565b60405180910390fd5b818103600160008673ffffffffffffffffffffffffffffffffffffffff1673ffffffffffffffffffffffffffffffffffffffff16815260200190815260200160002081905550505b600073ffffffffffffffffffffffffffffffffffffffff168273ffffffffffffffffffffffffffffffffffffffff1603620004905780600360008282540392505081905550620004de565b80600160008473ffffffffffffffffffffffffffffffffffffffff1673ffffffffffffffffffffffffffffffffffffffff168152602001908152602001600020600082825401925050819055505b8173ffffffffffffffffffffffffffffffffffffffff168373ffffffffffffffffffffffffffffffffffffffff167fddf252ad1be2c89b69c2b068fc378daa952ba7f163c4a11628f55a4df523b3ef836040516200053d919062000a2d565b60405180910390a3505050565b600080fd5b6000819050919050565b62000564816200054f565b81146200057057600080fd5b50565b600081519050620005848162000559565b92915050565b600060208284031215620005a357620005a26200054a565b5b6000620005b38482850162000573565b91505092915050565b600081519050919050565b7f4e487b7100000000000000000000000000000000000000000000000000000000600052604160045260246000fd5b7f4e487b7100000000000000000000000000000000000000000000000000000000600052602260045260246000fd5b600060028204905060018216806200063e57607f821691505b602082108103620006545762000653620005f6565b5b50919050565b60008190508160005260206000209050919050565b60006020601f8301049050919050565b600082821b905092915050565b600060088302620006be7fffffffffffffffffffffffffffffffffffffffffffffffffffffffffffffffff826200067f565b620006ca86836200067f565b95508019841693508086168417925050509392505050565b6000819050919050565b60006200070d6200070762000701846200054f565b620006e2565b6200054f565b9050919050565b6000819050919050565b6200072983620006ec565b62000741620007388262000714565b8484546200068c565b825550505050565b600090565b6200075862000749565b620007658184846200071e565b505050565b5b818110156200078d57620007816000826200074e565b6001810190506200076b565b5050565b601f821115620007dc57620007a6816200065a565b620007b1846200066f565b81016020851015620007c1578190505b620007d9620007d0856200066f565b8301826200076a565b50505b505050565b600082821c905092915050565b60006200080160001984600802620007e1565b1980831691505092915050565b60006200081c8383620007ee565b9150826002028217905092915050565b6200083782620005bc565b67ffffffffffffffff811115620008535762000852620005c7565b5b6200085f825462000625565b6200086c82828562000791565b600060209050601f831160018114620008a457600084156200088f578287015190505b6200089b85826200080e565b8655506200090b565b601f198416620008b4866200065a565b60005b82811015620008de57848901518255600182019150602085019450602081019050620008b7565b86831015620008fe5784890151620008fa601f891682620007ee565b8355505b6001600288020188555050505b505050505050565b600073ffffffffffffffffffffffffffffffffffffffff82169050919050565b6000620009408262000913565b9050919050565b620009528162000933565b82525050565b60006020820190506200096f600083018462000947565b92915050565b7f4e487b7100000000000000000000000000000000000000000000000000000000600052601160045260246000fd5b6000620009b1826200054f565b9150620009be836200054f565b9250828201905080821115620009d957620009d862000975565b5b92915050565b620009ea816200054f565b82525050565b600060608201905062000a07600083018662000947565b62000a166020830185620009df565b62000a256040830184620009df565b949350505050565b600060208201905062000a446000830184620009df565b92915050565b61196b8062000a5a6000396000f3fe608060405234801561001057600080fd5b50600436106101425760003560e01c806342966c68116100b8578063a217fddf1161007c578063a217fddf14610387578063a9059cbb146103a5578063d5391393146103d5578063d547741f146103f3578063dd62ed3e1461040f578063e58378bb1461043f57610142565b806342966c68146102d157806370a08231146102ed57806379cc67901461031d57806391d148541461033957806395d89b411461036957610142565b8063248a9ca31161010a578063248a9ca314610213578063261707fa146102435780632f2ff15d1461025f578063313ce5671461027b57806336568abe1461029957806340c10f19146102b557610142565b806301ffc9a71461014757806306fdde0314610177578063095ea7b31461019557806318160ddd146101c557806323b872dd146101e3575b600080fd5b610161600480360381019061015c91906113e4565b61045d565b60405161016e919061142c565b60405180910390f35b61017f6104d7565b60405161018c91906114d7565b60405180910390f35b6101af60048036038101906101aa919061158d565b610569565b6040516101bc919061142c565b60405180910390f35b6101cd61058c565b6040516101da91906115dc565b60405180910390f35b6101fd60048036038101906101f891906115f7565b610596565b60405161020a919061142c565b60405180910390f35b61022d60048036038101906102289190611680565b6105c5565b60405161023a91906116bc565b60405180910390f35b61025d600480360381019061025891906116d7565b6105e4565b005b61027960048036038101906102749190611704565b61067d565b005b61028361069f565b6040516102909190611760565b60405180910390f35b6102b360048036038101906102ae9190611704565b6106a8565b005b6102cf60048036038101906102ca919061158d565b610723565b005b6102eb60048036038101906102e6919061177b565b61079c565b005b610307600480360381019061030291906116d7565b6107b0565b60405161031491906115dc565b60405180910390f35b6103376004803603810190610332919061158d565b6107f9565b005b610353600480360381019061034e9190611704565b610819565b604051610360919061142c565b60405180910390f35b610371610883565b60405161037e91906114d7565b60405180910390f35b61038f610915565b60405161039c91906116bc565b60405180910390f35b6103bf60048036038101906103ba919061158d565b61091c565b6040516103cc919061142c565b60405180910390f35b6103dd61093f565b6040516103ea91906116bc565b60405180910390f35b61040d60048036038101906104089190611704565b610963565b005b610429600480360381019061042491906117a8565b610985565b60405161043691906115dc565b60405180910390f35b610447610a0c565b60405161045491906116bc565b60405180910390f35b60007f7965db0b000000000000000000000000000000000000000000000000000000007bffffffffffffffffffffffffffffffffffffffffffffffffffffffff1916827bffffffffffffffffffffffffffffffffffffffffffffffffffffffff191614806104d057506104cf82610a30565b5b9050919050565b6060600480546104e690611817565b80601f016020809104026020016040519081016040528092919081815260200182805461051290611817565b801561055f5780601f106105345761010080835404028352916020019161055f565b820191906000526020600020905b81548152906001019060200180831161054257829003601f168201915b5050505050905090565b600080610574610a9a565b9050610581818585610aa2565b600191505092915050565b6000600354905090565b6000806105a1610a9a565b90506105ae858285610ab4565b6105b9858585610b48565b60019150509392505050565b6000806000838152602001908152602001600020600101549050919050565b61060e7fb19546dff01e856fb3f010c267a7b1c60363cf8a4664e21cc89c26224620214e33610819565b61064f57336040517f3014b6380000000000000000000000000000000000000000000000000000000081526004016106469190611857565b60405180910390fd5b6106797f9f2df0fed2c77648de5860a4cc508cd0818c85b8b8a1ab4ceeef8d981c8956a682610c3c565b5050565b610686826105c5565b61068f81610d2d565b6106998383610c3c565b50505050565b60006012905090565b6106b0610a9a565b73ffffffffffffffffffffffffffffffffffffffff168173ffffffffffffffffffffffffffffffffffffffff1614610714576040517f6697b23200000000000000000000000000000000000000000000000000000000815260040160405180910390fd5b61071e8282610d41565b505050565b61074d7f9f2df0fed2c77648de5860a4cc508cd0818c85b8b8a1ab4ceeef8d981c8956a633610819565b61078e57336040517f5fb5729e0000000000000000000000000000000000000000000000000000000081526004016107859190611857565b60405180910390fd5b6107988282610e33565b5050565b6107ad6107a7610a9a565b82610eb5565b50565b6000600160008373ffffffffffffffffffffffffffffffffffffffff1673ffffffffffffffffffffffffffffffffffffffff168152602001908152602001600020549050919050565b61080b82610805610a9a565b83610ab4565b6108158282610eb5565b5050565b600080600084815260200190815260200160002060000160008373ffffffffffffffffffffffffffffffffffffffff1673ffffffffffffffffffffffffffffffffffffffff16815260200190815260200160002060009054906101000a900460ff16905092915050565b60606005805461089290611817565b80601f01602080910402602001604051908101604052809291908181526020018280546108be90611817565b801561090b5780601f106108e05761010080835404028352916020019161090b565b820191906000526020600020905b8154815290600101906020018083116108ee57829003601f168201915b5050505050905090565b6000801b81565b600080610927610a9a565b9050610934818585610b48565b600191505092915050565b7f9f2df0fed2c77648de5860a4cc508cd0818c85b8b8a1ab4ceeef8d981c8956a681565b61096c826105c5565b61097581610d2d565b61097f8383610d41565b50505050565b6000600260008473ffffffffffffffffffffffffffffffffffffffff1673ffffffffffffffffffffffffffffffffffffffff16815260200190815260200160002060008373ffffffffffffffffffffffffffffffffffffffff1673ffffffffffffffffffffffffffffffffffffffff16815260200190815260200160002054905092915050565b7fb19546dff01e856fb3f010c267a7b1c60363cf8a4664e21cc89c26224620214e81565b60007f01ffc9a7000000000000000000000000000000000000000000000000000000007bffffffffffffffffffffffffffffffffffffffffffffffffffffffff1916827bffffffffffffffffffffffffffffffffffffffffffffffffffffffff1916149050919050565b600033905090565b610aaf8383836001610f37565b505050565b6000610ac08484610985565b90507fffffffffffffffffffffffffffffffffffffffffffffffffffffffffffffffff8114610b425781811015610b32578281836040517ffb8f41b2000000000000000000000000000000000000000000000000000000008152600401610b2993929190611872565b60405180910390fd5b610b4184848484036000610f37565b5b50505050565b600073ffffffffffffffffffffffffffffffffffffffff168373ffffffffffffffffffffffffffffffffffffffff1603610bba5760006040517f96c6fd1e000000000000000000000000000000000000000000000000000000008152600401610bb19190611857565b60405180910390fd5b600073ffffffffffffffffffffffffffffffffffffffff168273ffffffffffffffffffffffffffffffffffffffff1603610c2c5760006040517fec442f05000000000000000000000000000000000000000000000000000000008152600401610c239190611857565b60405180910390fd5b610c3783838361110e565b505050565b6000610c488383610819565b610d2257600160008085815260200190815260200160002060000160008473ffffffffffffffffffffffffffffffffffffffff1673ffffffffffffffffffffffffffffffffffffffff16815260200190815260200160002060006101000a81548160ff021916908315150217905550610cbf610a9a565b73ffffffffffffffffffffffffffffffffffffffff168273ffffffffffffffffffffffffffffffffffffffff16847f2f8788117e7eff1d82e926ec794901d17c78024a50270940304540a733656f0d60405160405180910390a460019050610d27565b600090505b92915050565b610d3e81610d39610a9a565b611336565b50565b6000610d4d8383610819565b15610e2857600080600085815260200190815260200160002060000160008473ffffffffffffffffffffffffffffffffffffffff1673ffffffffffffffffffffffffffffffffffffffff16815260200190815260200160002060006101000a81548160ff021916908315150217905550610dc5610a9a565b73ffffffffffffffffffffffffffffffffffffffff168273ffffffffffffffffffffffffffffffffffffffff16847ff6391f5c32d9c69d2a47ea670b442974b53935d1edc7fd64eb21e047a839171b60405160405180910390a460019050610e2d565b600090505b92915050565b600073ffffffffffffffffffffffffffffffffffffffff168273ffffffffffffffffffffffffffffffffffffffff1603610ea55760006040517fec442f05000000000000000000000000000000000000000000000000000000008152600401610e9c9190611857565b60405180910390fd5b610eb16000838361110e565b5050565b600073ffffffffffffffffffffffffffffffffffffffff168273ffffffffffffffffffffffffffffffffffffffff1603610f275760006040517f96c6fd1e000000000000000000000000000000000000000000000000000000008152600401610f1e9190611857565b60405180910390fd5b610f338260008361110e565b5050565b600073ffffffffffffffffffffffffffffffffffffffff168473ffffffffffffffffffffffffffffffffffffffff1603610fa95760006040517fe602df05000000000000000000000000000000000000000000000000000000008152600401610fa09190611857565b60405180910390fd5b600073ffffffffffffffffffffffffffffffffffffffff168373ffffffffffffffffffffffffffffffffffffffff160361101b5760006040517f94280d620000000000000000000000000000000000000000000000000000000081526004016110129190611857565b60405180910390fd5b81600260008673ffffffffffffffffffffffffffffffffffffffff1673ffffffffffffffffffffffffffffffffffffffff16815260200190815260200160002060008573ffffffffffffffffffffffffffffffffffffffff1673ffffffffffffffffffffffffffffffffffffffff168152602001908152602001600020819055508015611108578273ffffffffffffffffffffffffffffffffffffffff168473ffffffffffffffffffffffffffffffffffffffff167f8c5be1e5ebec7d5bd14f71427d1e84f3dd0314c0f7b2291e5b200ac8c7c3b925846040516110ff91906115dc565b60405180910390a35b50505050565b600073ffffffffffffffffffffffffffffffffffffffff168373ffffffffffffffffffffffffffffffffffffffff160361116057806003600082825461115491906118d8565b92505081905550611235565b6000600160008573ffffffffffffffffffffffffffffffffffffffff1673ffffffffffffffffffffffffffffffffffffffff168152602001908152602001600020549050818110156111ed578381836040517fe450d38c0000000000000000000000000000000000000000000000000000000081526004016111e493929190611872565b60405180910390fd5b818103600160008673ffffffffffffffffffffffffffffffffffffffff1673ffffffffffffffffffffffffffffffffffffffff16815260200190815260200160002081905550505b600073ffffffffffffffffffffffffffffffffffffffff168273ffffffffffffffffffffffffffffffffffffffff160361127e57806003600082825403925050819055506112cc565b80600160008473ffffffffffffffffffffffffffffffffffffffff1673ffffffffffffffffffffffffffffffffffffffff168152602001908152602001600020600082825401925050819055505b8173ffffffffffffffffffffffffffffffffffffffff168373ffffffffffffffffffffffffffffffffffffffff167fddf252ad1be2c89b69c2b068fc378daa952ba7f163c4a11628f55a4df523b3ef8360405161132991906115dc565b60405180910390a3505050565b6113408282610819565b6113835780826040517fe2517d3f00000000000000000000000000000000000000000000000000000000815260040161137a92919061190c565b60405180910390fd5b5050565b600080fd5b60007fffffffff0000000000000000000000000000000000000000000000000000000082169050919050565b6113c18161138c565b81146113cc57600080fd5b50565b6000813590506113de816113b8565b92915050565b6000602082840312156113fa576113f9611387565b5b6000611408848285016113cf565b91505092915050565b60008115159050919050565b61142681611411565b82525050565b6000602082019050611441600083018461141d565b92915050565b600081519050919050565b600082825260208201905092915050565b60005b83811015611481578082015181840152602081019050611466565b60008484015250505050565b6000601f19601f8301169050919050565b60006114a982611447565b6114b38185611452565b93506114c3818560208601611463565b6114cc8161148d565b840191505092915050565b600060208201905081810360008301526114f1818461149e565b905092915050565b600073ffffffffffffffffffffffffffffffffffffffff82169050919050565b6000611524826114f9565b9050919050565b61153481611519565b811461153f57600080fd5b50565b6000813590506115518161152b565b92915050565b6000819050919050565b61156a81611557565b811461157557600080fd5b50565b60008135905061158781611561565b92915050565b600080604083850312156115a4576115a3611387565b5b60006115b285828601611542565b92505060206115c385828601611578565b9150509250929050565b6115d681611557565b82525050565b60006020820190506115f160008301846115cd565b92915050565b6000806000606084860312156116105761160f611387565b5b600061161e86828701611542565b935050602061162f86828701611542565b925050604061164086828701611578565b9150509250925092565b6000819050919050565b61165d8161164a565b811461166857600080fd5b50565b60008135905061167a81611654565b92915050565b60006020828403121561169657611695611387565b5b60006116a48482850161166b565b91505092915050565b6116b68161164a565b82525050565b60006020820190506116d160008301846116ad565b92915050565b6000602082840312156116ed576116ec611387565b5b60006116fb84828501611542565b91505092915050565b6000806040838503121561171b5761171a611387565b5b60006117298582860161166b565b925050602061173a85828601611542565b9150509250929050565b600060ff82169050919050565b61175a81611744565b82525050565b60006020820190506117756000830184611751565b92915050565b60006020828403121561179157611790611387565b5b600061179f84828501611578565b91505092915050565b600080604083850312156117bf576117be611387565b5b60006117cd85828601611542565b92505060206117de85828601611542565b9150509250929050565b7f4e487b7100000000000000000000000000000000000000000000000000000000600052602260045260246000fd5b6000600282049050600182168061182f57607f821691505b602082108103611842576118416117e8565b5b50919050565b61185181611519565b82525050565b600060208201905061186c6000830184611848565b92915050565b60006060820190506118876000830186611848565b61189460208301856115cd565b6118a160408301846115cd565b949350505050565b7f4e487b7100000000000000000000000000000000000000000000000000000000600052601160045260246000fd5b60006118e382611557565b91506118ee83611557565b9250828201905080821115611906576119056118a9565b5b92915050565b60006040820190506119216000830185611848565b61192e60208301846116ad565b939250505056fea2646970667358221220de945340bf1d60683c692bde88ac6f31d46e105dd4005386397942a303e4625464736f6c63430008180033",
  "linkReferences": {},
  "deployedLinkReferences": {}
}