{
  "_format": "hh-sol-artifact-1",
  "contractName": "Gateway",
  "sourceName": "contracts/Gateway.sol",
  "abi": [
    {
      "inputs": [
        {
          "internalType": "address",
          "name": "relayer",
          "type": "address"
        },
        {
          "internalType": "address",
          "name": "coin",
          "type": "address"
        }
      ],
      "stateMutability": "nonpayable",
      "type": "constructor"
    },
    {
      "inputs": [
        {
          "internalType": "address",
          "name": "owner",
          "type": "address"
        }
      ],
      "name": "OwnableInvalidOwner",
      "type": "error"
    },
    {
      "inputs": [
        {
          "internalType": "address",
          "name": "account",
          "type": "address"
        }
      ],
      "name": "OwnableUnauthorizedAccount",
      "type": "error"
    },
    {
      "anonymous": false,
      "inputs": [
        {
          "indexed": true,
          "internalType": "address",
          "name": "previousOwner",
          "type": "address"
        },
        {
          "indexed": true,
          "internalType": "address",
          "name": "newOwner",
          "type": "address"
        }
      ],
      "name": "OwnershipTransferred",
      "type": "event"
    },
    {
      "anonymous": false,
      "inputs": [],
      "name": "TokensBridged",
      "type": "event"
    },
    {
      "inputs": [],
      "name": "coinContract",
      "outputs": [
        {
          "internalType": "contract IERC20Bridge",
          "name": "",
          "type": "address"
        }
      ],
      "stateMutability": "view",
      "type": "function"
    },
    {
      "inputs": [
        {
          "components": [
            {
              "internalType": "bytes32[]",
              "name": "merkleProof",
              "type": "bytes32[]"
            },
            {
              "components": [
                {
                  "internalType": "bytes32",
                  "name": "attestationType",
                  "type": "bytes32"
                },
                {
                  "internalType": "bytes32",
                  "name": "sourceId",
                  "type": "bytes32"
                },
                {
                  "internalType": "uint64",
                  "name": "votingRound",
                  "type": "uint64"
                },
                {
                  "internalType": "uint64",
                  "name": "lowestUsedTimestamp",
                  "type": "uint64"
                },
                {
                  "components": [
                    {
                      "internalType": "bytes32",
                      "name": "transactionHash",
                      "type": "bytes32"
                    },
                    {
                      "internalType": "uint16",
                      "name": "requiredConfirmations",
                      "type": "uint16"
                    },
                    {
                      "internalType": "bool",
                      "name": "provideInput",
                      "type": "bool"
                    },
                    {
                      "internalType": "bool",
                      "name": "listEvents",
                      "type": "bool"
                    },
                    {
                      "internalType": "uint32[]",
                      "name": "logIndices",
                      "type": "uint32[]"
                    }
                  ],
                  "internalType": "struct EVMTransaction.RequestBody",
                  "name": "requestBody",
                  "type": "tuple"
                },
                {
                  "components": [
                    {
                      "internalType": "uint64",
                      "name": "blockNumber",
                      "type": "uint64"
                    },
                    {
                      "internalType": "uint64",
                      "name": "timestamp",
                      "type": "uint64"
                    },
                    {
                      "internalType": "address",
                      "name": "sourceAddress",
                      "type": "address"
                    },
                    {
                      "internalType": "bool",
                      "name": "isDeployment",
                      "type": "bool"
                    },
                    {
                      "internalType": "address",
                      "name": "receivingAddress",
                      "type": "address"
                    },
                    {
                      "internalType": "uint256",
                      "name": "value",
                      "type": "uint256"
                    },
                    {
                      "internalType": "bytes",
                      "name": "input",
                      "type": "bytes"
                    },
                    {
                      "internalType": "uint8",
                      "name": "status",
                      "type": "uint8"
                    },
                    {
                      "components": [
                        {
                          "internalType": "uint32",
                          "name": "logIndex",
                          "type": "uint32"
                        },
                        {
                          "internalType": "address",
                          "name": "emitterAddress",
                          "type": "address"
                        },
                        {
                          "internalType": "bytes32[]",
                          "name": "topics",
                          "type": "bytes32[]"
                        },
                        {
                          "internalType": "bytes",
                          "name": "data",
                          "type": "bytes"
                        },
                        {
                          "internalType": "bool",
                          "name": "removed",
                          "type": "bool"
                        }
                      ],
                      "internalType": "struct EVMTransaction.Event[]",
                      "name": "events",
                      "type": "tuple[]"
                    }
                  ],
                  "internalType": "struct EVMTransaction.ResponseBody",
                  "name": "responseBody",
                  "type": "tuple"
                }
              ],
              "internalType": "struct EVMTransaction.Response",
              "name": "data",
              "type": "tuple"
            }
          ],
          "internalType": "struct EVMTransaction.Proof",
          "name": "transaction",
          "type": "tuple"
        },
        {
          "internalType": "address",
          "name": "tokenAddress",
          "type": "address"
        },
        {
          "internalType": "address",
          "name": "to",
          "type": "address"
        },
        {
          "internalType": "uint256",
          "name": "amount",
          "type": "uint256"
        }
      ],
      "name": "isBurnProofValid",
      "outputs": [
        {
          "internalType": "bool",
          "name": "",
          "type": "bool"
        }
      ],
      "stateMutability": "view",
      "type": "function"
    },
    {
      "inputs": [
        {
          "components": [
            {
              "internalType": "bytes32[]",
              "name": "merkleProof",
              "type": "bytes32[]"
            },
            {
              "components": [
                {
                  "internalType": "bytes32",
                  "name": "attestationType",
                  "type": "bytes32"
                },
                {
                  "internalType": "bytes32",
                  "name": "sourceId",
                  "type": "bytes32"
                },
                {
                  "internalType": "uint64",
                  "name": "votingRound",
                  "type": "uint64"
                },
                {
                  "internalType": "uint64",
                  "name": "lowestUsedTimestamp",
                  "type": "uint64"
                },
                {
                  "components": [
                    {
                      "internalType": "bytes32",
                      "name": "transactionHash",
                      "type": "bytes32"
                    },
                    {
                      "internalType": "uint16",
                      "name": "requiredConfirmations",
                      "type": "uint16"
                    },
                    {
                      "internalType": "bool",
                      "name": "provideInput",
                      "type": "bool"
                    },
                    {
                      "internalType": "bool",
                      "name": "listEvents",
                      "type": "bool"
                    },
                    {
                      "internalType": "uint32[]",
                      "name": "logIndices",
                      "type": "uint32[]"
                    }
                  ],
                  "internalType": "struct EVMTransaction.RequestBody",
                  "name": "requestBody",
                  "type": "tuple"
                },
                {
                  "components": [
                    {
                      "internalType": "uint64",
                      "name": "blockNumber",
                      "type": "uint64"
                    },
                    {
                      "internalType": "uint64",
                      "name": "timestamp",
                      "type": "uint64"
                    },
                    {
                      "internalType": "address",
                      "name": "sourceAddress",
                      "type": "address"
                    },
                    {
                      "internalType": "bool",
                      "name": "isDeployment",
                      "type": "bool"
                    },
                    {
                      "internalType": "address",
                      "name": "receivingAddress",
                      "type": "address"
                    },
                    {
                      "internalType": "uint256",
                      "name": "value",
                      "type": "uint256"
                    },
                    {
                      "internalType": "bytes",
                      "name": "input",
                      "type": "bytes"
                    },
                    {
                      "internalType": "uint8",
                      "name": "status",
                      "type": "uint8"
                    },
                    {
                      "components": [
                        {
                          "internalType": "uint32",
                          "name": "logIndex",
                          "type": "uint32"
                        },
                        {
                          "internalType": "address",
                          "name": "emitterAddress",
                          "type": "address"
                        },
                        {
                          "internalType": "bytes32[]",
                          "name": "topics",
                          "type": "bytes32[]"
                        },
                        {
                          "internalType": "bytes",
                          "name": "data",
                          "type": "bytes"
                        },
                        {
                          "internalType": "bool",
                          "name": "removed",
                          "type": "bool"
                        }
                      ],
                      "internalType": "struct EVMTransaction.Event[]",
                      "name": "events",
                      "type": "tuple[]"
                    }
                  ],
                  "internalType": "struct EVMTransaction.ResponseBody",
                  "name": "responseBody",
                  "type": "tuple"
                }
              ],
              "internalType": "struct EVMTransaction.Response",
              "name": "data",
              "type": "tuple"
            }
          ],
          "internalType": "struct EVMTransaction.Proof",
          "name": "transaction",
          "type": "tuple"
        }
      ],
      "name": "isEVMTransactionProofValid",
      "outputs": [
        {
          "internalType": "bool",
          "name": "",
          "type": "bool"
        }
      ],
      "stateMutability": "view",
      "type": "function"
    },
    {
      "inputs": [],
      "name": "owner",
      "outputs": [
        {
          "internalType": "address",
          "name": "",
          "type": "address"
        }
      ],
      "stateMutability": "view",
      "type": "function"
    },
    {
      "inputs": [
        {
          "internalType": "address",
          "name": "to",
          "type": "address"
        },
        {
          "internalType": "uint256",
          "name": "amount",
          "type": "uint256"
        },
        {
          "components": [
            {
              "internalType": "bytes32[]",
              "name": "merkleProof",
              "type": "bytes32[]"
            },
            {
              "components": [
                {
                  "internalType": "bytes32",
                  "name": "attestationType",
                  "type": "bytes32"
                },
                {
                  "internalType": "bytes32",
                  "name": "sourceId",
                  "type": "bytes32"
                },
                {
                  "internalType": "uint64",
                  "name": "votingRound",
                  "type": "uint64"
                },
                {
                  "internalType": "uint64",
                  "name": "lowestUsedTimestamp",
                  "type": "uint64"
                },
                {
                  "components": [
                    {
                      "internalType": "bytes32",
                      "name": "transactionHash",
                      "type": "bytes32"
                    },
                    {
                      "internalType": "uint16",
                      "name": "requiredConfirmations",
                      "type": "uint16"
                    },
                    {
                      "internalType": "bool",
                      "name": "provideInput",
                      "type": "bool"
                    },
                    {
                      "internalType": "bool",
                      "name": "listEvents",
                      "type": "bool"
                    },
                    {
                      "internalType": "uint32[]",
                      "name": "logIndices",
                      "type": "uint32[]"
                    }
                  ],
                  "internalType": "struct EVMTransaction.RequestBody",
                  "name": "requestBody",
                  "type": "tuple"
                },
                {
                  "components": [
                    {
                      "internalType": "uint64",
                      "name": "blockNumber",
                      "type": "uint64"
                    },
                    {
                      "internalType": "uint64",
                      "name": "timestamp",
                      "type": "uint64"
                    },
                    {
                      "internalType": "address",
                      "name": "sourceAddress",
                      "type": "address"
                    },
                    {
                      "internalType": "bool",
                      "name": "isDeployment",
                      "type": "bool"
                    },
                    {
                      "internalType": "address",
                      "name": "receivingAddress",
                      "type": "address"
                    },
                    {
                      "internalType": "uint256",
                      "name": "value",
                      "type": "uint256"
                    },
                    {
                      "internalType": "bytes",
                      "name": "input",
                      "type": "bytes"
                    },
                    {
                      "internalType": "uint8",
                      "name": "status",
                      "type": "uint8"
                    },
                    {
                      "components": [
                        {
                          "internalType": "uint32",
                          "name": "logIndex",
                          "type": "uint32"
                        },
                        {
                          "internalType": "address",
                          "name": "emitterAddress",
                          "type": "address"
                        },
                        {
                          "internalType": "bytes32[]",
                          "name": "topics",
                          "type": "bytes32[]"
                        },
                        {
                          "internalType": "bytes",
                          "name": "data",
                          "type": "bytes"
                        },
                        {
                          "internalType": "bool",
                          "name": "removed",
                          "type": "bool"
                        }
                      ],
                      "internalType": "struct EVMTransaction.Event[]",
                      "name": "events",
                      "type": "tuple[]"
                    }
                  ],
                  "internalType": "struct EVMTransaction.ResponseBody",
                  "name": "responseBody",
                  "type": "tuple"
                }
              ],
              "internalType": "struct EVMTransaction.Response",
              "name": "data",
              "type": "tuple"
            }
          ],
          "internalType": "struct EVMTransaction.Proof",
          "name": "transaction",
          "type": "tuple"
        }
      ],
      "name": "receiveToken",
      "outputs": [],
      "stateMutability": "nonpayable",
      "type": "function"
    },
    {
      "inputs": [],
      "name": "relayerContract",
      "outputs": [
        {
          "internalType": "contract IRelayer",
          "name": "",
          "type": "address"
        }
      ],
      "stateMutability": "view",
      "type": "function"
    },
    {
      "inputs": [],
      "name": "renounceOwnership",
      "outputs": [],
      "stateMutability": "nonpayable",
      "type": "function"
    },
    {
      "inputs": [
        {
          "internalType": "uint256",
          "name": "amount",
          "type": "uint256"
        }
      ],
      "name": "sendToken",
      "outputs": [],
      "stateMutability": "nonpayable",
      "type": "function"
    },
    {
      "inputs": [
        {
          "internalType": "address",
          "name": "_bridgedContract",
          "type": "address"
        }
      ],
      "name": "setBridgedCoinContract",
      "outputs": [],
      "stateMutability": "nonpayable",
      "type": "function"
    },
    {
      "inputs": [
        {
          "internalType": "address",
          "name": "_target",
          "type": "address"
        }
      ],
      "name": "setRelay",
      "outputs": [],
      "stateMutability": "nonpayable",
      "type": "function"
    },
    {
      "inputs": [
        {
          "internalType": "address",
          "name": "newOwner",
          "type": "address"
        }
      ],
      "name": "transferOwnership",
      "outputs": [],
      "stateMutability": "nonpayable",
      "type": "function"
    }
  ],
  "bytecode": "0x60806040523480156200001157600080fd5b506040516200241438038062002414833981810160405281019062000037919062000277565b33600073ffffffffffffffffffffffffffffffffffffffff168173ffffffffffffffffffffffffffffffffffffffff1603620000ad5760006040517f1e4fbdf7000000000000000000000000000000000000000000000000000000008152600401620000a49190620002cf565b60405180910390fd5b620000be816200014960201b60201c565b5080600160006101000a81548173ffffffffffffffffffffffffffffffffffffffff021916908373ffffffffffffffffffffffffffffffffffffffff16021790555081600260006101000a81548173ffffffffffffffffffffffffffffffffffffffff021916908373ffffffffffffffffffffffffffffffffffffffff1602179055505050620002ec565b60008060009054906101000a900473ffffffffffffffffffffffffffffffffffffffff169050816000806101000a81548173ffffffffffffffffffffffffffffffffffffffff021916908373ffffffffffffffffffffffffffffffffffffffff1602179055508173ffffffffffffffffffffffffffffffffffffffff168173ffffffffffffffffffffffffffffffffffffffff167f8be0079c531659141344cd1fd0a4f28419497f9722a3daafe3b4186f6b6457e060405160405180910390a35050565b600080fd5b600073ffffffffffffffffffffffffffffffffffffffff82169050919050565b60006200023f8262000212565b9050919050565b620002518162000232565b81146200025d57600080fd5b50565b600081519050620002718162000246565b92915050565b600080604083850312156200029157620002906200020d565b5b6000620002a18582860162000260565b9250506020620002b48582860162000260565b9150509250929050565b620002c98162000232565b82525050565b6000602082019050620002e66000830184620002be565b92915050565b61211880620002fc6000396000f3fe608060405234801561001057600080fd5b50600436106100a95760003560e01c806372dd52e31161007157806372dd52e3146101505780638da5cb5b1461016e578063c56156b41461018c578063c669439e146101a8578063c805f68b146101c6578063f2fde38b146101e2576100a9565b806309f5dc91146100ae57806321f918ef146100de57806324b6e7091461010e578063437e95f11461012a578063715018a614610146575b600080fd5b6100c860048036038101906100c39190610ab0565b6101fe565b6040516100d59190610b14565b60405180910390f35b6100f860048036038101906100f39190610bc3565b610288565b6040516101059190610b14565b60405180910390f35b61012860048036038101906101239190610c46565b610462565b005b610144600480360381019061013f9190610c73565b6104ae565b005b61014e6106ad565b005b6101586106c1565b6040516101659190610cff565b60405180910390f35b6101766106e7565b6040516101839190610d29565b60405180910390f35b6101a660048036038101906101a19190610d44565b610710565b005b6101b0610811565b6040516101bd9190610dd4565b60405180910390f35b6101e060048036038101906101db9190610c46565b610837565b005b6101fc60048036038101906101f79190610c46565b610883565b005b6000610208610909565b73ffffffffffffffffffffffffffffffffffffffff166358fbe9e1836040518263ffffffff1660e01b81526004016102409190611849565b602060405180830381865afa15801561025d573d6000803e3d6000fd5b505050506040513d601f19601f820116820180604052508101906102819190611880565b9050919050565b600060018061029c575061029b856101fe565b5b6102db576040517f08c379a00000000000000000000000000000000000000000000000000000000081526004016102d29061190a565b60405180910390fd5b6000808680602001906102ee9190611939565b8060a001906102fd9190611961565b80610100019061030d919061198a565b8381811061031e5761031d6119ed565b5b90506020028101906103309190611a1c565b61033990611d00565b90507fe1b725358090db1f537294b09c773c14622b44c1bc2832d105fb28cc48f5bd908160400151600081518110610374576103736119ed565b5b6020026020010151146103bc576040517f08c379a00000000000000000000000000000000000000000000000000000000081526004016103b390611d5f565b60405180910390fd5b60008060008084606001518060200190518101906103da9190611e57565b93509350935093508973ffffffffffffffffffffffffffffffffffffffff168473ffffffffffffffffffffffffffffffffffffffff1614610450576040517f08c379a000000000000000000000000000000000000000000000000000000000815260040161044790611f42565b60405180910390fd5b60019650505050505050949350505050565b61046a610925565b80600460006101000a81548173ffffffffffffffffffffffffffffffffffffffff021916908373ffffffffffffffffffffffffffffffffffffffff16021790555050565b600160009054906101000a900473ffffffffffffffffffffffffffffffffffffffff1673ffffffffffffffffffffffffffffffffffffffff166379cc679033836040518363ffffffff1660e01b815260040161050b929190611f71565b600060405180830381600087803b15801561052557600080fd5b505af1158015610539573d6000803e3d6000fd5b5050505060003382604051602401610552929190611f71565b6040516020818303038152906040527f2a7e5818000000000000000000000000000000000000000000000000000000007bffffffffffffffffffffffffffffffffffffffffffffffffffffffff19166020820180517bffffffffffffffffffffffffffffffffffffffffffffffffffffffff83818316178352505050509050600260009054906101000a900473ffffffffffffffffffffffffffffffffffffffff1673ffffffffffffffffffffffffffffffffffffffff1663e897e8de600360009054906101000a900473ffffffffffffffffffffffffffffffffffffffff1683600160009054906101000a900473ffffffffffffffffffffffffffffffffffffffff1660006040518563ffffffff1660e01b8152600401610677949392919061202a565b600060405180830381600087803b15801561069157600080fd5b505af11580156106a5573d6000803e3d6000fd5b505050505050565b6106b5610925565b6106bf60006109ac565b565b600160009054906101000a900473ffffffffffffffffffffffffffffffffffffffff1681565b60008060009054906101000a900473ffffffffffffffffffffffffffffffffffffffff16905090565b61073e81600460009054906101000a900473ffffffffffffffffffffffffffffffffffffffff168585610288565b61077d576040517f08c379a0000000000000000000000000000000000000000000000000000000008152600401610774906120c2565b60405180910390fd5b600160009054906101000a900473ffffffffffffffffffffffffffffffffffffffff1673ffffffffffffffffffffffffffffffffffffffff166340c10f1984846040518363ffffffff1660e01b81526004016107da929190611f71565b600060405180830381600087803b1580156107f457600080fd5b505af1158015610808573d6000803e3d6000fd5b50505050505050565b600260009054906101000a900473ffffffffffffffffffffffffffffffffffffffff1681565b61083f610925565b80600360006101000a81548173ffffffffffffffffffffffffffffffffffffffff021916908373ffffffffffffffffffffffffffffffffffffffff16021790555050565b61088b610925565b600073ffffffffffffffffffffffffffffffffffffffff168173ffffffffffffffffffffffffffffffffffffffff16036108fd5760006040517f1e4fbdf70000000000000000000000000000000000000000000000000000000081526004016108f49190610d29565b60405180910390fd5b610906816109ac565b50565b600073f37ad1278917c04fb291c75a42e61710964cb57c905090565b61092d610a70565b73ffffffffffffffffffffffffffffffffffffffff1661094b6106e7565b73ffffffffffffffffffffffffffffffffffffffff16146109aa5761096e610a70565b6040517f118cdaa70000000000000000000000000000000000000000000000000000000081526004016109a19190610d29565b60405180910390fd5b565b60008060009054906101000a900473ffffffffffffffffffffffffffffffffffffffff169050816000806101000a81548173ffffffffffffffffffffffffffffffffffffffff021916908373ffffffffffffffffffffffffffffffffffffffff1602179055508173ffffffffffffffffffffffffffffffffffffffff168173ffffffffffffffffffffffffffffffffffffffff167f8be0079c531659141344cd1fd0a4f28419497f9722a3daafe3b4186f6b6457e060405160405180910390a35050565b600033905090565b6000604051905090565b600080fd5b600080fd5b600080fd5b600060408284031215610aa757610aa6610a8c565b5b81905092915050565b600060208284031215610ac657610ac5610a82565b5b600082013567ffffffffffffffff811115610ae457610ae3610a87565b5b610af084828501610a91565b91505092915050565b60008115159050919050565b610b0e81610af9565b82525050565b6000602082019050610b296000830184610b05565b92915050565b600073ffffffffffffffffffffffffffffffffffffffff82169050919050565b6000610b5a82610b2f565b9050919050565b610b6a81610b4f565b8114610b7557600080fd5b50565b600081359050610b8781610b61565b92915050565b6000819050919050565b610ba081610b8d565b8114610bab57600080fd5b50565b600081359050610bbd81610b97565b92915050565b60008060008060808587031215610bdd57610bdc610a82565b5b600085013567ffffffffffffffff811115610bfb57610bfa610a87565b5b610c0787828801610a91565b9450506020610c1887828801610b78565b9350506040610c2987828801610b78565b9250506060610c3a87828801610bae565b91505092959194509250565b600060208284031215610c5c57610c5b610a82565b5b6000610c6a84828501610b78565b91505092915050565b600060208284031215610c8957610c88610a82565b5b6000610c9784828501610bae565b91505092915050565b6000819050919050565b6000610cc5610cc0610cbb84610b2f565b610ca0565b610b2f565b9050919050565b6000610cd782610caa565b9050919050565b6000610ce982610ccc565b9050919050565b610cf981610cde565b82525050565b6000602082019050610d146000830184610cf0565b92915050565b610d2381610b4f565b82525050565b6000602082019050610d3e6000830184610d1a565b92915050565b600080600060608486031215610d5d57610d5c610a82565b5b6000610d6b86828701610b78565b9350506020610d7c86828701610bae565b925050604084013567ffffffffffffffff811115610d9d57610d9c610a87565b5b610da986828701610a91565b9150509250925092565b6000610dbe82610ccc565b9050919050565b610dce81610db3565b82525050565b6000602082019050610de96000830184610dc5565b92915050565b600080fd5b600080fd5b600080fd5b60008083356001602003843603038112610e1b57610e1a610df9565b5b83810192508235915060208301925067ffffffffffffffff821115610e4357610e42610def565b5b602082023603831315610e5957610e58610df4565b5b509250929050565b600082825260208201905092915050565b600080fd5b82818337505050565b6000610e8c8385610e61565b93507f07ffffffffffffffffffffffffffffffffffffffffffffffffffffffffffffff831115610ebf57610ebe610e72565b5b602083029250610ed0838584610e77565b82840190509392505050565b60008235600160c003833603038112610ef857610ef7610df9565b5b82810191505092915050565b6000819050919050565b610f1781610f04565b8114610f2257600080fd5b50565b600081359050610f3481610f0e565b92915050565b6000610f496020840184610f25565b905092915050565b610f5a81610f04565b82525050565b600067ffffffffffffffff82169050919050565b610f7d81610f60565b8114610f8857600080fd5b50565b600081359050610f9a81610f74565b92915050565b6000610faf6020840184610f8b565b905092915050565b610fc081610f60565b82525050565b60008235600160a003833603038112610fe257610fe1610df9565b5b82810191505092915050565b600061ffff82169050919050565b61100581610fee565b811461101057600080fd5b50565b60008135905061102281610ffc565b92915050565b60006110376020840184611013565b905092915050565b61104881610fee565b82525050565b61105781610af9565b811461106257600080fd5b50565b6000813590506110748161104e565b92915050565b60006110896020840184611065565b905092915050565b61109a81610af9565b82525050565b600080833560016020038436030381126110bd576110bc610df9565b5b83810192508235915060208301925067ffffffffffffffff8211156110e5576110e4610def565b5b6020820236038313156110fb576110fa610df4565b5b509250929050565b600082825260208201905092915050565b6000819050919050565b600063ffffffff82169050919050565b6111378161111e565b82525050565b6000611149838361112e565b60208301905092915050565b61115e8161111e565b811461116957600080fd5b50565b60008135905061117b81611155565b92915050565b6000611190602084018461116c565b905092915050565b6000602082019050919050565b60006111b18385611103565b93506111bc82611114565b8060005b858110156111f5576111d28284611181565b6111dc888261113d565b97506111e783611198565b9250506001810190506111c0565b5085925050509392505050565b600060a083016112156000840184610f3a565b6112226000860182610f51565b506112306020840184611028565b61123d602086018261103f565b5061124b604084018461107a565b6112586040860182611091565b50611266606084018461107a565b6112736060860182611091565b5061128160808401846110a0565b85830360808701526112948382846111a5565b925050508091505092915050565b600082356001610120038336030381126112bf576112be610df9565b5b82810191505092915050565b60006112da6020840184610b78565b905092915050565b6112eb81610b4f565b82525050565b60006113006020840184610bae565b905092915050565b61131181610b8d565b82525050565b6000808335600160200384360303811261133457611333610df9565b5b83810192508235915060208301925067ffffffffffffffff82111561135c5761135b610def565b5b60018202360383131561137257611371610df4565b5b509250929050565b600082825260208201905092915050565b82818337600083830152505050565b6000601f19601f8301169050919050565b60006113b7838561137a565b93506113c483858461138b565b6113cd8361139a565b840190509392505050565b600060ff82169050919050565b6113ee816113d8565b81146113f957600080fd5b50565b60008135905061140b816113e5565b92915050565b600061142060208401846113fc565b905092915050565b611431816113d8565b82525050565b6000808335600160200384360303811261145457611453610df9565b5b83810192508235915060208301925067ffffffffffffffff82111561147c5761147b610def565b5b60208202360383131561149257611491610df4565b5b509250929050565b600082825260208201905092915050565b6000819050919050565b600060a083016114c86000840184611181565b6114d5600086018261112e565b506114e360208401846112cb565b6114f060208601826112e2565b506114fe6040840184610dfe565b8583036040870152611511838284610e80565b925050506115226060840184611317565b85830360608701526115358382846113ab565b92505050611546608084018461107a565b6115536080860182611091565b508091505092915050565b600061156a83836114b5565b905092915050565b60008235600160a00383360303811261158e5761158d610df9565b5b82810191505092915050565b6000602082019050919050565b60006115b3838561149a565b9350836020840285016115c5846114ab565b8060005b878110156116095784840389526115e08284611572565b6115ea858261155e565b94506115f58361159a565b925060208a019950506001810190506115c9565b50829750879450505050509392505050565b6000610120830161162f6000840184610fa0565b61163c6000860182610fb7565b5061164a6020840184610fa0565b6116576020860182610fb7565b5061166560408401846112cb565b61167260408601826112e2565b50611680606084018461107a565b61168d6060860182611091565b5061169b60808401846112cb565b6116a860808601826112e2565b506116b660a08401846112f1565b6116c360a0860182611308565b506116d160c0840184611317565b85830360c08701526116e48382846113ab565b925050506116f560e0840184611411565b61170260e0860182611428565b50611711610100840184611437565b8583036101008701526117258382846115a7565b925050508091505092915050565b600060c083016117466000840184610f3a565b6117536000860182610f51565b506117616020840184610f3a565b61176e6020860182610f51565b5061177c6040840184610fa0565b6117896040860182610fb7565b506117976060840184610fa0565b6117a46060860182610fb7565b506117b26080840184610fc6565b84820360808601526117c48282611202565b9150506117d460a08401846112a2565b84820360a08601526117e6828261161b565b9150508091505092915050565b6000604083016118066000840184610dfe565b8583036000870152611819838284610e80565b9250505061182a6020840184610edc565b848203602086015261183c8282611733565b9150508091505092915050565b6000602082019050818103600083015261186381846117f3565b905092915050565b60008151905061187a8161104e565b92915050565b60006020828403121561189657611895610a82565b5b60006118a48482850161186b565b91505092915050565b600082825260208201905092915050565b7f496e76616c69642070726f6f6600000000000000000000000000000000000000600082015250565b60006118f4600d836118ad565b91506118ff826118be565b602082019050919050565b60006020820190508181036000830152611923816118e7565b9050919050565b600080fd5b600080fd5b600080fd5b60008235600160c0038336030381126119555761195461192a565b5b80830191505092915050565b6000823560016101200383360303811261197e5761197d61192a565b5b80830191505092915050565b600080833560016020038436030381126119a7576119a661192a565b5b80840192508235915067ffffffffffffffff8211156119c9576119c861192f565b5b6020830192506020820236038313156119e5576119e4611934565b5b509250929050565b7f4e487b7100000000000000000000000000000000000000000000000000000000600052603260045260246000fd5b60008235600160a003833603038112611a3857611a3761192a565b5b80830191505092915050565b600080fd5b7f4e487b7100000000000000000000000000000000000000000000000000000000600052604160045260246000fd5b611a818261139a565b810181811067ffffffffffffffff82111715611aa057611a9f611a49565b5b80604052505050565b6000611ab3610a78565b9050611abf8282611a78565b919050565b600080fd5b600080fd5b600067ffffffffffffffff821115611ae957611ae8611a49565b5b602082029050602081019050919050565b600080fd5b6000611b12611b0d84611ace565b611aa9565b90508083825260208201905060208402830185811115611b3557611b34611afa565b5b835b81811015611b5e5780611b4a8882610f25565b845260208401935050602081019050611b37565b5050509392505050565b600082601f830112611b7d57611b7c611ac9565b5b8135611b8d848260208601611aff565b91505092915050565b600080fd5b600067ffffffffffffffff821115611bb657611bb5611a49565b5b611bbf8261139a565b9050602081019050919050565b6000611bdf611bda84611b9b565b611aa9565b905082815260208101848484011115611bfb57611bfa611b96565b5b611c0684828561138b565b509392505050565b600082601f830112611c2357611c22611ac9565b5b8135611c33848260208601611bcc565b91505092915050565b600060a08284031215611c5257611c51611a44565b5b611c5c60a0611aa9565b90506000611c6c8482850161116c565b6000830152506020611c8084828501610b78565b602083015250604082013567ffffffffffffffff811115611ca457611ca3611ac4565b5b611cb084828501611b68565b604083015250606082013567ffffffffffffffff811115611cd457611cd3611ac4565b5b611ce084828501611c0e565b6060830152506080611cf484828501611065565b60808301525092915050565b6000611d0c3683611c3c565b9050919050565b7f496e76616c6964206576656e7400000000000000000000000000000000000000600082015250565b6000611d49600d836118ad565b9150611d5482611d13565b602082019050919050565b60006020820190508181036000830152611d7881611d3c565b9050919050565b6000611d8a82610b2f565b9050919050565b611d9a81611d7f565b8114611da557600080fd5b50565b600081519050611db781611d91565b92915050565b60005b83811015611ddb578082015181840152602081019050611dc0565b60008484015250505050565b6000611dfa611df584611b9b565b611aa9565b905082815260208101848484011115611e1657611e15611b96565b5b611e21848285611dbd565b509392505050565b600082601f830112611e3e57611e3d611ac9565b5b8151611e4e848260208601611de7565b91505092915050565b60008060008060808587031215611e7157611e70610a82565b5b6000611e7f87828801611da8565b9450506020611e908782880161186b565b935050604085015167ffffffffffffffff811115611eb157611eb0610a87565b5b611ebd87828801611e29565b925050606085015167ffffffffffffffff811115611ede57611edd610a87565b5b611eea87828801611e29565b91505092959194509250565b7f496e76616c696420746f6b656e20616464726573730000000000000000000000600082015250565b6000611f2c6015836118ad565b9150611f3782611ef6565b602082019050919050565b60006020820190508181036000830152611f5b81611f1f565b9050919050565b611f6b81610b8d565b82525050565b6000604082019050611f866000830185610d1a565b611f936020830184611f62565b9392505050565b600081519050919050565b600082825260208201905092915050565b6000611fc182611f9a565b611fcb8185611fa5565b9350611fdb818560208601611dbd565b611fe48161139a565b840191505092915050565b6000819050919050565b600061201461200f61200a84611fef565b610ca0565b610b8d565b9050919050565b61202481611ff9565b82525050565b600060808201905061203f6000830187610d1a565b81810360208301526120518186611fb6565b90506120606040830185610d1a565b61206d606083018461201b565b95945050505050565b7f496e76616c69642050726f6f6600000000000000000000000000000000000000600082015250565b60006120ac600d836118ad565b91506120b782612076565b602082019050919050565b600060208201905081810360008301526120db8161209f565b905091905056fea264697066735822122002a3f10de74a242092f3fee40e36e0578e293bb730e8512e2f4adea2a9ef247564736f6c63430008180033",
  "linkReferences": {},
  "deployedLinkReferences": {}
}