{
  "_format": "hh-sol-artifact-1",
  "contractName": "CalldataInterface",
  "sourceName": "contracts/CalldataInterface.sol",
  "abi": [
    {
      "inputs": [],
      "name": "ReentrancyGuardReentrantCall",
      "type": "error"
    },
    {
      "inputs": [
        {
          "internalType": "address",
          "name": "_recipient",
          "type": "address"
        },
        {
          "internalType": "bytes",
          "name": "_callData",
          "type": "bytes"
        }
      ],
      "name": "executeCall",
      "outputs": [],
      "stateMutability": "nonpayable",
      "type": "function"
    }
  ],
  "bytecode": "0x608060405234801561001057600080fd5b506001600081905550610660806100286000396000f3fe608060405234801561001057600080fd5b506004361061002b5760003560e01c8063bca8c7b514610030575b600080fd5b61004a60048036038101906100459190610379565b61004c565b005b610054610171565b6000808373ffffffffffffffffffffffffffffffffffffffff168360405161007c9190610446565b6000604051808303816000865af19150503d80600081146100b9576040519150601f19603f3d011682016040523d82523d6000602084013e6100be565b606091505b5091509150816101635760448151101561010d576040517f08c379a0000000000000000000000000000000000000000000000000000000008152600401610104906104ba565b60405180910390fd5b60048101905080806020019051810190610127919061057b565b6040517f08c379a000000000000000000000000000000000000000000000000000000000815260040161015a9190610608565b60405180910390fd5b505061016d6101b7565b5050565b6002600054036101ad576040517f3ee5aeb500000000000000000000000000000000000000000000000000000000815260040160405180910390fd5b6002600081905550565b6001600081905550565b6000604051905090565b600080fd5b600080fd5b600073ffffffffffffffffffffffffffffffffffffffff82169050919050565b6000610200826101d5565b9050919050565b610210816101f5565b811461021b57600080fd5b50565b60008135905061022d81610207565b92915050565b600080fd5b600080fd5b6000601f19601f8301169050919050565b7f4e487b7100000000000000000000000000000000000000000000000000000000600052604160045260246000fd5b6102868261023d565b810181811067ffffffffffffffff821117156102a5576102a461024e565b5b80604052505050565b60006102b86101c1565b90506102c4828261027d565b919050565b600067ffffffffffffffff8211156102e4576102e361024e565b5b6102ed8261023d565b9050602081019050919050565b82818337600083830152505050565b600061031c610317846102c9565b6102ae565b90508281526020810184848401111561033857610337610238565b5b6103438482856102fa565b509392505050565b600082601f8301126103605761035f610233565b5b8135610370848260208601610309565b91505092915050565b600080604083850312156103905761038f6101cb565b5b600061039e8582860161021e565b925050602083013567ffffffffffffffff8111156103bf576103be6101d0565b5b6103cb8582860161034b565b9150509250929050565b600081519050919050565b600081905092915050565b60005b838110156104095780820151818401526020810190506103ee565b60008484015250505050565b6000610420826103d5565b61042a81856103e0565b935061043a8185602086016103eb565b80840191505092915050565b60006104528284610415565b915081905092915050565b600082825260208201905092915050565b7f4572726f7220696e20657865637574696f6e0000000000000000000000000000600082015250565b60006104a460128361045d565b91506104af8261046e565b602082019050919050565b600060208201905081810360008301526104d381610497565b9050919050565b600067ffffffffffffffff8211156104f5576104f461024e565b5b6104fe8261023d565b9050602081019050919050565b600061051e610519846104da565b6102ae565b90508281526020810184848401111561053a57610539610238565b5b6105458482856103eb565b509392505050565b600082601f83011261056257610561610233565b5b815161057284826020860161050b565b91505092915050565b600060208284031215610591576105906101cb565b5b600082015167ffffffffffffffff8111156105af576105ae6101d0565b5b6105bb8482850161054d565b91505092915050565b600081519050919050565b60006105da826105c4565b6105e4818561045d565b93506105f48185602086016103eb565b6105fd8161023d565b840191505092915050565b6000602082019050818103600083015261062281846105cf565b90509291505056fea2646970667358221220f021a3c7ffa32b8601f43ff60324daa1b621d4cd4922370c7fad91f6e1bd88e064736f6c63430008180033",
  "linkReferences": {},
  "deployedLinkReferences": {}
}